
AVRASM ver. 2.1.52  bf.asm Wed Aug 24 19:47:45 2016

bf.asm(5): Including file '../../avr8\preamble.inc'
../../avr8\preamble.inc(2): Including file '../../avr8\macros.asm'
../../avr8\macros.asm(6): Including file '../../avr8\user.inc'
../../avr8\preamble.inc(6): Including file '../../avr8/devices/atmega169\device.asm'
../../avr8/devices/atmega169\device.asm(6): Including file '../../avr8/Atmel/Appnotes2\m169def.inc'
bf.asm(8): Including file '../../avr8\drivers/usart.asm'
../../avr8\drivers/usart.asm(30): Including file '../../avr8\drivers/usart_common.asm'
../../avr8\drivers/usart_common.asm(5): Including file '../../avr8\drivers/usart-rx-buffer.asm'
../../avr8\drivers/usart_common.asm(6): Including file '../../avr8\drivers/usart-isr-rx.asm'
../../avr8\drivers/usart_common.asm(19): Including file '../../avr8\words/usart-tx-poll.asm'
../../avr8\drivers/usart_common.asm(24): Including file '../../avr8\words/ubrr.asm'
../../avr8\drivers/usart_common.asm(25): Including file '../../avr8\words/usart.asm'
bf.asm(10): Including file '../../avr8\amforth.asm'
../../avr8\amforth.asm(12): Including file '../../avr8\drivers/generic-isr.asm'
../../avr8\amforth.asm(14): Including file '../../avr8\dict/rww.inc'
../../avr8\dict/rww.inc(1): Including file '../../avr8\words/mplus.asm'
../../avr8\dict/rww.inc(2): Including file '../../common\words/ud-star.asm'
../../avr8\dict/rww.inc(3): Including file '../../common\words/umax.asm'
../../avr8\dict/rww.inc(4): Including file '../../common\words/umin.asm'
../../avr8\dict/rww.inc(5): Including file '../../avr8\words/immediate-q.asm'
../../avr8\dict/rww.inc(6): Including file '../../avr8\words/name2flags.asm'
../../avr8\dict/rww.inc(13): Including file '../../avr8\dict/appl_2k.inc'
../../avr8\dict/appl_2k.inc(1): Including file '../../avr8\words/d-2star.asm'
../../avr8\dict/appl_2k.inc(2): Including file '../../avr8\words/d-2slash.asm'
../../avr8\dict/appl_2k.inc(3): Including file '../../avr8\words/d-plus.asm'
../../avr8\dict/appl_2k.inc(4): Including file '../../avr8\words/d-minus.asm'
../../avr8\dict/appl_2k.inc(5): Including file '../../avr8\words/d-invert.asm'
../../avr8\dict/appl_2k.inc(6): Including file '../../common\words/u-dot.asm'
../../avr8\dict/appl_2k.inc(7): Including file '../../common\words/u-dot-r.asm'
../../avr8\dict/appl_2k.inc(9): Including file '../../common\words/show-wordlist.asm'
../../avr8\dict/appl_2k.inc(10): Including file '../../common\words/words.asm'
../../avr8\dict/appl_2k.inc(11): Including file '../../avr8\dict/interrupt.inc'
../../avr8\dict/interrupt.inc(2): Including file '../../avr8\words/int-on.asm'
../../avr8\dict/interrupt.inc(3): Including file '../../avr8\words/int-off.asm'
../../avr8\dict/interrupt.inc(4): Including file '../../avr8\words/int-store.asm'
../../avr8\dict/interrupt.inc(5): Including file '../../avr8\words/int-fetch.asm'
../../avr8\dict/interrupt.inc(6): Including file '../../avr8\words/int-trap.asm'
../../avr8\dict/interrupt.inc(8): Including file '../../avr8\words/isr-exec.asm'
../../avr8\dict/interrupt.inc(9): Including file '../../avr8\words/isr-end.asm'
../../avr8\dict/appl_2k.inc(13): Including file '../../common\words/pick.asm'
../../avr8\dict/appl_2k.inc(14): Including file '../../common\words/dot-quote.asm'
../../avr8\dict/appl_2k.inc(15): Including file '../../common\words/squote.asm'
../../avr8\dict/appl_2k.inc(17): Including file '../../avr8\words/fill.asm'
../../avr8\dict/appl_2k.inc(18): Including file '../../avr8\dict/compiler1.inc'
../../avr8\dict/compiler1.inc(2): Including file '../../avr8\words/newest.asm'
../../avr8\dict/compiler1.inc(3): Including file '../../avr8\words/latest.asm'
../../avr8\dict/compiler1.inc(4): Including file '../../common\words/do-create.asm'
../../avr8\dict/compiler1.inc(5): Including file '../../common\words/backslash.asm'
../../avr8\dict/compiler1.inc(6): Including file '../../common\words/l-paren.asm'
../../avr8\dict/compiler1.inc(8): Including file '../../common\words/compile.asm'
../../avr8\dict/compiler1.inc(9): Including file '../../avr8\words/comma.asm'
../../avr8\dict/compiler1.inc(10): Including file '../../common\words/brackettick.asm'
../../avr8\dict/compiler1.inc(13): Including file '../../common\words/literal.asm'
../../avr8\dict/compiler1.inc(14): Including file '../../common\words/sliteral.asm'
../../avr8\dict/compiler1.inc(15): Including file '../../avr8\words/g-mark.asm'
../../avr8\dict/compiler1.inc(16): Including file '../../avr8\words/g-resolve.asm'
../../avr8\dict/compiler1.inc(17): Including file '../../avr8\words/l_mark.asm'
../../avr8\dict/compiler1.inc(18): Including file '../../avr8\words/l_resolve.asm'
../../avr8\dict/compiler1.inc(20): Including file '../../common\words/ahead.asm'
../../avr8\dict/compiler1.inc(21): Including file '../../common\words/if.asm'
../../avr8\dict/compiler1.inc(22): Including file '../../common\words/else.asm'
../../avr8\dict/compiler1.inc(23): Including file '../../common\words/then.asm'
../../avr8\dict/compiler1.inc(24): Including file '../../common\words/begin.asm'
../../avr8\dict/compiler1.inc(25): Including file '../../common\words/while.asm'
../../avr8\dict/compiler1.inc(26): Including file '../../common\words/repeat.asm'
../../avr8\dict/compiler1.inc(27): Including file '../../common\words/until.asm'
../../avr8\dict/compiler1.inc(28): Including file '../../common\words/again.asm'
../../avr8\dict/compiler1.inc(29): Including file '../../common\words/do.asm'
../../avr8\dict/compiler1.inc(30): Including file '../../common\words/loop.asm'
../../avr8\dict/compiler1.inc(31): Including file '../../common\words/plusloop.asm'
../../avr8\dict/compiler1.inc(32): Including file '../../common\words/leave.asm'
../../avr8\dict/compiler1.inc(33): Including file '../../common\words/qdo.asm'
../../avr8\dict/compiler1.inc(34): Including file '../../common\words/endloop.asm'
../../avr8\dict/compiler1.inc(36): Including file '../../common\words/l-from.asm'
../../avr8\dict/compiler1.inc(37): Including file '../../common\words/to-l.asm'
../../avr8\dict/compiler1.inc(38): Including file '../../avr8\words/lp0.asm'
../../avr8\dict/compiler1.inc(39): Including file '../../avr8\words/lp.asm'
../../avr8\dict/compiler1.inc(41): Including file '../../common\words/create.asm'
../../avr8\dict/compiler1.inc(42): Including file '../../avr8\words/header.asm'
../../avr8\dict/compiler1.inc(43): Including file '../../avr8\words/wlscope.asm'
../../avr8\dict/compiler1.inc(44): Including file '../../common\words/reveal.asm'
../../avr8\dict/compiler1.inc(45): Including file '../../avr8\words/does.asm'
../../avr8\dict/compiler1.inc(46): Including file '../../common\words/colon.asm'
../../avr8\dict/compiler1.inc(47): Including file '../../avr8\words/colon-noname.asm'
../../avr8\dict/compiler1.inc(48): Including file '../../common\words/semicolon.asm'
../../avr8\dict/compiler1.inc(49): Including file '../../common\words/right-bracket.asm'
../../avr8\dict/compiler1.inc(50): Including file '../../common\words/left-bracket.asm'
../../avr8\dict/compiler1.inc(51): Including file '../../common\words/variable.asm'
../../avr8\dict/compiler1.inc(52): Including file '../../common\words/constant.asm'
../../avr8\dict/compiler1.inc(53): Including file '../../avr8\words/user.asm'
../../avr8\dict/compiler1.inc(55): Including file '../../common\words/recurse.asm'
../../avr8\dict/compiler1.inc(56): Including file '../../avr8\words/immediate.asm'
../../avr8\dict/compiler1.inc(58): Including file '../../common\words/bracketchar.asm'
../../avr8\dict/compiler1.inc(59): Including file '../../common\words/abort-string.asm'
../../avr8\dict/compiler1.inc(60): Including file '../../common\words/abort.asm'
../../avr8\dict/compiler1.inc(61): Including file '../../common\words/q-abort.asm'
../../avr8\dict/compiler1.inc(63): Including file '../../common\words/get-stack.asm'
../../avr8\dict/compiler1.inc(64): Including file '../../common\words/set-stack.asm'
../../avr8\dict/compiler1.inc(65): Including file '../../common\words/map-stack.asm'
../../avr8\dict/compiler1.inc(66): Including file '../../avr8\words/get-current.asm'
../../avr8\dict/compiler1.inc(67): Including file '../../common\words/get-order.asm'
../../avr8\dict/compiler1.inc(68): Including file '../../common\words/cfg-order.asm'
../../avr8\dict/compiler1.inc(69): Including file '../../avr8\words/compare.asm'
../../avr8\dict/compiler1.inc(70): Including file '../../avr8\words/nfa2lfa.asm'
../../avr8\dict/appl_2k.inc(20): Including file '../../avr8\words/environment.asm'
../../avr8\dict/appl_2k.inc(21): Including file '../../avr8\words/env-wordlists.asm'
../../avr8\dict/appl_2k.inc(22): Including file '../../avr8\words/env-slashpad.asm'
../../avr8\dict/appl_2k.inc(23): Including file '../../common\words/env-slashhold.asm'
../../avr8\dict/appl_2k.inc(24): Including file '../../common\words/env-forthname.asm'
../../avr8\dict/appl_2k.inc(25): Including file '../../common\words/env-forthversion.asm'
../../avr8\dict/appl_2k.inc(26): Including file '../../common\words/env-cpu.asm'
../../avr8\dict/appl_2k.inc(27): Including file '../../avr8\words/env-mcuinfo.asm'
../../avr8\dict/appl_2k.inc(28): Including file '../../common\words/env-usersize.asm'
../../avr8\dict/appl_2k.inc(30): Including file '../../common\words/f_cpu.asm'
../../avr8\dict/appl_2k.inc(31): Including file '../../avr8\words/state.asm'
../../avr8\dict/appl_2k.inc(32): Including file '../../common\words/base.asm'
../../avr8\dict/appl_2k.inc(34): Including file '../../avr8\words/cells.asm'
../../avr8\dict/appl_2k.inc(35): Including file '../../avr8\words/cellplus.asm'
../../avr8\dict/appl_2k.inc(37): Including file '../../common\words/2dup.asm'
../../avr8\dict/appl_2k.inc(38): Including file '../../common\words/2drop.asm'
../../avr8\dict/appl_2k.inc(40): Including file '../../common\words/tuck.asm'
../../avr8\dict/appl_2k.inc(42): Including file '../../common\words/to-in.asm'
../../avr8\dict/appl_2k.inc(43): Including file '../../common\words/pad.asm'
../../avr8\dict/appl_2k.inc(44): Including file '../../common\words/emit.asm'
../../avr8\dict/appl_2k.inc(45): Including file '../../common\words/emitq.asm'
../../avr8\dict/appl_2k.inc(46): Including file '../../common\words/key.asm'
../../avr8\dict/appl_2k.inc(47): Including file '../../common\words/keyq.asm'
../../avr8\dict/appl_2k.inc(49): Including file '../../avr8\words/dp.asm'
../../avr8\dict/appl_2k.inc(50): Including file '../../avr8\words/ehere.asm'
../../avr8\dict/appl_2k.inc(51): Including file '../../avr8\words/here.asm'
../../avr8\dict/appl_2k.inc(52): Including file '../../avr8\words/allot.asm'
../../avr8\dict/appl_2k.inc(54): Including file '../../common\words/bin.asm'
../../avr8\dict/appl_2k.inc(55): Including file '../../common\words/decimal.asm'
../../avr8\dict/appl_2k.inc(56): Including file '../../common\words/hex.asm'
../../avr8\dict/appl_2k.inc(57): Including file '../../common\words/bl.asm'
../../avr8\dict/appl_2k.inc(59): Including file '../../avr8\words/turnkey.asm'
../../avr8\dict/appl_2k.inc(61): Including file '../../avr8\words/slashmod.asm'
../../avr8\dict/appl_2k.inc(62): Including file '../../avr8\words/uslashmod.asm'
../../avr8\dict/appl_2k.inc(63): Including file '../../avr8\words/negate.asm'
../../avr8\dict/appl_2k.inc(64): Including file '../../common\words/slash.asm'
../../avr8\dict/appl_2k.inc(65): Including file '../../common\words/mod.asm'
../../avr8\dict/appl_2k.inc(66): Including file '../../common\words/abs.asm'
../../avr8\dict/appl_2k.inc(67): Including file '../../common\words/min.asm'
../../avr8\dict/appl_2k.inc(68): Including file '../../common\words/max.asm'
../../avr8\dict/appl_2k.inc(69): Including file '../../common\words/within.asm'
../../avr8\dict/appl_2k.inc(71): Including file '../../common\words/to-upper.asm'
../../avr8\dict/appl_2k.inc(72): Including file '../../common\words/to-lower.asm'
../../avr8\dict/appl_2k.inc(74): Including file '../../avr8\words/hld.asm'
../../avr8\dict/appl_2k.inc(75): Including file '../../common\words/hold.asm'
../../avr8\dict/appl_2k.inc(76): Including file '../../common\words/less-sharp.asm'
../../avr8\dict/appl_2k.inc(77): Including file '../../common\words/sharp.asm'
../../avr8\dict/appl_2k.inc(78): Including file '../../common\words/sharp-s.asm'
../../avr8\dict/appl_2k.inc(79): Including file '../../common\words/sharp-greater.asm'
../../avr8\dict/appl_2k.inc(80): Including file '../../common\words/sign.asm'
../../avr8\dict/appl_2k.inc(81): Including file '../../common\words/d-dot-r.asm'
../../avr8\dict/appl_2k.inc(82): Including file '../../common\words/dot-r.asm'
../../avr8\dict/appl_2k.inc(83): Including file '../../common\words/d-dot.asm'
../../avr8\dict/appl_2k.inc(84): Including file '../../common\words/dot.asm'
../../avr8\dict/appl_2k.inc(85): Including file '../../common\words/ud-dot.asm'
../../avr8\dict/appl_2k.inc(86): Including file '../../common\words/ud-dot-r.asm'
../../avr8\dict/appl_2k.inc(87): Including file '../../common\words/ud-slash-mod.asm'
../../avr8\dict/appl_2k.inc(88): Including file '../../common\words/digit-q.asm'
../../avr8\dict/appl_2k.inc(90): Including file '../../avr8\words/do-sliteral.asm'
../../avr8\dict/appl_2k.inc(91): Including file '../../avr8\words/scomma.asm'
../../avr8\dict/appl_2k.inc(92): Including file '../../avr8\words/itype.asm'
../../avr8\dict/appl_2k.inc(93): Including file '../../avr8\words/icount.asm'
../../avr8\dict/appl_2k.inc(94): Including file '../../common\words/cr.asm'
../../avr8\dict/appl_2k.inc(95): Including file '../../common\words/space.asm'
../../avr8\dict/appl_2k.inc(96): Including file '../../common\words/spaces.asm'
../../avr8\dict/appl_2k.inc(97): Including file '../../common\words/type.asm'
../../avr8\dict/appl_2k.inc(98): Including file '../../common\words/tick.asm'
../../avr8\dict/appl_2k.inc(100): Including file '../../common\words/handler.asm'
../../avr8\dict/appl_2k.inc(101): Including file '../../common\words/catch.asm'
../../avr8\dict/appl_2k.inc(102): Including file '../../common\words/throw.asm'
../../avr8\dict/appl_2k.inc(104): Including file '../../common\words/cskip.asm'
../../avr8\dict/appl_2k.inc(105): Including file '../../common\words/cscan.asm'
../../avr8\dict/appl_2k.inc(106): Including file '../../common\words/accept.asm'
../../avr8\dict/appl_2k.inc(107): Including file '../../common\words/refill.asm'
../../avr8\dict/appl_2k.inc(108): Including file '../../common\words/char.asm'
../../avr8\dict/appl_2k.inc(109): Including file '../../common\words/number.asm'
../../avr8\dict/appl_2k.inc(110): Including file '../../common\words/q-sign.asm'
../../avr8\dict/appl_2k.inc(111): Including file '../../common\words/set-base.asm'
../../avr8\dict/appl_2k.inc(112): Including file '../../common\words/to-number.asm'
../../avr8\dict/appl_2k.inc(113): Including file '../../common\words/parse.asm'
../../avr8\dict/appl_2k.inc(114): Including file '../../common\words/source.asm'
../../avr8\dict/appl_2k.inc(115): Including file '../../common\words/slash-string.asm'
../../avr8\dict/appl_2k.inc(116): Including file '../../common\words/parse-name.asm'
../../avr8\dict/appl_2k.inc(117): Including file '../../common\words/find-xt.asm'
../../avr8\dict/appl_2k.inc(119): Including file '../../common\words/quit.asm'
../../avr8\dict/appl_2k.inc(120): Including file '../../common\words/prompt-ok.asm'
../../avr8\dict/appl_2k.inc(121): Including file '../../common\words/prompt-ready.asm'
../../avr8\dict/appl_2k.inc(122): Including file '../../common\words/prompt-error.asm'
../../avr8\dict/appl_2k.inc(123): Including file '../../avr8\words/pause.asm'
../../avr8\dict/appl_2k.inc(124): Including file '../../avr8\words/cold.asm'
../../avr8\dict/appl_2k.inc(125): Including file '../../common\words/warm.asm'
../../avr8\dict/appl_2k.inc(127): Including file '../../avr8\words/sp0.asm'
../../avr8\dict/appl_2k.inc(128): Including file '../../avr8\words/rp0.asm'
../../avr8\dict/appl_2k.inc(129): Including file '../../common\words/depth.asm'
../../avr8\dict/appl_2k.inc(130): Including file '../../common\words/do-recognizer.asm'
../../avr8\dict/appl_2k.inc(131): Including file '../../avr8\words/forth-recognizer.asm'
../../avr8\dict/appl_2k.inc(132): Including file '../../common\words/interpret.asm'
../../avr8\dict/appl_2k.inc(133): Including file '../../common\words/r-intnumber.asm'
../../avr8\dict/appl_2k.inc(134): Including file '../../common\words/r-word.asm'
../../avr8\dict/appl_2k.inc(135): Including file '../../common\words/r-fail.asm'
../../avr8\dict/appl_2k.inc(137): Including file '../../common\words/q-stack.asm'
../../avr8\dict/appl_2k.inc(138): Including file '../../common\words/ver.asm'
../../avr8\dict/appl_2k.inc(140): Including file '../../common\words/noop.asm'
../../avr8\dict/appl_2k.inc(141): Including file '../../avr8\words/unused.asm'
../../avr8\dict/appl_2k.inc(143): Including file '../../common\words/to.asm'
../../avr8\dict/appl_2k.inc(144): Including file '../../avr8\words/i-cellplus.asm'
../../avr8\dict/appl_2k.inc(146): Including file '../../avr8\words/edefer-fetch.asm'
../../avr8\dict/appl_2k.inc(147): Including file '../../avr8\words/edefer-store.asm'
../../avr8\dict/appl_2k.inc(148): Including file '../../common\words/rdefer-fetch.asm'
../../avr8\dict/appl_2k.inc(149): Including file '../../common\words/rdefer-store.asm'
../../avr8\dict/appl_2k.inc(150): Including file '../../common\words/udefer-fetch.asm'
../../avr8\dict/appl_2k.inc(151): Including file '../../common\words/udefer-store.asm'
../../avr8\dict/appl_2k.inc(152): Including file '../../common\words/defer-store.asm'
../../avr8\dict/appl_2k.inc(153): Including file '../../common\words/defer-fetch.asm'
../../avr8\dict/appl_2k.inc(154): Including file '../../avr8\words/do-defer.asm'
../../avr8\dict/appl_2k.inc(156): Including file '../../common\words/search-wordlist.asm'
../../avr8\dict/appl_2k.inc(157): Including file '../../common\words/traverse-wordlist.asm'
../../avr8\dict/appl_2k.inc(158): Including file '../../common\words/name2string.asm'
../../avr8\dict/appl_2k.inc(159): Including file '../../avr8\words/nfa2cfa.asm'
../../avr8\dict/appl_2k.inc(160): Including file '../../avr8\words/icompare.asm'
../../avr8\dict/appl_2k.inc(162): Including file '../../common\words/star.asm'
../../avr8\dict/appl_2k.inc(163): Including file '../../avr8\words/j.asm'
../../avr8\dict/appl_2k.inc(165): Including file '../../avr8\words/dabs.asm'
../../avr8\dict/appl_2k.inc(166): Including file '../../avr8\words/dnegate.asm'
../../avr8\dict/appl_2k.inc(167): Including file '../../avr8\words/cmove.asm'
../../avr8\dict/appl_2k.inc(168): Including file '../../common\words/2swap.asm'
../../avr8\dict/appl_2k.inc(170): Including file '../../common\words/tib.asm'
../../avr8\dict/appl_2k.inc(172): Including file '../../avr8\words/init-ram.asm'
../../avr8\dict/appl_2k.inc(173): Including file '../../common\words/bounds.asm'
../../avr8\dict/appl_2k.inc(174): Including file '../../common\words/s-to-d.asm'
../../avr8\dict/appl_2k.inc(175): Including file '../../avr8\words/to-body.asm'
../../avr8\amforth.asm(15): Including file 'dict_appl.inc'
dict_appl.inc(5): Including file 'words/applturnkey.asm'
../../avr8\amforth.asm(23): Including file '../../avr8\amforth-interpreter.asm'
../../avr8\amforth.asm(24): Including file '../../avr8\dict/nrww.inc'
../../avr8\dict/nrww.inc(4): Including file '../../avr8\words/exit.asm'
../../avr8\dict/nrww.inc(5): Including file '../../avr8\words/execute.asm'
../../avr8\dict/nrww.inc(6): Including file '../../avr8\words/dobranch.asm'
../../avr8\dict/nrww.inc(7): Including file '../../avr8\words/docondbranch.asm'
../../avr8\dict/nrww.inc(10): Including file '../../avr8\words/doliteral.asm'
../../avr8\dict/nrww.inc(11): Including file '../../avr8\words/dovariable.asm'
../../avr8\dict/nrww.inc(12): Including file '../../avr8\words/doconstant.asm'
../../avr8\dict/nrww.inc(13): Including file '../../avr8\words/douser.asm'
../../avr8\dict/nrww.inc(14): Including file '../../avr8\words/do-value.asm'
../../avr8\dict/nrww.inc(15): Including file '../../avr8\words/fetch.asm'
../../avr8\dict/nrww.inc(16): Including file '../../avr8\words/store.asm'
../../avr8\dict/nrww.inc(17): Including file '../../avr8\words/cstore.asm'
../../avr8\dict/nrww.inc(18): Including file '../../avr8\words/cfetch.asm'
../../avr8\dict/nrww.inc(19): Including file '../../avr8\words/fetch-u.asm'
../../avr8\dict/nrww.inc(20): Including file '../../avr8\words/store-u.asm'
../../avr8\dict/nrww.inc(23): Including file '../../avr8\words/dup.asm'
../../avr8\dict/nrww.inc(24): Including file '../../avr8\words/qdup.asm'
../../avr8\dict/nrww.inc(25): Including file '../../avr8\words/swap.asm'
../../avr8\dict/nrww.inc(26): Including file '../../avr8\words/over.asm'
../../avr8\dict/nrww.inc(27): Including file '../../avr8\words/drop.asm'
../../avr8\dict/nrww.inc(28): Including file '../../avr8\words/rot.asm'
../../avr8\dict/nrww.inc(29): Including file '../../avr8\words/nip.asm'
../../avr8\dict/nrww.inc(31): Including file '../../avr8\words/r_from.asm'
../../avr8\dict/nrww.inc(32): Including file '../../avr8\words/to_r.asm'
../../avr8\dict/nrww.inc(33): Including file '../../avr8\words/r_fetch.asm'
../../avr8\dict/nrww.inc(36): Including file '../../common\words/not-equal.asm'
../../avr8\dict/nrww.inc(37): Including file '../../avr8\words/equalzero.asm'
../../avr8\dict/nrww.inc(38): Including file '../../avr8\words/lesszero.asm'
../../avr8\dict/nrww.inc(39): Including file '../../avr8\words/greaterzero.asm'
../../avr8\dict/nrww.inc(40): Including file '../../avr8\words/d-greaterzero.asm'
../../avr8\dict/nrww.inc(41): Including file '../../avr8\words/d-lesszero.asm'
../../avr8\dict/nrww.inc(43): Including file '../../avr8\words/true.asm'
../../avr8\dict/nrww.inc(44): Including file '../../avr8\words/zero.asm'
../../avr8\dict/nrww.inc(45): Including file '../../avr8\words/uless.asm'
../../avr8\dict/nrww.inc(46): Including file '../../common\words/u-greater.asm'
../../avr8\dict/nrww.inc(47): Including file '../../avr8\words/less.asm'
../../avr8\dict/nrww.inc(48): Including file '../../avr8\words/greater.asm'
../../avr8\dict/nrww.inc(50): Including file '../../avr8\words/log2.asm'
../../avr8\dict/nrww.inc(51): Including file '../../avr8\words/minus.asm'
../../avr8\dict/nrww.inc(52): Including file '../../avr8\words/plus.asm'
../../avr8\dict/nrww.inc(53): Including file '../../avr8\words/mstar.asm'
../../avr8\dict/nrww.inc(54): Including file '../../avr8\words/umslashmod.asm'
../../avr8\dict/nrww.inc(55): Including file '../../avr8\words/umstar.asm'
../../avr8\dict/nrww.inc(57): Including file '../../avr8\words/invert.asm'
../../avr8\dict/nrww.inc(58): Including file '../../avr8\words/2slash.asm'
../../avr8\dict/nrww.inc(59): Including file '../../avr8\words/2star.asm'
../../avr8\dict/nrww.inc(60): Including file '../../avr8\words/and.asm'
../../avr8\dict/nrww.inc(61): Including file '../../avr8\words/or.asm'
../../avr8\dict/nrww.inc(62): Including file '../../avr8\words/xor.asm'
../../avr8\dict/nrww.inc(64): Including file '../../avr8\words/1plus.asm'
../../avr8\dict/nrww.inc(65): Including file '../../avr8\words/1minus.asm'
../../avr8\dict/nrww.inc(66): Including file '../../common\words/q-negate.asm'
../../avr8\dict/nrww.inc(67): Including file '../../avr8\words/lshift.asm'
../../avr8\dict/nrww.inc(68): Including file '../../avr8\words/rshift.asm'
../../avr8\dict/nrww.inc(69): Including file '../../avr8\words/plusstore.asm'
../../avr8\dict/nrww.inc(71): Including file '../../avr8\words/rpfetch.asm'
../../avr8\dict/nrww.inc(72): Including file '../../avr8\words/rpstore.asm'
../../avr8\dict/nrww.inc(73): Including file '../../avr8\words/spfetch.asm'
../../avr8\dict/nrww.inc(74): Including file '../../avr8\words/spstore.asm'
../../avr8\dict/nrww.inc(76): Including file '../../avr8\words/dodo.asm'
../../avr8\dict/nrww.inc(77): Including file '../../avr8\words/i.asm'
../../avr8\dict/nrww.inc(78): Including file '../../avr8\words/doplusloop.asm'
../../avr8\dict/nrww.inc(79): Including file '../../avr8\words/doloop.asm'
../../avr8\dict/nrww.inc(80): Including file '../../avr8\words/unloop.asm'
../../avr8\dict/nrww.inc(84): Including file '../../avr8\words/cmove_g.asm'
../../avr8\dict/nrww.inc(85): Including file '../../avr8\words/byteswap.asm'
../../avr8\dict/nrww.inc(86): Including file '../../avr8\words/up.asm'
../../avr8\dict/nrww.inc(87): Including file '../../avr8\words/1ms.asm'
../../avr8\dict/nrww.inc(88): Including file '../../avr8\words/2to_r.asm'
../../avr8\dict/nrww.inc(89): Including file '../../avr8\words/2r_from.asm'
../../avr8\dict/nrww.inc(91): Including file '../../avr8\words/store-e.asm'
../../avr8\dict/nrww.inc(92): Including file '../../avr8\words/fetch-e.asm'
../../avr8\dict/nrww.inc(93): Including file '../../avr8\words/store-i.asm'
../../avr8\dict/nrww.inc(97): Including file '../../avr8\words/store-i_nrww.asm'
../../avr8\dict/nrww.inc(99): Including file '../../avr8\words/fetch-i.asm'
../../avr8\dict/nrww.inc(106): Including file '../../avr8\dict/core_2k.inc'
../../avr8\dict/nrww.inc(112): Including file '../../common\words/2literal.asm'
../../avr8\dict/nrww.inc(113): Including file '../../avr8\words/equal.asm'
../../avr8\dict/nrww.inc(114): Including file '../../common\words/num-constants.asm'
../../avr8\amforth.asm(25): Including file 'dict_appl_core.inc'
../../avr8\amforth.asm(36): Including file '../../avr8\amforth-eeprom.inc'
                 
                 
                 ; file see ../template/template.asm. You may want to
                 ; copy that file to this one and edit it afterwards.
                 
                 .include "preamble.inc"
                 
                 .include "macros.asm"
                 
                 .set DICT_COMPILER2 = 0 ;
                 .set cpu_msp430 = 0
                 .set cpu_avr8   = 1
                 
                 .include "user.inc"
                 
                 ; 
                 
                 ; used by the multitasker
                 .set USER_STATE    = 0
                 .set USER_FOLLOWER = 2
                 
                 ; stackpointer, used by mulitasker
                 .set USER_RP      = 4
                 .set USER_SP0     = 6
                 .set USER_SP      = 8
                 
                 ; excpection handling
                 .set USER_HANDLER = 10
                 
                 ; numeric IO
                 .set USER_BASE  = 12
                 
                 ; character IO 
                 .set USER_EMIT  = 14
                 .set USER_EMITQ = 16
                 .set USER_KEY   = 18
                 .set USER_KEYQ  = 20
                 
                 .set USER_SOURCE  = 22
                 .set USER_TO_IN   = 24
                 .set USER_REFILL  = 26
                 
                 .set USER_P_OK    = 28
                 .set USER_P_ERR   = 30
                 .set USER_P_RDY   = 32
                 
                 .set SYSUSERSIZE = 34
                 ; 
                 
                   .def zerol = r2
                   .def zeroh = r3
                   .def upl = r4
                   .def uph = r5
                 
                   .def al  = r6
                   .def ah  = r7
                   .def bl  = r8
                   .def bh  = r9
                 
                 ; internal
                   .def mcu_boot      = r10
                   .def erase_counter = r11
                 
                   .def temp4 = r14
                   .def temp5 = r15
                 
                   .def temp0 = r16
                   .def temp1 = r17
                   .def temp2 = r18
                   .def temp3 = r19
                 
                   .def temp6 = r20
                   .def temp7 = r21
                 
                   .def tosl = r24
                   .def tosh = r25
                 
                   .def wl = r22
                   .def wh = r23
                 
                 .macro loadtos
                     ld tosl, Y+
                     ld tosh, Y+
                 .endmacro
                 
                 .macro savetos
                     st -Y, tosh
                     st -Y, tosl
                 .endmacro
                 
                 .macro in_
                 .if (@1 < $40)
                   in @0,@1
                 .else
                   lds @0,@1
                 .endif
                 .endmacro
                 
                 .macro out_
                 .if (@0 < $40)
                   out @0,@1
                 .else
                   sts @0,@1
                 .endif
                 .endmacro
                 
                 .macro sbi_
                 .if (@0 < $40)
                   sbi @0,@1
                 .else
                   in_ @2,@0
                   ori @2,exp2(@1)
                   out_ @0,@2
                 .endif
                 .endmacro
                 
                 .macro cbi_
                 .if (@0 < $40)
                   cbi @0,@1
                 .else
                   in_ @2,@0
                   andi @2,~(exp2(@1))
                   out_ @0,@2
                 .endif
                 .endmacro
                 
                 .macro jmp_
                 	; a more flexible macro
                     .ifdef @0
                     .if (@0-pc > 2040) || (pc-@0>2040)
                 	jmp @0
                 	.else
                 	rjmp @0
                 	.endif
                 	.else
                 	jmp @0
                 	.endif
                 .endmacro
                 .macro call_
                 	; a more flexible macro
                     .ifdef @0
                     .if (@0-pc > 2040) || (pc-@0>2040)
                 	call @0
                 	.else
                 	rcall @0
                 	.endif
                 	.else
                 	call @0
                 	.endif
                 .endmacro
                 
                 ;               F_CPU
                 ;    µsec   16000000   14745600    8000000  1000000
                 ;    1            16      14,74          8        1
                 ;    10          160     147,45         80       10
                 ;    100        1600    1474,56        800      100
                 ;    1000      16000   14745,6        8000     1000
                 ;
                 ; cycles = µsec * f_cpu / 1e6
                 ; n_loops=cycles/5
                 ;
                 ;     cycles already used will be subtracted from the delay
                 ;     the waittime resolution is 1 cycle (delay from exact to +1 cycle)
                 ;     the maximum delay at 20MHz (50ns/clock) is 38350ns
                 ;     waitcount register must specify an immediate register
                 ;
                 ; busy waits a specfied amount of microseconds
                 .macro   delay
                       .set cycles = ( ( @0 * F_CPU ) / 1000000 )
                       .if (cycles > ( 256 * 255 * 4 + 2))
                         .error "MACRO delay - too many cycles to burn"
                       .else
                         .if (cycles > 6)
                           .set  loop_cycles = (cycles / 4)      
                           ldi   zl,low(loop_cycles)
                           ldi   zh,high(loop_cycles)
                           sbiw  Z, 1
                           brne  pc-1
                           .set  cycles = (cycles - (loop_cycles * 4))
                         .endif
                         .if (cycles > 0)
                           .if   (cycles & 4)
                             rjmp  pc+1
                             rjmp  pc+1
                           .endif
                           .if   (cycles & 2)
                             rjmp  pc+1
                           .endif
                           .if   (cycles & 1)
                             nop
                           .endif
                         .endif
                       .endif
                 .endmacro
                 
                 ; portability macros, they come from the msp430 branches
                 
                 .macro DEST
                     .dw @0
                 .endm
                 
                 ; controller specific file selected via include
                 ; directory definition when calling the assembler (-I)
                 .include "device.asm"
                 
                 ; Built using part description XML file version 300
                 ; generated automatically, do not edit
                 
                 .list
                 
                 .equ ramstart =  $100
                 .equ CELLSIZE = 2
                 .macro readflashcell
                 	lsl zl
                 	rol zh
                 	lpm @0, Z+
                 	lpm @1, Z+
                 .endmacro
                 .macro writeflashcell
                 	lsl zl
                 	rol zh
                 .endmacro
                 
                 ; the following definitions are shortcuts for the respective forth source segments if set to 1
                 .set WANT_AD_CONVERTER = 0
                 .set WANT_ANALOG_COMPARATOR = 0
                 .set WANT_BOOT_LOAD = 0
                 .set WANT_CPU = 0
                 .set WANT_EEPROM = 0
                 .set WANT_EXTERNAL_INTERRUPT = 0
                 .set WANT_JTAG = 0
                 .set WANT_LCD = 0
                 .set WANT_PORTA = 0
                 .set WANT_PORTB = 0
                 .set WANT_PORTC = 0
                 .set WANT_PORTD = 0
                 .set WANT_PORTE = 0
                 .set WANT_PORTF = 0
                 .set WANT_PORTG = 0
                 .set WANT_SPI = 0
                 .set WANT_TIMER_COUNTER_0 = 0
                 .set WANT_TIMER_COUNTER_1 = 0
                 .set WANT_TIMER_COUNTER_2 = 0
                 .set WANT_USART0 = 0
                 .set WANT_USI = 0
                 .set WANT_WATCHDOG = 0
                 
                 
                 .ifndef SPMEN
                 .endif
                 
                 .ifndef SPMCSR
                 .endif
                 
                 .ifndef EEPE
                  .equ EEPE = EEWE
                 .endif
                 
                 .ifndef EEMPE
                  .equ EEMPE = EEMWE
                 .endif
                 .equ intvecsize = 2 ; please verify; flash size: 16384 bytes
                 .equ pclen = 2 ; please verify
                 .overlap
                 .equ INTVECTORS = 23
                 .org $002
000002 d0c1      	 rcall isr ; External Interrupt Request 0
                 .org $004
000004 d0bf      	 rcall isr ; Pin Change Interrupt Request 0
                 .org $006
000006 d0bd      	 rcall isr ; Pin Change Interrupt Request 1
                 .org $008
000008 d0bb      	 rcall isr ; Timer/Counter2 Compare Match
                 .org $00A
00000a d0b9      	 rcall isr ; Timer/Counter2 Overflow
                 .org $00C
00000c d0b7      	 rcall isr ; Timer/Counter1 Capture Event
                 .org $00E
00000e d0b5      	 rcall isr ; Timer/Counter1 Compare Match A
                 .org $010
000010 d0b3      	 rcall isr ; Timer/Counter Compare Match B
                 .org $012
000012 d0b1      	 rcall isr ; Timer/Counter1 Overflow
                 .org $014
000014 d0af      	 rcall isr ; Timer/Counter0 Compare Match
                 .org $016
000016 d0ad      	 rcall isr ; Timer/Counter0 Overflow
                 .org $018
000018 d0ab      	 rcall isr ; SPI Serial Transfer Complete
                 .org $01A
00001a d0a9      	 rcall isr ; USART0, Rx Complete
                 .org $01C
00001c d0a7      	 rcall isr ; USART0 Data register Empty
                 .org $01E
00001e d0a5      	 rcall isr ; USART0, Tx Complete
                 .org $020
000020 d0a3      	 rcall isr ; USI Start Condition
                 .org $022
000022 d0a1      	 rcall isr ; USI Overflow
                 .org $024
000024 d09f      	 rcall isr ; Analog Comparator
                 .org $026
000026 d09d      	 rcall isr ; ADC Conversion Complete
                 .org $028
000028 d09b      	 rcall isr ; EEPROM Ready
                 .org $02A
00002a d099      	 rcall isr ; Store Program Memory Read
                 .org $02C
00002c d097      	 rcall isr ; LCD Start of Frame
                 .nooverlap
                 mcu_info:
                 mcu_ramsize:
00002d 0400      	.dw 1024
                 mcu_eepromsize:
00002e 0200      	.dw 512
                 mcu_maxdp:
00002f 1c00      	.dw 7168 ; minimum of 0x1C00 (from XML) and 0xffff
                 mcu_numints:
000030 0017      	.dw 23
                 mcu_name:
000031 0009      	.dw  9
000032 5441
000033 656d
000034 6167
000035 3631
000036 0039      	.db "ATmega169",0
                 .set codestart=pc
                 
                 ; some defaults, change them in your application master file
                 ; see template.asm for an example
                 
                 .set AMFORTH_RO_SEG = NRWW_START_ADDR
                 
                 ; receiving is asynchron, so an interrupt queue is useful.
                 .set WANT_ISR_RX = 1
                 
                 ; case insensitve dictionary lookup.
                 .set WANT_IGNORECASE = 0
                 
                 ; map all memories to one address space. Details in the
                 ; technical guide
                 .set WANT_UNIFIED = 0
                 
                 ; terminal input buffer
                 .set TIB_SIZE  = 90    ; ANS94 needs at least 80 characters per line
                 
                 ; USER variables *in addition* to system ones
                 .set APPUSERSIZE = 10  ; size of application specific user area in bytes
                 
                 ; addresses of various data segments
                 .set rstackstart = RAMEND      ; start address of return stack, grows downward
                 .set stackstart  = RAMEND - 80 ; start address of data stack, grows downward
                 ; change only if you know what to you do
                 .set NUMWORDLISTS = 8 ; number of word lists in the searh order, at least 8
                 .set NUMRECOGNIZERS = 4 ; total number of recognizers, two are always used.
                 
                 ; 10 per mille (1 per cent) is ok.
                 .set BAUD = 38400
                 .set BAUD_MAXERROR = 10
                 
                 ; Dictionary setup
                 .set VE_HEAD = $0000
                 .set VE_ENVHEAD = $0000
                 
                 
                 .equ F_CPU = 8000000
                 .include "drivers/usart.asm"
                 
                 .equ BAUDRATE_LOW = UBRRL+$20
                 .equ BAUDRATE_HIGH = UBRRH+$20
                 .equ USART_C = UCSRC+$20
                 .equ USART_B = UCSRB+$20
                 .equ USART_A = UCSRA+$20
                 .equ USART_DATA = UDR+$20
                 .equ bm_USARTC_en   = 1 << 7
                 
                 ; some generic constants
                 .equ bm_USART_RXRD = 1 << RXC
                 .equ bm_USART_TXRD = 1 << UDRE
                 .equ bm_ENABLE_TX  = 1 << TXEN
                 .equ bm_ENABLE_RX  = 1 << RXEN
                 .equ bm_ENABLE_INT_RX = 1<<RXCIE
                 .equ bm_ENABLE_INT_TX = 1<<UDRE
                 
                 .equ bm_ASYNC       = 0 << 6
                 .equ bm_SYNC        = 1 << 6
                 .equ bm_NO_PARITY   = 0 << 4
                 .equ bm_EVEN_PARITY = 2 << 4
                 .equ bm_ODD_PARITY  = 3 << 4
                 .equ bm_1STOPBIT    = 0 << 3
                 .equ bm_2STOPBIT    = 1 << 3
                 .equ bm_5BIT        = 0 << 1
                 .equ bm_6BIT        = 1 << 1
                 .equ bm_7BIT        = 2 << 1
                 .equ bm_8BIT        = 3 << 1
                 
                 .include "drivers/usart_common.asm"
                 
                 .set USART_C_VALUE = bm_ASYNC | bm_NO_PARITY | bm_1STOPBIT | bm_8BIT
                 .if WANT_ISR_RX == 1
                   .set USART_B_VALUE = bm_ENABLE_TX | bm_ENABLE_RX | bm_ENABLE_INT_RX
                   .include "drivers/usart-rx-buffer.asm"
                 
                 
                 ; sizes have to be powers of 2!
                 .equ usart_rx_size = $10
                 .equ usart_rx_mask = usart_rx_size - 1
                 .dseg
000100           usart_rx_data: .byte usart_rx_size+2
000112           usart_rx_in: .byte 1
000113                        .byte 1
000114           usart_rx_out: .byte 1
000115                         .byte 1
                 
                 .cseg
                 
                 ;;;;;;;;;;;;;;;;;;;;;;;;;;;;;;;;;;;
                 ; forth code:
                 ; : usart-rx-buffer USART_DATA c@
                 ;    dup 3 = if cold then
                 ;    usart_rx_data usart_rx_in c@ dup >r
                 ;    + !
                 ;    r> 1+ usart_rx_mask and usart_rx_in c!
                 ; ;
                 usart_rx_buffer:
000037 9100 00e6   lds temp0, USART_DATA
                   ; optional: check for certain character(s) (e.g. CTRL-C)
                   ; and trigger a soft interrupt instead of storing the
                   ; charater into the input queue.
000039 3003        cpi temp0, 3
00003a f411        brne usart_rx_store
00003b 940c 0000   jmp 0
                 usart_rx_store:
00003d 9110 0112   lds temp1, usart_rx_in
00003f e0e0        ldi zl, low(usart_rx_data)
000040 e0f1        ldi zh, high(usart_rx_data)
000041 0fe1        add zl, temp1
000042 1df3        adc zh, zeroh
000043 8300        st Z, temp0
                 
000044 9513        inc temp1
000045 701f        andi temp1,usart_rx_mask
                 
000046 9310 0112   sts usart_rx_in, temp1
                 
                 usart_rx_finish:
000048 9508        ret
                 
                 ; ( -- ) Hardware Access
                 ; R( --)
                 ; initialize usart
                 ;VE_USART_INIT_RXBUFFER:
                 ;  .dw $ff0x
                 ;  .db "+usart-buffer"
                 ;  .dw VE_HEAD
                 ;  .set VE_HEAD = VE_USART_INIT_RXBUFFER
                 XT_USART_INIT_RX_BUFFER:
000049 1c00        .dw DO_COLON
                 PFA_USART_INIT_RX_BUFFER:          ; ( -- )
00004a 1c37
00004b 0080        .dw XT_DOLITERAL, XT_ISR_RX
00004c 1c37
00004d 001a        .dw XT_DOLITERAL, URXCaddr
00004e 01af        .dw XT_INTSTORE
                 
00004f 1c37        .dw XT_DOLITERAL
000050 0100        .dw usart_rx_data
000051 1c37        .dw XT_DOLITERAL
000052 0016        .dw usart_rx_size + 6
000053 1d4e        .dw XT_ZERO
000054 0201        .dw XT_FILL
000055 1c1a        .dw XT_EXIT
                 
                 ; ( -- c)
                 ; MCU
                 ; get 1 character from input queue, wait if needed using interrupt driver
                 VE_RX_BUFFER:
000056 ff06          .dw $ff06
000057 7872
000058 622d
000059 6675          .db "rx-buf"
00005a 0000          .dw VE_HEAD
                     .set VE_HEAD = VE_RX_BUFFER
                 XT_RX_BUFFER:
00005b 1c00          .dw DO_COLON
                 PFA_RX_BUFFER:
00005c 0076        .dw XT_RXQ_BUFFER
00005d 1c30        .dw XT_DOCONDBRANCH
00005e 005c        .dw PFA_RX_BUFFER
00005f 1c37        .dw XT_DOLITERAL
000060 0114        .dw usart_rx_out
000061 1c92        .dw XT_CFETCH
000062 1cab        .dw XT_DUP
000063 1c37        .dw XT_DOLITERAL
000064 0100        .dw usart_rx_data
000065 1d97        .dw XT_PLUS
000066 1c92        .dw XT_CFETCH
000067 1cbe        .dw XT_SWAP
000068 1e29        .dw XT_1PLUS
000069 1c37        .dw XT_DOLITERAL
00006a 000f        .dw usart_rx_mask
00006b 1e0d        .dw XT_AND
00006c 1c37        .dw XT_DOLITERAL
00006d 0114        .dw usart_rx_out
00006e 1c87        .dw XT_CSTORE
00006f 1c1a        .dw XT_EXIT
                 
                 ; ( -- f)  
                 ; MCU
                 ; check if unread characters are in the input queue using interrupt driver
                 VE_RXQ_BUFFER:
000070 ff07          .dw $ff07
000071 7872
000072 2d3f
000073 7562
000074 0066          .db "rx?-buf",0
000075 0056          .dw VE_HEAD
                     .set VE_HEAD = VE_RXQ_BUFFER
                 XT_RXQ_BUFFER:
000076 1c00          .dw DO_COLON
                 PFA_RXQ_BUFFER:
000077 0a75        .dw XT_PAUSE
000078 1c37        .dw XT_DOLITERAL
000079 0114        .dw usart_rx_out
00007a 1c92        .dw XT_CFETCH
00007b 1c37        .dw XT_DOLITERAL
00007c 0112        .dw usart_rx_in
00007d 1c92        .dw XT_CFETCH
00007e 1d0d        .dw XT_NOTEQUAL
00007f 1c1a        .dw XT_EXIT
                   .include "drivers/usart-isr-rx.asm"
                 
                 
                 ;;;;;;;;;;;;;;;;;;;;;;;;;;;;;;;;;;;
                 ; forth code:
                 ; : rx-isr usart-rx-buffer ;
                 ;
                 ; setup with
                 ; ' rx-isr URXCaddr int!
                 
                 XT_ISR_RX:
000080 0081          .dw usart_rx_isr
                 usart_rx_isr:
000081 dfb5        call_ usart_rx_buffer
000082 940c 1c04   jmp_ DO_NEXT
                 ;  .include "drivers/timer-usart-isr.asm"
                   .set XT_RX  = XT_RX_BUFFER
                   .set XT_RXQ = XT_RXQ_BUFFER
                   .set XT_USART_INIT_RX = XT_USART_INIT_RX_BUFFER
                 .else
                 .endif
                 
                 .include "words/usart-tx-poll.asm"
                 
                 ; MCU
                 ; check availability and send one character to the terminal using register poll
                 VE_TX_POLL:
000084 ff07          .dw $ff07
000085 7874
000086 702d
000087 6c6f
000088 006c          .db "tx-poll",0
000089 0070          .dw VE_HEAD
                     .set VE_HEAD = VE_TX_POLL
                 XT_TX_POLL:
00008a 1c00          .dw DO_COLON
                 PFA_TX_POLL:
                   ; wait for data ready
00008b 0098        .dw XT_TXQ_POLL
00008c 1c30        .dw XT_DOCONDBRANCH
00008d 008b        .dw PFA_TX_POLL
                   ; send to usart
00008e 1c37        .dw XT_DOLITERAL
00008f 00e6        .dw USART_DATA
000090 1c87        .dw XT_CSTORE
000091 1c1a        .dw XT_EXIT
                 
                 ; ( -- f) MCU
                 ; MCU
                 ; check if a character can be send using register poll
                 VE_TXQ_POLL:
000092 ff08          .dw $ff08
000093 7874
000094 2d3f
000095 6f70
000096 6c6c          .db "tx?-poll"
000097 0084          .dw VE_HEAD
                     .set VE_HEAD = VE_TXQ_POLL
                 XT_TXQ_POLL:
000098 1c00          .dw DO_COLON
                 PFA_TXQ_POLL:
000099 0a75        .dw XT_PAUSE
00009a 1c37        .dw XT_DOLITERAL
00009b 00e0        .dw USART_A
00009c 1c92        .dw XT_CFETCH
00009d 1c37        .dw XT_DOLITERAL
00009e 0020        .dw bm_USART_TXRD
00009f 1e0d        .dw XT_AND
0000a0 1c1a        .dw XT_EXIT
                 .set XT_TX  = XT_TX_POLL
                 .set XT_TXQ = XT_TXQ_POLL
                 .set XT_USART_INIT_TX = 0
                 
                 .include "words/ubrr.asm"
                 
                 ; MCU
                 ; returns usart UBRR settings
                 VE_UBRR:
0000a1 ff04        .dw $ff04
0000a2 6275
0000a3 7272        .db "ubrr"
0000a4 0092        .dw VE_HEAD
                   .set VE_HEAD = VE_UBRR
                 XT_UBRR:
0000a5 1c69        .dw PFA_DOVALUE1
                 PFA_UBRR:          ; ( -- )
0000a6 0086        .dw EE_UBRRVAL
0000a7 0bd7        .dw XT_EDEFERFETCH
0000a8 0be1        .dw XT_EDEFERSTORE
                 .include "words/usart.asm"
                 
                 ; MCU
                 ; initialize usart
                 VE_USART:
0000a9 ff06        .dw $ff06
0000aa 752b
0000ab 6173
0000ac 7472        .db "+usart"
0000ad 00a1        .dw VE_HEAD
                   .set VE_HEAD = VE_USART
                 XT_USART:
0000ae 1c00        .dw DO_COLON
                 PFA_USART:          ; ( -- )
                 
0000af 1c37        .dw XT_DOLITERAL
0000b0 0098        .dw USART_B_VALUE
0000b1 1c37        .dw XT_DOLITERAL
0000b2 00e1        .dw USART_B
0000b3 1c87        .dw XT_CSTORE
                 
0000b4 1c37        .dw XT_DOLITERAL
0000b5 0006        .dw USART_C_VALUE
0000b6 1c37        .dw XT_DOLITERAL
0000b7 00e2        .dw USART_C | bm_USARTC_en
0000b8 1c87        .dw XT_CSTORE
                 
0000b9 00a5        .dw XT_UBRR
0000ba 1cab        .dw XT_DUP
0000bb 1ef3        .dw XT_BYTESWAP
0000bc 1c37        .dw XT_DOLITERAL
0000bd 00e5        .dw BAUDRATE_HIGH
0000be 1c87        .dw XT_CSTORE
0000bf 1c37        .dw XT_DOLITERAL
0000c0 00e4        .dw BAUDRATE_LOW
0000c1 1c87        .dw XT_CSTORE
                 .if XT_USART_INIT_RX!=0
0000c2 0049        .dw XT_USART_INIT_RX
                 .endif
                 .if XT_USART_INIT_TX!=0
                 .endif
                 
0000c3 1c1a        .dw XT_EXIT
                 
                 .include "amforth.asm"
                 
                 ;;;;
                 ;;;; GPL V2 (only)
                 
                 .set AMFORTH_NRWW_SIZE=(FLASHEND-AMFORTH_RO_SEG)*2
                 
                 .set corepc = pc
                 .org $0000
000000 940c 0a7e   jmp_ PFA_COLD
                 
                 .org corepc
                 .include "drivers/generic-isr.asm"
                 
                 .dseg
000116           intcur: .byte 1
                 .eseg
000000           intvec: .byte INTVECTORS * CELLSIZE
                 .cseg
                 
                 ; interrupt routine gets called (again) by rcall! This gives the
                 ; address of the int-vector on the stack.
                 isr:
0000c4 920a          st -Y, r0
0000c5 b60f          in r0, SREG
0000c6 920a          st -Y, r0
                 .if (pclen==3)
                 .endif
0000c7 900f          pop r0
0000c8 900f          pop r0          ; = intnum * intvectorsize + 1 (address following the rcall)
0000c9 940a          dec r0
                 .if intvecsize == 1 ;
                 .endif
0000ca 9200 0116     sts intcur, r0
0000cc 9009          ld r0, Y+
0000cd be0f          out SREG, r0
0000ce 9009          ld r0, Y+
0000cf 9468          set ; set the interrupt flag for the inner interpreter
0000d0 9508          ret ; returns the interrupt, the rcall stack frame is removed!
                     ; no reti here, see words/isr-end.asm
                 ; lower part of the dictionary
                 .include "dict/rww.inc"
                 
                 
                 ; Arithmetics
                 ; add a number to a double cell
                 VE_MPLUS:
0000d1 ff02          .dw $ff02
0000d2 2b6d          .db "m+"
0000d3 00a9          .dw VE_HEAD
                     .set VE_HEAD = VE_MPLUS
                 XT_MPLUS:
0000d4 1c00          .dw DO_COLON
                 PFA_MPLUS:
0000d5 0d8a          .dw XT_S2D
0000d6 0138          .dw XT_DPLUS
0000d7 1c1a          .dw XT_EXIT
                 .include "words/ud-star.asm"
                 
                 .if cpu_msp430==1
                 .endif
                 
                 .if cpu_avr8==1
                 VE_UDSTAR:
0000d8 ff03          .dw $ff03
0000d9 6475
../../common\words/ud-star.asm(9): warning: .cseg .db misalignment - padding zero byte
0000da 002a          .db "ud*"
0000db 00d1          .dw VE_HEAD
                     .set VE_HEAD = VE_UDSTAR
                 XT_UDSTAR:
0000dc 1c00          .dw DO_COLON
                 PFA_UDSTAR:
                 
                 .endif
                 ;Z UD*      ud1 d2 -- ud3      32*16->32 multiply
                 ;   XT_DUP >R UM* DROP  XT_SWAP R> UM* ROT + ;
                 
0000dd 1cab
0000de 1cf9
0000df 1dda
0000e0 1cd3              .DW XT_DUP,XT_TO_R,XT_UMSTAR,XT_DROP
0000e1 1cbe
0000e2 1cf0
0000e3 1dda
0000e4 1cdb
0000e5 1d97
0000e6 1c1a              .DW XT_SWAP,XT_R_FROM,XT_UMSTAR,XT_ROT,XT_PLUS,XT_EXIT
                 .include "words/umax.asm"
                 
                 .if cpu_msp430==1
                 .endif
                 
                 .if cpu_avr8==1
                 VE_UMAX:
0000e7 ff04          .dw $ff04
0000e8 6d75
0000e9 7861          .db "umax"
0000ea 00d8          .dw VE_HEAD
                     .set VE_HEAD = VE_UMAX
                 XT_UMAX:
0000eb 1c00          .dw DO_COLON
                 PFA_UMAX:
                 .endif
                 
0000ec 0588
0000ed 1d56              .DW XT_2DUP,XT_ULESS
0000ee 1c30      	.dw XT_DOCONDBRANCH
0000ef 00f1      	 DEST(UMAX1)
0000f0 1cbe              .DW XT_SWAP
0000f1 1cd3      UMAX1:  .DW XT_DROP
0000f2 1c1a      	.dw XT_EXIT
                 .include "words/umin.asm"
                 
                 .if cpu_msp430==1
                 .endif
                 
                 .if cpu_avr8==1
                 VE_UMIN:
0000f3 ff04          .dw $ff04
0000f4 6d75
0000f5 6e69          .db "umin"
0000f6 00e7          .dw VE_HEAD
                     .set VE_HEAD = VE_UMIN
                 XT_UMIN:
0000f7 1c00          .dw DO_COLON
                 PFA_UMIN:
                 .endif
0000f8 0588
0000f9 1d61              .DW XT_2DUP,XT_UGREATER
0000fa 1c30      	.dw XT_DOCONDBRANCH
0000fb 00fd      	DEST(UMIN1)
0000fc 1cbe              .DW XT_SWAP
0000fd 1cd3      UMIN1:  .DW XT_DROP
0000fe 1c1a      	.dw XT_EXIT
                 .include "words/immediate-q.asm"
                 
                 ; Tools
                 ; return +1 if immediate, -1 otherwise, flag from name>flags
                 ;VE_IMMEDIATEQ:
                 ;    .dw $ff06
                 ;    .db "immediate?"
                 ;    .dw VE_HEAD
                 ;    .set VE_HEAD = VE_IMMEDIATEQ
                 XT_IMMEDIATEQ:
0000ff 1c00          .dw DO_COLON
                 PFA_IMMEDIATEQ:
000100 1c37          .dw XT_DOLITERAL
000101 8000          .dw $8000
000102 1e0d          .dw XT_AND
000103 1d14          .dw XT_ZEROEQUAL
000104 1c30          .dw XT_DOCONDBRANCH
000105 0108          DEST(IMMEDIATEQ1)
000106 1fe2           .dw XT_ONE
000107 1c1a           .dw XT_EXIT
                 IMMEDIATEQ1:
                     ; not immediate
000108 1d45          .dw XT_TRUE
000109 1c1a          .dw XT_EXIT
                 .include "words/name2flags.asm"
                 
                 ; Tools
                 ; get the flags from a name token
                 VE_NAME2FLAGS:
00010a ff0a          .dw $ff0a
00010b 616e
00010c 656d
00010d 663e
00010e 616c
00010f 7367          .db "name>flags"
000110 00f3          .dw VE_HEAD
                     .set VE_HEAD = VE_NAME2FLAGS
                 XT_NAME2FLAGS:
000111 1c00          .dw DO_COLON
                 PFA_NAME2FLAGS:
000112 1fc6          .dw XT_FETCHI ; skip to link field
000113 1c37          .dw XT_DOLITERAL
000114 ff00          .dw $ff00
000115 1e0d          .dw XT_AND
000116 1c1a          .dw XT_EXIT
                 
                 .if AMFORTH_NRWW_SIZE > 8000
                 .elif AMFORTH_NRWW_SIZE > 4000
                 .elif AMFORTH_NRWW_SIZE > 2000
                 .include "dict/appl_2k.inc"
                 
                 
                 ; Arithmetics
                 ; shift a double cell left
                 VE_D2STAR:
000117 ff03          .dw $ff03
000118 3264
000119 002a          .db "d2*",0
00011a 010a          .dw VE_HEAD
                     .set VE_HEAD = VE_D2STAR
                 XT_D2STAR:
00011b 011c          .dw PFA_D2STAR
                 PFA_D2STAR:
00011c 9109          ld temp0, Y+
00011d 9119          ld temp1, Y+
00011e 0f00          lsl temp0
00011f 1f11          rol temp1
000120 1f88          rol tosl
000121 1f99          rol tosh
000122 931a          st -Y, temp1
000123 930a          st -Y, temp0
000124 940c 1c04     jmp_ DO_NEXT
                 .include "words/d-2slash.asm"
                 
                 ; Arithmetics
                 ; shift a double cell value right
                 VE_D2SLASH:
000126 ff03          .dw $ff03
000127 3264
000128 002f          .db "d2/",0
000129 0117          .dw VE_HEAD
                     .set VE_HEAD = VE_D2SLASH
                 XT_D2SLASH:
00012a 012b          .dw PFA_D2SLASH
                 PFA_D2SLASH:
00012b 9109          ld temp0, Y+
00012c 9119          ld temp1, Y+
00012d 9595          asr tosh
00012e 9587          ror tosl
00012f 9517          ror temp1
000130 9507          ror temp0
000131 931a          st -Y, temp1
000132 930a          st -Y, temp0
000133 940c 1c04     jmp_ DO_NEXT
                 .include "words/d-plus.asm"
                 
                 ; Arithmetics
                 ; add 2 double cell values
                 VE_DPLUS:
000135 ff02          .dw $ff02
000136 2b64          .db "d+"
000137 0126          .dw VE_HEAD
                     .set VE_HEAD = VE_DPLUS
                 XT_DPLUS:
000138 0139          .dw PFA_DPLUS
                 PFA_DPLUS:
000139 9129          ld temp2, Y+
00013a 9139          ld temp3, Y+
                 
00013b 90e9          ld temp4, Y+
00013c 90f9          ld temp5, Y+
00013d 9149          ld temp6, Y+
00013e 9159          ld temp7, Y+
                 
00013f 0f24          add temp2, temp6
000140 1f35          adc temp3, temp7
000141 1d8e          adc tosl, temp4
000142 1d9f          adc tosh, temp5
                     
000143 933a          st -Y, temp3
000144 932a          st -Y, temp2
000145 940c 1c04     jmp_ DO_NEXT
                 .include "words/d-minus.asm"
                 
                 ; Arithmetics
                 ; subtract d2 from d1 
                 VE_DMINUS:
000147 ff02          .dw $ff02
000148 2d64          .db "d-"
000149 0135          .dw VE_HEAD
                     .set VE_HEAD = VE_DMINUS
                 XT_DMINUS:
00014a 014b          .dw PFA_DMINUS
                 PFA_DMINUS:
00014b 9129          ld temp2, Y+
00014c 9139          ld temp3, Y+
                 
00014d 90e9          ld temp4, Y+
00014e 90f9          ld temp5, Y+
00014f 9149          ld temp6, Y+
000150 9159          ld temp7, Y+
                 
000151 1b42          sub temp6, temp2
000152 0b53          sbc temp7, temp3
000153 0ae8          sbc temp4, tosl
000154 0af9          sbc temp5, tosh
                 
000155 935a          st -Y, temp7
000156 934a          st -Y, temp6
000157 01c7          movw tosl, temp4
000158 940c 1c04     jmp_ DO_NEXT
                 .include "words/d-invert.asm"
                 
                 ; Arithmetics
                 ; invert all bits in the double cell value
                 VE_DINVERT:
00015a ff07          .dw $ff07
00015b 6964
00015c 766e
00015d 7265
00015e 0074          .db "dinvert",0
00015f 0147          .dw VE_HEAD
                     .set VE_HEAD = VE_DINVERT
                 XT_DINVERT:
000160 0161          .dw PFA_DINVERT
                 PFA_DINVERT:
000161 9109          ld temp0, Y+
000162 9119          ld temp1, Y+
000163 9580          com tosl
000164 9590          com tosh
000165 9500          com temp0
000166 9510          com temp1
000167 931a          st -Y, temp1
000168 930a          st -Y, temp0
000169 940c 1c04     jmp_ DO_NEXT
                 .include "words/u-dot.asm"
                 
                 ; Numeric IO
                 ; unsigned PNO with single cell numbers
                 
                 .if cpu_msp430==1
                 .endif
                 
                 .if cpu_avr8==1
                 VE_UDOT:
00016b ff02          .dw $ff02
00016c 2e75          .db "u."
00016d 015a          .dw VE_HEAD
                     .set VE_HEAD = VE_UDOT
                 XT_UDOT:
00016e 1c00          .dw DO_COLON
                 PFA_UDOT:
                 .endif
00016f 1d4e          .dw XT_ZERO
000170 074e          .dw XT_UDDOT
000171 1c1a          .dw XT_EXIT
                 ; : u.        ( us -- )    0 ud. ;
                 .include "words/u-dot-r.asm"
                 
                 ; Numeric IO
                 ; unsigned PNO with single cells numbers, right aligned in width w
                 
                 .if cpu_msp430==1
                 .endif
                 
                 .if cpu_avr8==1
                 
                 
                 VE_UDOTR:
000172 ff03          .dw $ff03
000173 2e75
000174 0072          .db "u.r",0
000175 016b          .dw VE_HEAD
                     .set VE_HEAD = VE_UDOTR
                 XT_UDOTR:
000176 1c00          .dw DO_COLON
                 PFA_UDOTR:
                 .endif
000177 1d4e          .dw XT_ZERO
000178 1cbe          .dw XT_SWAP
000179 0757          .dw XT_UDDOTR
00017a 1c1a          .dw XT_EXIT
                 ; : u.r       ( s n -- )   0 swap ud.r ;
                 
                 .include "words/show-wordlist.asm"
                 
                 ; Tools
                 ; prints the name of the words in a wordlist
                 
                 .if cpu_msp430==1
                 .endif
                 
                 .if cpu_avr8==1
                 VE_SHOWWORDLIST:
00017b ff0d          .dw $ff0d
00017c 6873
00017d 776f
00017e 772d
00017f 726f
000180 6c64
000181 7369
000182 0074          .db "show-wordlist",0
000183 0172          .dw VE_HEAD
                     .set VE_HEAD = VE_SHOWWORDLIST
                 XT_SHOWWORDLIST:
000184 1c00          .dw DO_COLON
                 PFA_SHOWWORDLIST:
                 .endif
000185 1c37          .dw XT_DOLITERAL
000186 018a          .dw XT_SHOWWORD
000187 1cbe          .dw XT_SWAP
000188 0c7a          .dw XT_TRAVERSEWORDLIST
000189 1c1a          .dw XT_EXIT
                 
                 .if cpu_msp430==1
                 .endif
                 
                 .if cpu_avr8==1
                 XT_SHOWWORD:
00018a 1c00          .dw DO_COLON
                 PFA_SHOWWORD:
                 .endif
00018b 0c95          .dw XT_NAME2STRING
00018c 07c4          .dw XT_ITYPE
00018d 0806          .dw XT_SPACE         ; ( -- addr n)
00018e 1d45          .dw XT_TRUE
00018f 1c1a          .dw XT_EXIT
                 .include "words/words.asm"
                 
                 ; Tools
                 ; prints a list of all (visible) words in the dictionary
                 
                 .if cpu_msp430==1
                 .endif
                 
                 .if cpu_avr8==1
                 
                 
                 VE_WORDS:
000190 ff05          .dw $ff05
000191 6f77
000192 6472
000193 0073          .db "words",0
000194 017b          .dw VE_HEAD
                     .set VE_HEAD = VE_WORDS
                 XT_WORDS:
000195 1c00          .dw DO_COLON
                 PFA_WORDS:
                 .endif
000196 1c37          .dw XT_DOLITERAL
000197 0046          .dw CFG_ORDERLISTLEN+2
000198 1f59          .dw XT_FETCHE
000199 0184          .dw XT_SHOWWORDLIST
00019a 1c1a          .dw XT_EXIT
                 .include "dict/interrupt.inc"
                 
                 .include "words/int-on.asm"
                 
                 ; Interrupt
                 ; turns on all interrupts
                 VE_INTON:
00019b ff04          .dw $ff04
00019c 692b
00019d 746e          .db "+int"
00019e 0190          .dw VE_HEAD
                     .set VE_HEAD = VE_INTON
                 XT_INTON:
00019f 01a0          .dw PFA_INTON
                 PFA_INTON:
0001a0 9478          sei
0001a1 940c 1c04     jmp_ DO_NEXT
                 .include "words/int-off.asm"
                 
                 ; Interrupt
                 ; turns off all interrupts 
                 VE_INTOFF:
0001a3 ff04          .dw $ff04
0001a4 692d
0001a5 746e          .db "-int"
0001a6 019b          .dw VE_HEAD
                     .set VE_HEAD = VE_INTOFF
                 XT_INTOFF:
0001a7 01a8          .dw PFA_INTOFF
                 PFA_INTOFF:
0001a8 94f8          cli
0001a9 940c 1c04     jmp_ DO_NEXT
                 .include "words/int-store.asm"
                 
                 ; Interrupt
                 ; stores XT as interrupt vector i
                 VE_INTSTORE:
0001ab ff04          .dw $ff04
0001ac 6e69
0001ad 2174          .db "int!"
0001ae 01a3          .dw VE_HEAD
                     .set VE_HEAD = VE_INTSTORE
                 XT_INTSTORE:
0001af 1c00          .dw DO_COLON
                 PFA_INTSTORE:
0001b0 1c37          .dw XT_DOLITERAL
0001b1 0000          .dw intvec
0001b2 1d97          .dw XT_PLUS
0001b3 1f35          .dw XT_STOREE
0001b4 1c1a          .dw XT_EXIT
                 .include "words/int-fetch.asm"
                 
                 ; Interrupt
                 ; fetches XT from interrupt vector i
                 VE_INTFETCH:
0001b5 ff04          .dw $ff04
0001b6 6e69
0001b7 4074          .db "int@"
0001b8 01ab          .dw VE_HEAD
                     .set VE_HEAD = VE_INTFETCH
                 XT_INTFETCH:
0001b9 1c00          .dw DO_COLON
                 PFA_INTFETCH:
0001ba 1c37          .dw XT_DOLITERAL
0001bb 0000          .dw intvec
0001bc 1d97          .dw XT_PLUS
0001bd 1f59          .dw XT_FETCHE
0001be 1c1a          .dw XT_EXIT
                 .include "words/int-trap.asm"
                 
                 ; Interrupt
                 ; trigger an interrupt
                 VE_INTTRAP:
0001bf ff08          .dw $ff08
0001c0 6e69
0001c1 2d74
0001c2 7274
0001c3 7061          .db "int-trap"
0001c4 01b5          .dw VE_HEAD
                     .set VE_HEAD = VE_INTTRAP
                 XT_INTTRAP:
0001c5 01c6          .dw PFA_INTTRAP
                 PFA_INTTRAP:
0001c6 9380 0116     sts intcur, tosl
0001c8 9189
0001c9 9199          loadtos
0001ca 9468          set ; set the interrupt flag for the inner interpreter
0001cb 940c 1c04     jmp_ DO_NEXT
                 
                 .include "words/isr-exec.asm"
                 
                 ; Interrupt
                 ; executes an interrupt service routine
                 ;VE_ISREXEC:
                 ;    .dw $ff08
                 ;    .db "isr-exec"
                 ;    .dw VE_HEAD
                 ;    .set VE_HEAD = VE_ISREXEC
                 XT_ISREXEC:
0001cd 1c00          .dw DO_COLON
                 PFA_ISREXEC:
0001ce 1c37          .dw XT_DOLITERAL
0001cf 0116          .dw intcur
0001d0 1c92          .dw XT_CFETCH
0001d1 1c37          .dw XT_DOLITERAL
0001d2 0000          .dw intvec
0001d3 1d97          .dw XT_PLUS
0001d4 1f59          .dw XT_FETCHE
0001d5 1c24          .dw XT_EXECUTE
0001d6 01d8          .dw XT_ISREND
0001d7 1c1a          .dw XT_EXIT
                 .include "words/isr-end.asm"
                 
                 ; Interrupt
                 ; re-enables interrupts in an ISR
                 ;VE_ISREND:
                 ;    .dw $ff07
                 ;    .db "isr-end",0
                 ;    .dw VE_HEAD
                 ;    .set VE_HEAD = VE_ISREND
                 XT_ISREND:
0001d8 01d9          .dw PFA_ISREND
                 PFA_ISREND:
0001d9 d002          rcall PFA_ISREND1 ; clear the interrupt flag for the controller
0001da 940c 1c04     jmp_ DO_NEXT
                 PFA_ISREND1:
0001dc 9518          reti
                 
                 .include "words/pick.asm"
                 
                 .if cpu_msp430==1
                 .endif
                 
                 .if cpu_avr8==1
                 VE_PICK:
0001dd ff04          .dw $ff04
0001de 6970
0001df 6b63          .db "pick"
0001e0 01bf          .dw VE_HEAD
                     .set VE_HEAD = VE_PICK
                 XT_PICK:
0001e1 1c00          .dw DO_COLON
                 PFA_PICK:
                 .endif
0001e2 1e29          .dw XT_1PLUS
0001e3 057a          .dw XT_CELLS
0001e4 1e87          .dw XT_SP_FETCH
0001e5 1d97          .dw XT_PLUS
0001e6 1c73          .dw XT_FETCH
0001e7 1c1a          .dw XT_EXIT
                 .include "words/dot-quote.asm"
                 
                 ; Compiler
                 ; compiles string into dictionary to be printed at runtime
                 
                 .if cpu_msp430==1
                 .endif
                 
                 .if cpu_avr8==1
                 
                 
                 VE_DOTSTRING:
0001e8 0002          .dw $0002
0001e9 222e          .db ".",$22
0001ea 01dd          .dw VE_HEAD
                     .set VE_HEAD = VE_DOTSTRING
                 XT_DOTSTRING:
0001eb 1c00          .dw DO_COLON
                 PFA_DOTSTRING:
                 .endif
0001ec 01f3          .dw XT_SQUOTE
0001ed 0247          .dw XT_COMPILE
0001ee 07c4          .dw XT_ITYPE
0001ef 1c1a          .dw XT_EXIT
                 .include "words/squote.asm"
                 
                 ; Compiler
                 ; compiles a string to flash, at runtime leaves ( -- flash-addr count) on stack
                 
                 .if cpu_msp430==1
                 .endif
                 
                 .if cpu_avr8==1
                 VE_SQUOTE:
0001f0 0002        .dw $0002
0001f1 2273        .db "s",$22
0001f2 01e8        .dw VE_HEAD
                   .set VE_HEAD = VE_SQUOTE
                 XT_SQUOTE:
0001f3 1c00          .dw DO_COLON
                 PFA_SQUOTE:
                 .endif
0001f4 1c37          .dw XT_DOLITERAL
0001f5 0022          .dw 34   ; 0x22 
0001f6 09ab          .dw XT_PARSE       ; ( -- addr n)
0001f7 056d          .dw XT_STATE
0001f8 1c73          .dw XT_FETCH
0001f9 1c30          .dw XT_DOCONDBRANCH
0001fa 01fc          DEST(PFA_SQUOTE1)
0001fb 0273            .dw XT_SLITERAL
                 PFA_SQUOTE1:
0001fc 1c1a          .dw XT_EXIT
                 
                 .include "words/fill.asm"
                 
                 ; Memory
                 ; fill u bytes memory beginning at a-addr with character c
                 VE_FILL:
0001fd ff04          .dw $ff04
0001fe 6966
0001ff 6c6c          .db "fill"
000200 01f0          .dw VE_HEAD
                     .set VE_HEAD = VE_FILL
                 XT_FILL:
000201 1c00          .dw DO_COLON
                 PFA_FILL:
000202 1cdb          .dw XT_ROT
000203 1cdb          .dw XT_ROT
000204 1cb3
000205 1c30          .dw XT_QDUP,XT_DOCONDBRANCH
000206 020e          DEST(PFA_FILL2)
000207 0d81          .dw XT_BOUNDS
000208 1e95          .dw XT_DODO
                 PFA_FILL1:
000209 1cab          .dw XT_DUP
00020a 1ea6          .dw XT_I
00020b 1c87          .dw XT_CSTORE  ; ( -- c c-addr)
00020c 1ec3          .dw XT_DOLOOP
00020d 0209          .dw PFA_FILL1
                 PFA_FILL2:
00020e 1cd3          .dw XT_DROP
00020f 1c1a          .dw XT_EXIT
                 .include "dict/compiler1.inc"
                 
                 .include "words/newest.asm"
                 
                 ; System Variable
                 ; system state
                 VE_NEWEST:
000210 ff06          .dw $ff06
000211 656e
000212 6577
000213 7473          .db "newest"
000214 01fd          .dw VE_HEAD
                     .set VE_HEAD = VE_NEWEST
                 XT_NEWEST:
000215 1c42          .dw PFA_DOVARIABLE
                 PFA_NEWEST:
000216 0117          .dw ram_newest
                 
                 .dseg
000117           ram_newest: .byte 4
                 .include "words/latest.asm"
                 
                 ; System Variable
                 ; system state
                 VE_LATEST:
000217 ff06          .dw $ff06
000218 616c
000219 6574
00021a 7473          .db "latest"
00021b 0210          .dw VE_HEAD
                     .set VE_HEAD = VE_LATEST
                 XT_LATEST:
00021c 1c42          .dw PFA_DOVARIABLE
                 PFA_LATEST:
00021d 011b          .dw ram_latest
                 
                 .dseg
00011b           ram_latest: .byte 2
                 .include "words/do-create.asm"
                 
                 ; Compiler
                 ; parse the input and create an empty vocabulary entry without XT and data field (PF)
                 
                 .if cpu_msp430==1
                 .endif
                 
                 .if cpu_avr8==1
                 VE_DOCREATE:
00021e ff08          .dw $ff08
00021f 6328
000220 6572
000221 7461
000222 2965          .db "(create)"
000223 0217          .dw VE_HEAD
                     .set VE_HEAD = VE_DOCREATE
                 XT_DOCREATE:
000224 1c00          .dw DO_COLON
                 PFA_DOCREATE:
                 .endif
000225 09d8
000226 037b          .DW XT_PARSENAME,XT_WLSCOPE  ; ( -- addr len wid)
000227 1cab
000228 0215
000229 0580
00022a 1c7b          .DW XT_DUP,XT_NEWEST,XT_CELLPLUS,XT_STORE ; save the wid
00022b 0360
00022c 0215
00022d 1c7b          .DW XT_HEADER,XT_NEWEST,XT_STORE          ; save the nt
00022e 1c1a          .DW XT_EXIT
                 .include "words/backslash.asm"
                 
                 ; Compiler
                 ; everything up to the end of the current line is a comment
                 
                 .if cpu_msp430==1
                 .endif
                 
                 .if cpu_avr8==1
                 VE_BACKSLASH:
00022f 0001          .dw $0001
000230 005c          .db $5c,0
000231 021e          .dw VE_HEAD
                     .set VE_HEAD = VE_BACKSLASH
                 XT_BACKSLASH:
000232 1c00          .dw DO_COLON
                 PFA_BACKSLASH:
                 .endif
000233 09bf          .dw XT_SOURCE
000234 1cea          .dw XT_NIP
000235 05a1          .dw XT_TO_IN
000236 1c7b          .dw XT_STORE
000237 1c1a          .dw XT_EXIT
                 .include "words/l-paren.asm"
                 
                 ; Compiler
                 ; skip everything up to the closing bracket on the same line
                 
                 .if cpu_msp430==1
                 .endif
                 
                 .if cpu_avr8==1
                 VE_LPAREN:
000238 0001          .dw $0001
000239 0028          .db "(" ,0
00023a 022f          .dw VE_HEAD
                     .set VE_HEAD = VE_LPAREN
                 XT_LPAREN:
00023b 1c00          .dw DO_COLON
                 PFA_LPAREN:
                 .endif
00023c 1c37          .dw XT_DOLITERAL
00023d 0029          .dw ')'
00023e 09ab          .dw XT_PARSE
00023f 0591          .dw XT_2DROP
000240 1c1a          .dw XT_EXIT
                 
                 .include "words/compile.asm"
                 
                 ; Dictionary
                 ; read the following cell from the dictionary and append it to the current dictionary position.
                 
                 .if cpu_msp430==1
                 .endif
                 
                 .if cpu_avr8==1
                 VE_COMPILE:
000241 ff07          .dw $ff07
000242 6f63
000243 706d
000244 6c69
000245 0065          .db "compile",0
000246 0238          .dw  VE_HEAD
                     .set VE_HEAD = VE_COMPILE
                 XT_COMPILE:
000247 1c00          .dw DO_COLON
                 PFA_COMPILE:
                 .endif
000248 1cf0          .dw XT_R_FROM
000249 1cab          .dw XT_DUP
00024a 0bce          .dw XT_ICELLPLUS
00024b 1cf9          .dw XT_TO_R
00024c 1fc6          .dw XT_FETCHI
00024d 0252          .dw XT_COMMA
00024e 1c1a          .dw XT_EXIT
                 .include "words/comma.asm"
                 
                 ; Dictionary
                 ; compile 16 bit into flash at DP
                 VE_COMMA:
00024f ff01          .dw $ff01
000250 002c          .db ',',0 ; ,
000251 0241          .dw VE_HEAD
                     .set VE_HEAD = VE_COMMA
                 XT_COMMA:
000252 1c00          .dw DO_COLON
                 PFA_COMMA:
000253 05d1          .dw XT_DP
000254 1f6d          .dw XT_STOREI
000255 05d1          .dw XT_DP
000256 1e29          .dw XT_1PLUS
000257 0bbc          .dw XT_DOTO
000258 05d2          .dw PFA_DP
000259 1c1a          .dw XT_EXIT
                 .include "words/brackettick.asm"
                 
                 ; Compiler
                 ; what ' does in the interpreter mode, do in colon definitions
                 
                 .if cpu_msp430==1
                 .endif
                 
                 .if cpu_avr8==1
                 VE_BRACKETTICK:
00025a 0003          .dw $0003
00025b 275b
00025c 005d          .db "[']",0
00025d 024f          .dw VE_HEAD
                     .set VE_HEAD = VE_BRACKETTICK
                 XT_BRACKETTICK:
00025e 1c00          .dw DO_COLON
                 PFA_BRACKETTICK:
                 .endif
00025f 082e          .dw XT_TICK
000260 0268          .dw XT_LITERAL
000261 1c1a          .dw XT_EXIT
                 
                 
                 .include "words/literal.asm"
                 
                 ; Compiler
                 ; compile a literal in colon defintions
                 
                 .if cpu_msp430==1
                 .endif
                 
                 .if cpu_avr8==1
                 VE_LITERAL:
000262 0007          .dw $0007
000263 696c
000264 6574
000265 6172
000266 006c          .db "literal",0
000267 025a          .dw VE_HEAD
                     .set VE_HEAD = VE_LITERAL
                 XT_LITERAL:
000268 1c00          .dw DO_COLON
                 PFA_LITERAL:
                 .endif
000269 0247              .DW XT_COMPILE
00026a 1c37              .DW XT_DOLITERAL
00026b 0252              .DW XT_COMMA
00026c 1c1a              .DW XT_EXIT
                 .include "words/sliteral.asm"
                 
                 ; String
                 ; compiles a string to flash, at runtime leaves ( -- flash-addr count) on stack
                 
                 .if cpu_msp430==1
                 .endif
                 
                 .if cpu_avr8==1
                 VE_SLITERAL:
00026d 0008        .dw $0008
00026e 6c73
00026f 7469
000270 7265
000271 6c61        .db "sliteral"
000272 0262        .dw VE_HEAD
                   .set VE_HEAD = VE_SLITERAL
                 XT_SLITERAL:
000273 1c00          .dw DO_COLON
                 PFA_SLITERAL:
                 .endif
000274 0247          .dw XT_COMPILE
000275 0791          .dw XT_DOSLITERAL    ; ( -- addr n)
000276 079f          .dw XT_SCOMMA
000277 1c1a          .dw XT_EXIT
                 .include "words/g-mark.asm"
                 
                 ; Compiler
                 ; places current dictionary position for backward resolves
                 ;VE_GMARK:
                 ;    .dw $ff05
                 ;    .db ">mark"
                 ;    .dw VE_HEAD
                 ;    .set VE_HEAD = VE_GMARK
                 XT_GMARK:
000278 1c00          .dw DO_COLON
                 PFA_GMARK:
000279 05d1          .dw XT_DP
00027a 0247          .dw XT_COMPILE
00027b ffff          .dw -1           ; ffff does not erase flash
00027c 1c1a          .dw XT_EXIT
                 .include "words/g-resolve.asm"
                 
                 ; Compiler
                 ; resolve backward jumps
                 ;VE_GRESOLVE:
                 ;    .dw $ff08
                 ;    .db ">resolve"
                 ;    .dw VE_HEAD
                 ;    .set VE_HEAD = VE_GRESOLVE
                 XT_GRESOLVE:
00027d 1c00          .dw DO_COLON
                 PFA_GRESOLVE:
00027e 0b7a          .dw XT_QSTACK
00027f 05d1          .dw XT_DP
000280 1cbe          .dw XT_SWAP
000281 1f6d          .dw XT_STOREI
000282 1c1a          .dw XT_EXIT
                 .include "words/l_mark.asm"
                 
                 ; Compiler
                 ; place destination for backward branch
                 ;VE_LMARK:
                 ;    .dw $ff05
                 ;    .db "<mark"
                 ;    .dw VE_HEAD
                 ;    .set VE_HEAD = VE_LMARK
                 XT_LMARK:
000283 1c00          .dw DO_COLON
                 PFA_LMARK:
000284 05d1          .dw XT_DP
000285 1c1a          .dw XT_EXIT
                 .include "words/l_resolve.asm"
                 
                 ; Compiler
                 ; resolve backward branch
                 ;VE_LRESOLVE:
                 ;    .dw $ff08
                 ;    .db "<resolve"
                 ;    .dw VE_HEAD
                 ;    .set VE_HEAD = VE_LRESOLVE
                 XT_LRESOLVE:
000286 1c00          .dw DO_COLON
                 PFA_LRESOLVE:
000287 0b7a          .dw XT_QSTACK
000288 0252          .dw XT_COMMA
000289 1c1a          .dw XT_EXIT
                 
                 .include "words/ahead.asm"
                 
                 ; Compiler
                 ; do a unconditional branch
                 
                 .if cpu_msp430==1
                 .endif
                 
                 .if cpu_avr8==1
                 VE_AHEAD:
00028a 0005          .dw $0005
00028b 6861
00028c 6165
00028d 0064          .db "ahead",0
00028e 026d          .dw VE_HEAD
                     .set VE_HEAD = VE_AHEAD
                 XT_AHEAD:
00028f 1c00          .dw DO_COLON
                 PFA_AHEAD:
                 .endif
000290 0247          .dw XT_COMPILE
000291 1c29          .dw XT_DOBRANCH
000292 0278          .dw XT_GMARK
000293 1c1a          .dw XT_EXIT
                 .include "words/if.asm"
                 
                 ; Compiler
                 ; start conditional branch
                 
                 .if cpu_msp430==1
                 .endif
                 
                 .if cpu_avr8==1
                 VE_IF:
000294 0002          .dw $0002
000295 6669          .db "if"
000296 028a          .dw VE_HEAD
                     .set VE_HEAD = VE_IF
                 XT_IF:
000297 1c00          .dw DO_COLON
                 PFA_IF:
                 .endif
000298 0247          .dw XT_COMPILE
000299 1c30          .dw XT_DOCONDBRANCH
00029a 0278          .dw XT_GMARK
00029b 1c1a          .dw XT_EXIT
                 .include "words/else.asm"
                 
                 ; Compiler
                 ; resolve the forward reference and place a new unresolved forward reference
                 
                 .if cpu_msp430==1
                 .endif
                 
                 .if cpu_avr8==1
                 VE_ELSE:
00029c 0004          .dw $0004
00029d 6c65
00029e 6573          .db "else"
00029f 0294          .dw VE_HEAD
                     .set VE_HEAD = VE_ELSE
                 XT_ELSE:
0002a0 1c00          .dw DO_COLON
                 PFA_ELSE:
                 .endif
0002a1 0247          .dw XT_COMPILE
0002a2 1c29          .dw XT_DOBRANCH
0002a3 0278          .dw XT_GMARK
0002a4 1cbe          .dw XT_SWAP
0002a5 027d          .dw XT_GRESOLVE
0002a6 1c1a          .dw XT_EXIT
                 .include "words/then.asm"
                 
                 ; Compiler
                 ; finish if
                 
                 .if cpu_msp430==1
                 .endif
                 
                 .if cpu_avr8==1
                 VE_THEN:
0002a7 0004          .dw $0004
0002a8 6874
0002a9 6e65          .db "then"
0002aa 029c          .dw VE_HEAD
                     .set VE_HEAD = VE_THEN
                 XT_THEN:
0002ab 1c00          .dw DO_COLON
                 PFA_THEN:
                 .endif
0002ac 027d          .dw XT_GRESOLVE
0002ad 1c1a          .dw XT_EXIT
                 .include "words/begin.asm"
                 
                 ; Compiler
                 ; put the next location for a transfer of control onto the control flow stack
                 
                 .if cpu_msp430==1
                 .endif
                 
                 .if cpu_avr8==1
                 VE_BEGIN:
0002ae 0005          .dw $0005
0002af 6562
0002b0 6967
0002b1 006e          .db "begin",0
0002b2 02a7          .dw VE_HEAD
                     .set VE_HEAD = VE_BEGIN
                 XT_BEGIN:
0002b3 1c00          .dw DO_COLON
                 PFA_BEGIN:
                 .endif
0002b4 0283          .dw XT_LMARK
0002b5 1c1a          .dw XT_EXIT
                 .include "words/while.asm"
                 
                 ; Compiler
                 ; at runtime skip until repeat if non-true
                 
                 .if cpu_msp430==1
                 .endif
                 
                 .if cpu_avr8==1
                 VE_WHILE:
0002b6 0005          .dw $0005
0002b7 6877
0002b8 6c69
0002b9 0065          .db "while",0
0002ba 02ae          .dw VE_HEAD
                     .set VE_HEAD = VE_WHILE
                 XT_WHILE:
0002bb 1c00          .dw DO_COLON
                 PFA_WHILE:
                 .endif
0002bc 0297          .dw XT_IF
0002bd 1cbe          .dw XT_SWAP
0002be 1c1a          .dw XT_EXIT
                 .include "words/repeat.asm"
                 
                 ; Compiler
                 ; continue execution at dest, resolve orig
                 
                 .if cpu_msp430==1
                 .endif
                 
                 .if cpu_avr8==1
                 VE_REPEAT:
0002bf 0006          .dw $0006
0002c0 6572
0002c1 6570
0002c2 7461          .db "repeat"
0002c3 02b6          .dw VE_HEAD
                     .set VE_HEAD = VE_REPEAT
                 XT_REPEAT:
0002c4 1c00          .dw DO_COLON
                 PFA_REPEAT:
                 .endif
0002c5 02d8          .dw XT_AGAIN
0002c6 02ab          .dw XT_THEN
0002c7 1c1a          .dw XT_EXIT
                 .include "words/until.asm"
                 
                 ; Compiler
                 ; finish begin with conditional branch, leaves the loop if true flag at runtime
                 
                 .if cpu_msp430==1
                 .endif
                 
                 .if cpu_avr8==1
                 VE_UNTIL:
0002c8 0005          .dw $0005
0002c9 6e75
0002ca 6974
0002cb 006c          .db "until",0
0002cc 02bf          .dw VE_HEAD
                     .set VE_HEAD = VE_UNTIL
                 XT_UNTIL:
0002cd 1c00          .dw DO_COLON
                 PFA_UNTIL:
                 .endif
0002ce 1c37          .dw XT_DOLITERAL
0002cf 1c30          .dw XT_DOCONDBRANCH
0002d0 0252          .dw XT_COMMA
                 
0002d1 0286          .dw XT_LRESOLVE
0002d2 1c1a          .dw XT_EXIT
                 .include "words/again.asm"
                 
                 ; Compiler
                 ; compile a jump back to dest
                 
                 .if cpu_msp430==1
                 .endif
                 
                 .if cpu_avr8==1
                 VE_AGAIN:
0002d3 0005          .dw $0005
0002d4 6761
0002d5 6961
0002d6 006e          .db "again",0
0002d7 02c8          .dw VE_HEAD
                     .set VE_HEAD = VE_AGAIN
                 XT_AGAIN:
0002d8 1c00          .dw DO_COLON
                 PFA_AGAIN:
                 .endif
0002d9 0247          .dw XT_COMPILE
0002da 1c29          .dw XT_DOBRANCH
0002db 0286          .dw XT_LRESOLVE
0002dc 1c1a          .dw XT_EXIT
                 .include "words/do.asm"
                 
                 ; Compiler
                 ; start do .. [+]loop
                 
                 .if cpu_msp430==1
                 .endif
                 
                 .if cpu_avr8==1
                 VE_DO:
0002dd 0002          .dw $0002
0002de 6f64          .db "do"
0002df 02d3          .dw VE_HEAD
                     .set VE_HEAD = VE_DO
                 XT_DO:
0002e0 1c00          .dw DO_COLON
                 PFA_DO:
                 
                 .endif
0002e1 0247          .dw XT_COMPILE
0002e2 1e95          .dw XT_DODO
0002e3 0283          .dw XT_LMARK
0002e4 1d4e          .dw XT_ZERO
0002e5 033b          .dw XT_TO_L
0002e6 1c1a          .dw XT_EXIT
                 .include "words/loop.asm"
                 
                 ; Compiler
                 ; compile (loop) and resolve the backward branch
                 
                 .if cpu_msp430==1
                 .endif
                 
                 .if cpu_avr8==1
                 VE_LOOP:
0002e7 0004          .dw $0004
0002e8 6f6c
0002e9 706f          .db "loop"
0002ea 02dd          .dw VE_HEAD
                     .set VE_HEAD = VE_LOOP
                 XT_LOOP:
0002eb 1c00          .dw DO_COLON
                 PFA_LOOP:
                 .endif
0002ec 0247          .dw XT_COMPILE
0002ed 1ec3          .dw XT_DOLOOP
0002ee 0322          .dw XT_ENDLOOP
0002ef 1c1a          .dw XT_EXIT
                 .include "words/plusloop.asm"
                 
                 ; Compiler
                 ; compile (+loop) and resolve branches
                 
                 .if cpu_msp430==1
                 .endif
                 
                 .if cpu_avr8==1
                 VE_PLUSLOOP:
0002f0 0005          .dw $0005
0002f1 6c2b
0002f2 6f6f
0002f3 0070          .db "+loop",0
0002f4 02e7          .dw VE_HEAD
                     .set VE_HEAD = VE_PLUSLOOP
                 XT_PLUSLOOP:
0002f5 1c00          .dw DO_COLON
                 PFA_PLUSLOOP:
                 .endif
0002f6 0247          .dw XT_COMPILE
0002f7 1eb4          .dw XT_DOPLUSLOOP
0002f8 0322          .dw XT_ENDLOOP
0002f9 1c1a          .dw XT_EXIT
                 .include "words/leave.asm"
                 
                 ; Compiler
                 ; immediatly leave the current DO..LOOP
                 
                 .if cpu_msp430==1
                 .endif
                 
                 .if cpu_avr8==1
                 VE_LEAVE:
0002fa 0005         .dw $0005
0002fb 656c
0002fc 7661
0002fd 0065         .db "leave",0
0002fe 02f0         .dw VE_HEAD
                    .set VE_HEAD = VE_LEAVE
                 XT_LEAVE:
0002ff 1c00          .dw DO_COLON
                 PFA_LEAVE:
                 .endif
000300 0247
000301 1ece          .DW XT_COMPILE,XT_UNLOOP
000302 028f
000303 033b
000304 1c1a          .DW XT_AHEAD,XT_TO_L,XT_EXIT
                 .include "words/qdo.asm"
                 
                 ; Compiler
                 ; start a ?do .. [+]loop control structure
                 
                 .if cpu_msp430==1
                 .endif
                 
                 .if cpu_avr8==1
                 
                 VE_QDO:
000305 0003          .dw $0003
000306 643f
000307 006f          .db "?do",0
000308 02fa          .dw VE_HEAD
                     .set VE_HEAD = VE_QDO
                 XT_QDO:
000309 1c00          .dw DO_COLON
                 PFA_QDO:
                 .endif
00030a 0247          .dw XT_COMPILE
00030b 0311          .dw XT_QDOCHECK
00030c 0297          .dw XT_IF
00030d 02e0          .dw XT_DO
00030e 1cbe          .dw XT_SWAP    ; DO sets a 0 marker on the leave stack
00030f 033b          .dw XT_TO_L    ; then follows at the end.
000310 1c1a          .dw XT_EXIT
                 
                 ; there is no special runtime for ?do, the do runtime
                 ; gets wrapped with the sequence
                 ; ... ?do-check if do ..... loop then
                 ; with
                 ; : ?do-check ( n1 n2 -- n1 n2 true | false )
                 ;   2dup = dup >r if 2drop then r> invert ;
                 
                 .if cpu_msp430==1
                 .endif
                 
                 .if cpu_avr8==1
                 XT_QDOCHECK:
000311 1c00          .dw DO_COLON
                 PFA_QDOCHECK:
                 .endif
000312 0588          .dw XT_2DUP
000313 1fdb          .dw XT_EQUAL
000314 1cab          .dw XT_DUP
000315 1cf9          .dw XT_TO_R
000316 1c30          .dw XT_DOCONDBRANCH
000317 0319          DEST(PFA_QDOCHECK1)
000318 0591          .dw XT_2DROP
                 PFA_QDOCHECK1:
000319 1cf0          .dw XT_R_FROM
00031a 1df7          .dw XT_INVERT
00031b 1c1a          .dw XT_EXIT
                 .include "words/endloop.asm"
                 
                 .if cpu_msp430==1
                 .endif
                 
                 .if cpu_avr8==1
                 VE_ENDLOOP:
00031c ff07          .dw $ff07
00031d 6e65
00031e 6c64
00031f 6f6f
000320 0070          .db "endloop",0
000321 0305          .dw VE_HEAD
                     .set VE_HEAD = VE_ENDLOOP
                 XT_ENDLOOP:
000322 1c00          .dw DO_COLON
                 PFA_ENDLOOP:
                 .endif
                 ;Z ENDLOOP   adrs xt --   L: 0 a1 a2 .. aN --
                 ;   <resolve                backward loop
                 ;   BEGIN L> ?DUP WHILE POSTPONE THEN REPEAT ;
                 ;                                 resolve LEAVEs
                 ; This is a common factor of LOOP and +LOOP.
                 
000323 0286              .DW XT_LRESOLVE
000324 032f
000325 1cb3
000326 1c30      LOOP1:  .DW XT_L_FROM,XT_QDUP,XT_DOCONDBRANCH
000327 032b               DEST(LOOP2)
000328 02ab              .DW XT_THEN
000329 1c29      	.dw XT_DOBRANCH
00032a 0324               DEST(LOOP1)
00032b 1c1a      LOOP2:  .DW XT_EXIT
                 ; leave address stack
                 .include "words/l-from.asm"
                 
                 .if cpu_msp430==1
                 .endif
                 
                 .if cpu_avr8==1
                 VE_L_FROM:
00032c ff02          .dw $ff02
00032d 3e6c          .db "l>"
00032e 031c          .dw VE_HEAD
                     .set VE_HEAD = VE_L_FROM
                 XT_L_FROM:
00032f 1c00          .dw DO_COLON
                 PFA_L_FROM:
                 
                 .endif
                 ;Z L>   -- x   L: x --      move from leave stack
                 ;   LP @ @  -2 LP +! ;
                 
000330 034e          .dw XT_LP
000331 1c73          .dw XT_FETCH
000332 1c73          .dw XT_FETCH
000333 1c37          .dw XT_DOLITERAL
000334 fffe          .dw -2
000335 034e          .dw XT_LP
000336 1e5f          .dw XT_PLUSSTORE
000337 1c1a          .dw XT_EXIT
                 .include "words/to-l.asm"
                 
                 .if cpu_msp430==1
                 .endif
                 
                 .if cpu_avr8==1
                 VE_TO_L:
000338 ff02          .dw $ff02
000339 6c3e          .db ">l"
00033a 032c          .dw VE_HEAD
                     .set VE_HEAD = VE_TO_L
                 XT_TO_L:
00033b 1c00          .dw DO_COLON
                 PFA_TO_L:
                 .endif
                 ;Z >L   x --   L: -- x        move to leave stack
                 ;   CELL LP +!  LP @ ! ;      (L stack grows up)
                 
00033c 1fe7              .dw XT_TWO
00033d 034e      	.dw XT_LP
00033e 1e5f      	.dw XT_PLUSSTORE
00033f 034e      	.dw XT_LP
000340 1c73      	.dw XT_FETCH
000341 1c7b      	.dw XT_STORE
000342 1c1a      	.dw XT_EXIT
                 .include "words/lp0.asm"
                 
                 ; Stack
                 ; start address of leave stack
                 VE_LP0:
000343 ff03          .dw $ff03
000344 706c
000345 0030          .db "lp0",0
000346 0338          .dw VE_HEAD
                     .set VE_HEAD = VE_LP0
                 XT_LP0:
000347 1c69          .dw PFA_DOVALUE1
                 PFA_LP0:
000348 003a          .dw CFG_LP0
000349 0bd7          .dw XT_EDEFERFETCH
00034a 0be1          .dw XT_EDEFERSTORE
                 .include "words/lp.asm"
                 
                 ; System Variable
                 ; leave stack pointer
                 VE_LP:
00034b ff02          .dw $ff02
00034c 706c          .db "lp"
00034d 0343          .dw VE_HEAD
                     .set VE_HEAD = VE_LP
                 XT_LP:
00034e 1c42          .dw PFA_DOVARIABLE
                 PFA_LP:
00034f 011d          .dw ram_lp
                 
                 .dseg
00011d           ram_lp: .byte 2
                 .cseg
                 
                 
                 .include "words/create.asm"
                 
                 ; Dictionary
                 ; create a dictionary header. XT is (constant), with the address of the data field of name
                 
                 .if cpu_msp430==1
                 .endif
                 
                 .if cpu_avr8==1
                 VE_CREATE:
000350 ff06          .dw $ff06
000351 7263
000352 6165
000353 6574          .db "create"
000354 034b          .dw VE_HEAD
                     .set VE_HEAD = VE_CREATE
                 XT_CREATE:
000355 1c00          .dw DO_COLON
                 PFA_CREATE:
                 .endif
000356 0224          .dw XT_DOCREATE
000357 0384          .dw XT_REVEAL
000358 0247          .dw XT_COMPILE
000359 1c4c          .dw PFA_DOCONSTANT
00035a 1c1a          .dw XT_EXIT
                 .include "words/header.asm"
                 
                 ; Compiler
                 ; creates the vocabulary header without XT and data field (PF) in the wordlist wid
                 VE_HEADER:
00035b ff06          .dw $ff06
00035c 6568
00035d 6461
00035e 7265          .db "header"
00035f 0350          .dw VE_HEAD
                     .set VE_HEAD = VE_HEADER
                 XT_HEADER:
000360 1c00          .dw DO_COLON
                 PFA_HEADER:
000361 05d1          .dw XT_DP           ; the new Name Field
000362 1cf9          .dw XT_TO_R
000363 1cf9          .dw XT_TO_R		; ( R: NFA WID )
000364 1cab          .dw XT_DUP    
000365 1d22          .dw XT_GREATERZERO 
000366 1c30          .dw XT_DOCONDBRANCH
000367 0372          .dw PFA_HEADER1
000368 1cab          .dw XT_DUP
000369 1c37          .dw XT_DOLITERAL
00036a ff00          .dw $ff00           ; all flags are off (e.g. immediate)
00036b 1e16          .dw XT_OR
00036c 07a3          .dw XT_DOSCOMMA
                     ; make the link to the previous entry in this wordlist
00036d 1cf0          .dw XT_R_FROM
00036e 1f59          .dw XT_FETCHE
00036f 0252          .dw XT_COMMA
000370 1cf0          .dw XT_R_FROM
000371 1c1a          .dw XT_EXIT
                 
                 PFA_HEADER1:
                     ; -16: attempt to use zero length string as a name
000372 1c37          .dw XT_DOLITERAL
000373 fff0          .dw -16
000374 0865          .dw XT_THROW
                 
                 .include "words/wlscope.asm"
                 
                 ; Compiler
                 ; dynamically place a word in a wordlist. The word name may be changed.
                 VE_WLSCOPE:
000375 ff07          .dw $ff07
000376 6c77
000377 6373
000378 706f
000379 0065          .db "wlscope",0
00037a 035b          .dw VE_HEAD
                     .set VE_HEAD = VE_WLSCOPE
                 XT_WLSCOPE:
00037b 0c36          .dw PFA_DODEFER1
                 PFA_WLSCOPE:
00037c 0036          .dw CFG_WLSCOPE
00037d 0bd7          .dw XT_EDEFERFETCH
00037e 0be1          .dw XT_EDEFERSTORE
                 
                 ; wlscope, "wordlist scope" ( addr len -- addr' len' wid ), is a deferred word
                 ; which enables the AmForth application to choose the wordlist ( wid ) for the
                 ; new voc entry based on the input ( addr len ) string. The name of the new voc
                 ; entry ( addr' len' ) may be different from the input string. Note that all
                 ; created voc entry types pass through the wlscope mechanism. The default
                 ; wlscope action passes the input string to the output without modification and
                 ; uses get-current to select the wid.
                 .include "words/reveal.asm"
                 
                 ; Dictionary
                 ; makes an entry in a wordlist visible, if not already done.
                 
                 .if cpu_msp430==1
                 .endif
                 
                 .if cpu_avr8==1
                 VE_REVEAL:
00037f ff06          .dw $ff06
000380 6572
000381 6576
000382 6c61          .db "reveal"
000383 0375          .dw VE_HEAD
                     .set VE_HEAD = VE_REVEAL
                 XT_REVEAL:
000384 1c00          .dw DO_COLON
                 PFA_REVEAL:
                 .endif
000385 0215
000386 0580
000387 1c73          .DW XT_NEWEST,XT_CELLPLUS,XT_FETCH ; only if wordlist is in use
000388 1cb3
000389 1c30          .DW XT_QDUP,XT_DOCONDBRANCH
00038a 038f          DEST(REVEAL1)
00038b 0215
00038c 1c73
00038d 1cbe
00038e 1f35          .DW XT_NEWEST,XT_FETCH,XT_SWAP,XT_STOREE
                 ;    .DW XT_ZERO,XT_NEWEST,XT_CELLPLUS,XT_STORE ; clean wordlist entry
                 REVEAL1:
00038f 1c1a          .DW XT_EXIT
                 .include "words/does.asm"
                 
                 ; Compiler
                 ; organize the XT replacement to call other colon code
                 VE_DOES:
000390 0005          .dw $0005
000391 6f64
000392 7365
000393 003e          .db "does>",0
000394 037f          .dw VE_HEAD
                     .set VE_HEAD = VE_DOES
                 XT_DOES:
000395 1c00          .dw DO_COLON
                 PFA_DOES:
000396 0247          .dw XT_COMPILE
000397 03a8          .dw XT_DODOES
000398 0247          .dw XT_COMPILE  ; create a code snippet to be used in an embedded XT
000399 940e          .dw $940e       ; the address of this compiled
00039a 0247          .dw XT_COMPILE  ; code will replace the XT of the 
00039b 039d          .dw DO_DODOES   ; word that CREATE created
00039c 1c1a          .dw XT_EXIT     ; 
                 
                 DO_DODOES: ; ( -- PFA )
00039d 939a
00039e 938a          savetos
00039f 01cb          movw tosl, wl
0003a0 9601          adiw tosl, 1
                     ; the following takes the address from a real uC-call
                 .if (pclen==3)
                 .endif
0003a1 917f          pop wh
0003a2 916f          pop wl
                 
0003a3 93bf          push XH
0003a4 93af          push XL
0003a5 01db          movw XL, wl
0003a6 940c 1c04     jmp_ DO_NEXT
                 
                 ; ( -- )
                 ; System
                 ; replace the XT written by CREATE to call the code that follows does>
                 ;VE_DODOES:
                 ;   .dw $ff07
                 ;   .db "(does>)"
                 ;   .set VE_HEAD = VE_DODOES
                 XT_DODOES:
0003a8 1c00          .dw DO_COLON
                 PFA_DODOES:
0003a9 1cf0          .dw XT_R_FROM
0003aa 0215          .dw XT_NEWEST
0003ab 0580          .dw XT_CELLPLUS
0003ac 1c73          .dw XT_FETCH
0003ad 1f59          .dw XT_FETCHE
0003ae 0ca1          .dw XT_NFA2CFA
0003af 1f6d          .dw XT_STOREI
0003b0 1c1a          .dw XT_EXIT
                 .include "words/colon.asm"
                 
                 ; Compiler
                 ; create a named entry in the dictionary, XT is DO_COLON
                 
                 .if cpu_msp430==1
                 .endif
                 
                 .if cpu_avr8==1
                 VE_COLON:
0003b1 ff01          .dw $ff01
0003b2 003a          .db ":",0
0003b3 0390          .dw VE_HEAD
                     .set VE_HEAD = VE_COLON
                 XT_COLON:
0003b4 1c00          .dw DO_COLON
                 PFA_COLON:
                 .endif
0003b5 0224          .dw XT_DOCREATE
0003b6 03bf          .dw XT_COLONNONAME
0003b7 1cd3          .dw XT_DROP
0003b8 1c1a          .dw XT_EXIT
                 .include "words/colon-noname.asm"
                 
                 ; Compiler
                 ; create an unnamed entry in the dictionary, XT is DO_COLON
                 VE_COLONNONAME:
0003b9 ff07          .dw $ff07
0003ba 6e3a
0003bb 6e6f
0003bc 6d61
0003bd 0065          .db ":noname",0
0003be 03b1          .dw VE_HEAD
                     .set VE_HEAD = VE_COLONNONAME
                 XT_COLONNONAME:
0003bf 1c00          .dw DO_COLON
                 PFA_COLONNONAME:
0003c0 05d1          .dw XT_DP
0003c1 1cab          .dw XT_DUP
0003c2 021c          .dw XT_LATEST
0003c3 1c7b          .dw XT_STORE
                 
0003c4 0247          .dw XT_COMPILE
0003c5 1c00          .dw DO_COLON
                 
0003c6 03d4          .dw XT_RBRACKET
0003c7 1c1a          .dw XT_EXIT
                 .include "words/semicolon.asm"
                 
                 ; Compiler
                 ; finish colon defintion, compiles (exit) and returns to interpret state 
                 
                 .if cpu_msp430==1
                 .endif
                 
                 .if cpu_avr8==1
                 
                 
                 VE_SEMICOLON:
0003c8 0001          .dw $0001
0003c9 003b          .db $3b,0
0003ca 03b9          .dw VE_HEAD
                     .set VE_HEAD = VE_SEMICOLON
                 XT_SEMICOLON:
0003cb 1c00          .dw DO_COLON
                 PFA_SEMICOLON:
                 .endif
0003cc 0247          .dw XT_COMPILE
0003cd 1c1a          .dw XT_EXIT
0003ce 03dc          .dw XT_LBRACKET
0003cf 0384          .dw XT_REVEAL
0003d0 1c1a          .dw XT_EXIT
                 .include "words/right-bracket.asm"
                 
                 ; Compiler
                 ; enter compiler mode
                 
                 .if cpu_msp430==1
                 .endif
                 
                 .if cpu_avr8==1
                 VE_RBRACKET:
0003d1 ff01          .dw $ff01
0003d2 005d          .db "]",0
0003d3 03c8          .dw VE_HEAD
                     .set VE_HEAD = VE_RBRACKET
                 XT_RBRACKET:
0003d4 1c00          .dw DO_COLON
                 PFA_RBRACKET:
                 .endif
0003d5 1fe2          .dw XT_ONE
0003d6 056d          .dw XT_STATE
0003d7 1c7b          .dw XT_STORE
0003d8 1c1a          .dw XT_EXIT
                 .include "words/left-bracket.asm"
                 
                 ; Compiler
                 ; enter interpreter mode
                 
                 .if cpu_msp430==1
                 .endif
                 
                 .if cpu_avr8==1
                 VE_LBRACKET:
0003d9 0001          .dw $0001
0003da 005b          .db "[",0
0003db 03d1          .dw VE_HEAD
                     .set VE_HEAD = VE_LBRACKET
                 XT_LBRACKET:
0003dc 1c00          .dw DO_COLON
                 PFA_LBRACKET:
                 .endif
0003dd 1d4e          .dw XT_ZERO
0003de 056d          .dw XT_STATE
0003df 1c7b          .dw XT_STORE
0003e0 1c1a          .dw XT_EXIT
                 .include "words/variable.asm"
                 
                 ; Compiler
                 ; create a dictionary entry for a variable and allocate 1 cell RAM
                 
                 .if cpu_msp430==1
                 .endif
                 
                 .if cpu_avr8==1
                 
                 VE_VARIABLE:
0003e1 ff08          .dw $ff08
0003e2 6176
0003e3 6972
0003e4 6261
0003e5 656c          .db "variable"
0003e6 03d9          .dw VE_HEAD
                     .set VE_HEAD = VE_VARIABLE
                 XT_VARIABLE:
0003e7 1c00          .dw DO_COLON
                 PFA_VARIABLE:
                 .endif
0003e8 05e2          .dw XT_HERE
0003e9 03f3          .dw XT_CONSTANT
0003ea 1fe7          .dw XT_TWO
0003eb 05eb          .dw XT_ALLOT
0003ec 1c1a          .dw XT_EXIT
                 .include "words/constant.asm"
                 
                 ; Compiler
                 ; create a constant in the dictionary
                 
                 .if cpu_msp430==1
                 .endif
                 
                 .if cpu_avr8==1
                 
                 VE_CONSTANT:
0003ed ff08          .dw $ff08
0003ee 6f63
0003ef 736e
0003f0 6174
0003f1 746e          .db "constant"
0003f2 03e1          .dw VE_HEAD
                     .set VE_HEAD = VE_CONSTANT
                 XT_CONSTANT:
0003f3 1c00          .dw DO_COLON
                 PFA_CONSTANT:
                 .endif
0003f4 0224          .dw XT_DOCREATE
0003f5 0384          .dw XT_REVEAL
0003f6 0247          .dw XT_COMPILE
0003f7 1c42          .dw PFA_DOVARIABLE
0003f8 0252          .dw XT_COMMA
0003f9 1c1a          .dw XT_EXIT
                 .include "words/user.asm"
                 
                 ; Compiler
                 ; create a dictionary entry for a user variable at offset n
                 VE_USER:
0003fa ff04          .dw $ff04
0003fb 7375
0003fc 7265          .db "user"
0003fd 03ed          .dw VE_HEAD
                     .set VE_HEAD = VE_USER
                 XT_USER:
0003fe 1c00          .dw DO_COLON
                 PFA_USER:
0003ff 0224          .dw XT_DOCREATE
000400 0384          .dw XT_REVEAL
                 
000401 0247          .dw XT_COMPILE
000402 1c52          .dw PFA_DOUSER
000403 0252          .dw XT_COMMA
000404 1c1a          .dw XT_EXIT
                 
                 .include "words/recurse.asm"
                 
                 ; Compiler
                 ; compile the XT of the word currently being defined into the dictionary
                 
                 .if cpu_msp430==1
                 .endif
                 
                 .if cpu_avr8==1
                 VE_RECURSE:
000405 0007          .dw $0007
000406 6572
000407 7563
000408 7372
000409 0065          .db "recurse",0
00040a 03fa          .dw VE_HEAD
                     .set VE_HEAD = VE_RECURSE
                 XT_RECURSE:
00040b 1c00          .dw DO_COLON
                 PFA_RECURSE:
                 .endif
00040c 021c          .dw XT_LATEST
00040d 1c73          .dw XT_FETCH
00040e 0252          .dw XT_COMMA
00040f 1c1a          .dw XT_EXIT
                 .include "words/immediate.asm"
                 
                 ; Compiler
                 ; set immediate flag for the most recent word definition
                 VE_IMMEDIATE:
000410 ff09          .dw $ff09
000411 6d69
000412 656d
000413 6964
000414 7461
000415 0065          .db "immediate",0
000416 0405          .dw VE_HEAD
                     .set VE_HEAD = VE_IMMEDIATE
                 XT_IMMEDIATE:
000417 1c00          .dw DO_COLON
                 PFA_IMMEDIATE:
000418 04b2          .dw XT_GET_CURRENT
000419 1f59          .dw XT_FETCHE
00041a 1cab          .dw XT_DUP
00041b 1fc6          .dw XT_FETCHI
00041c 1c37          .dw XT_DOLITERAL
00041d 7fff          .dw $7fff
00041e 1e0d          .dw XT_AND
00041f 1cbe          .dw XT_SWAP
000420 1f6d          .dw XT_STOREI
000421 1c1a          .dw XT_EXIT
                 
                 .include "words/bracketchar.asm"
                 
                 ; Tools
                 ; skip leading space delimites, place the first character of the word on the stack
                 
                 .if cpu_msp430==1
                 .endif
                 
                 .if cpu_avr8==1
                 VE_BRACKETCHAR:
000422 0006          .dw $0006
000423 635b
000424 6168
000425 5d72          .db "[char]"
000426 0410          .dw VE_HEAD
                     .set VE_HEAD = VE_BRACKETCHAR
                 XT_BRACKETCHAR:
000427 1c00          .dw DO_COLON
                 PFA_BRACKETCHAR:
                 .endif
000428 0247          .dw XT_COMPILE
000429 1c37          .dw XT_DOLITERAL
00042a 090e          .dw XT_CHAR
00042b 0252          .dw XT_COMMA
00042c 1c1a          .dw XT_EXIT
                 .include "words/abort-string.asm"
                 
                 ;C         i*x x1 --       R: j*x --      x1<>0
                 ;   POSTPONE IS" POSTPONE ?ABORT ; IMMEDIATE
                 
                 .if cpu_msp430==1
                 .endif
                 
                 .if cpu_avr8==1
                 VE_ABORTQUOTE:
00042d 0006          .dw $0006
00042e 6261
00042f 726f
000430 2274          .db "abort",'"'
000431 0422          .dw VE_HEAD
                     .set VE_HEAD = VE_ABORTQUOTE
                 XT_ABORTQUOTE:
000432 1c00          .dw DO_COLON
                 PFA_ABORTQUOTE:
                 .endif
000433 01f3          .dw XT_SQUOTE
000434 0247          .dw XT_COMPILE
000435 0444          .dw XT_QABORT
000436 1c1a          .DW XT_EXIT
                 .include "words/abort.asm"
                 
                 ; Exceptions
                 ; send an exception -1
                 .if cpu_msp430==1
                 .endif
                 
                 .if cpu_avr8==1
                 VE_ABORT:
000437 ff05          .dw $ff05
000438 6261
000439 726f
00043a 0074          .db "abort",0
00043b 042d          .dw VE_HEAD
                     .set VE_HEAD = VE_ABORT
                 XT_ABORT:
00043c 1c00          .dw DO_COLON
                 PFA_ABORT:
                 .endif
00043d 1d45          .dw XT_TRUE
00043e 0865          .dw XT_THROW
                 .include "words/q-abort.asm"
                 
                 ;   ROT IF ITYPE ABORT THEN 2DROP ;
                 
                 .if cpu_msp430==1
                 .endif
                 
                 .if cpu_avr8==1
                 VE_QABORT:
00043f ff06          .dw $ff06
000440 613f
000441 6f62
000442 7472          .db "?abort"
000443 0437          .dw VE_HEAD
                     .set VE_HEAD = VE_QABORT
                 XT_QABORT:
000444 1c00          .dw DO_COLON
                 PFA_QABORT:
                 
                 .endif
000445 1cdb
000446 1c30              .DW XT_ROT,XT_DOCONDBRANCH
000447 044a              DEST(QABO1)
000448 07c4
000449 043c              .DW XT_ITYPE,XT_ABORT
00044a 0591
00044b 1c1a      QABO1:  .DW XT_2DROP,XT_EXIT
                 
                 .include "words/get-stack.asm"
                 
                 ; Tools
                 ; Get a stack from EEPROM
                 
                 .if cpu_msp430==1
                 .endif
                 
                 .if cpu_avr8==1
                 VE_GET_STACK:
00044c ff09          .dw $ff09
00044d 6567
00044e 2d74
00044f 7473
000450 6361
000451 006b          .db "get-stack",0
000452 043f          .dw VE_HEAD
                     .set VE_HEAD = VE_GET_STACK
                 XT_GET_STACK:
000453 1c00          .dw DO_COLON
                 .endif
000454 1cab          .dw XT_DUP
000455 0580          .dw XT_CELLPLUS
000456 1cbe          .dw XT_SWAP
000457 1f59          .dw XT_FETCHE
000458 1cab          .dw XT_DUP
000459 1cf9          .dw XT_TO_R
00045a 1d4e          .dw XT_ZERO
00045b 1cbe          .dw XT_SWAP    ; go from bigger to smaller addresses
00045c 0311          .dw XT_QDOCHECK
00045d 1c30          .dw XT_DOCONDBRANCH
00045e 046a          DEST(PFA_N_FETCH_E2)
00045f 1e95          .dw XT_DODO
                 PFA_N_FETCH_E1:
                     ; ( ee-addr )
000460 1ea6          .dw XT_I
000461 1e2f          .dw XT_1MINUS
000462 057a          .dw XT_CELLS ; ( -- ee-addr i*2 )
000463 1cc9          .dw XT_OVER  ; ( -- ee-addr i*2 ee-addr )
000464 1d97          .dw XT_PLUS  ; ( -- ee-addr ee-addr+i
000465 1f59          .dw XT_FETCHE ;( -- ee-addr item_i )
000466 1cbe          .dw XT_SWAP   ;( -- item_i ee-addr )
000467 1d45          .dw XT_TRUE  ; shortcut for -1
000468 1eb4          .dw XT_DOPLUSLOOP
000469 0460          DEST(PFA_N_FETCH_E1)
                 PFA_N_FETCH_E2:
00046a 0591          .dw XT_2DROP
00046b 1cf0          .dw XT_R_FROM
00046c 1c1a          .dw XT_EXIT
                 
                 .include "words/set-stack.asm"
                 
                 ; Tools
                 ; Write a stack to EEPROM
                 .if cpu_msp430==1
                 .endif
                 
                 .if cpu_avr8==1
                 VE_SET_STACK:
00046d ff09          .dw $ff09
00046e 6573
00046f 2d74
000470 7473
000471 6361
000472 006b          .db "set-stack",0
000473 044c          .dw VE_HEAD
                     .set VE_HEAD = VE_SET_STACK
                 XT_SET_STACK:
000474 1c00          .dw DO_COLON
                 PFA_SET_STACK:
                 .endif
000475 0588          .dw XT_2DUP
000476 1f35          .dw XT_STOREE ; ( -- i_n .. i_0 n e-addr )
000477 1cbe          .dw XT_SWAP    
000478 1d4e          .dw XT_ZERO
000479 0311          .dw XT_QDOCHECK
00047a 1c30          .dw XT_DOCONDBRANCH
00047b 0482          DEST(PFA_SET_STACK2)
00047c 1e95          .dw XT_DODO
                 PFA_SET_STACK1:
00047d 0580          .dw XT_CELLPLUS ; ( -- i_x e-addr )
00047e 0599          .dw XT_TUCK      ; ( -- e-addr i_x e-addr
00047f 1f35          .dw XT_STOREE
000480 1ec3          .dw XT_DOLOOP
000481 047d          DEST(PFA_SET_STACK1)
                 PFA_SET_STACK2:
000482 1cd3          .dw XT_DROP
000483 1c1a          .dw XT_EXIT
                 
                 .include "words/map-stack.asm"
                 
                 ; Tools
                 ; Iterate over a stack
                 
                 .if cpu_msp430==1
                 .endif
                 
                 .if cpu_avr8==1
                 VE_MAPSTACK:
000484 ff09          .dw $ff09
000485 616d
000486 2d70
000487 7473
000488 6361
000489 006b          .db "map-stack",0
00048a 046d          .dw VE_HEAD
                     .set VE_HEAD = VE_MAPSTACK
                 XT_MAPSTACK:
00048b 1c00          .dw DO_COLON
                 PFA_MAPSTACK:
                 .endif
00048c 1cab          .dw XT_DUP
00048d 0580          .dw XT_CELLPLUS
00048e 1cbe          .dw XT_SWAP
00048f 1f59          .dw XT_FETCHE
000490 057a          .dw XT_CELLS
000491 0d81          .dw XT_BOUNDS
000492 0311          .dw XT_QDOCHECK
000493 1c30          .dw XT_DOCONDBRANCH
000494 04a7          DEST(PFA_MAPSTACK3)
000495 1e95          .dw XT_DODO
                 PFA_MAPSTACK1:
000496 1ea6            .dw XT_I
000497 1f59            .dw XT_FETCHE   ; -- i*x XT id
000498 1cbe            .dw XT_SWAP
000499 1cf9            .dw XT_TO_R
00049a 1d02            .dw XT_R_FETCH
00049b 1c24            .dw XT_EXECUTE  ; i*x id -- j*y true | i*x false
00049c 1cb3            .dw XT_QDUP
00049d 1c30            .dw XT_DOCONDBRANCH
00049e 04a3            DEST(PFA_MAPSTACK2)
00049f 1cf0               .dw XT_R_FROM
0004a0 1cd3               .dw XT_DROP
0004a1 1ece               .dw XT_UNLOOP
0004a2 1c1a               .dw XT_EXIT
                 PFA_MAPSTACK2:
0004a3 1cf0            .dw XT_R_FROM
0004a4 1fe7            .dw XT_TWO
0004a5 1eb4            .dw XT_DOPLUSLOOP
0004a6 0496            DEST(PFA_MAPSTACK1)
                 PFA_MAPSTACK3:
0004a7 1cd3          .dw XT_DROP
0004a8 1d4e          .dw XT_ZERO
0004a9 1c1a          .dw XT_EXIT
                 
                 ;
                 ; : map-stack ( i*x XT e-addr -- j*y )
                 ;     dup cell+ swap @e cells bounds ?do 
                 ;       ( -- i*x XT )
                 ;       i @e swap >r r@ execute
                 ;       ?dup if r> drop unloop exit then
                 ;       r>
                 ;     2 +loop drop 0
                 ; ;
                 .include "words/get-current.asm"
                 
                 ; Search Order
                 ; get the wid of the current compilation word list
                 VE_GET_CURRENT:
0004aa ff0b          .dw $ff0b
0004ab 6567
0004ac 2d74
0004ad 7563
0004ae 7272
0004af 6e65
0004b0 0074          .db "get-current",0
0004b1 0484          .dw VE_HEAD
                     .set VE_HEAD = VE_GET_CURRENT
                 XT_GET_CURRENT:
0004b2 1c00          .dw DO_COLON
                 PFA_GET_CURRENT:
0004b3 1c37          .dw XT_DOLITERAL
0004b4 0040          .dw CFG_CURRENT
0004b5 1f59          .dw XT_FETCHE
0004b6 1c1a          .dw XT_EXIT
                 .include "words/get-order.asm"
                 
                 ; Search Order
                 ; Get the current search order word list
                 
                 .if cpu_msp430==1
                 .endif
                 
                 .if cpu_avr8==1
                 VE_GET_ORDER:
0004b7 ff09          .dw $ff09
0004b8 6567
0004b9 2d74
0004ba 726f
0004bb 6564
0004bc 0072          .db "get-order",0
0004bd 04aa          .dw VE_HEAD
                     .set VE_HEAD = VE_GET_ORDER
                 XT_GET_ORDER:
0004be 1c00          .dw DO_COLON
                 PFA_GET_ORDER:
                 .endif
0004bf 1c37          .dw XT_DOLITERAL
0004c0 0044          .dw CFG_ORDERLISTLEN
0004c1 0453          .dw XT_GET_STACK
0004c2 1c1a          .dw XT_EXIT
                 .include "words/cfg-order.asm"
                 
                 ; Search Order
                 ; Get the current search order word list
                 
                 .if cpu_msp430==1
                 .endif
                 
                 .if cpu_avr8==1
                 VE_CFG_ORDER:
0004c3 ff09          .dw $ff09
0004c4 6663
0004c5 2d67
0004c6 726f
0004c7 6564
0004c8 0072          .db "cfg-order",0
0004c9 04b7          .dw VE_HEAD
                     .set VE_HEAD = VE_CFG_ORDER
                 XT_CFG_ORDER:
0004ca 1c42          .dw PFA_DOVARIABLE
                 PFA_CFG_ORDER:
                 .endif
0004cb 0044          .dw CFG_ORDERLISTLEN
                 .include "words/compare.asm"
                 
                 ; String
                 ; compares two strings in RAM
                 VE_COMPARE:
0004cc ff07          .dw $ff07
0004cd 6f63
0004ce 706d
0004cf 7261
0004d0 0065          .db "compare",0
0004d1 04c3          .dw VE_HEAD
                     .set VE_HEAD = VE_COMPARE
                 XT_COMPARE:
0004d2 04d3          .dw PFA_COMPARE
                 PFA_COMPARE:
0004d3 93bf          push xh
0004d4 93af          push xl
0004d5 018c          movw temp0, tosl
0004d6 9189
0004d7 9199          loadtos
0004d8 01dc          movw xl, tosl
0004d9 9189
0004da 9199          loadtos
0004db 019c          movw temp2, tosl
0004dc 9189
0004dd 9199          loadtos
0004de 01fc          movw zl, tosl
                 PFA_COMPARE_LOOP:
0004df 90ed          ld temp4, X+
0004e0 90f1          ld temp5, Z+
0004e1 14ef          cp temp4, temp5
0004e2 f451          brne PFA_COMPARE_NOTEQUAL
0004e3 950a          dec temp0
0004e4 f019          breq PFA_COMPARE_ENDREACHED2
0004e5 952a          dec temp2
0004e6 f7c1          brne PFA_COMPARE_LOOP
0004e7 c001          rjmp PFA_COMPARE_ENDREACHED
                 PFA_COMPARE_ENDREACHED2:
0004e8 952a          dec temp2
                 PFA_COMPARE_ENDREACHED:
0004e9 2b02          or temp0, temp2
0004ea f411          brne PFA_COMPARE_CHECKLASTCHAR
0004eb 2788          clr tosl
0004ec c002          rjmp PFA_COMPARE_DONE
                 PFA_COMPARE_CHECKLASTCHAR:
                 PFA_COMPARE_NOTEQUAL:
0004ed ef8f          ser tosl
0004ee c000          rjmp PFA_COMPARE_DONE
                 
                 PFA_COMPARE_DONE:
0004ef 2f98          mov tosh, tosl
0004f0 91af          pop xl
0004f1 91bf          pop xh
0004f2 940c 1c04     jmp_ DO_NEXT
                 .include "words/nfa2lfa.asm"
                 
                 ; System
                 ; get the link field address from the name field address
                 VE_NFA2LFA:
0004f4 ff07         .dw $ff07
0004f5 666e
0004f6 3e61
0004f7 666c
0004f8 0061         .db "nfa>lfa",0
0004f9 04cc         .dw VE_HEAD
                    .set VE_HEAD = VE_NFA2LFA
                 XT_NFA2LFA:
0004fa 1c00          .dw DO_COLON
                 PFA_NFA2LFA:
0004fb 0c95          .dw XT_NAME2STRING
0004fc 1e29          .dw XT_1PLUS
0004fd 1dfe          .dw XT_2SLASH
0004fe 1d97          .dw XT_PLUS
0004ff 1c1a          .dw XT_EXIT
                 
                 .include "words/environment.asm"
                 
                 ; System Value
                 ; word list identifier of the environmental search list
                 VE_ENVIRONMENT:
000500 ff0b          .dw $ff0b
000501 6e65
000502 6976
000503 6f72
000504 6d6e
000505 6e65
000506 0074          .db "environment",0
000507 04f4          .dw VE_HEAD
                     .set VE_HEAD = VE_ENVIRONMENT
                 XT_ENVIRONMENT:
000508 1c42          .dw PFA_DOVARIABLE
                 PFA_ENVIRONMENT:
000509 003e          .dw CFG_ENVIRONMENT
                 .include "words/env-wordlists.asm"
                 
                 ; Environment
                 ; maximum number of wordlists in the dictionary search order
                 VE_ENVWORDLISTS:
00050a ff09          .dw $ff09
00050b 6f77
00050c 6472
00050d 696c
00050e 7473
00050f 0073          .db "wordlists",0
000510 0000          .dw VE_ENVHEAD
                     .set VE_ENVHEAD = VE_ENVWORDLISTS
                 XT_ENVWORDLISTS:
000511 1c00          .dw DO_COLON
                 PFA_ENVWORDLISTS:
000512 1c37          .dw XT_DOLITERAL
000513 0008          .dw NUMWORDLISTS
000514 1c1a          .dw XT_EXIT
                 .include "words/env-slashpad.asm"
                 
                 ; Environment
                 ; Size of the PAD buffer in bytes
                 VE_ENVSLASHPAD:
000515 ff04          .dw $ff04
000516 702f
000517 6461          .db "/pad"
000518 050a          .dw VE_ENVHEAD
                     .set VE_ENVHEAD = VE_ENVSLASHPAD
                 XT_ENVSLASHPAD:
000519 1c00          .dw DO_COLON
                 PFA_ENVSLASHPAD:
00051a 1e87          .dw XT_SP_FETCH
00051b 05a7          .dw XT_PAD
00051c 1d8d          .dw XT_MINUS
00051d 1c1a          .dw XT_EXIT
                 .include "words/env-slashhold.asm"
                 
                 ; Environment
                 ; size of the pictured numeric output buffer in bytes
                 
                 .if cpu_msp430==1
                 .endif
                 
                 .if cpu_avr8==1
                 VE_ENVSLASHHOLD:
00051e ff05          .dw $ff05
00051f 682f
000520 6c6f
000521 0064          .db "/hold",0
000522 0515          .dw VE_ENVHEAD
                     .set VE_ENVHEAD = VE_ENVSLASHHOLD
                 XT_ENVSLASHHOLD:
000523 1c00          .dw DO_COLON
                 PFA_ENVSLASHHOLD:
                 .endif
000524 05a7          .dw XT_PAD
000525 05e2          .dw XT_HERE
000526 1d8d          .dw XT_MINUS
000527 1c1a          .dw XT_EXIT
                 .include "words/env-forthname.asm"
                 
                 ; Environment
                 ; flash address of the amforth name string
                 .if cpu_msp430==1
                 .endif
                 
                 .if cpu_avr8==1
                 VE_ENV_FORTHNAME:
000528 ff0a          .dw $ff0a
000529 6f66
00052a 7472
00052b 2d68
00052c 616e
00052d 656d          .db "forth-name"
00052e 051e          .dw VE_ENVHEAD
                     .set VE_ENVHEAD = VE_ENV_FORTHNAME
                 XT_ENV_FORTHNAME:
00052f 1c00          .dw DO_COLON
                 PFA_EN_FORTHNAME:
000530 0791          .dw XT_DOSLITERAL
000531 0007          .dw 7
                 .endif
000532 6d61
000533 6f66
000534 7472
../../common\words/env-forthname.asm(22): warning: .cseg .db misalignment - padding zero byte
000535 0068          .db "amforth"
                 .if cpu_msp430==1
                 .endif
000536 1c1a          .dw XT_EXIT
                 .include "words/env-forthversion.asm"
                 
                 ; Environment
                 ; version number of amforth
                 .if cpu_msp430==1
                 .endif
                 
                 .if cpu_avr8==1
                 VE_ENV_FORTHVERSION:
000537 ff07          .dw $ff07
000538 6576
000539 7372
00053a 6f69
00053b 006e          .db "version",0
00053c 0528          .dw VE_ENVHEAD
                     .set VE_ENVHEAD = VE_ENV_FORTHVERSION
                 XT_ENV_FORTHVERSION:
00053d 1c00          .dw DO_COLON
                 PFA_EN_FORTHVERSION:
                 .endif
00053e 1c37          .dw XT_DOLITERAL
00053f 003f          .dw 63
000540 1c1a          .dw XT_EXIT
                 .include "words/env-cpu.asm"
                 
                 ; Environment
                 ; flash address of the CPU identification string
                 
                 .if cpu_msp430==1
                 .endif
                 
                 .if cpu_avr8==1
                 VE_ENV_CPU:
000541 ff03          .dw $ff03
000542 7063
000543 0075          .db "cpu",0
000544 0537          .dw VE_ENVHEAD
                     .set VE_ENVHEAD = VE_ENV_CPU
                 XT_ENV_CPU:
000545 1c00          .dw DO_COLON
                 PFA_EN_CPU:
                 .endif
000546 1c37          .dw XT_DOLITERAL
000547 0031          .dw mcu_name
000548 07f0          .dw XT_ICOUNT
000549 1c1a          .dw XT_EXIT
                 .include "words/env-mcuinfo.asm"
                 
                 ; Environment
                 ; flash address of some CPU specific parameters
                 VE_ENV_MCUINFO:
00054a ff08          .dw $ff08
00054b 636d
00054c 2d75
00054d 6e69
00054e 6f66          .db "mcu-info"
00054f 0541          .dw VE_ENVHEAD
                     .set VE_ENVHEAD = VE_ENV_MCUINFO
                 XT_ENV_MCUINFO:
000550 1c00          .dw DO_COLON
                 PFA_EN_MCUINFO:
000551 1c37          .dw XT_DOLITERAL
000552 002d          .dw mcu_info
000553 1c1a          .dw XT_EXIT
                 .include "words/env-usersize.asm"
                 
                 ; Environment
                 ; size of the USER area in bytes
                 .if cpu_msp430==1
                 .endif
                 
                 .if cpu_avr8==1
                 
                 VE_ENVUSERSIZE:
000554 ff05          .dw $ff05
000555 752f
000556 6573
000557 0072          .db "/user",0
000558 054a          .dw VE_ENVHEAD
                     .set VE_ENVHEAD = VE_ENVUSERSIZE
                 XT_ENVUSERSIZE:
000559 1c00          .dw DO_COLON
                 PFA_ENVUSERSIZE:
                 .endif
00055a 1c37          .dw XT_DOLITERAL
00055b 002c          .dw SYSUSERSIZE + APPUSERSIZE
00055c 1c1a          .dw XT_EXIT
                 ;;;;;;;;;;;;;;;;;;;;;;;;;;;;;;;;;;;;;;;;;;
                 .include "words/f_cpu.asm"
                 
                 ; System
                 ; put the cpu frequency in Hz on stack
                 .if cpu_msp430==1
                 .endif
                 
                 .if cpu_avr8==1
                 VE_F_CPU:
00055d ff05          .dw $ff05
00055e 5f66
00055f 7063
000560 0075          .db "f_cpu",0
000561 0500          .dw VE_HEAD
                     .set VE_HEAD = VE_F_CPU
                 XT_F_CPU:
000562 1c00          .dw DO_COLON
                 PFA_F_CPU:
                 .endif
000563 1c37          .dw XT_DOLITERAL
000564 1200          .dw (F_CPU % 65536)
000565 1c37          .dw XT_DOLITERAL
000566 007a          .dw (F_CPU / 65536)
000567 1c1a          .dw XT_EXIT
                 .include "words/state.asm"
                 
                 ; System Variable
                 ; system state
                 VE_STATE:
000568 ff05          .dw $ff05
000569 7473
00056a 7461
00056b 0065          .db "state",0
00056c 055d          .dw VE_HEAD
                     .set VE_HEAD = VE_STATE
                 XT_STATE:
00056d 1c42          .dw PFA_DOVARIABLE
                 PFA_STATE:
00056e 011f          .dw ram_state
                 
                 .dseg
00011f           ram_state: .byte 2
                 .include "words/base.asm"
                 
                 ; Numeric IO
                 ; location of the cell containing the number conversion radix
                 
                 .if cpu_msp430==1
                 .endif
                 
                 .if cpu_avr8==1
                 VE_BASE:
00056f ff04          .dw $ff04
000570 6162
000571 6573          .db "base"
000572 0568          .dw VE_HEAD
                     .set VE_HEAD = VE_BASE
                 XT_BASE:
000573 1c52          .dw PFA_DOUSER
                 PFA_BASE:
                 .endif
000574 000c          .dw USER_BASE
                 
                 .include "words/cells.asm"
                 
                 ; Arithmetics
                 ; n2 is the size in address units of n1 cells
                 VE_CELLS:
000575 ff05          .dw $ff05
000576 6563
000577 6c6c
000578 0073          .db "cells",0
000579 056f          .dw VE_HEAD
                     .set VE_HEAD = VE_CELLS
                 XT_CELLS:
00057a 1e06          .dw PFA_2STAR
                 .include "words/cellplus.asm"
                 
                 ; Arithmetics
                 ; add the size of an address-unit to a-addr1
                 VE_CELLPLUS:
00057b ff05          .dw $ff05
00057c 6563
00057d 6c6c
00057e 002b          .db "cell+",0
00057f 0575          .dw VE_HEAD
                     .set VE_HEAD = VE_CELLPLUS
                 XT_CELLPLUS:
000580 0581          .dw PFA_CELLPLUS
                 PFA_CELLPLUS:
000581 9602          adiw tosl, CELLSIZE
000582 940c 1c04     jmp_ DO_NEXT
                 
                 .include "words/2dup.asm"
                 
                 ; Stack
                 ; Duplicate the 2 top elements
                 
                 .if cpu_msp430==1
                 .endif
                 
                 .if cpu_avr8==1
                 VE_2DUP:
000584 ff04          .dw $ff04
000585 6432
000586 7075          .db "2dup"
000587 057b          .dw VE_HEAD
                     .set VE_HEAD = VE_2DUP
                 XT_2DUP:
000588 1c00          .dw DO_COLON
                 PFA_2DUP:
                 .endif
                 
000589 1cc9          .dw XT_OVER
00058a 1cc9          .dw XT_OVER
00058b 1c1a          .dw XT_EXIT
                 .include "words/2drop.asm"
                 
                 ; Stack
                 ; Remove the 2 top elements
                 
                 .if cpu_msp430==1
                 .endif
                 
                 .if cpu_avr8==1
                 VE_2DROP:
00058c ff05          .dw $ff05
00058d 6432
00058e 6f72
00058f 0070          .db "2drop",0
000590 0584          .dw VE_HEAD
                     .set VE_HEAD = VE_2DROP
                 XT_2DROP:
000591 1c00          .dw DO_COLON
                 PFA_2DROP:
                 .endif
000592 1cd3          .dw XT_DROP
000593 1cd3          .dw XT_DROP
000594 1c1a          .dw XT_EXIT
                 
                 .include "words/tuck.asm"
                 
                 ; Stack
                 ; Copy the first (top) stack item below the second stack item. 
                 
                 .if cpu_msp430==1
                 .endif
                 
                 .if cpu_avr8==1
                 VE_TUCK:
000595 ff04          .dw $ff04
000596 7574
000597 6b63          .db "tuck"
000598 058c          .dw VE_HEAD
                     .set VE_HEAD = VE_TUCK
                 XT_TUCK:
000599 1c00          .dw DO_COLON
                 PFA_TUCK:
                 .endif
00059a 1cbe          .dw XT_SWAP
00059b 1cc9          .dw XT_OVER
00059c 1c1a          .dw XT_EXIT
                 
                 .include "words/to-in.asm"
                 
                 ; System Variable
                 ; pointer to current read position in input buffer
                 
                 .if cpu_msp430==1
                 .endif
                 
                 .if cpu_avr8==1
                 VE_TO_IN:
00059d ff03          .dw $ff03
00059e 693e
00059f 006e          .db ">in",0
0005a0 0595          .dw VE_HEAD
                     .set VE_HEAD = VE_TO_IN
                 XT_TO_IN:
0005a1 1c52          .dw PFA_DOUSER
                 PFA_TO_IN:
                 .endif
0005a2 0018          .dw USER_TO_IN
                 .include "words/pad.asm"
                 
                 ; System Variable
                 ; Address of the temporary scratch buffer.
                 
                 .if cpu_msp430==1
                 .endif
                 
                 .if cpu_avr8==1
                 VE_PAD:
0005a3 ff03          .dw $ff03
0005a4 6170
0005a5 0064          .db "pad",0
0005a6 059d          .dw VE_HEAD
                     .set VE_HEAD = VE_PAD
                 XT_PAD:
0005a7 1c00          .dw DO_COLON
                 PFA_PAD:
                 .endif
0005a8 05e2          .dw XT_HERE
0005a9 1c37          .dw XT_DOLITERAL
0005aa 0028          .dw 40
0005ab 1d97          .dw XT_PLUS
0005ac 1c1a          .dw XT_EXIT
                 .include "words/emit.asm"
                 
                 ; Character IO
                 ; fetch the emit vector and execute it. should emit a character from TOS
                 
                 .if cpu_msp430==1
                 .endif
                 
                 .if cpu_avr8==1
                 VE_EMIT:
0005ad ff04          .dw $ff04
0005ae 6d65
0005af 7469          .db "emit"
0005b0 05a3          .dw VE_HEAD
                     .set VE_HEAD = VE_EMIT
                 XT_EMIT:
0005b1 0c36          .dw PFA_DODEFER1
                 PFA_EMIT:
                 .endif
0005b2 000e          .dw USER_EMIT
0005b3 0bff          .dw XT_UDEFERFETCH
0005b4 0c0b          .dw XT_UDEFERSTORE
                 .include "words/emitq.asm"
                 
                 ; Character IO
                 ; fetch emit? vector and execute it. should return the ready-to-send condition
                 
                 .if cpu_msp430==1
                 .endif
                 
                 .if cpu_avr8==1
                 VE_EMITQ:
0005b5 ff05          .dw $ff05
0005b6 6d65
0005b7 7469
0005b8 003f          .db "emit?",0
0005b9 05ad          .dw VE_HEAD
                     .set VE_HEAD = VE_EMITQ
                 XT_EMITQ:
0005ba 0c36          .dw PFA_DODEFER1
                 PFA_EMITQ:
                 .endif
0005bb 0010          .dw USER_EMITQ
0005bc 0bff          .dw XT_UDEFERFETCH
0005bd 0c0b          .dw XT_UDEFERSTORE
                 .include "words/key.asm"
                 
                 ; Character IO
                 ; fetch key vector and execute it, should leave a single character on TOS
                 
                 .if cpu_msp430==1
                 .endif
                 
                 .if cpu_avr8==1
                 VE_KEY:
0005be ff03          .dw $ff03
0005bf 656b
0005c0 0079          .db "key",0
0005c1 05b5          .dw VE_HEAD
                     .set VE_HEAD = VE_KEY
                 XT_KEY:
0005c2 0c36          .dw PFA_DODEFER1
                 PFA_KEY:
                 .endif
0005c3 0012          .dw USER_KEY
0005c4 0bff          .dw XT_UDEFERFETCH
0005c5 0c0b          .dw XT_UDEFERSTORE
                 .include "words/keyq.asm"
                 
                 ; Character IO
                 ; fetch key? vector and execute it. should turn on key sender, if it is disabled/stopped
                 
                 .if cpu_msp430==1
                 .endif
                 
                 .if cpu_avr8==1
                 VE_KEYQ:
0005c6 ff04          .dw $ff04
0005c7 656b
0005c8 3f79          .db "key?"
0005c9 05be          .dw VE_HEAD
                     .set VE_HEAD = VE_KEYQ
                 XT_KEYQ:
0005ca 0c36          .dw PFA_DODEFER1
                 PFA_KEYQ:
                 .endif
0005cb 0014          .dw USER_KEYQ
0005cc 0bff          .dw XT_UDEFERFETCH
0005cd 0c0b          .dw XT_UDEFERSTORE
                 
                 .include "words/dp.asm"
                 
                 ; System Value
                 ; address of the next free dictionary cell
                 VE_DP:
0005ce ff02          .dw $ff02
0005cf 7064          .db "dp"
0005d0 05c6          .dw VE_HEAD
                     .set VE_HEAD = VE_DP
                 XT_DP:
0005d1 1c69          .dw PFA_DOVALUE1
                 PFA_DP:
0005d2 0030          .dw CFG_DP
0005d3 0bd7          .dw XT_EDEFERFETCH
0005d4 0be1          .dw XT_EDEFERSTORE
                 .include "words/ehere.asm"
                 
                 ; System Value
                 ; address of the next free address in eeprom
                 VE_EHERE:
0005d5 ff05          .dw $ff05
0005d6 6865
0005d7 7265
0005d8 0065          .db "ehere",0
0005d9 05ce          .dw VE_HEAD
                     .set VE_HEAD = VE_EHERE
                 XT_EHERE:
0005da 1c69          .dw PFA_DOVALUE1
                 PFA_EHERE:
0005db 0034          .dw EE_EHERE
0005dc 0bd7          .dw XT_EDEFERFETCH
0005dd 0be1          .dw XT_EDEFERSTORE
                 .include "words/here.asm"
                 
                 ; System Value
                 ; address of the next free data space (RAM) cell
                 VE_HERE:
0005de ff04          .dw $ff04
0005df 6568
0005e0 6572          .db "here"
0005e1 05d5          .dw VE_HEAD
                     .set VE_HEAD = VE_HERE
                 XT_HERE:
0005e2 1c69          .dw PFA_DOVALUE1
                 PFA_HERE:
0005e3 0032          .dw EE_HERE
0005e4 0bd7          .dw XT_EDEFERFETCH
0005e5 0be1          .dw XT_EDEFERSTORE
                 .include "words/allot.asm"
                 
                 ; System
                 ; allocate or release memory in RAM
                 VE_ALLOT:
0005e6 ff05          .dw $ff05
0005e7 6c61
0005e8 6f6c
0005e9 0074          .db "allot",0
0005ea 05de          .dw VE_HEAD
                     .set VE_HEAD = VE_ALLOT
                 XT_ALLOT:
0005eb 1c00          .dw DO_COLON
                 PFA_ALLOT:
0005ec 05e2          .dw XT_HERE
0005ed 1d97          .dw XT_PLUS
0005ee 0bbc          .dw XT_DOTO
0005ef 05e3          .dw PFA_HERE
0005f0 1c1a          .dw XT_EXIT
                 
                 .include "words/bin.asm"
                 
                 ; Numeric IO
                 ; set base for numeric conversion to 10
                 
                 .if cpu_msp430==1
                 .endif
                 
                 .if cpu_avr8==1
                 VE_BIN:
0005f1 ff03          .dw $ff03
0005f2 6962
0005f3 006e          .db "bin",0
0005f4 05e6          .dw VE_HEAD
                     .set VE_HEAD = VE_BIN
                 XT_BIN:
0005f5 1c00          .dw DO_COLON
                 PFA_BIN:
                 .endif
0005f6 1fe7          .dw XT_TWO
0005f7 0573          .dw XT_BASE
0005f8 1c7b          .dw XT_STORE
0005f9 1c1a          .dw XT_EXIT
                 .include "words/decimal.asm"
                 
                 ; Numeric IO
                 ; set base for numeric conversion to 10
                 
                 .if cpu_msp430==1
                 .endif
                 
                 .if cpu_avr8==1
                 VE_DECIMAL:
0005fa ff07          .dw $ff07
0005fb 6564
0005fc 6963
0005fd 616d
0005fe 006c          .db "decimal",0
0005ff 05f1          .dw VE_HEAD
                     .set VE_HEAD = VE_DECIMAL
                 XT_DECIMAL:
000600 1c00          .dw DO_COLON
                 PFA_DECIMAL:
                 .endif
000601 1c37          .dw XT_DOLITERAL
000602 000a          .dw 10
000603 0573          .dw XT_BASE
000604 1c7b          .dw XT_STORE
000605 1c1a          .dw XT_EXIT
                 .include "words/hex.asm"
                 
                 ; Numeric IO
                 ; set base for numeric conversion to 10
                 
                 .if cpu_msp430==1
                 .endif
                 
                 .if cpu_avr8==1
                 VE_HEX:
000606 ff03          .dw $ff03
000607 6568
000608 0078          .db "hex",0
000609 05fa          .dw VE_HEAD
                     .set VE_HEAD = VE_HEX
                 XT_HEX:
00060a 1c00          .dw DO_COLON
                 PFA_HEX:
                 .endif
00060b 1c37          .dw XT_DOLITERAL
00060c 0010          .dw 16
00060d 0573          .dw XT_BASE
00060e 1c7b          .dw XT_STORE
00060f 1c1a          .dw XT_EXIT
                 .include "words/bl.asm"
                 
                 ; Character IO
                 ; put ascii code of the blank to the stack
                 
                 .if cpu_msp430==1
                 .endif
                 
                 .if cpu_avr8==1
                 VE_BL:
000610 ff02          .dw $ff02
000611 6c62          .db "bl"
000612 0606          .dw VE_HEAD
                     .set VE_HEAD = VE_BL
                 XT_BL:
000613 1c42          .dw PFA_DOVARIABLE
                 PFA_BL:
                 .endif
000614 0020          .dw 32
                 
                 .include "words/turnkey.asm"
                 
                 ; System Value
                 ; Deferred action during startup/reset
                 VE_TURNKEY:
000615 ff07          .dw $ff07
000616 7574
000617 6e72
000618 656b
000619 0079          .db "turnkey",0
00061a 0610          .dw VE_HEAD
                     .set VE_HEAD = VE_TURNKEY
                 XT_TURNKEY:
00061b 0c36          .dw PFA_DODEFER1
                 PFA_TURNKEY:
00061c 003c          .dw CFG_TURNKEY
00061d 0bd7          .dw XT_EDEFERFETCH
00061e 0be1          .dw XT_EDEFERSTORE
                 
                 .include "words/slashmod.asm"
                 
                 ; Arithmetics
                 ; signed division n1/n2 with remainder and quotient
                 VE_SLASHMOD:
00061f ff04          .dw $ff04
000620 6d2f
000621 646f          .db "/mod"
000622 0615          .dw VE_HEAD
                     .set VE_HEAD = VE_SLASHMOD
                 XT_SLASHMOD:
000623 0624          .dw PFA_SLASHMOD
                 PFA_SLASHMOD:
000624 019c          movw temp2, tosl
                     
000625 9109          ld temp0, Y+
000626 9119          ld temp1, Y+
                 
000627 2f41          mov	temp6,temp1	;move dividend High to sign register
000628 2743          eor	temp6,temp3	;xor divisor High with sign register
000629 ff17          sbrs	temp1,7	;if MSB in dividend set
00062a c004          rjmp	PFA_SLASHMOD_1
00062b 9510          com	temp1		;    change sign of dividend
00062c 9500          com	temp0		
00062d 5f0f          subi	temp0,low(-1)
00062e 4f1f          sbci	temp1,high(-1)
                 PFA_SLASHMOD_1:	
00062f ff37          sbrs	temp3,7	;if MSB in divisor set
000630 c004          rjmp	PFA_SLASHMOD_2
000631 9530          com	temp3		;    change sign of divisor
000632 9520          com	temp2		
000633 5f2f          subi	temp2,low(-1)
000634 4f3f          sbci	temp3,high(-1)
000635 24ee      PFA_SLASHMOD_2:	clr	temp4	;clear remainder Low byte
000636 18ff          sub	temp5,temp5;clear remainder High byte and carry
000637 e151          ldi	temp7,17	;init loop counter
                 
000638 1f00      PFA_SLASHMOD_3:	rol	temp0		;shift left dividend
000639 1f11          rol	temp1
00063a 955a          dec	temp7		;decrement counter
00063b f439          brne	PFA_SLASHMOD_5		;if done
00063c ff47          sbrs	temp6,7		;    if MSB in sign register set
00063d c004          rjmp	PFA_SLASHMOD_4
00063e 9510          com	temp1	;        change sign of result
00063f 9500          com	temp0
000640 5f0f          subi	temp0,low(-1)
000641 4f1f          sbci	temp1,high(-1)
000642 c00b      PFA_SLASHMOD_4:	rjmp PFA_SLASHMODmod_done			;    return
000643 1cee      PFA_SLASHMOD_5:	rol	temp4	;shift dividend into remainder
000644 1cff          rol	temp5
000645 1ae2          sub	temp4,temp2	;remainder = remainder - divisor
000646 0af3          sbc	temp5,temp3	;
000647 f420          brcc	PFA_SLASHMOD_6		;if result negative
000648 0ee2          add	temp4,temp2	;    restore remainder
000649 1ef3          adc	temp5,temp3
00064a 9488          clc			;    clear carry to be shifted into result
00064b cfec          rjmp	PFA_SLASHMOD_3		;else
00064c 9408      PFA_SLASHMOD_6:	sec			;    set carry to be shifted into result
00064d cfea          rjmp	PFA_SLASHMOD_3
                 
                 PFA_SLASHMODmod_done:
                     ; put remainder on stack
00064e 92fa          st -Y,temp5
00064f 92ea          st -Y,temp4
                 
                     ; put quotient on stack
000650 01c8          movw tosl, temp0
000651 940c 1c04     jmp_ DO_NEXT
                 .include "words/uslashmod.asm"
                 
                 ; Arithmetics
                 ; unsigned division with remainder
                 VE_USLASHMOD:
000653 ff05          .dw $ff05
000654 2f75
000655 6f6d
000656 0064          .db "u/mod",0
000657 061f          .dw VE_HEAD
                     .set VE_HEAD = VE_USLASHMOD
                 XT_USLASHMOD:
000658 1c00          .dw DO_COLON
                 PFA_USLASHMOD:
000659 1cf9          .dw XT_TO_R
00065a 1d4e          .dw XT_ZERO
00065b 1cf0          .dw XT_R_FROM
00065c 1dbc          .dw XT_UMSLASHMOD
00065d 1c1a          .dw XT_EXIT
                 .include "words/negate.asm"
                 
                 ; Logic
                 ; 2-complement
                 VE_NEGATE:
00065e ff06          .dw $ff06
00065f 656e
000660 6167
000661 6574          .db "negate"
000662 0653          .dw VE_HEAD
                     .set VE_HEAD = VE_NEGATE
                 XT_NEGATE:
000663 1c00          .dw DO_COLON
                 PFA_NEGATE:
000664 1df7          .dw XT_INVERT
000665 1e29          .dw XT_1PLUS
000666 1c1a          .dw XT_EXIT
                 .include "words/slash.asm"
                 
                 ; Arithmetics
                 ; divide n1 by n2. giving the quotient
                 
                 .if cpu_msp430==1
                 .endif
                 
                 .if cpu_avr8==1
                 
                 
                 VE_SLASH:
000667 ff01          .dw $ff01
000668 002f          .db "/",0
000669 065e          .dw VE_HEAD
                     .set VE_HEAD = VE_SLASH
                 XT_SLASH:
00066a 1c00          .dw DO_COLON
                 PFA_SLASH:
                 .endif
00066b 0623          .dw XT_SLASHMOD
00066c 1cea          .dw XT_NIP
00066d 1c1a          .dw XT_EXIT
                 
                 .include "words/mod.asm"
                 
                 ; Arithmetics
                 ; divide n1 by n2 giving the remainder n3
                 
                 .if cpu_msp430==1
                 .endif
                 
                 .if cpu_avr8==1
                 
                 
                 VE_MOD:
00066e ff03          .dw $ff03
00066f 6f6d
000670 0064          .db "mod",0
000671 0667          .dw VE_HEAD
                     .set VE_HEAD = VE_MOD
                 XT_MOD:
000672 1c00          .dw DO_COLON
                 PFA_MOD:
                 .endif
000673 0623          .dw XT_SLASHMOD
000674 1cd3          .dw XT_DROP
000675 1c1a          .dw XT_EXIT
                 .include "words/abs.asm"
                 
                 ;   DUP ?NEGATE ;
                 
                 .if cpu_msp430==1
                 .endif
                 
                 .if cpu_avr8==1
                 VE_ABS:
000676 ff03          .dw $ff03
000677 6261
000678 0073          .db "abs",0
000679 066e          .dw VE_HEAD
                     .set VE_HEAD = VE_ABS
                 XT_ABS:
00067a 1c00          .dw DO_COLON
                 PFA_ABS:
                 
                 .endif
                 
00067b 1cab
00067c 1e38
00067d 1c1a          .DW XT_DUP,XT_QNEGATE,XT_EXIT
                 .include "words/min.asm"
                 
                 ; Compare
                 ; compare two values leave the smaller one
                 
                 .if cpu_msp430==1
                 .endif
                 
                 .if cpu_avr8==1
                 
                 
                 VE_MIN:
00067e ff03          .dw $ff03
00067f 696d
000680 006e          .db "min",0
000681 0676          .dw VE_HEAD
                     .set VE_HEAD = VE_MIN
                 XT_MIN:
000682 1c00          .dw DO_COLON
                 PFA_MIN:
                 .endif
000683 0588          .dw XT_2DUP
000684 1d72          .dw XT_GREATER
000685 1c30          .dw XT_DOCONDBRANCH
000686 0688          DEST(PFA_MIN1)
000687 1cbe          .dw XT_SWAP
                 PFA_MIN1:
000688 1cd3          .dw XT_DROP
000689 1c1a          .dw XT_EXIT
                 .include "words/max.asm"
                 
                 ; Compare
                 ; compare two values, leave the bigger one
                 
                 .if cpu_msp430==1
                 .endif
                 
                 .if cpu_avr8==1
                 VE_MAX:
00068a ff03          .dw $ff03
00068b 616d
00068c 0078          .db "max",0
00068d 067e          .dw VE_HEAD
                     .set VE_HEAD = VE_MAX
                 XT_MAX:
00068e 1c00          .dw DO_COLON
                 PFA_MAX:
                 
                 .endif
00068f 0588          .dw XT_2DUP
000690 1d68          .dw XT_LESS
000691 1c30          .dw XT_DOCONDBRANCH
000692 0694          DEST(PFA_MAX1)
000693 1cbe          .dw XT_SWAP
                 PFA_MAX1:
000694 1cd3          .dw XT_DROP
000695 1c1a          .dw XT_EXIT
                 .include "words/within.asm"
                 
                 ; Compare
                 ; check if n is within min..max
                 
                 .if cpu_msp430==1
                 .endif
                 
                 .if cpu_avr8==1
                 VE_WITHIN:
000696 ff06          .dw $ff06
000697 6977
000698 6874
000699 6e69          .db "within"
00069a 068a          .dw VE_HEAD
                     .set VE_HEAD = VE_WITHIN
                 XT_WITHIN:
00069b 1c00          .dw DO_COLON
                 PFA_WITHIN:
                 .endif
00069c 1cc9          .dw XT_OVER
00069d 1d8d          .dw XT_MINUS
00069e 1cf9          .dw XT_TO_R
00069f 1d8d          .dw XT_MINUS
0006a0 1cf0          .dw XT_R_FROM
0006a1 1d56          .dw XT_ULESS
0006a2 1c1a          .dw XT_EXIT
                 
                 .include "words/to-upper.asm"
                 
                 ; String
                 ; if c is a lowercase letter convert it to uppercase
                 
                 .if cpu_msp430==1
                 .endif
                 
                 .if cpu_avr8==1
                 VE_TOUPPER:
0006a3 ff07          .dw $ff07 
0006a4 6f74
0006a5 7075
0006a6 6570
0006a7 0072          .db "toupper",0
0006a8 0696          .dw VE_HEAD
                     .set VE_HEAD = VE_TOUPPER
                 XT_TOUPPER:
0006a9 1c00          .dw DO_COLON 
                 PFA_TOUPPER:
                 .endif
0006aa 1cab          .dw XT_DUP 
0006ab 1c37          .dw XT_DOLITERAL 
0006ac 0061          .dw 'a' 
0006ad 1c37          .dw XT_DOLITERAL 
0006ae 007b          .dw 'z'+1
0006af 069b          .dw XT_WITHIN 
0006b0 1c30          .dw XT_DOCONDBRANCH
0006b1 06b5          DEST(PFA_TOUPPER0)
0006b2 1c37          .dw XT_DOLITERAL
0006b3 00df          .dw 223 ; inverse of 0x20: 0xdf
0006b4 1e0d          .dw XT_AND 
                 PFA_TOUPPER0:
0006b5 1c1a          .dw XT_EXIT 
                 .include "words/to-lower.asm"
                 
                 ; String
                 ; if C is an uppercase letter convert it to lowercase
                 
                 .if cpu_msp430==1
                 .endif
                 
                 .if cpu_avr8==1
                 
                 
                 VE_TOLOWER:
0006b6 ff07          .dw $ff07
0006b7 6f74
0006b8 6f6c
0006b9 6577
0006ba 0072          .db "tolower",0
0006bb 06a3          .dw VE_HEAD
                     .set VE_HEAD = VE_TOLOWER
                 XT_TOLOWER:
0006bc 1c00          .dw DO_COLON
                 PFA_TOLOWER:
                 .endif
0006bd 1cab          .dw XT_DUP
0006be 1c37          .dw XT_DOLITERAL
0006bf 0041          .dw 'A'
0006c0 1c37          .dw XT_DOLITERAL
0006c1 005b          .dw 'Z'+1
0006c2 069b          .dw XT_WITHIN
0006c3 1c30          .dw XT_DOCONDBRANCH
0006c4 06c8          DEST(PFA_TOLOWER0)
0006c5 1c37          .dw XT_DOLITERAL
0006c6 0020          .dw 32
0006c7 1e16          .dw XT_OR 
                 PFA_TOLOWER0:
0006c8 1c1a          .dw XT_EXIT 
                 ;;;;;;;;;;;;;;;;;;;;;;
                 .include "words/hld.asm"
                 
                 ; Numeric IO
                 ; pointer to current write position in the Pictured Numeric Output buffer
                 VE_HLD:
0006c9 ff03          .dw $ff03
0006ca 6c68
0006cb 0064          .db "hld",0
0006cc 06b6          .dw VE_HEAD
                     .set VE_HEAD = VE_HLD
                 XT_HLD:
0006cd 1c42          .dw PFA_DOVARIABLE
                 PFA_HLD:
0006ce 0121          .dw ram_hld
                 
                 .dseg
000121           ram_hld: .byte 2
                 .cseg
                 .include "words/hold.asm"
                 
                 ; Numeric IO
                 ; prepend character to pictured numeric output buffer
                 
                 .if cpu_msp430==1
                 .endif
                 
                 .if cpu_avr8==1
                 VE_HOLD:
0006cf ff04          .dw $ff04
0006d0 6f68
0006d1 646c          .db "hold"
0006d2 06c9          .dw VE_HEAD
                     .set VE_HEAD = VE_HOLD
                 XT_HOLD:
0006d3 1c00          .dw DO_COLON
                 PFA_HOLD:
                 .endif
0006d4 06cd          .dw XT_HLD
0006d5 1cab          .dw XT_DUP
0006d6 1c73          .dw XT_FETCH
0006d7 1e2f          .dw XT_1MINUS
0006d8 1cab          .dw XT_DUP
0006d9 1cf9          .dw XT_TO_R
0006da 1cbe          .dw XT_SWAP
0006db 1c7b          .dw XT_STORE
0006dc 1cf0          .dw XT_R_FROM
0006dd 1c87          .dw XT_CSTORE
0006de 1c1a          .dw XT_EXIT
                 .include "words/less-sharp.asm" ; <#
                 
                 ; Numeric IO
                 ; initialize the pictured numeric output conversion process
                 
                 .if cpu_msp430==1
                 .endif
                 
                 .if cpu_avr8==1
                 VE_L_SHARP:
0006df ff02          .dw $ff02
0006e0 233c          .db "<#"
0006e1 06cf          .dw VE_HEAD
                     .set VE_HEAD = VE_L_SHARP
                 XT_L_SHARP:
0006e2 1c00          .dw DO_COLON
                 PFA_L_SHARP:
                 .endif
0006e3 05a7          .dw XT_PAD
0006e4 06cd          .dw XT_HLD
0006e5 1c7b          .dw XT_STORE
0006e6 1c1a          .dw XT_EXIT
                 .include "words/sharp.asm"
                 
                 ; Numeric IO
                 ; pictured numeric output: convert one digit
                 
                 .if cpu_msp430==1
                 .endif
                 
                 .if cpu_avr8==1
                 
                 
                 VE_SHARP:
0006e7 ff01          .dw $ff01
0006e8 0023          .db "#",0
0006e9 06df          .dw VE_HEAD
                     .set VE_HEAD = VE_SHARP
                 XT_SHARP:
0006ea 1c00          .dw DO_COLON
                 PFA_SHARP:
                 .endif
0006eb 0573          .dw XT_BASE
0006ec 1c73          .dw XT_FETCH
0006ed 0767          .dw XT_UDSLASHMOD
0006ee 1cdb          .dw XT_ROT
0006ef 1c37          .dw XT_DOLITERAL
0006f0 0009          .dw 9
0006f1 1cc9          .dw XT_OVER
0006f2 1d68          .dw XT_LESS
0006f3 1c30          .dw XT_DOCONDBRANCH
0006f4 06f8          DEST(PFA_SHARP1)
0006f5 1c37          .dw XT_DOLITERAL
0006f6 0007          .dw 7
0006f7 1d97          .dw XT_PLUS
                 PFA_SHARP1:
0006f8 1c37          .dw XT_DOLITERAL
0006f9 0030          .dw 48 ; ASCII 0
0006fa 1d97          .dw XT_PLUS
0006fb 06d3          .dw XT_HOLD
0006fc 1c1a          .dw XT_EXIT
                 ; : #    ( ud1 -- ud2 ) 
                 ;        base @ ud/mod rot 9 over < if 7 + then 30 + hold ; 
                 .include "words/sharp-s.asm"
                 
                 ; Numeric IO
                 ; pictured numeric output: convert all digits until 0 (zero) is reached
                 
                 .if cpu_msp430==1
                 .endif
                 
                 .if cpu_avr8==1
                 VE_SHARP_S:
0006fd ff02          .dw $ff02
0006fe 7323          .db "#s"
0006ff 06e7          .dw VE_HEAD
                     .set VE_HEAD = VE_SHARP_S
                 XT_SHARP_S:
000700 1c00          .dw DO_COLON
                 PFA_SHARP_S:
                 .endif
                 NUMS1:
000701 06ea          .dw XT_SHARP
000702 0588          .dw XT_2DUP
000703 1e16          .dw XT_OR
000704 1d14          .dw XT_ZEROEQUAL
000705 1c30          .dw XT_DOCONDBRANCH
000706 0701          DEST(NUMS1) ; PFA_SHARP_S
000707 1c1a          .dw XT_EXIT
                 .include "words/sharp-greater.asm" ; #>
                 
                 ; Numeric IO
                 ; Pictured Numeric Output: convert PNO buffer into an string
                 
                 .if cpu_msp430==1
                 .endif
                 
                 .if cpu_avr8==1
                 VE_SHARP_G:
000708 ff02          .dw $ff02
000709 3e23          .db "#>"
00070a 06fd          .dw VE_HEAD
                     .set VE_HEAD = VE_SHARP_G
                 XT_SHARP_G:
00070b 1c00          .dw DO_COLON
                 PFA_SHARP_G:
                 .endif
00070c 0591          .dw XT_2DROP
00070d 06cd          .dw XT_HLD
00070e 1c73          .dw XT_FETCH
00070f 05a7          .dw XT_PAD
000710 1cc9          .dw XT_OVER
000711 1d8d          .dw XT_MINUS
000712 1c1a          .dw XT_EXIT
                 .include "words/sign.asm"
                 
                 ; Numeric IO
                 ; place a - in HLD if n is negative
                 
                 .if cpu_msp430==1
                 .endif
                 
                 .if cpu_avr8==1
                 VE_SIGN:
000713 ff04          .dw $ff04
000714 6973
000715 6e67          .db "sign"
000716 0708          .dw VE_HEAD
                     .set VE_HEAD = VE_SIGN
                 XT_SIGN:
000717 1c00          .dw DO_COLON
                 PFA_SIGN:
                 .endif
000718 1d1b          .dw XT_ZEROLESS
000719 1c30          .dw XT_DOCONDBRANCH
00071a 071e          DEST(PFA_SIGN1)
00071b 1c37          .dw XT_DOLITERAL
00071c 002d          .dw 45 ; ascii -
00071d 06d3          .dw XT_HOLD
                 PFA_SIGN1:
00071e 1c1a          .dw XT_EXIT
                 .include "words/d-dot-r.asm"
                 
                 ; Numeric IO
                 ; singed PNO with double cell numbers, right aligned in width w
                 
                 .if cpu_msp430==1
                 .endif
                 
                 .if cpu_avr8==1
                 VE_DDOTR:
00071f ff03          .dw $ff03
000720 2e64
000721 0072          .db "d.r",0
000722 0713          .dw VE_HEAD
                     .set VE_HEAD = VE_DDOTR
                 XT_DDOTR:
000723 1c00          .dw DO_COLON
                 PFA_DDOTR:
                 
                 .endif
000724 1cf9          .dw XT_TO_R
000725 0599          .dw XT_TUCK
000726 0cf7          .dw XT_DABS
000727 06e2          .dw XT_L_SHARP
000728 0700          .dw XT_SHARP_S
000729 1cdb          .dw XT_ROT
00072a 0717          .dw XT_SIGN
00072b 070b          .dw XT_SHARP_G
00072c 1cf0          .dw XT_R_FROM
00072d 1cc9          .dw XT_OVER
00072e 1d8d          .dw XT_MINUS
00072f 080f          .dw XT_SPACES
000730 081f          .dw XT_TYPE
000731 1c1a          .dw XT_EXIT
                 ; : d.r       ( d n -- )
                 ;             >r swap over dabs <# #s rot sign #> r> over - spaces type ;
                 .include "words/dot-r.asm"
                 
                 ; Numeric IO
                 ; singed PNO with single cell numbers, right aligned in width w
                 
                 .if cpu_msp430==1
                 .endif
                 
                 .if cpu_avr8==1
                 VE_DOTR:
000732 ff02          .dw $ff02
000733 722e          .db ".r"
000734 071f          .dw VE_HEAD
                     .set VE_HEAD = VE_DOTR
                 XT_DOTR:
000735 1c00          .dw DO_COLON
                 PFA_DOTR:
                 
                 .endif
000736 1cf9          .dw XT_TO_R
000737 0d8a          .dw XT_S2D
000738 1cf0          .dw XT_R_FROM
000739 0723          .dw XT_DDOTR
00073a 1c1a          .dw XT_EXIT
                 ; : .r        ( s n -- )  >r s>d r> d.r ;
                 .include "words/d-dot.asm"
                 
                 ; Numeric IO
                 ; singed PNO with double cell numbers
                 
                 .if cpu_msp430==1
                 .endif
                 
                 .if cpu_avr8==1
                 VE_DDOT:
00073b ff02          .dw $ff02
00073c 2e64          .db "d."
00073d 0732          .dw VE_HEAD
                     .set VE_HEAD = VE_DDOT
                 XT_DDOT:
00073e 1c00          .dw DO_COLON
                 PFA_DDOT:
                 
                 .endif
00073f 1d4e          .dw XT_ZERO
000740 0723          .dw XT_DDOTR
000741 0806          .dw XT_SPACE
000742 1c1a          .dw XT_EXIT
                 ; : d.        ( d -- )    0 d.r space ;
                 .include "words/dot.asm"
                 
                 ; Numeric IO
                 ; singed PNO with single cell numbers
                 
                 .if cpu_msp430==1
                 .endif
                 
                 .if cpu_avr8==1
                 
                 
                 VE_DOT:
000743 ff01          .dw $ff01
000744 002e          .db ".",0
000745 073b          .dw VE_HEAD
                     .set VE_HEAD = VE_DOT
                 XT_DOT:
000746 1c00          .dw DO_COLON
                 PFA_DOT:
                 .endif
000747 0d8a          .dw XT_S2D
000748 073e          .dw XT_DDOT
000749 1c1a          .dw XT_EXIT
                 ; : .         ( s -- )    s>d d. ; 
                 .include "words/ud-dot.asm"
                 
                 ; Numeric IO
                 ; unsigned PNO with double cell numbers
                 
                 .if cpu_msp430==1
                 .endif
                 
                 .if cpu_avr8==1
                 VE_UDDOT:
00074a ff03          .dw $ff03
00074b 6475
00074c 002e          .db "ud.",0
00074d 0743          .dw VE_HEAD
                     .set VE_HEAD = VE_UDDOT
                 XT_UDDOT:
00074e 1c00          .dw DO_COLON
                 PFA_UDDOT:
                 .endif
00074f 1d4e          .dw XT_ZERO
000750 0757          .dw XT_UDDOTR
000751 0806          .dw XT_SPACE
000752 1c1a          .dw XT_EXIT
                 .include "words/ud-dot-r.asm"
                 
                 ; Numeric IO
                 ; unsigned PNO with double cell numbers, right aligned in width w
                 
                 .if cpu_msp430==1
                 .endif
                 
                 .if cpu_avr8==1
                 
                 
                 VE_UDDOTR:
000753 ff04          .dw $ff04
000754 6475
000755 722e          .db "ud.r"
000756 074a          .dw VE_HEAD
                     .set VE_HEAD = VE_UDDOTR
                 XT_UDDOTR:
000757 1c00          .dw DO_COLON
                 PFA_UDDOTR:
                 .endif
000758 1cf9          .dw XT_TO_R
000759 06e2          .dw XT_L_SHARP
00075a 0700          .dw XT_SHARP_S
00075b 070b          .dw XT_SHARP_G
00075c 1cf0          .dw XT_R_FROM
00075d 1cc9          .dw XT_OVER
00075e 1d8d          .dw XT_MINUS
00075f 080f          .dw XT_SPACES
000760 081f          .dw XT_TYPE
000761 1c1a          .dw XT_EXIT
                 .include "words/ud-slash-mod.asm"
                 
                 ; Arithmetics
                 ; unsigned double cell division with remainder
                 
                 .if cpu_msp430==1
                 .endif
                 
                 .if cpu_avr8==1
                 VE_UDSLASHMOD:
000762 ff06          .dw $ff06
000763 6475
000764 6d2f
000765 646f          .db "ud/mod"
000766 0753          .dw VE_HEAD
                     .set VE_HEAD = VE_UDSLASHMOD
                 XT_UDSLASHMOD:
000767 1c00          .dw DO_COLON
                 PFA_UDSLASHMOD:
                 .endif
000768 1cf9          .dw XT_TO_R
000769 1d4e          .dw XT_ZERO
00076a 1d02          .dw XT_R_FETCH
00076b 1dbc          .dw XT_UMSLASHMOD
00076c 1cf0          .dw XT_R_FROM
00076d 1cbe          .dw XT_SWAP
00076e 1cf9          .dw XT_TO_R
00076f 1dbc          .dw XT_UMSLASHMOD
000770 1cf0          .dw XT_R_FROM
000771 1c1a          .dw XT_EXIT
                 .include "words/digit-q.asm"
                 
                 ; Numeric IO
                 ; tries to convert a character to a number, set flag accordingly
                 
                 .if cpu_msp430==1
                 .endif
                 
                 .if cpu_avr8==1
                 VE_DIGITQ:
000772 ff06          .dw $ff06 
000773 6964
000774 6967
000775 3f74          .db "digit?"
000776 0762          .dw VE_HEAD
                     .set VE_HEAD = VE_DIGITQ
                 XT_DIGITQ:
000777 1c00          .dw DO_COLON 
                 PFA_DIGITQ:
                 .endif
000778 06a9          .dw XT_TOUPPER
000779 1cab
00077a 1c37
00077b 0039
00077c 1d72
00077d 1c37
00077e 0100          .DW XT_DUP,XT_DOLITERAL,57,XT_GREATER,XT_DOLITERAL,256
00077f 1e0d
000780 1d97
000781 1cab
000782 1c37
000783 0140
000784 1d72          .DW XT_AND,XT_PLUS,XT_DUP,XT_DOLITERAL,320,XT_GREATER
000785 1c37
000786 0107
000787 1e0d
000788 1d8d
000789 1c37
00078a 0030          .DW XT_DOLITERAL,263,XT_AND,XT_MINUS,XT_DOLITERAL,48
00078b 1d8d
00078c 1cab
00078d 0573
00078e 1c73
00078f 1d56          .DW XT_MINUS,XT_DUP,XT_BASE,XT_FETCH,XT_ULESS
000790 1c1a          .DW XT_EXIT
                 ;;;;;;;;;;;;;;;;;;;;;;;;;;;;;;;;
                 .include "words/do-sliteral.asm"
                 
                 ; String
                 ; runtime portion of sliteral
                 ;VE_DOSLITERAL:
                 ;  .dw $ff0a
                 ;  .db "(sliteral)"
                 ;  .dw VE_HEAD
                 ;  .set VE_HEAD = VE_DOSLITERAL
                 XT_DOSLITERAL:
000791 1c00        .dw DO_COLON
                 PFA_DOSLITERAL:
000792 1d02        .dw XT_R_FETCH   ; ( -- addr )
000793 07f0        .dw XT_ICOUNT
000794 1cf0        .dw XT_R_FROM
000795 1cc9        .dw XT_OVER     ; ( -- addr' n addr n)
000796 1e29        .dw XT_1PLUS
000797 1dfe        .dw XT_2SLASH   ; ( -- addr' n addr k )
000798 1d97        .dw XT_PLUS     ; ( -- addr' n addr'' )
000799 1e29        .dw XT_1PLUS
00079a 1cf9        .dw XT_TO_R     ; ( -- )
00079b 1c1a        .dw XT_EXIT
                 .include "words/scomma.asm"
                 
                 ; Compiler
                 ; compiles a string from RAM to Flash
                 VE_SCOMMA:
00079c ff02        .dw $ff02
00079d 2c73        .db "s",$2c
00079e 0772        .dw VE_HEAD
                   .set VE_HEAD = VE_SCOMMA
                 XT_SCOMMA:
00079f 1c00          .dw DO_COLON
                 PFA_SCOMMA:
0007a0 1cab          .dw XT_DUP
0007a1 07a3          .dw XT_DOSCOMMA
0007a2 1c1a          .dw XT_EXIT
                 
                 ; ( addr len len' -- ) 
                 ; Compiler
                 ; compiles a string from RAM to Flash
                 ;VE_DOSCOMMA:
                 ;  .dw $ff04
                 ;  .db "(s",$2c,")"
                 ;  .dw VE_HEAD
                 ;  .set VE_HEAD = VE_DOSCOMMA
                 XT_DOSCOMMA:
0007a3 1c00          .dw DO_COLON
                 PFA_DOSCOMMA:
0007a4 0252          .dw XT_COMMA
0007a5 1cab          .dw XT_DUP   ; ( --addr len len)
0007a6 1dfe          .dw XT_2SLASH ; ( -- addr len len/2
0007a7 0599          .dw XT_TUCK   ; ( -- addr len/2 len len/2
0007a8 1e05          .dw XT_2STAR  ; ( -- addr len/2 len len'
0007a9 1d8d          .dw XT_MINUS  ; ( -- addr len/2 rem
0007aa 1cf9          .dw XT_TO_R
0007ab 1d4e          .dw XT_ZERO
0007ac 0311          .dw XT_QDOCHECK
0007ad 1c30          .dw XT_DOCONDBRANCH
0007ae 07b6          .dw PFA_SCOMMA2
0007af 1e95          .dw XT_DODO
                 PFA_SCOMMA1:
0007b0 1cab          .dw XT_DUP         ; ( -- addr addr )
0007b1 1c73          .dw XT_FETCH       ; ( -- addr c1c2 )
0007b2 0252          .dw XT_COMMA       ; ( -- addr )
0007b3 0580          .dw XT_CELLPLUS    ; ( -- addr+cell )
0007b4 1ec3          .dw XT_DOLOOP
0007b5 07b0          .dw PFA_SCOMMA1
                 PFA_SCOMMA2:
0007b6 1cf0          .dw XT_R_FROM
0007b7 1d22          .dw XT_GREATERZERO
0007b8 1c30          .dw XT_DOCONDBRANCH
0007b9 07bd          .dw PFA_SCOMMA3
0007ba 1cab            .dw XT_DUP     ; well, tricky
0007bb 1c92            .dw XT_CFETCH
0007bc 0252            .dw XT_COMMA
                 PFA_SCOMMA3:
0007bd 1cd3          .dw XT_DROP        ; ( -- )
0007be 1c1a          .dw XT_EXIT
                 .include "words/itype.asm"
                 
                 ; Tools
                 ; reads string from flash and prints it
                 VE_ITYPE:
0007bf ff05          .dw $ff05
0007c0 7469
0007c1 7079
0007c2 0065          .db "itype",0
0007c3 079c          .dw VE_HEAD
                     .set VE_HEAD = VE_ITYPE
                 XT_ITYPE:
0007c4 1c00          .dw DO_COLON
                 PFA_ITYPE:
0007c5 1cab          .dw XT_DUP    ; ( --addr len len)
0007c6 1dfe          .dw XT_2SLASH ; ( -- addr len len/2
0007c7 0599          .dw XT_TUCK   ; ( -- addr len/2 len len/2
0007c8 1e05          .dw XT_2STAR  ; ( -- addr len/2 len len'
0007c9 1d8d          .dw XT_MINUS  ; ( -- addr len/2 rem
0007ca 1cf9          .dw XT_TO_R
0007cb 1d4e          .dw XT_ZERO
0007cc 0311          .dw XT_QDOCHECK
0007cd 1c30          .dw XT_DOCONDBRANCH
0007ce 07d8          .dw PFA_ITYPE2
0007cf 1e95          .dw XT_DODO
                 PFA_ITYPE1:
0007d0 1cab          .dw XT_DUP         ; ( -- addr addr )
0007d1 1fc6          .dw XT_FETCHI      ; ( -- addr c1c2 )
0007d2 1cab          .dw XT_DUP
0007d3 07e5          .dw XT_LOWEMIT
0007d4 07e1          .dw XT_HIEMIT
0007d5 1e29          .dw XT_1PLUS    ; ( -- addr+cell )
0007d6 1ec3          .dw XT_DOLOOP
0007d7 07d0          .dw PFA_ITYPE1
                 PFA_ITYPE2:
0007d8 1cf0          .dw XT_R_FROM
0007d9 1d22          .dw XT_GREATERZERO
0007da 1c30          .dw XT_DOCONDBRANCH
0007db 07df          .dw PFA_ITYPE3
0007dc 1cab            .dw XT_DUP     ; make sure the drop below has always something to do
0007dd 1fc6            .dw XT_FETCHI
0007de 07e5            .dw XT_LOWEMIT
                 PFA_ITYPE3:
0007df 1cd3          .dw XT_DROP
0007e0 1c1a          .dw XT_EXIT
                 
                 ; ( w -- )
                 ; R( -- )
                 ; content of cell fetched on stack.
                 ;VE_HIEMIT:
                 ;    .dw $ff06
                 ;    .db "hiemit"
                 ;    .dw VE_HEAD
                 ;    .set VE_HEAD = VE_HIEMIT
                 XT_HIEMIT:
0007e1 1c00          .dw DO_COLON
                 PFA_HIEMIT:
0007e2 1ef3          .dw XT_BYTESWAP
0007e3 07e5          .dw XT_LOWEMIT
0007e4 1c1a          .dw XT_EXIT
                 
                 ; ( w -- )
                 ; R( -- )
                 ; content of cell fetched on stack.
                 ;VE_LOWEMIT:
                 ;    .dw $ff07
                 ;    .db "lowemit"
                 ;    .dw VE_HEAD
                 ;    .set VE_HEAD = VE_LOWEMIT
                 XT_LOWEMIT:
0007e5 1c00          .dw DO_COLON
                 PFA_LOWEMIT:
0007e6 1c37          .dw XT_DOLITERAL
0007e7 00ff          .dw $00ff
0007e8 1e0d          .dw XT_AND
0007e9 05b1          .dw XT_EMIT
0007ea 1c1a          .dw XT_EXIT
                 .include "words/icount.asm"
                 
                 ; Tools
                 ; get count information out of a counted string in flash
                 VE_ICOUNT:
0007eb ff06          .dw $ff06
0007ec 6369
0007ed 756f
0007ee 746e          .db "icount"
0007ef 07bf          .dw VE_HEAD
                     .set VE_HEAD = VE_ICOUNT
                 XT_ICOUNT:
0007f0 1c00          .dw DO_COLON
                 PFA_ICOUNT:
0007f1 1cab          .dw XT_DUP
0007f2 1e29          .dw XT_1PLUS
0007f3 1cbe          .dw XT_SWAP
0007f4 1fc6          .dw XT_FETCHI
0007f5 1c1a          .dw XT_EXIT
                 .include "words/cr.asm"
                 
                 ; Character IO
                 ; cause subsequent output appear at the beginning of the next line
                 
                 .if cpu_msp430==1
                 .endif
                 
                 .if cpu_avr8==1
                 VE_CR:
0007f6 ff02          .dw 0xff02
0007f7 7263          .db "cr"
0007f8 07eb          .dw VE_HEAD
                     .set VE_HEAD = VE_CR
                 XT_CR:
0007f9 1c00          .dw DO_COLON
                 PFA_CR:
                 .endif
                 
0007fa 1c37          .dw XT_DOLITERAL
0007fb 000d          .dw 13
0007fc 05b1          .dw XT_EMIT
0007fd 1c37          .dw XT_DOLITERAL
0007fe 000a          .dw 10
0007ff 05b1          .dw XT_EMIT
000800 1c1a          .dw XT_EXIT
                 .include "words/space.asm"
                 
                 ; Character IO
                 ; emits a space (bl)
                 
                 .if cpu_msp430==1
                 .endif
                 
                 .if cpu_avr8==1
                 VE_SPACE:
000801 ff05          .dw $ff05
000802 7073
000803 6361
000804 0065          .db "space",0
000805 07f6          .dw VE_HEAD
                     .set VE_HEAD = VE_SPACE
                 XT_SPACE:
000806 1c00          .dw DO_COLON
                 PFA_SPACE:
                 .endif
000807 0613          .dw XT_BL
000808 05b1          .dw XT_EMIT
000809 1c1a          .dw XT_EXIT
                 .include "words/spaces.asm"
                 
                 ; Character IO
                 ; emits n space(s) (bl)
                 
                 .if cpu_msp430==1
                 .endif
                 
                 .if cpu_avr8==1
                 VE_SPACES:
00080a ff06          .dw $ff06
00080b 7073
00080c 6361
00080d 7365          .db "spaces"
00080e 0801          .dw VE_HEAD
                     .set VE_HEAD = VE_SPACES
                 XT_SPACES:
00080f 1c00          .dw DO_COLON
                 PFA_SPACES:
                 
                 .endif
                 ;C SPACES   n --            output n spaces
                 ;   BEGIN DUP 0> WHILE SPACE 1- REPEAT DROP ;
000810 1d4e
000811 068e      	.DW XT_ZERO, XT_MAX
000812 1cab
000813 1c30      SPCS1:  .DW XT_DUP,XT_DOCONDBRANCH
000814 0819              DEST(SPCS2)
000815 0806
000816 1e2f
000817 1c29              .DW XT_SPACE,XT_1MINUS,XT_DOBRANCH
000818 0812              DEST(SPCS1)
000819 1cd3
00081a 1c1a      SPCS2:  .DW XT_DROP,XT_EXIT
                 .include "words/type.asm"
                 
                 ; Character IO
                 ; print a RAM based string
                 
                 .if cpu_msp430==1
                 .endif
                 
                 .if cpu_avr8==1
                 VE_TYPE:
00081b ff04          .dw $ff04
00081c 7974
00081d 6570          .db "type"
00081e 080a          .dw VE_HEAD
                     .set VE_HEAD = VE_TYPE
                 XT_TYPE:
00081f 1c00          .dw DO_COLON
                 PFA_TYPE:
                 
                 .endif
000820 0d81          .dw XT_BOUNDS
000821 0311          .dw XT_QDOCHECK
000822 1c30          .dw XT_DOCONDBRANCH
000823 082a          DEST(PFA_TYPE2)
000824 1e95          .dw XT_DODO
                 PFA_TYPE1:
000825 1ea6          .dw XT_I
000826 1c92          .dw XT_CFETCH
000827 05b1          .dw XT_EMIT
000828 1ec3          .dw XT_DOLOOP
000829 0825          DEST(PFA_TYPE1)
                 PFA_TYPE2:
00082a 1c1a          .dw XT_EXIT
                 .include "words/tick.asm"
                 
                 ; Dictionary
                 ; search dictionary for name, return XT or throw an exception -13
                 
                 .if cpu_msp430==1
                 .endif
                 
                 .if cpu_avr8==1
                 VE_TICK:
00082b ff01          .dw $ff01
00082c 0027          .db "'",0
00082d 081b          .dw VE_HEAD
                     .set VE_HEAD = VE_TICK
                 XT_TICK:
00082e 1c00          .dw DO_COLON
                 PFA_TICK:
                 .endif
00082f 09d8          .dw XT_PARSENAME
000830 0afe          .dw XT_FORTHRECOGNIZER
000831 0ad4          .dw XT_DORECOGNIZER
                     ; a word is tickable unless R:TABLE is R:FAIL or 
                     ; the interpret action is a NOOP
000832 1cab          .dw XT_DUP
000833 0b6d          .dw XT_R_FAIL
000834 1fdb          .dw XT_EQUAL
000835 1cbe          .dw XT_SWAP
000836 1fc6          .dw XT_FETCHI
000837 1c37          .dw XT_DOLITERAL
000838 0ba2          .dw XT_NOOP
000839 1fdb          .dw XT_EQUAL
00083a 1e16          .dw XT_OR
00083b 1c30          .dw XT_DOCONDBRANCH
00083c 0840          DEST(PFA_TICK1)
00083d 1c37            .dw XT_DOLITERAL
00083e fff3            .dw -13
00083f 0865            .dw XT_THROW
                 PFA_TICK1:
000840 1cd3          .dw XT_DROP
000841 1c1a          .dw XT_EXIT
                 
                 ;;;;;;;;;;;;;;;;;;;;;;;;;;;;;;;;;
                 .include "words/handler.asm"
                 
                 ; Exceptions
                 ; USER variable used by catch/throw
                 
                 .if cpu_msp430==1
                 .endif
                 
                 .if cpu_avr8==1
                 VE_HANDLER:
000842 ff07          .dw $ff07
000843 6168
000844 646e
000845 656c
000846 0072          .db "handler",0
000847 082b          .dw VE_HEAD
                     .set VE_HEAD = VE_HANDLER
                 XT_HANDLER:
000848 1c52          .dw PFA_DOUSER
                 PFA_HANDLER:
                 .endif
000849 000a          .dw USER_HANDLER
                 .include "words/catch.asm"
                 
                 ; Exceptions
                 ; execute XT and check for exceptions.
                 
                 .if cpu_msp430==1
                 .endif
                 
                 .if cpu_avr8==1
                 VE_CATCH:
00084a ff05          .dw $ff05
00084b 6163
00084c 6374
00084d 0068          .db "catch",0
00084e 0842          .dw VE_HEAD
                     .set VE_HEAD = VE_CATCH
                 XT_CATCH:
00084f 1c00          .dw DO_COLON
                 PFA_CATCH:
                 .endif
                 
                     ; sp@ >r
000850 1e87          .dw XT_SP_FETCH
000851 1cf9          .dw XT_TO_R
                     ; handler @ >r
000852 0848          .dw XT_HANDLER
000853 1c73          .dw XT_FETCH
000854 1cf9          .dw XT_TO_R
                     ; rp@ handler !
000855 1e70          .dw XT_RP_FETCH
000856 0848          .dw XT_HANDLER
000857 1c7b          .dw XT_STORE
000858 1c24          .dw XT_EXECUTE
                     ; r> handler !
000859 1cf0          .dw XT_R_FROM
00085a 0848          .dw XT_HANDLER
00085b 1c7b          .dw XT_STORE
00085c 1cf0          .dw XT_R_FROM
00085d 1cd3          .dw XT_DROP
00085e 1d4e          .dw XT_ZERO
00085f 1c1a          .dw XT_EXIT
                 .include "words/throw.asm"
                 
                 ; Exceptions
                 ; throw an exception
                 
                 .if cpu_msp430==1
                 .endif
                 
                 .if cpu_avr8==1
                 VE_THROW:
000860 ff05          .dw $ff05
000861 6874
000862 6f72
000863 0077          .db "throw",0
000864 084a          .dw VE_HEAD
                     .set VE_HEAD = VE_THROW
                 XT_THROW:
000865 1c00          .dw DO_COLON
                 PFA_THROW:
                 .endif
000866 1cab          .dw XT_DUP
000867 1d14          .dw XT_ZEROEQUAL
000868 1c30          .dw XT_DOCONDBRANCH
000869 086c          DEST(PFA_THROW1)
00086a 1cd3      	.dw XT_DROP
00086b 1c1a      	.dw XT_EXIT
                 PFA_THROW1:
00086c 0848          .dw XT_HANDLER
00086d 1c73          .dw XT_FETCH
00086e 1e7a          .dw XT_RP_STORE
00086f 1cf0          .dw XT_R_FROM
000870 0848          .dw XT_HANDLER
000871 1c7b          .dw XT_STORE
000872 1cf0          .dw XT_R_FROM
000873 1cbe          .dw XT_SWAP
000874 1cf9          .dw XT_TO_R
000875 1e90          .dw XT_SP_STORE
000876 1cd3          .dw XT_DROP
000877 1cf0          .dw XT_R_FROM    
000878 1c1a          .dw XT_EXIT
                 
                 ;;;;;;;;;;;;;;;;;;;;;;;;;;;;;;;;
                 .include "words/cskip.asm"
                 
                 ; String
                 ; skips leading occurancies in string at addr1/n1 leaving addr2/n2 pointing to the 1st non-c character
                 
                 .if cpu_msp430==1
                 .endif
                 
                 .if cpu_avr8==1
                 VE_CSKIP:
000879 ff05          .dw $ff05
00087a 7363
00087b 696b
00087c 0070          .db "cskip",0
00087d 0860          .dw VE_HEAD
                     .set VE_HEAD = VE_CSKIP
                 XT_CSKIP:
00087e 1c00          .dw DO_COLON
                 PFA_CSKIP:
                 .endif
00087f 1cf9          .dw XT_TO_R           ; ( -- addr1 n1 )
                 PFA_CSKIP1:
000880 1cab          .dw XT_DUP            ; ( -- addr' n' n' )
000881 1c30          .dw XT_DOCONDBRANCH   ; ( -- addr' n')
000882 088d          DEST(PFA_CSKIP2)
000883 1cc9          .dw XT_OVER           ; ( -- addr' n' addr' )
000884 1c92          .dw XT_CFETCH         ; ( -- addr' n' c' )
000885 1d02          .dw XT_R_FETCH        ; ( -- addr' n' c' c )
000886 1fdb          .dw XT_EQUAL          ; ( -- addr' n' f )
000887 1c30          .dw XT_DOCONDBRANCH   ; ( -- addr' n')
000888 088d          DEST(PFA_CSKIP2)
000889 1fe2          .dw XT_ONE
00088a 09c9          .dw XT_SLASHSTRING
00088b 1c29          .dw XT_DOBRANCH
00088c 0880          DEST(PFA_CSKIP1)
                 PFA_CSKIP2:
00088d 1cf0          .dw XT_R_FROM
00088e 1cd3          .dw XT_DROP           ; ( -- addr2 n2)
00088f 1c1a          .dw XT_EXIT
                 .include "words/cscan.asm"
                 
                 ; String
                 ; Scan string at addr1/n1 for the first occurance of c, leaving addr1/n2, char at n2 is first non-c character
                 
                 .if cpu_msp430==1
                 .endif
                 
                 .if cpu_avr8==1
                 VE_CSCAN:
000890 ff05          .dw $ff05
000891 7363
000892 6163
../../common\words/cscan.asm(12): warning: .cseg .db misalignment - padding zero byte
000893 006e          .db "cscan"
000894 0879          .dw VE_HEAD
                     .set VE_HEAD = VE_CSCAN
                 XT_CSCAN:
000895 1c00          .dw DO_COLON
                 PFA_CSCAN:
                 .endif
000896 1cf9          .dw XT_TO_R
000897 1cc9          .dw XT_OVER
                 PFA_CSCAN1:
000898 1cab          .dw XT_DUP
000899 1c92          .dw XT_CFETCH
00089a 1d02          .dw XT_R_FETCH
00089b 1fdb          .dw XT_EQUAL
00089c 1d14          .dw XT_ZEROEQUAL
00089d 1c30          .dw XT_DOCONDBRANCH
00089e 08aa          DEST(PFA_CSCAN2)
00089f 1cbe            .dw XT_SWAP
0008a0 1e2f            .dw XT_1MINUS
0008a1 1cbe            .dw XT_SWAP
0008a2 1cc9            .dw XT_OVER
0008a3 1d1b            .dw XT_ZEROLESS ; not negative
0008a4 1d14            .dw XT_ZEROEQUAL
0008a5 1c30            .dw XT_DOCONDBRANCH
0008a6 08aa            DEST(PFA_CSCAN2)
0008a7 1e29              .dw XT_1PLUS
0008a8 1c29              .dw XT_DOBRANCH
0008a9 0898              DEST(PFA_CSCAN1)
                 PFA_CSCAN2:
0008aa 1cea          .dw XT_NIP
0008ab 1cc9          .dw XT_OVER
0008ac 1d8d          .dw XT_MINUS
0008ad 1cf0          .dw XT_R_FROM
0008ae 1cd3          .dw XT_DROP
0008af 1c1a          .dw XT_EXIT
                 
                 ; : my-cscan ( addr len c -- addr len' )
                 ;    >r over ( -- addr len addr )
                 ;    begin
                 ;      dup c@ r@ <> while
                 ;       swap 1- swap over 0 >=  while
                 ;        1+ 
                 ;     repeat then
                 ;     nip over - r> drop 
                 ; ;
                 .include "words/accept.asm"
                 
                 .if cpu_msp430==1
                 .endif
                 
                 .if cpu_avr8==1
                 VE_ACCEPT:
0008b0 ff06          .dw $ff06
0008b1 6361
0008b2 6563
0008b3 7470          .db "accept"
0008b4 0890          .dw VE_HEAD
                     .set VE_HEAD = VE_ACCEPT
                 XT_ACCEPT:
0008b5 1c00          .dw DO_COLON
                 PFA_ACCEPT:
                 
                 .endif
0008b6 1cc9
0008b7 1d97
0008b8 1e2f
0008b9 1cc9              .DW XT_OVER,XT_PLUS,XT_1MINUS,XT_OVER
0008ba 05c2
0008bb 1cab
0008bc 08f6
0008bd 1d14
0008be 1c30      ACC1:   .DW XT_KEY,XT_DUP,XT_CRLFQ,XT_ZEROEQUAL,XT_DOCONDBRANCH
0008bf 08e8              DEST(ACC5)
0008c0 1cab
0008c1 1c37
0008c2 0008
0008c3 1fdb
0008c4 1c30              .DW XT_DUP,XT_DOLITERAL,8,XT_EQUAL,XT_DOCONDBRANCH
0008c5 08d8              DEST(ACC3)
0008c6 1cd3
0008c7 1cdb
0008c8 0588
0008c9 1d72
0008ca 1cf9
0008cb 1cdb
0008cc 1cdb
0008cd 1cf0
0008ce 1c30              .DW XT_DROP,XT_ROT,XT_2DUP,XT_GREATER,XT_TO_R,XT_ROT,XT_ROT,XT_R_FROM,XT_DOCONDBRANCH
0008cf 08d6      	DEST(ACC6)
0008d0 08ee
0008d1 1e2f
0008d2 1cf9
0008d3 1cc9
0008d4 1cf0
0008d5 00eb      	.DW XT_BS,XT_1MINUS,XT_TO_R,XT_OVER,XT_R_FROM,XT_UMAX
0008d6 1c29      ACC6:   .DW XT_DOBRANCH
0008d7 08e6              DEST(ACC4)
                     
                 
                 ACC3:    ; check for remaining control characters, replace them with blank
0008d8 1cab      	.dw XT_DUP            ; ( -- addr k k )
0008d9 0613              .dw XT_BL
0008da 1d68              .dw XT_LESS
0008db 1c30              .dw XT_DOCONDBRANCH
0008dc 08df              DEST(PFA_ACCEPT6)
0008dd 1cd3              .dw XT_DROP
0008de 0613              .dw XT_BL
                 PFA_ACCEPT6:
0008df 1cab
0008e0 05b1
0008e1 1cc9
0008e2 1c87
0008e3 1e29
0008e4 1cc9
0008e5 00f7      	.DW XT_DUP,XT_EMIT,XT_OVER,XT_CSTORE,XT_1PLUS,XT_OVER,XT_UMIN
0008e6 1c29      ACC4:   .DW XT_DOBRANCH
0008e7 08ba              DEST(ACC1)
0008e8 1cd3
0008e9 1cea
0008ea 1cbe
0008eb 1d8d
0008ec 07f9
0008ed 1c1a      ACC5:   .DW XT_DROP,XT_NIP,XT_SWAP,XT_MINUS,XT_CR,XT_EXIT
                 
                 
                 ; ( --  ) 
                 ; System
                 ; send a backspace character to overwrite the current char
                 .if cpu_msp430==1
                 .endif
                 
                 .if cpu_avr8==1
                 
                 ;VE_BS:
                 ;    .dw $ff02
                 ;    .db "bs"
                 ;    .dw VE_HEAD
                 ;    .set VE_HEAD = VE_BS
                 XT_BS:
0008ee 1c00          .dw DO_COLON
                 .endif
0008ef 1c37          .dw XT_DOLITERAL
0008f0 0008          .dw 8
0008f1 1cab          .dw XT_DUP
0008f2 05b1          .dw XT_EMIT
0008f3 0806          .dw XT_SPACE
0008f4 05b1          .dw XT_EMIT
0008f5 1c1a          .dw XT_EXIT
                 
                 
                 ; ( c -- f ) 
                 ; System
                 ; is the character a line end character?
                 .if cpu_msp430==1
                 .endif
                 
                 .if cpu_avr8==1
                 ;VE_CRLFQ:
                 ;    .dw $ff02
                 ;    .db "crlf?"
                 ;    .dw VE_HEAD
                 ;    .set VE_HEAD = VE_CRLFQ
                 XT_CRLFQ:
0008f6 1c00          .dw DO_COLON
                 .endif
0008f7 1cab          .dw XT_DUP
0008f8 1c37          .dw XT_DOLITERAL
0008f9 000d          .dw 13
0008fa 1fdb          .dw XT_EQUAL
0008fb 1cbe          .dw XT_SWAP
0008fc 1c37          .dw XT_DOLITERAL
0008fd 000a          .dw 10
0008fe 1fdb          .dw XT_EQUAL
0008ff 1e16          .dw XT_OR
000900 1c1a          .dw XT_EXIT
                 .include "words/refill.asm"
                 
                 ; System
                 ; refills the input buffer
                 
                 .if cpu_msp430==1
                 .endif
                 
                 .if cpu_avr8==1
                 VE_REFILL:
000901 ff06          .dw $ff06
000902 6572
000903 6966
000904 6c6c          .db "refill"
000905 08b0          .dw VE_HEAD
                     .set VE_HEAD = VE_REFILL
                 XT_REFILL:
000906 0c36          .dw PFA_DODEFER1
                 PFA_REFILL:
                 .endif
000907 001a          .dw USER_REFILL
000908 0bff          .dw XT_UDEFERFETCH
000909 0c0b          .dw XT_UDEFERSTORE
                 .include "words/char.asm"
                 
                 ; Tools
                 ; copy the first character of the next word onto the stack
                 
                 .if cpu_msp430==1
                 .endif
                 
                 .if cpu_avr8==1
                 VE_CHAR:
00090a ff04          .dw $ff04
00090b 6863
00090c 7261          .db "char"
00090d 0901          .dw VE_HEAD
                     .set VE_HEAD = VE_CHAR
                 XT_CHAR:
00090e 1c00          .dw DO_COLON
                 PFA_CHAR:
                 .endif
00090f 09d8          .dw XT_PARSENAME
000910 1cd3          .dw XT_DROP
000911 1c92          .dw XT_CFETCH
000912 1c1a          .dw XT_EXIT
                 .include "words/number.asm"
                 
                 ; Numeric IO
                 ; convert a string at addr to a number
                 
                 .if cpu_msp430==1
                 .endif
                 
                 .if cpu_avr8==1
                 VE_NUMBER:
000913 ff06          .dw $ff06
000914 756e
000915 626d
000916 7265          .db "number"
000917 090a          .dw VE_HEAD
                     .set VE_HEAD = VE_NUMBER
                 XT_NUMBER:
000918 1c00          .dw DO_COLON
                 PFA_NUMBER:
                 .endif
000919 0573          .dw XT_BASE
00091a 1c73          .dw XT_FETCH
00091b 1cf9          .dw XT_TO_R
00091c 095c          .dw XT_QSIGN
00091d 1cf9          .dw XT_TO_R
00091e 096f          .dw XT_SET_BASE
00091f 095c          .dw XT_QSIGN
000920 1cf0          .dw XT_R_FROM
000921 1e16          .dw XT_OR
000922 1cf9          .dw XT_TO_R
                     ; check whether something is left
000923 1cab          .dw XT_DUP
000924 1d14          .dw XT_ZEROEQUAL
000925 1c30          .dw XT_DOCONDBRANCH
000926 092f          DEST(PFA_NUMBER0)
                       ; nothing is left. It cannot be a number at all
000927 0591            .dw XT_2DROP
000928 1cf0            .dw XT_R_FROM
000929 1cd3            .dw XT_DROP
00092a 1cf0            .dw XT_R_FROM
00092b 0573            .dw XT_BASE
00092c 1c7b            .dw XT_STORE
00092d 1d4e            .dw XT_ZERO
00092e 1c1a            .dw XT_EXIT
                 PFA_NUMBER0:
00092f 1f18          .dw XT_2TO_R
000930 1d4e          .dw XT_ZERO       ; starting value
000931 1d4e          .dw XT_ZERO
000932 1f27          .dw XT_2R_FROM
000933 098d          .dw XT_TO_NUMBER ; ( 0. addr len -- d addr' len'
                     ; check length of the remaining string.
                     ; if zero: a single cell number is entered
000934 1cb3          .dw XT_QDUP
000935 1c30          .dw XT_DOCONDBRANCH
000936 0951          DEST(PFA_NUMBER1)
                     ; if equal 1: mayba a trailing dot? --> double cell number
000937 1fe2          .dw XT_ONE
000938 1fdb          .dw XT_EQUAL
000939 1c30          .dw XT_DOCONDBRANCH
00093a 0948          DEST(PFA_NUMBER2)
                 	; excatly one character is left
00093b 1c92      	.dw XT_CFETCH
00093c 1c37      	.dw XT_DOLITERAL
00093d 002e      	.dw 46 ; .
00093e 1fdb      	.dw XT_EQUAL
