:020000020000FC
:02000400C7D063
:02000800C5D061
:02000C00C3D05F
:02001000C1D05D
:02001400BFD05B
:02001800BDD059
:02001C00BBD057
:02002000B9D055
:02002400B7D053
:02002800B5D051
:02002C00B3D04F
:02003000B1D04D
:02003400AFD04B
:02003800ADD049
:02003C00ABD047
:02004000A9D045
:02004400A7D043
:02004800A5D041
:02004C00A3D03F
:02005000A1D03D
:020054009FD03B
:020058009DD039
:02005C009BD037
:0200600099D035
:1000640097D00008000400701A000A0041546D651E
:100074006761333238500091C600033011F40C9498
:10008400000010911201E0E0F1E0E10FF31D0083A4
:1000940013951F70109312010895003837388600A5
:1000A40037382400A03C37380001373816004E3961
:1000B4009A3E1A3806FF72782D6275660000003881
:1000C4007C0030386200373814019238AB38373846
:1000D400000197399238BE38293A37380F000D3A63
:1000E4003738140187381A3807FF72783F2D627544
:1000F40066005C000038333D3738140192383738D5
:10010400120192380D391A388700B5DF0C9404387F
:1001140007FF74782D706F6C6C00760000389E00B9
:10012400303891003738C60087381A3808FF747899
:100134003F2D706F6C6C8A000038333D3738C00037
:100144009238373820000D3A1A3804FF75627272FB
:10015400980069388C00A23DAC3D06FF2B75736195
:100164007274A7000038373898003738C1008738D0
:10017400373806003738C2008738AB00AB38F33A5B
:100184003738C50087383738C40087384F001A38E5
:040000000C943C3DE3
:100194000A920FB60A920F900F900A9400921601D9
:1001A40009900FBE09906894089502FF6D2BAF006B
:1001B4000038C93F103C1A3803FF75642A00D70081
:1001C4000038AB38F938DA39D338BE38F038DA3990
:1001D400DB3897391A3804FF756D6178DE00003812
:1001E400CB3E56393038F700BE38D3381A3804FFBE
:1001F400756D696EED000038CB3E6139303803010E
:10020400BE38D3381A380038373800800D3A1439DC
:1002140030380E01E83F1A3845391A380AFF6E6142
:100224006D653E666C616773F9000038C63B37380C
:1002340000FF0D3A1A3803FF76657200100100388A
:100244008202AB03B03FBF3E73389002433FC93FC5
:10025400C902D10237382E00BA02E702F202E103E2
:10026400BF3E7B38B03F9802AB031A3804FF6E6F71
:100274006F701D0100381A3806FF756E757365645A
:1002840038010038873A253F8D391A380200746FD7
:100294003E010038F003D23FB93E733830385C0178
:1002A400040756010F071A380038F038AB386801D4
:1002B400F938C63BAB3868016801C63B24381A38A4
:1002C40007FF692D63656C6C2B0048010038293ADF
:1002D4001A3808FF69636F6D7061726562010038D6
:1002E400F938C938F0380D3930387C01D43ED33868
:1002F40045391A38BE384E39CE073038A101953AFF
:10030400C9387338A401C938C63BA401AB3837389F
:100314000001563930389201BE383738FF000D3AA3
:100324000D3930389901D43E4539CE3A1A38293A34
:10033400BE388B3CBE3837380200B43A8201D43E12
:100344004E391A380038AB383738FF000D3A7B3F46
:10035400BE38F33A3738FF000D3A7B3FF33A163A8A
:100364001A3801FF2A006B010038A039D3381A3833
:1003740001FF6A00B3010038703A37380700973933
:100384007338703A373809009739733897391A38FF
:1003940004FF64616273BA010038AB381B3930382A
:1003A400D401DB011A3807FF646E65676174650068
:1003B400CA010038363CE83F4E39103C1A3805FF74
:1003C400636D6F766500D501E701BF93AF93E99143
:1003D400F991A991B991092F082B21F01D9111933D
:1003E4000197E1F7AF91BF91899199910C940438E9
:1003F40005FF327377617000E1010038DB38F938AA
:10040400DB38F0381A380AFF726566696C6C2D7433
:100414006962FA010038280237385A0040042E0273
:100424007B384E39E43E7B3845391A380AFF736FFE
:10043400757263652D7469620502003828022E0204
:1004440073381A3803FF74696200180242381701BE
:1004540004FF2374696224024238710106FF656552
:100464003E72616D2A0200384E39953AC938593BBB
:10047400C9387B388B3CBE388B3CBE38C33A380213
:10048400D43E1A3808FF696E69742D72616D3002AA
:10049400003837386A00FC3A37382200FE39350212
:1004A4001A380BFF656E7669726F6E6D656E740037
:1004B40044024238440009FF776F72646C697374B4
:1004C400730000000038373808001A3804FF2F7012
:1004D40061645D020038873AEA3E8D391A3805FFB7
:1004E4002F686F6C640068020038EA3E253F8D393E
:1004F4001A380AFF666F7274682D6E616D65710239
:10050400003878030700616D666F727468001A38EA
:1005140007FF76657273696F6E007B0200383738A7
:100524003F001A3803FF637075008A0200383738B9
:100534003700D7031A3808FF6D63752D696E666F2F
:1005440094020038373833001A3805FF2F75736565
:1005540072009D02003837382C001A3803FF686C8B
:10056400640053024238730104FF686F6C64B00284
:100574000038B402AB3873382F3AAB38F938BE3888
:100584007B38F03887381A3802FF3C23B60200382B
:10059400EA3EB4027B381A3801FF2300C602003851
:1005A400BF3E73384E03DB3837380900C938683921
:1005B4003038DF0237380700973937383000973939
:1005C400BA021A3802FF2373CE020038D102CB3E9E
:1005D400163A14393038E8021A3802FF233EE4028E
:1005E4000038D43EB4027338EA3EC9388D391A381B
:1005F40004FF7369676EEF0200381B393038050356
:1006040037382D00BA021A3803FF642E7200FA023A
:100614000038F938DC3ECE01C902E702DB38FE02BD
:10062400F202F038C9388D39B93FE1031A3802FFB4
:100634002E7206030038F938C93FF0380A031A3815
:1006440002FF642E190300384E390A03B03F1A38EA
:1006540001FF2E0022030038C93F25031A3803FF87
:1006640075642E002A0300384E393E03B03F1A3811
:1006740004FF75642E7231030038F938C902E702A9
:10068400F202F038C9388D39B93FE1031A3806FF50
:1006940075642F6D6F643A030038F9384E390239A6
:1006A400BC39F038BE38F938BC39F0381A3806FF8E
:1006B40064696769743F49030038683FAB38373869
:1006C40039007239373800010D3A9739AB38373869
:1006D40040017239373807010D3A8D393738300007
:1006E4008D39AB38BF3E733856391A380038023961
:1006F400D703F038C938293AFE399739293AF938F5
:100704001A3802FF732C59030038AB388A031A389D
:1007140000380F07AB38FE39DC3E053A8D39F9381D
:100724004E39CE0730389D03953AAB3873380F07EE
:100734008B3CC33A9703F03822393038A403AB38E2
:1007440092380F07D3381A3805FF69747970650039
:1007540083030038AB38FE39DC3E053A8D39F9386D
:100764004E39CE073038BF03953AAB38C63BAB3869
:10077400CC03C803293AC33AB703F03822393038D6
:10078400C603AB38C63BCC03D3381A380038F33A27
:10079400CC031A3800383738FF000D3AF43E1A38C3
:1007A40006FF69636F756E74A6030038AB38293A87
:1007B400BE38C63B1A3804FF74797065D20300381A
:1007C4009B3FCE073038EC03953AA63A9238F43E74
:1007D400C33AE7031A3801FF2700DD030038630535
:1007E400A605B305AB383E06E13FBE38C63B3738F5
:1007F4003C01E13F163A303802043738F3FF883DB4
:10080400D3381A3805FF63736B697000ED03003841
:10081400F938AB3830381804C93892380239E13F16
:1008240030381804E83F540529380B04F038D3381D
:100834001A3805FF637363616E0004040038F938E5
:10084400C938AB3892380239E13F143930383504AD
:10085400BE382F3ABE38C9381B39143930383504FC
:10086400293A29382304EA38C9388D39F038D3387D
:100874001A3806FF6163636570741B040038C93855
:1008840097392F3AC938053FAB38810414393038C9
:100894007304AB3837380800E13F30386304D33889
:1008A400DB38CB3E7239F938DB38DB38F038303896
:1008B400610479042F3AF938C938F038F10029383D
:1008C4007104AB38563F683930386A04D338563F20
:1008D400AB38F43EC9388738293AC938FD0029387D
:1008E4004504D338EA38BE388D39A33F1A38003866
:1008F40037380800AB38F43EB03FF43E1A380038BD
:10090400AB3837380D00E13FBE3837380A00E13FD5
:10091400163A1A3806FF726566696C6C3B04013E30
:100924001A00CA3DD63D04FF636861728C04003826
:100934006305D33892381A3806FF6E756D62657296
:1009440095040038BF3E7338F938E704F938FA04DF
:10095400E704F038163AF938AB3814393038BA04A9
:10096400D43EF038D338F038BF3E7B384E391A388D
:10097400183B4E394E39273B1805B3383038DC0460
:10098400E83FE13F3038D304923837382E00E13F56
:100994003038D404F0383038D004DB01ED3F293846
:1009A400E204D338D43EF038D338F038BF3E7B3835
:1009B4004E391A38D43EF0383038E104293EE83F45
:1009C400F038BF3E7B3845391A380038C938923878
:1009D40037382D00E13FAB38F9383038F304E83FBD
:1009E4005405F0381A384C380A00100002000A0086
:1009F4000038C9389238373823008D39AB384E392E
:100A040037380400593E30381005F5049739C63B91
:100A1400BF3E7B38E83F540529381105D3381A38CE
:100A240007FF3E6E756D626572009E040038AB3838
:100A340030383005C93892385E031439303824050B
:100A4400D3381A38F938FF01BF3E7338E200F03862
:100A5400DA00FF01E83F5405293819051A3805FF63
:100A640070617273650012050038F9384A05E43E76
:100A740073385405F0382004AB38293AE43E5F3A21
:100A8400E83F54051A3806FF736F757263653105C4
:100A9400013E1600CA3DD63D07FF2F737472696E7E
:100AA400670045050038DB38C9389739DB38DB384F
:100AB4008D391A380AFF70617273652D6E616D6528
:100AC4004E050038563F67051A380038F9384A058C
:100AD400E43E7338540502390904F0382004CB3E4F
:100AE40097394A05D3388D39E43E7B381A3803FFE9
:100AF400737030005C0569380600CA3DD63D02FFBC
:100B0400737079055238080003FF72703000810554
:100B140000388E0573381A385238040005FF6465AE
:100B240070746800860500387D05873A8D39FE3972
:100B34002F3A1A3810FF666F7274682D7265636FEE
:100B4400676E697A6572900569383E00A23DAC3DD6
:100B54000DFF646F2D7265636F676E697A6572004D
:100B64009C0500383738BE05BE384809143930387A
:100B7400BD05D43E3E061A380038DB38DB38CB3EA0
:100B8400183BDB382438273BDB38AB383E06E13FE3
:100B94003038CF05D3384E391A38EA38EA3845396F
:100BA4001A3809FF696E7465727072657400AA055B
:100BB40000386305AB383038EB05A605B305B93EFC
:100BC40073383038E6056801C63B24388D3F293830
:100BD400DB05D43E1A3805FF723A6E756D00D305F5
:100BE4004C383C012507250706FF723A646E756D83
:100BF400ED054C383C01D93FD93F07FF7265633A94
:100C04006E756D00F6050038A30430381106E83F10
:100C1400E13F30380F06F2051A38FB051A383E0654
:100C24001A3808FF7265633A776F7264FF050038FB
:100C3400B306AB38143930382206D3383E061A3896
:100C440029061A3806FF723A776F726413064C3815
:100C54002D063106D93F0038D33824381A380038E5
:100C64001B39303837060F071A3824381A3806FF6C
:100C7400723A6661696C24064C38420642064206A2
:100C840000383738F3FF883D0FFF7365617263687E
:100C94002D776F72646C6973740039060038F93803
:100CA4004E3937386506F0388206AB381439303897
:100CB4005F06D43ED3384E391A38AB38A906BE384D
:100CC400170105011A380038F938D338CB3E0239F8
:100CD4009D06710130387306F038D3384E394539E2
:100CE4001A38D43EF0384E391A3811FF74726176CE
:100CF400657273652D776F72646C69737400460650
:100D04000038593BAB3830389306CB3E183BBE38DD
:100D14002438273BDB3830389306B709C63B2938DB
:100D24008406D43E1A380BFF6E616D653E7374728F
:100D3400696E670077060038D7033738FF000D3A2D
:100D44001A3807FF6E66613E6366610095060038D7
:100D5400B709293A1A3807FF66696E642D7874005A
:100D6400A30600383738BF0637384A004809143913
:100D74003038BE06D43E4E391A380038F938CB3EE6
:100D8400F0385006AB383038CC06F938EA38EA384F
:100D9400F03845391A3806FF6E6577657374AD0609
:100DA4004238750106FF6C6174657374CD06423870
:100DB400790108FF2863726561746529D4060038D7
:100DC40063053808AB38D2068B3C7B381D08D20645
:100DD4007B381A3801005C00DB0600384A05EA3823
:100DE400E43E7B381A3801002800EC060038373816
:100DF40029003605D43E1A3807FF636F6D70696C9D
:100E04006500F5060038F038AB386801F938C63BA0
:100E14000F071A3801FF2C00FE060038143F6D3B03
:100E2400143F293A5601153F1A3803005B275D0029
:100E34000C070038F00325071A3807006C6974653D
:100E440072616C0017070038040737380F071A3827
:100E54000800736C69746572616C1F0700380407BD
:100E6400780386031A380038143F0407FFFF1A3842
:100E740000388D3F143FBE386D3B1A380038143F9C
:100E84001A3800388D3F0F071A380500616865610C
:100E940064002A0700380407293835071A38020085
:100EA4006966470700380407303835071A380400E4
:100EB400656C736551070038040729383507BE3857
:100EC4003A071A3804007468656E590700383A07FF
:100ED4001A380500626567696E00640700384007C8
:100EE4001A3805007768696C65006B070038540789
:100EF400BE381A380600726570656174730700386D
:100F0400950768071A380500756E74696C007C07CC
:100F14000038373830380F0743071A38050061673F
:100F240061696E00850700380407293843071A38B9
:100F34000200646F900700380407953A40074E3961
:100F4400F8071A3804006C6F6F709A0700380407AA
:100F5400C33ADF071A3805002B6C6F6F7000A407C3
:100F640000380407B43ADF071A3805006C65617667
:100F74006500AD0700380407CE3A4C07F8071A3865
:100F840003003F646F00B70700380407CE07540717
:100F94009D07BE38F8071A380038CB3EE13FAB381E
:100FA400F9383038D607D43EF038F7391A3807FF05
:100FB400656E646C6F6F7000C20700384307EC07FE
:100FC400B3383038E80768072938E1071A3802FFD0
:100FD4006C3ED90700380B08733873383738FEFF76
:100FE4000B085F3A1A3802FF3E6CE9070038ED3F00
:100FF4000B085F3A0B0873387B381A3803FF6C70A0
:101004003000F50769384000A23DAC3D02FF6C702A
:10101400000842387B0106FF637265617465080845
:101024000038E106410804074C381A3806FF6865A1
:10103400616465720D080038143FF938F938AB382B
:10104400223930382F08AB38373800FF163A8A0374
:10105400F038593B0F07F0381A383738F0FF883D1D
:1010640007FF776C73636F7065001808013E3C00DE
:10107400A23DAC3D06FF72657665616C32080038AE
:10108400D2068B3C7338B33830384C08D2067338E8
:10109400BE38353B1A380500646F65733E003C0862
:1010A40000380407650804070E9404075A081A3820
:1010B4009A938A93CB0101967F916F91BF93AF93DB
:1010C400DB010C9404380038F038D2068B3C7338BA
:1010D400593BA9066D3B1A3801FF3A004D08003808
:1010E400E1067C08D3381A3807FF3A6E6F6E616DDB
:1010F40065006E080038143FAB38D9067B38040706
:10110400003891081A3801003B00760800380407BB
:101114001A38990841081A3801FF5D00850800381B
:10112400E83FB93E7B381A3801005B008E0800386E
:101134004E39B93E7B381A3808FF766172696162AC
:101144006C6596080038253FB008ED3F2E3F1A38ED
:1011540008FF636F6E7374616E749E080038E10655
:101164004108040742380F071A3804FF7573657283
:10117400AA080038E1064108040752380F071A3854
:1011840007007265637572736500B7080038D90685
:1011940073380F071A3809FF696D6D6564696174E6
:1011A4006500C20800386F09593BAB38C63B373875
:1011B400FF7F0D3ABE386D3B1A3806005B636861E9
:1011C400725DCD0800380407373899040F071A38C0
:1011D400060061626F727422DF0800388C3E0407D7
:1011E40001091A3805FF61626F727400EA08003859
:1011F4004539883D06FF3F61626F7274F408003818
:10120400DB3830380709AB03F908D43E1A3809FF34
:101214006765742D737461636B00FC080038AB3828
:101224008B3CBE38593BAB38F9384E39BE38CE0703
:1012340030382709953AA63A2F3AC63EC938973925
:10124400593BBE384539B43A1D09D43EF0381A38F2
:1012540009FF7365742D737461636B0009090038A9
:10126400CB3E353BBE384E39CE0730383F09953A30
:101274008B3CDC3E353BC33A3A09D3381A3809FF74
:101284006D61702D737461636B002A090038AB388B
:101294008B3CBE38593BC63E9B3FCE073038640971
:1012A400953AA63A593BBE38F93802392438B3384E
:1012B40030386009F038D338CE3A1A38F038ED3F78
:1012C400B43A5309D3384E391A380BFF6765742D75
:1012D40063757272656E74004109003837384600D0
:1012E400593B1A3809FF6765742D6F726465720083
:1012F4006709003837384A0010091A3809FF63664D
:10130400672D6F7264657200740942384A0007FFE2
:10131400636F6D706172650080099009BF93AF932C
:101324008C0189919991DC01899199919C01899110
:101334009991FC01ED90F190EF1451F40A9519F094
:101344002A95C1F701C02A95022B11F4882702C0FF
:101354008FEF00C0982FAF91BF910C94043807FF12
:101364006E66613E6C666100890900389D06293A03
:10137400FE3997391A380BFF7365742D63757272D1
:10138400656E7400B109003837384600353B1A38A9
:1013940008FF776F72646C697374BD0900381D3F70
:1013A4004E39C938353BAB388B3C56011E3F1A3891
:1013B4000EFF666F7274682D776F72646C69737454
:1013C400CA094238480009FF7365742D6F72646559
:1013D4007200DA09003837384A0031091A380FFF29
:1013E4007365742D7265636F676E697A65727300D5
:1013F400E509003837385C0031091A380FFF676592
:10140400742D7265636F676E697A65727300F10992
:10141400003837385C0010091A3804FF636F6465BC
:10142400000A0038E1064108143F68010F071A3822
:1014340008FF656E642D636F64650F0A0038040746
:101444000C94040704381A3808FF286D61726B6520
:1014540072291A0A69386800A23DAC3D0800706F11
:101464007374706F6E65260A00386305A605B305AC
:10147400AB38F93868016801C63B2438F038680194
:10148400C63B0F071A380BFF6170706C7475726E6F
:101494006B657900300A0038B400923C2101B03FFA
:1014A40078030A00466F7274686475696E6FAB03E3
:0214B4001A38E4
:10700000BF93AF93DB0111966EF0FD01EE0FFF1FF2
:10701000659175911196FB01EE0FFF1F059115917A
:10702000F8010994E8946DEB7CE3F5CF04FF6578F3
:107030006974450A1B38AF91BF91E6CF07FF6578A9
:1070400065637574650016382538BC01899199917E
:10705000E2CF2A38FD01EE0FFF1FA591B591D4CFE5
:107060003138982B89919991A9F31196CDCF383861
:107070009A938A93FD01EE0FFF1F859195911196CA
:10708000C3CF42389A938A93FB013196EE0FFF1FCC
:1070900085919591B9CF4C389A938A93CB010196FB
:1070A000B3CF52389A938A93FB013196EE0FFF1FAC
:1070B00085919591840D951DA7CF07FF2876616C6A
:1070C000756529001E380038E10641080407693853
:1070D0001A380E945A08AB386801C63B24381A385F
:1070E00001FF40005D387438FC01819191918CCF93
:1070F00001FF210070387C38FC01899199919183BE
:1071000080838991999180CF02FF632178388838F4
:10711000FC018991999180838991999175CF02FFA2
:10712000634084389338FC01992780816DCF02FF3A
:1071300040758F380038FC3A973973381A3802FF97
:10714000217597380038FC3A97397B381A3803FF95
:10715000647570009F38AC389A938A9355CF04FFBA
:107160003F647570A738B438082F092B11F09A9333
:107170008A934ACF04FF73776170AF38BF388C01B0
:10718000899199911A930A933FCF04FF6F766572A4
:10719000BA38CA389A938A938A819B8135CF04FF83
:1071A00064726F70C538D438899199912DCF03FFDF
:1071B000726F7400CF38DC388C0129913991899134
:1071C00099913A932A931A930A931ECF03FF6E69FB
:1071D0007000D738EB38229617CF02FF723EE638A0
:1071E000F1389A938A938F919F910ECF02FF3E724E
:1071F000ED38FA389F938F938991999105CF02FFCB
:107200007240F63803399A938A938F919F919F9396
:107210008F93FACE02FF3C3EFF380038E13F14392D
:107220001A3802FF303D0A391539982BD1F530C094
:1072300002FF303C11391C3997FD2AC032C002FFD1
:10724000303E18392339821593055CF151F120C085
:1072500003FF64303E001F392D3982159305899153
:10726000999182059305ECF0E1F012C003FF6430C0
:107270003C0028393B39229697FD0C9448390C94F0
:10728000513904FF74727565363946399A938A9379
:107290008FEF9FEFB9CE01FF300041394F399A93FC
:1072A0008A93C101B1CE02FF753C4B395739299100
:1072B000399182179307A8F3A1F3EACF02FF753E35
:1072C00053390038BE3856391A3801FF3C005E3950
:1072D000693929913991281739071CF7D9CF01FF4E
:1072E0003E00653973392991399128173907CCF255
:1072F000C1F2CECF04FF6C6F67326F397F39FC016A
:10730000992780E18A9522F0EE0FFF1FD8F77CCEF7
:107310009A957ACE01FF2D007A398E39099119910B
:10732000081B190BC80170CE01FF2B008A39983950
:1073300009911991800F911F67CE02FF6D2A943930
:10734000A1398C01899199919C0131027001209F92
:10735000C0013003F308900DE11CF31C1203F30885
:10736000900DE11CF31C9A938A93C7014DCE06FF42
:10737000756D2F6D6F649D39BD397C0129913991EF
:107380000991199140E15527000F111F221F331F4A
:10739000551F2E153F05520518F003952E193F096C
:1073A0004A9589F73A932A93C8012ECE03FF756D4B
:1073B0002A00B739DB398C0189919991809FF001BE
:1073C00022273327909FF00D211D331D819FF00D43
:1073D000211D331D919F200D311DCF019A938A935A
:1073E000C90112CE06FF696E76657274D639F83916
:1073F0008095909509CE02FF322FF239FF3995958D
:10740000879502CE02FF322AFB39063A880F991F70
:10741000FBCD03FF616E6400023A0E3A09911991A7
:1074200080239123F1CD02FF6F72093A173A099137
:107430001991802B912BE8CD03FF786F7200133ADE
:10744000213A0991199180279127DECD02FF312B36
:107450001C3A2A3A0196D8CD02FF312D263A303A0D
:107460000197D2CD07FF3F6E6567617465002C3AC6
:1074700000381B3930383D3A293E1A3806FF6C7304
:1074800068696674323A443AFC018991999131975E
:107490001AF0880F991FFBCFB7CD06FF727368698A
:1074A00066743E3A533AFC018991999131971AF0EA
:1074B00096958795FBCFA8CD02FF2B214D3A603AD8
:1074C000FC018991999120813181820F931F8083E2
:1074D00091838991999198CD03FF727040005C3A35
:1074E000713A9A938A938DB79EB78ECD03FF7270CF
:1074F00021006C3A7B3A2FB7F8948DBF9EBF2FBF07
:107500008991999181CD03FF73704000763A883A52
:107510009A938A93CE0178CD03FF73702100833A4A
:10752000913AEC01899199916FCD963A29913991CF
:10753000E0E83E0F821B930B3F932F939F938F9313
:107540008991999161CD01FF69008C3AA73A9A938C
:107550008A938F919F91EF91FF91FF93EF939F9368
:107560008F938E0F9F1F50CDB53AEF91FF91E80F8B
:10757000F91F899199911BF0FF93EF936BCD0F91B8
:107580001F91119641CDC43AEF91FF913196BBF313
:10759000F3CF06FF756E6C6F6F70A33ACF3A1F91F1
:1075A0000F911F910F9130CD06FF636D6F76653E91
:1075B000C93ADA3ABF93AF93E991F991A991B99198
:1075C000092F082B41F0E80FF91FA80FB91F1E91D2
:1075D00012930197E1F7AF91BF918991999114CDE1
:1075E00002FF3E3CD43AF43A092F982F802F0CCD5D
:1075F00003FF75704000F03AFD3A9A938A93C201F6
:1076000003CD03FF75702100F83A063B2C018991E8
:107610009991FACC03FF316D7300013B0F3BE0EA17
:10762000FFE03197F1F7F0CC03FF323E72000A3BE6
:10763000193BFC01899199919F938F93FF93EF934D
:1076400089919991E1CC03FF32723E00143B283BB3
:107650009A938A93EF91FF918F919F919A938A9336
:10766000CF01D2CC02FF2165233B363BFC0189913F
:1076700099912FB7F89428D000B5081709F00BD0CE
:10768000319622D000B5091711F0892F04D02FBFF1
:1076900089919991B9CCF999FECF07B700FDFDCF3B
:1076A000F2BDE1BD80BDFA9AF99A089502FF4065E6
:1076B000323B5A3B2FB7F894FC0106D080B5319687
:1076C00003D090B52FBFA0CCF999FECFF2BDE1BD9C
:1076D000F89A089502FF2169563B013E6600A23DDB
:1076E000AC3D09FF2821692D6E72777729006A3B2E
:1076F000793B1FB71F93F8949C0189919991AF939F
:10770000BF93CF93DF9309D0DF91CF91BF91AF911A
:10771000899199911F911FBF77CC11D0E094F0947B
:107720008E219F21982B21F0B394F90102E020D003
:10773000F90104E01DD0F90100E11AD00895F90122
:10774000E07CFF7FEF01A0E4B0E0FE01EE0FFF1F41
:1077500045915591FE01E217F30711F00A0102C0AD
:107760007A010C01002704D02196119771F7089532
:10777000F999FECF17B710FDFDCFEE0FFF1F016087
:1077800007BFE895089502FF4069713BC73BFC01C4
:10779000EE0FFF1F8591959137CC03FF6E3E72006F
:1077A000C33BD23BFC01082F899199919F938F9302
:1077B0000A95D1F7EF93FF938991999125CC03FF17
:1077C0006E723E00CD3BE43B9A938A93FF91EF911A
:1077D0000E2F8F919F919A938A930A95D1F7CF019B
:1077E00013CC03FF64322A00DF3BF63B0991199169
:1077F000000F111F881F991F1A930A9305CC03FFCE
:1078000064322F00F13B043C0991199195958795BD
:10781000179507951A930A93F7CB02FF642BFF3B4A
:10782000113C29913991E990F99049915991240F8E
:10783000351F8E1D9F1D3A932A93E6CB02FF642DC0
:107840000D3C223C29913991E990F9904991599147
:10785000421B530BE80AF90A5A934A93C701D4CB47
:1078600007FF64696E76657274001E3C373C0991AF
:10787000199180959095009510951A930A93C4CB11
:1078800004FF2F6D6F64303C453C9C0109911991B8
:10789000412F432717FF04C0109500950F5F1F4F1E
:1078A00037FF04C0309520952F5F3F4FEE24FF181F
:1078B00051E1001F111F5A9539F447FF04C010957C
:1078C00000950F5F1F4F0BC0EE1CFF1CE21AF30A5E
:1078D00020F4E20EF31E8894ECCF0894EACFFA92DB
:1078E000EA92C80191CB03FF61627300403C00380B
:1078F000AB38383A1A3804FF7069636B733C003850
:10790000293AC63E873A973973381A3805FF6365B6
:107910006C6C2B007B3C8C3C029676CB04FF2B6975
:107920006E74863C933C78946FCB04FF2D696E7423
:107930008E3C9A3CF89468CB04FF696E7421953CA8
:107940000038373800009739353B1A3804FF696E24
:1079500074409C3C0038373800009739593B1A383E
:1079600008FF696E742D74726170A63CB73C8093F9
:10797000160189919991689447CB003837381601E0
:107980009238373800009739593B2438C83C1A38A8
:10799000C93C01D039CB1895003878030300206F1B
:1079A0006B00AB031A3803FF2E6F6B00B03C013E37
:1079B0001C00CA3DD63D0038780302003E20A33F9C
:1079C000AB031A3806FF2E7265616479D33C013E21
:1079D0002000CA3DD63D003878030400203F3F20F8
:1079E000AB03BF3E7338F938433F2D03E43E733891
:1079F0002D03F038BF3E7B381A3806FF2E657272B1
:107A00006F72E23C013E1E00CA3DD63D04FF717517
:107A10006974FD3C003804080B087B387D05903AFA
:107A20008A057A3A9908B93E733814393038193DC5
:107A3000E73C910430382B3D3738DA05723DB338D6
:107A400030382B3DAB383738FEFF68393038293DA8
:107A5000023D29380B3DD73C2938133D05FF7061A5
:107A600075736500063D013E7D01B63DC03D04FFD6
:107A7000636F6C642E3D3C3DA4B62224332424BEA7
:107A8000E0E0F1E02192E030E9F7F930D9F7EFE7F3
:107A9000F1E02F010FEF0DBF048318E01EBF158327
:107AA000CFEAC683D8E0D783ACE5BDE3ADCA04FF17
:107AB0007761726D373D00384A0237383C013738FC
:107AC000333DE13D99085E3F0A3D07FF68616E6402
:107AD0006C657200573D52380A0005FF636174639C
:107AE0006800653D0038873AF9386B3D7338F938DE
:107AF000703A6B3D7B382438F0386B3D7B38F0387A
:107B0000D3384E391A3805FF7468726F77006D3DAF
:107B10000038AB38143930388F3DD3381A386B3DC4
:107B200073387A3AF0386B3D7B38F038BE38F93824
:107B3000903AD338F0381A3807FF456465666572A5
:107B40004000833D0038C63B593B1A3807FF456467
:107B50006566657221009C3D0038C63B353B1A388E
:107B600007FF5264656665724000A63D0038C63B5B
:107B700073381A3807FF5264656665722100B03D9C
:107B80000038C63B7B381A3807FF55646566657256
:107B90004000BA3D0038C63BFC3A973973381A3872
:107BA00007FF5564656665722100C43D0038C63B19
:107BB000FC3A97397B381A3806FF6465666572218E
:107BC000D03D0038D23FAB3868016801C63B24384D
:107BD0001A3806FF646566657240DC3D0038D23FA6
:107BE000AB386801C63B24381A3807FF286465663D
:107BF00065722900E93D0038E10641080407013EAD
:107C00001A380E945A08AB386801C63B2438243819
:107C10001A3802FF752EF53D00384E3935031A38F3
:107C200003FF752E7200093E00384E39BE383E0300
:107C30001A3805FF752F6D6F6400103E0038F93853
:107C40004E39F038BC391A3806FF6E6567617465C5
:107C5000193E0038F739293A1A3801FF2F00243E1F
:107C60000038443CEA381A3803FF6D6F64002D3E3B
:107C70000038443CD3381A3803FF6D696E00343E37
:107C80000038CB3E72393038463EBE38D3381A38C9
:107C900003FF6D6178003C3E0038CB3E68393038D8
:107CA000523EBE38D3381A3806FF77697468696E59
:107CB000483E0038C9388D39F9388D39F038563991
:107CC0001A380DFF73686F772D776F72646C697364
:107CD0007400543E00383738703EBE3882061A3879
:107CE00000389D06AB03B03F45391A3805FF776F62
:107CF00072647300613E003837384C00593B6A3E6D
:107D00001A3802002E22763E00388C3E0407AB0360
:107D10001A3802007322813E0038373822003605B7
:107D2000B93E73383038953E30071A3804FF66691B
:107D30006C6C893E0038DB38DB38B3383038A73E0E
:107D40009B3F953AAB38A63A8738C33AA23ED33820
:107D50001A3805FF665F63707500963E0038373845
:107D600000243738F4001A3805FF73746174650015
:107D7000A93E4238AB0104FF62617365B43E5238DC
:107D80000C0005FF63656C6C7300BB3E063A04FF94
:107D900032647570C13E0038C938C9381A3805FFD9
:107DA0003264726F7000C73E0038D338D3381A3847
:107DB00004FF7475636BCF3E0038BE38C9381A387B
:107DC00003FF3E696E00D83E5238180003FF706111
:107DD0006400E03E0038253F3738280097391A38CC
:107DE00004FF656D6974E63E013E0E00CA3DD63D56
:107DF00005FF656D69743F00F03E013E1000CA3D0D
:107E0000D63D03FF6B657900F83E013E1200CA3D86
:107E1000D63D04FF6B65793F013F013E1400CA3D2A
:107E2000D63D02FF6470093F69383600A23DAC3D83
:107E300005FF656865726500113F69383A00A23D2B
:107E4000AC3D04FF68657265183F69383800A23D93
:107E5000AC3D05FF616C6C6F7400213F0038253F1D
:107E600097395601263F1A3803FF62696E00293F91
:107E70000038ED3FBF3E7B381A3807FF6465636901
:107E80006D616C00343F003837380A00BF3E7B38E4
:107E90001A3803FF686578003D3F00383738100016
:107EA000BF3E7B381A3802FF626C493F42382000DF
:107EB00007FF7475726E6B657900533F013E420097
:107EC000A23DAC3D07FF746F757070657200583F3E
:107ED0000038AB383738610037387B00593E3038CE
:107EE000743F3738DF000D3A1A3807FF746F6C6F34
:107EF00077657200623F0038AB3837384100373859
:107F00005B00593E3038873F37382000163A1A3820
:107F100006FF3F737461636B753F003895051B392D
:107F20003038953F3738FCFF883D1A3806FF626FBE
:107F3000756E6473883F0038C9389739BE381A386F
:107F400002FF6372963F003837380D00F43E373831
:107F50000A00F43E1A3805FF737061636500A03FA4
:107F60000038563FF43E1A3806FF7370616365733C
:107F7000AB3F00384E394C3EAB383038C33FB03F92
:107F80002F3A2938BC3FD3381A3803FF733E6400B8
:107F9000B43F0038AB381B391A3805FF3E626F64B6
:107FA0007900C53F2A3A0800326C69746572616CC9
:107FB000CD3F0038BE38250725071A3801FF3D00A0
:107FC000D33F00388D3914391A3801FF3100DE3FB4
:107FD0004238010001FF3200E53F4238020002FF53
:087FE0002D31EA3F4238FFFF9A
:00000001FF
