:020000020000FC
:02000400E9D041
:02000800E7D03F
:02000C00E5D03D
:02001000E3D03B
:02001400E1D039
:02001800DFD037
:02001C00DDD035
:02002000DBD033
:02002400D9D031
:02002800D7D02F
:02002C00D5D02D
:02003000D3D02B
:02003400D1D029
:02003800CFD027
:02003C00CDD025
:02004000CBD023
:02004400C9D021
:02004800C7D01F
:02004C00C5D01D
:02005000C3D01B
:02005400C1D019
:02005800BFD017
:02005C00BDD015
:02006000BBD013
:02006400B9D011
:02006800B7D00F
:02006C00B5D00D
:02007000B3D00B
:02007400B1D009
:02007800AFD007
:02007C00ADD005
:02008000ABD003
:02008400A9D001
:02008800A7D0FF
:02008C00A5D0FD
:02009000A3D0FB
:02009400A1D0F9
:020098009FD0F7
:02009C009DD0F5
:0200A0009BD0F3
:0200A40099D0F1
:1000A80097D0000A000400702B000A0041546D65C7
:1000B8006761333255340091CE00033011F40C944B
:1000C800000010911201E0E0F1E0E10FF31D008360
:1000D80013951F7010931201089500383738A8003F
:1000E80037383200A03C37380001373816004E390F
:1000F8009A3E1A3806FF72782D627566000000383D
:100108009E0030388400373814019238AB383738BD
:10011800000197399238BE38293A37380F000D3A1E
:100128003738140187381A3807FF72783F2D6275FF
:1001380066007E000038333D37381401923837386E
:10014800120192380D391A38A900B5DF0C94043819
:1001580007FF74782D706F6C6C0098000038C00031
:100168003038B3003738CE0087381A3808FF74782B
:100178003F2D706F6C6CAC000038333D3738C800C9
:100188009238373820000D3A1A3804FF75627272B7
:10019800BA006938AE00A23DAC3D06FF2B7573610D
:1001A8007274C9000038373898003738C900873862
:1001B800373806003738CA008738CD00AB38F33AED
:1001C8003738CD0087383738CC00873871001A386F
:040000000C943C3DE3
:1001D8000A920FB60A920F900F900A940092160195
:1001E80009900FBE09906894089502FF6D2BD10005
:1001F8000038C93F103C1A3803FF75642A00F9001B
:100208000038AB38F938DA39D338BE38F038DA394B
:10021800DB3897391A3804FF756D617800010038AA
:10022800CB3E563930381901BE38D3381A3804FF56
:10023800756D696E0F010038CB3E61393038250184
:10024800BE38D3381A380038373800800D3A143998
:1002580030383001E83F1A3845391A380AFF6E61DC
:100268006D653E666C6167731B010038C63B3738A5
:1002780000FF0D3A1A3803FF766572003201003824
:10028800A402CD03B03FBF3E7338B202433FC93F1B
:10029800EB02F30237382E00DC02090314030304CF
:1002A800BF3E7B38B03FBA02CD031A3804FF6E6FE9
:1002B8006F703F0100381A3806FF756E75736564F4
:1002C8005A010038873A253F8D391A380200746F71
:1002D800600100381204D23FB93E733830387E01CD
:1002E8002607780131071A380038F038AB388A0108
:1002F800F938C63BAB388A018A01C63B24381A381C
:1003080007FF692D63656C6C2B006A010038293A78
:100318001A3808FF69636F6D70617265840100386F
:10032800F938C938F0380D3930389E01D43ED33801
:1003380045391A38BE384E39F0073038C301953A76
:10034800C9387338C601C938C63BC601AB38373817
:10035800000156393038B401BE383738FF000D3A3D
:100368000D393038BB01D43E4539CE3A1A38293ACE
:10037800BE388B3CBE3837380200B43AA401D43EAC
:100388004E391A380038AB383738FF000D3A7B3F02
:10039800BE38F33A3738FF000D3A7B3FF33A163A46
:1003A8001A3801FF2A008D010038A039D3381A38CD
:1003B80001FF6A00D5010038703A373807009739CD
:1003C8007338703A373809009739733897391A38BB
:1003D80004FF64616273DC010038AB381B393038C4
:1003E800F601FD011A3807FF646E656761746500E0
:1003F800EC010038363CE83F4E39103C1A3805FF0E
:10040800636D6F766500F7010902BF93AF93E991B9
:10041800F991A991B991092F082B21F01D911193F8
:100428000197E1F7AF91BF91899199910C940438A4
:1004380005FF32737761700003020038DB38F93842
:10044800DB38F0381A380AFF726566696C6C2D74EF
:1004580069621C0200384A0237385A0062045002A6
:100468007B384E39E43E7B3845391A380AFF736FBA
:10047800757263652D746962270200384A0250025A
:1004880073381A3803FF746962003A024238170158
:1004980004FF2374696246024238710106FF6565EC
:1004A8003E72616D4C0200384E39953AC938593B55
:1004B800C9387B388B3CBE388B3CBE38C33A5A02AD
:1004C800D43E1A3808FF696E69742D72616D520244
:1004D800003837388C00FC3A37382200FE3957028A
:1004E8001A380BFF656E7669726F6E6D656E7400F3
:1004F80066024238660009FF776F72646C6973742C
:10050800730000000038373808001A3804FF2F70CD
:1005180061647F020038873AEA3E8D391A3805FF50
:100528002F686F6C64008A020038EA3E253F8D39D7
:100538001A380AFF666F7274682D6E616D659302D2
:1005480000389A030700616D666F727468001A3884
:1005580007FF76657273696F6E009D020038373841
:100568003F001A3803FF63707500AC020038373853
:100578005900F9031A3808FF6D63752D696E666FA7
:10058800B6020038373855001A3805FF2F757365DD
:100598007200BF02003837382C001A3803FF686C25
:1005A800640075024238730104FF686F6C64D202FC
:1005B8000038D602AB3873382F3AAB38F938BE3822
:1005C8007B38F03887381A3802FF3C23D8020038C5
:1005D800EA3ED6027B381A3801FF2300E8020038C9
:1005E800BF3E73387003DB3837380900C9386839BB
:1005F80030380103373807009739373830009739D2
:10060800DC021A3802FF2373F0020038F302CB3EF3
:10061800163A143930380A031A3802FF233E060303
:100628000038D43ED6027338EA3EC9388D391A38B4
:1006380004FF7369676E110300381B3930382703CC
:1006480037382D00DC021A3803FF642E72001C03B1
:100658000038F938DC3EF001EB020903DB382003EF
:100668001403F038C9388D39B93F03041A3802FF2A
:100678002E7228030038F938C93FF0382C031A388D
:1006880002FF642E3B0300384E392C03B03F1A3862
:1006980001FF2E0044030038C93F47031A3803FFFF
:1006A80075642E004C0300384E396003B03F1A3889
:1006B80004FF75642E7253030038F938EB020903FE
:1006C8001403F038C9388D39B93F03041A3806FFC6
:1006D80075642F6D6F645C030038F9384E39023940
:1006E800BC39F038BE38F938BC39F0381A3806FF4A
:1006F80064696769743F6B030038683FAB38373803
:1007080039007239373800010D3A9739AB38373824
:1007180040017239373807010D3A8D3937383000C2
:100728008D39AB38BF3E733856391A38003802391C
:10073800F903F038C938293AFE399739293AF9388E
:100748001A3802FF732C7B030038AB38AC031A3815
:1007580000383107AB38FE39DC3E053A8D39F938B7
:100768004E39F0073038BF03953AAB387338310744
:100778008B3CC33AB903F03822393038C603AB385A
:1007880092383107D3381A3805FF697479706500D3
:10079800A5030038AB38FE39DC3E053A8D39F93807
:1007A8004E39F0073038E103953AAB38C63BAB38E1
:1007B800EE03EA03293AC33AD903F038223930382C
:1007C800E803AB38C63BEE03D3381A380038F33A9F
:1007D800EE031A3800383738FF000D3AF43E1A385D
:1007E80006FF69636F756E74C8030038AB38293A21
:1007F800BE38C63B1A3804FF74797065F4030038B4
:100808009B3FF00730380E04953AA63A9238F43EEA
:10081800C33A09041A3801FF2700FF030038850589
:10082800C805D505AB386006E13FBE38C63B37384A
:100838005E01E13F163A303824043738F3FF883D2B
:10084800D3381A3805FF63736B6970000F040038DA
:10085800F938AB3830383A04C93892380239E13FB0
:1008680030383A04E83F760529382D04F038D33873
:100878001A3805FF637363616E0026040038F9387F
:10088800C938AB3892380239E13F14393038570447
:10089800BE382F3ABE38C9381B3914393038570496
:1008A800293A29384504EA38C9388D39F038D33817
:1008B8001A3806FF6163636570743D040038C938EF
:1008C80097392F3AC938053FAB38A3041439303863
:1008D8009504AB3837380800E13F30388504D33801
:1008E800DB38CB3E7239F938DB38DB38F038303852
:1008F80083049B042F3AF938C938F0381301293892
:100908009304AB38563F683930388C04D338563F97
:10091800AB38F43EC9388738293AC9381F01293815
:100928006704D338EA38BE388D39A33F1A380038FF
:1009380037380800AB38F43EB03FF43E1A38003878
:10094800AB3837380D00E13FBE3837380A00E13F91
:10095800163A1A3806FF726566696C6C5D04013ECA
:100968001A00CA3DD63D04FF63686172AE040038C0
:100978008505D33892381A3806FF6E756D62657230
:10098800B7040038BF3E7338F9380905F9381C0533
:100998000905F038163AF938AB3814393038DC0420
:1009A800D43EF038D338F038BF3E7B384E391A3849
:1009B800183B4E394E39273B3A05B3383038FE04D8
:1009C800E83FE13F3038F504923837382E00E13FF0
:1009D8003038F604F0383038F204FD01ED3F29389C
:1009E8000405D338D43EF038D338F038BF3E7B38CE
:1009F8004E391A38D43EF03830380305293EE83FDE
:100A0800F038BF3E7B3845391A380038C938923833
:100A180037382D00E13FAB38F93830381505E83F55
:100A28007605F0381A384C380A00100002000A001F
:100A38000038C9389238373823008D39AB384E39E9
:100A480037380400593E3038320517059739C63B08
:100A5800BF3E7B38E83F760529383305D3381A3846
:100A680007FF3E6E756D62657200C0040038AB38D2
:100A780030385205C9389238800314393038460561
:100A8800D3381A38F9382102BF3E73380401F038D8
:100A9800FC002102E83F760529383B051A3805FF96
:100AA80070617273650034050038F9386C05E43EEE
:100AB80073387605F0384204AB38293AE43E5F3A99
:100AC800E83F76051A3806FF736F7572636553053C
:100AD800013E1600CA3DD63D07FF2F737472696E3A
:100AE800670067050038DB38C9389739DB38DB38E9
:100AF8008D391A380AFF70617273652D6E616D65E4
:100B080070050038563F89051A380038F9386C05E1
:100B1800E43E7338760502392B04F0384204CB3EA4
:100B280097396C05D3388D39E43E7B381A3803FF82
:100B3800737030007E0569380600CA3DD63D02FF55
:100B480073709B055238080003FF72703000A305CC
:100B58000038B00573381A385238040005FF646548
:100B680070746800A80500389F05873A8D39FE39EA
:100B78002F3A1A3810FF666F7274682D7265636FAA
:100B8800676E697A6572B20569386000A23DAC3D4E
:100B98000DFF646F2D7265636F676E697A65720009
:100BA800BE0500383738E005BE386A0914393038D0
:100BB800DF05D43E60061A380038DB38DB38CB3E18
:100BC800183BDB382438273BDB38AB386006E13F7D
:100BD8003038F105D3384E391A38EA38EA38453909
:100BE8001A3809FF696E7465727072657400CC05F5
:100BF80000388505AB3830380D06C805D505B93E2F
:100C08007338303808068A01C63B24388D3F2938A6
:100C1800FD05D43E1A3805FF723A6E756D00F5056C
:100C28004C385E014707470706FF723A646E756DD8
:100C38000F064C385E01D93FD93F07FF7265633A0A
:100C48006E756D0018060038C50430383306E83F65
:100C5800E13F3038310614061A381D061A38600686
:100C68001A3808FF7265633A776F72642106003894
:100C7800D506AB38143930384406D33860061A38EC
:100C88004B061A3806FF723A776F726435064C388D
:100C98004F065306D93F0038D33824381A3800385D
:100CA8001B393038590631071A3824381A3806FFE4
:100CB800723A6661696C46064C38640664066406D6
:100CC80000383738F3FF883D0FFF7365617263683A
:100CD8002D776F72646C697374005B060038F9389D
:100CE8004E3937388706F038A406AB38143930380F
:100CF8008106D43ED3384E391A38AB38CB06BE38C5
:100D0800390127011A380038F938D338CB3E02396F
:100D1800BF06930130389506F038D3384E39453937
:100D28001A38D43EF0384E391A3811FF7472617689
:100D3800657273652D776F72646C697374006806E9
:100D48000038593BAB383038B506CB3E183BBE3877
:100D58002438273BDB383038B506D909C63B293853
:100D6800A606D43E1A380BFF6E616D653E73747229
:100D7800696E670099060038F9033738FF000D3AA5
:100D88001A3807FF6E66613E63666100B706003871
:100D9800D909293A1A3807FF66696E642D787400F4
:100DA800C50600383738E10637386C006A09143947
:100DB8003038E006D43E4E391A380038F938CB3E80
:100DC800F0387206AB383038EE06F938EA38EA38C7
:100DD800F03845391A3806FF6E6577657374CF06A3
:100DE8004238750106FF6C6174657374EF0642380A
:100DF800790108FF2863726561746529F606003871
:100E080085055A08AB38F4068B3C7B383F08F40656
:100E18007B381A3801005C00FD0600386C05EA389A
:100E2800E43E7B381A38010028000E0700383738AE
:100E380029005805D43E1A3807FF636F6D70696C36
:100E4800650017070038F038AB388A01F938C63B17
:100E580031071A3801FF2C0020070038143F6D3B7A
:100E6800143F293A7801153F1A3803005B275D00C3
:100E78002E070038120447071A3807006C69746592
:100E880072616C00390700382607373831071A387D
:100E98000800736C69746572616C41070038260735
:100EA8009A03A8031A380038143F2607FFFF1A3898
:100EB80000388D3F143FBE386D3B1A380038143F58
:100EC8001A3800388D3F31071A38050061686561A6
:100ED80064004C0700382607293857071A380200DB
:100EE8006966690700382607303857071A3804003A
:100EF800656C736573070038260729385707BE38AD
:100F08005C071A3804007468656E7B0700385C0754
:100F18001A380500626567696E008607003862073F
:100F28001A3805007768696C65008D070038760700
:100F3800BE381A3806007265706561749507003806
:100F4800B7078A071A380500756E74696C009E0722
:100F5800003837383038310765071A3805006167B7
:100F680061696E00A70700382607293865071A380F
:100F78000200646FB20700382607953A62074E39B7
:100F88001A081A3804006C6F6F70BC0700382607FF
:100F9800C33A01081A3805002B6C6F6F7000C6073A
:100FA80000382607B43A01081A3805006C656176DE
:100FB8006500CF0700382607CE3A6E071A081A3898
:100FC80003003F646F00D90700382607F00776074B
:100FD800BF07BE381A081A380038CB3EE13FAB3895
:100FE800F9383038F807D43EF038F7391A3807FF9F
:100FF800656E646C6F6F7000E407003865070E0853
:10100800B33830380A088A07293803081A3802FF23
:101018006C3EFB0700382D08733873383738FEFFED
:101028002D085F3A1A3802FF3E6C0B080038ED3F76
:101038002D085F3A2D0873387B381A3803FF6C7017
:101048003000170869386200A23DAC3D02FF6C70A1
:10105800220842387B0106FF6372656174652A08BD
:1010680000380307630826074C381A3806FF6865F6
:10107800616465722F080038143FF938F938AB38C5
:10108800223930385108AB38373800FF163AAC03EC
:10109800F038593B3107F0381A383738F0FF883DB7
:1010A80007FF776C73636F7065003A08013E5E0056
:1010B800A23DAC3D06FF72657665616C5408003848
:1010C800F4068B3C7338B33830386E08F40673383E
:1010D800BE38353B1A380500646F65733E005E08FC
:1010E80000382607870826070E9426077C081A3832
:1010F8009A938A93CB0101967F916F91BF93AF9397
:10110800DB010C9404380038F038F4068B3C733853
:10111800593BCB066D3B1A3801FF3A006F0800387F
:1011280003079E08D3381A3807FF3A6E6F6E616D51
:10113800650090080038143FAB38FB067B3826075B
:101148000038B3081A3801003B0098080038260711
:101158001A38BB0863081A3801FF5D00A708003871
:10116800E83FB93E7B381A3801005B00B008003808
:101178004E39B93E7B381A3808FF76617269616268
:101188006C65B8080038253FD208ED3F2E3F1A3865
:1011980008FF636F6E7374616E74C00800380307CC
:1011A80063082607423831071A3804FF75736572D9
:1011B800CC080038030763082607523831071A3865
:1011C80007007265637572736500D9080038FB06FD
:1011D800733831071A3809FF696D6D656469617480
:1011E8006500E40800389109593BAB38C63B3738ED
:1011F800FF7F0D3ABE386D3B1A3806005B636861A5
:10120800725DEF08003826073738BB0431071A38F3
:10121800060061626F727422010900388C3E26074D
:1012280023091A3805FF61626F7274000C090038CF
:101238004539883D06FF3F61626F727416090038B0
:10124800DB3830382909CD031B09D43E1A3809FF89
:101258006765742D737461636B001E090038AB38C1
:101268008B3CBE38593BAB38F9384E39BE38F0079D
:1012780030384909953AA63A2F3AC63EC9389739BF
:10128800593BBE384539B43A3F09D43EF0381A388C
:1012980009FF7365742D737461636B002B09003843
:1012A800CB3E353BBE384E39F00730386109953AA8
:1012B8008B3CDC3E353BC33A5C09D3381A3809FF0E
:1012C8006D61702D737461636B004C090038AB3825
:1012D8008B3CBE38593BC63E9B3FF00730388609E9
:1012E800953AA63A593BBE38F93802392438B3380A
:1012F80030388209F038D338CE3A1A38F038ED3F12
:10130800B43A7509D3384E391A380BFF6765742D0E
:1013180063757272656E7400630900383738680047
:10132800593B1A3809FF6765742D6F72646572003E
:101338008909003837386C0032091A3809FF6366A2
:10134800672D6F7264657200960942386C0007FF5A
:10135800636F6D7061726500A209B209BF93AF93A4
:101368008C0189919991DC01899199919C018991CC
:101378009991FC01ED90F190EF1451F40A9519F050
:101388002A95C1F701C02A95022B11F4882702C0BB
:101398008FEF00C0982FAF91BF910C94043807FFCE
:1013A8006E66613E6C666100AB090038BF06293A7B
:1013B800FE3997391A380BFF7365742D637572728D
:1013C800656E7400D309003837386800353B1A3821
:1013D80008FF776F72646C697374DF0900381D3F0A
:1013E8004E39C938353BAB388B3C78011E3F1A382B
:1013F8000EFF666F7274682D776F72646C69737410
:10140800EC0942386A0009FF7365742D6F726465D0
:101418007200FC09003837386C0053091A380FFF7E
:101428007365742D7265636F676E697A6572730090
:10143800070A003837387E0053091A380FFF6765E6
:10144800742D7265636F676E697A65727300130A2B
:10145800003837387E0032091A3804FF636F646534
:10146800220A003803076308143F8A0131071A3833
:1014780008FF656E642D636F6465310A00382607BE
:101488000C94260704381A3808FF286D61726B65BA
:1014980072293C0A69388A00A23DAC3D0800706F89
:1014A8007374706F6E65480A00388505C805D505E0
:1014B800AB38F9388A018A01C63B2438F0388A01EA
:1014C800C63B31071A380BFF6170706C7475726E09
:1014D8006B657900520A0038D600923C4301B03F50
:1014E8009A030A00466F7274686475696E6FCD035B
:0214F8001A38A0
:10700000BF93AF93DB0111966EF0FD01EE0FFF1FF2
:10701000659175911196FB01EE0FFF1F059115917A
:10702000F8010994E8946DEB7CE3F5CF04FF6578F3
:107030006974670A1B38AF91BF91E6CF07FF657887
:1070400065637574650016382538BC01899199917E
:10705000E2CF2A38FD01EE0FFF1FA591B591D4CFE5
:107060003138982B89919991A9F31196CDCF383861
:107070009A938A93FD01EE0FFF1F859195911196CA
:10708000C3CF42389A938A93FB013196EE0FFF1FCC
:1070900085919591B9CF4C389A938A93CB010196FB
:1070A000B3CF52389A938A93FB013196EE0FFF1FAC
:1070B00085919591840D951DA7CF07FF2876616C6A
:1070C000756529001E3800380307630826076938EC
:1070D0001A380E947C08AB388A01C63B24381A381B
:1070E00001FF40005D387438FC01819191918CCF93
:1070F00001FF210070387C38FC01899199919183BE
:1071000080838991999180CF02FF632178388838F4
:10711000FC018991999180838991999175CF02FFA2
:10712000634084389338FC01992780816DCF02FF3A
:1071300040758F380038FC3A973973381A3802FF97
:10714000217597380038FC3A97397B381A3803FF95
:10715000647570009F38AC389A938A9355CF04FFBA
:107160003F647570A738B438082F092B11F09A9333
:107170008A934ACF04FF73776170AF38BF388C01B0
:10718000899199911A930A933FCF04FF6F766572A4
:10719000BA38CA389A938A938A819B8135CF04FF83
:1071A00064726F70C538D438899199912DCF03FFDF
:1071B000726F7400CF38DC388C0129913991899134
:1071C00099913A932A931A930A931ECF03FF6E69FB
:1071D0007000D738EB38229617CF02FF723EE638A0
:1071E000F1389A938A938F919F910ECF02FF3E724E
:1071F000ED38FA389F938F938991999105CF02FFCB
:107200007240F63803399A938A938F919F919F9396
:107210008F93FACE02FF3C3EFF380038E13F14392D
:107220001A3802FF303D0A391539982BD1F530C094
:1072300002FF303C11391C3997FD2AC032C002FFD1
:10724000303E18392339821593055CF151F120C085
:1072500003FF64303E001F392D3982159305899153
:10726000999182059305ECF0E1F012C003FF6430C0
:107270003C0028393B39229697FD0C9448390C94F0
:10728000513904FF74727565363946399A938A9379
:107290008FEF9FEFB9CE01FF300041394F399A93FC
:1072A0008A93C101B1CE02FF753C4B395739299100
:1072B000399182179307A8F3A1F3EACF02FF753E35
:1072C00053390038BE3856391A3801FF3C005E3950
:1072D000693929913991281739071CF7D9CF01FF4E
:1072E0003E00653973392991399128173907CCF255
:1072F000C1F2CECF04FF6C6F67326F397F39FC016A
:10730000992780E18A9522F0EE0FFF1FD8F77CCEF7
:107310009A957ACE01FF2D007A398E39099119910B
:10732000081B190BC80170CE01FF2B008A39983950
:1073300009911991800F911F67CE02FF6D2A943930
:10734000A1398C01899199919C0131027001209F92
:10735000C0013003F308900DE11CF31C1203F30885
:10736000900DE11CF31C9A938A93C7014DCE06FF42
:10737000756D2F6D6F649D39BD397C0129913991EF
:107380000991199140E15527000F111F221F331F4A
:10739000551F2E153F05520518F003952E193F096C
:1073A0004A9589F73A932A93C8012ECE03FF756D4B
:1073B0002A00B739DB398C0189919991809FF001BE
:1073C00022273327909FF00D211D331D819FF00D43
:1073D000211D331D919F200D311DCF019A938A935A
:1073E000C90112CE06FF696E76657274D639F83916
:1073F0008095909509CE02FF322FF239FF3995958D
:10740000879502CE02FF322AFB39063A880F991F70
:10741000FBCD03FF616E6400023A0E3A09911991A7
:1074200080239123F1CD02FF6F72093A173A099137
:107430001991802B912BE8CD03FF786F7200133ADE
:10744000213A0991199180279127DECD02FF312B36
:107450001C3A2A3A0196D8CD02FF312D263A303A0D
:107460000197D2CD07FF3F6E6567617465002C3AC6
:1074700000381B3930383D3A293E1A3806FF6C7304
:1074800068696674323A443AFC018991999131975E
:107490001AF0880F991FFBCFB7CD06FF727368698A
:1074A00066743E3A533AFC018991999131971AF0EA
:1074B00096958795FBCFA8CD02FF2B214D3A603AD8
:1074C000FC018991999120813181820F931F8083E2
:1074D00091838991999198CD03FF727040005C3A35
:1074E000713A9A938A938DB79EB78ECD03FF7270CF
:1074F00021006C3A7B3A2FB7F8948DBF9EBF2FBF07
:107500008991999181CD03FF73704000763A883A52
:107510009A938A93CE0178CD03FF73702100833A4A
:10752000913AEC01899199916FCD963A29913991CF
:10753000E0E83E0F821B930B3F932F939F938F9313
:107540008991999161CD01FF69008C3AA73A9A938C
:107550008A938F919F91EF91FF91FF93EF939F9368
:107560008F938E0F9F1F50CDB53AEF91FF91E80F8B
:10757000F91F899199911BF0FF93EF936BCD0F91B8
:107580001F91119641CDC43AEF91FF913196BBF313
:10759000F3CF06FF756E6C6F6F70A33ACF3A1F91F1
:1075A0000F911F910F9130CD06FF636D6F76653E91
:1075B000C93ADA3ABF93AF93E991F991A991B99198
:1075C000092F082B41F0E80FF91FA80FB91F1E91D2
:1075D00012930197E1F7AF91BF918991999114CDE1
:1075E00002FF3E3CD43AF43A092F982F802F0CCD5D
:1075F00003FF75704000F03AFD3A9A938A93C201F6
:1076000003CD03FF75702100F83A063B2C018991E8
:107610009991FACC03FF316D7300013B0F3BE0EA17
:10762000FFE03197F1F7F0CC03FF323E72000A3BE6
:10763000193BFC01899199919F938F93FF93EF934D
:1076400089919991E1CC03FF32723E00143B283BB3
:107650009A938A93EF91FF918F919F919A938A9336
:10766000CF01D2CC02FF2165233B363BFC0189913F
:1076700099912FB7F89428D000B5081709F00BD0CE
:10768000319622D000B5091711F0892F04D02FBFF1
:1076900089919991B9CCF999FECF07B700FDFDCF3B
:1076A000F2BDE1BD80BDFA9AF99A089502FF4065E6
:1076B000323B5A3B2FB7F894FC0106D080B5319687
:1076C00003D090B52FBFA0CCF999FECFF2BDE1BD9C
:1076D000F89A089502FF2169563B013E8800A23DB9
:1076E000AC3D09FF2821692D6E72777729006A3B2E
:1076F000793B1FB71F93F8949C0189919991AF939F
:10770000BF93CF93DF9309D0DF91CF91BF91AF911A
:10771000899199911F911FBF77CC11D0E094F0947B
:107720008E219F21982B21F0B394F90102E020D003
:10773000F90104E01DD0F90100E11AD00895F90122
:10774000E07CFF7FEF01A0E4B0E0FE01EE0FFF1F41
:1077500045915591FE01E217F30711F00A0102C0AD
:107760007A010C01002704D02196119771F7089532
:10777000F999FECF17B710FDFDCFEE0FFF1F016087
:1077800007BFE895089502FF4069713BC73BFC01C4
:10779000EE0FFF1F8591959137CC03FF6E3E72006F
:1077A000C33BD23BFC01082F899199919F938F9302
:1077B0000A95D1F7EF93FF938991999125CC03FF17
:1077C0006E723E00CD3BE43B9A938A93FF91EF911A
:1077D0000E2F8F919F919A938A930A95D1F7CF019B
:1077E00013CC03FF64322A00DF3BF63B0991199169
:1077F000000F111F881F991F1A930A9305CC03FFCE
:1078000064322F00F13B043C0991199195958795BD
:10781000179507951A930A93F7CB02FF642BFF3B4A
:10782000113C29913991E990F99049915991240F8E
:10783000351F8E1D9F1D3A932A93E6CB02FF642DC0
:107840000D3C223C29913991E990F9904991599147
:10785000421B530BE80AF90A5A934A93C701D4CB47
:1078600007FF64696E76657274001E3C373C0991AF
:10787000199180959095009510951A930A93C4CB11
:1078800004FF2F6D6F64303C453C9C0109911991B8
:10789000412F432717FF04C0109500950F5F1F4F1E
:1078A00037FF04C0309520952F5F3F4FEE24FF181F
:1078B00051E1001F111F5A9539F447FF04C010957C
:1078C00000950F5F1F4F0BC0EE1CFF1CE21AF30A5E
:1078D00020F4E20EF31E8894ECCF0894EACFFA92DB
:1078E000EA92C80191CB03FF61627300403C00380B
:1078F000AB38383A1A3804FF7069636B733C003850
:10790000293AC63E873A973973381A3805FF6365B6
:107910006C6C2B007B3C8C3C029676CB04FF2B6975
:107920006E74863C933C78946FCB04FF2D696E7423
:107930008E3C9A3CF89468CB04FF696E7421953CA8
:107940000038373800009739353B1A3804FF696E24
:1079500074409C3C0038373800009739593B1A383E
:1079600008FF696E742D74726170A63CB73C8093F9
:10797000160189919991689447CB003837381601E0
:107980009238373800009739593B2438C83C1A38A8
:10799000C93C01D039CB189500389A030300206FF9
:1079A0006B00CD031A3803FF2E6F6B00B03C013E15
:1079B0001C00CA3DD63D00389A0302003E20A33F7A
:1079C000CD031A3806FF2E7265616479D33C013EFF
:1079D0002000CA3DD63D00389A030400203F3F20D6
:1079E000CD03BF3E7338F938433F4F03E43E73384D
:1079F0004F03F038BF3E7B381A3806FF2E6572728F
:107A00006F72E23C013E1E00CA3DD63D04FF717517
:107A10006974FD3C003826082D087B389F05903A94
:107A2000AC057A3ABB08B93E733814393038193D81
:107A3000E73CB30430382B3D3738FC05723DB33892
:107A400030382B3DAB383738FEFF68393038293DA8
:107A5000023D29380B3DD73C2938133D05FF7061A5
:107A600075736500063D013E7D01B63DC03D04FFD6
:107A7000636F6C642E3D3C3DA4B62224332424BEA7
:107A8000E0E0F1E02192E030E9F7FB30D9F7EFE7F1
:107A9000F1E02F010FEF0DBF04831AE01EBF158325
:107AA000CFEAC683DAE0D783ACE5BDE3ADCA04FF15
:107AB0007761726D373D00386C0237385E013738B8
:107AC000333DE13DBB085E3F0A3D07FF68616E64E0
:107AD0006C657200573D52380A0005FF636174639C
:107AE0006800653D0038873AF9386B3D7338F938DE
:107AF000703A6B3D7B382438F0386B3D7B38F0387A
:107B0000D3384E391A3805FF7468726F77006D3DAF
:107B10000038AB38143930388F3DD3381A386B3DC4
:107B200073387A3AF0386B3D7B38F038BE38F93824
:107B3000903AD338F0381A3807FF456465666572A5
:107B40004000833D0038C63B593B1A3807FF456467
:107B50006566657221009C3D0038C63B353B1A388E
:107B600007FF5264656665724000A63D0038C63B5B
:107B700073381A3807FF5264656665722100B03D9C
:107B80000038C63B7B381A3807FF55646566657256
:107B90004000BA3D0038C63BFC3A973973381A3872
:107BA00007FF5564656665722100C43D0038C63B19
:107BB000FC3A97397B381A3806FF6465666572218E
:107BC000D03D0038D23FAB388A018A01C63B243809
:107BD0001A3806FF646566657240DC3D0038D23FA6
:107BE000AB388A01C63B24381A3807FF286465661B
:107BF00065722900E93D0038030763082607013E46
:107C00001A380E947C08AB388A01C63B24382438D5
:107C10001A3802FF752EF53D00384E3957031A38D1
:107C200003FF752E7200093E00384E39BE386003DE
:107C30001A3805FF752F6D6F6400103E0038F93853
:107C40004E39F038BC391A3806FF6E6567617465C5
:107C5000193E0038F739293A1A3801FF2F00243E1F
:107C60000038443CEA381A3803FF6D6F64002D3E3B
:107C70000038443CD3381A3803FF6D696E00343E37
:107C80000038CB3E72393038463EBE38D3381A38C9
:107C900003FF6D6178003C3E0038CB3E68393038D8
:107CA000523EBE38D3381A3806FF77697468696E59
:107CB000483E0038C9388D39F9388D39F038563991
:107CC0001A380DFF73686F772D776F72646C697364
:107CD0007400543E00383738703EBE38A4061A3857
:107CE0000038BF06CD03B03F45391A3805FF776F1E
:107CF00072647300613E003837386E00593B6A3E4B
:107D00001A3802002E22763E00388C3E2607CD031C
:107D10001A3802007322813E003837382200580595
:107D2000B93E73383038953E52071A3804FF6669F9
:107D30006C6C893E0038DB38DB38B3383038A73E0E
:107D40009B3F953AAB38A63A8738C33AA23ED33820
:107D50001A3805FF665F63707500963E0038373845
:107D600000243738F4001A3805FF73746174650015
:107D7000A93E4238AB0104FF62617365B43E5238DC
:107D80000C0005FF63656C6C7300BB3E063A04FF94
:107D900032647570C13E0038C938C9381A3805FFD9
:107DA0003264726F7000C73E0038D338D3381A3847
:107DB00004FF7475636BCF3E0038BE38C9381A387B
:107DC00003FF3E696E00D83E5238180003FF706111
:107DD0006400E03E0038253F3738280097391A38CC
:107DE00004FF656D6974E63E013E0E00CA3DD63D56
:107DF00005FF656D69743F00F03E013E1000CA3D0D
:107E0000D63D03FF6B657900F83E013E1200CA3D86
:107E1000D63D04FF6B65793F013F013E1400CA3D2A
:107E2000D63D02FF6470093F69385800A23DAC3D61
:107E300005FF656865726500113F69385C00A23D09
:107E4000AC3D04FF68657265183F69385A00A23D71
:107E5000AC3D05FF616C6C6F7400213F0038253F1D
:107E600097397801263F1A3803FF62696E00293F6F
:107E70000038ED3FBF3E7B381A3807FF6465636901
:107E80006D616C00343F003837380A00BF3E7B38E4
:107E90001A3803FF686578003D3F00383738100016
:107EA000BF3E7B381A3802FF626C493F42382000DF
:107EB00007FF7475726E6B657900533F013E640075
:107EC000A23DAC3D07FF746F757070657200583F3E
:107ED0000038AB383738610037387B00593E3038CE
:107EE000743F3738DF000D3A1A3807FF746F6C6F34
:107EF00077657200623F0038AB3837384100373859
:107F00005B00593E3038873F37382000163A1A3820
:107F100006FF3F737461636B753F0038B7051B390B
:107F20003038953F3738FCFF883D1A3806FF626FBE
:107F3000756E6473883F0038C9389739BE381A386F
:107F400002FF6372963F003837380D00F43E373831
:107F50000A00F43E1A3805FF737061636500A03FA4
:107F60000038563FF43E1A3806FF7370616365733C
:107F7000AB3F00384E394C3EAB383038C33FB03F92
:107F80002F3A2938BC3FD3381A3803FF733E6400B8
:107F9000B43F0038AB381B391A3805FF3E626F64B6
:107FA0007900C53F2A3A0800326C69746572616CC9
:107FB000CD3F0038BE38470747071A3801FF3D005C
:107FC000D33F00388D3914391A3801FF3100DE3FB4
:107FD0004238010001FF3200E53F4238020002FF53
:087FE0002D31EA3F4238FFFF9A
:00000001FF
