:020000020000FC
:02000400DAD050
:02000800D8D04E
:02000C00D6D04C
:02001000D4D04A
:02001400D2D048
:02001800D0D046
:02001C00CED044
:02002000CCD042
:02002400CAD040
:02002800C8D03E
:02002C00C6D03C
:02003000C4D03A
:02003400C2D038
:02003800C0D036
:02003C00BED034
:02004000BCD032
:02004400BAD030
:02004800B8D02E
:02004C00B6D02C
:02005000B4D02A
:02005400B2D028
:02005800B0D026
:02005C00AED024
:02006000ACD022
:02006400AAD020
:02006800A8D01E
:02006C00A6D01C
:02007000A4D01A
:02007400A2D018
:02007800A0D016
:02007C009ED014
:020080009CD012
:020084009AD010
:1000880098D000400010FFFF23000B0041546D651D
:1000980067613132383450000091C600033011F4E2
:1000A8000C94000010911201E0E0F1E0E10FF31D63
:1000B800008313951F7010931201089500F040F00B
:1000C800990040F028009DF440F0000140F016002F
:1000D80060F1EDF420F006FF72782D62756600007D
:1000E80000F08F0039F0750040F01401A4F0BDF065
:1000F80040F00001A9F1A4F0D0F03BF240F00F006D
:100108001FF240F0140199F020F007FF72783F2D9C
:10011800627566006F0000F06FFA40F01401A4F0F9
:1001280040F01201A4F01FF120F09A00B5DF0C9402
:1001380004F007FF74782D706F6C6C00890000F074
:10014800B10039F0A40040F0C60099F020F008FF93
:1001580074783F2D706F6C6C9D0000F06FFA40F062
:10016800C000A4F040F020001FF220F004FF7562E8
:100178007272AB007BF09E00D1FBDBFB06FF2B7598
:1001880073617274BA0000F040F0980040F0C1004A
:1001980099F040F0060040F0C20099F0BE00BDF0B2
:1001A80005F340F0C50099F040F0C40099F06200F2
:0201B80020F035
:040000000C9478FAEA
:1001BA000A920FB60A920F900F900A9400921601B3
:1001CA0009900FBE09906894089502FF6D2BC20032
:1001DA0000F095FD2BF420F003FF75642A00EA0075
:1001EA0000F0BDF00BF1ECF1E5F0D0F002F1ECF12A
:1001FA00EDF0A9F120F004FF756D6178F10000F0CF
:10020A0083F568F139F00A01D0F0E5F020F004FF37
:10021A00756D696E000100F083F573F139F016010E
:10022A00D0F0E5F020F000F040F000801FF226F157
:10023A0039F02101B4FD20F057F120F00AFF6E6178
:10024A006D653E666C6167730C0100F0DEF340F089
:10025A0000FF1FF220F006FF6E65776573742301B5
:10026A004EF0170106FF6C617465737430014EF02D
:10027A001B0108FF2863726561746529370100F064
:10028A00D2F99B02BDF035017CF58DF08002350173
:10029A008DF020F001005C003E0100F0B9F9FCF09D
:1002AA009CF58DF020F0010028004F0100F040F08D
:1002BA002900A5F98CF520F007FF636F6D70696C52
:1002CA006500580100F002F1BDF0C8FB0BF1DEF346
:1002DA00720120F001FF2C00610100F0CCF57FF3E0
:1002EA00CCF53BF2B6FBCDF520F003005B275D00B1
:1002FA006F0100F028F8880120F007006C69746526
:10030A0072616C007A0100F0670140F0720120F01E
:10031A000800736C69746572616C820100F0670190
:10032A008BF799F720F000F0CCF56701FFFF20F07A
:10033A0000F074FBCCF5D0F07FF320F000F0CCF5A0
:10034A0020F000F074FB720120F00500616865611D
:10035A0064008D0100F067012FF0980120F002007F
:10036A006966AA0100F0670139F0980120F00400DB
:10037A00656C7365B40100F067012FF09801D0F045
:10038A009D0120F004007468656EBC0100F09D01B7
:10039A0020F00500626567696E00C70100F0A301DD
:1003AA0020F005007768696C6500CE0100F0B7019E
:1003BA00D0F020F00600726570656174D60100F015
:1003CA00F801CB0120F00500756E74696C00DF013D
:1003DA0000F040F039F07201A60120F005006167D3
:1003EA0061696E00E80100F067012FF0A60120F0B4
:1003FA000200646FF30100F06701A7F2A30160F144
:10040A005B0220F004006C6F6F70FD0100F0670161
:10041A00D5F2420220F005002B6C6F6F70000702C4
:10042A0000F06701C6F2420220F005006C656176B1
:10043A006500100200F06701E0F2AF015B0220F0F4
:10044A0003003F646F001A0200F067013102B7012E
:10045A000002D0F05B0220F000F083F5ADFDBDF0A4
:10046A000BF139F039028CF502F109F220F007FF9D
:10047A00656E646C6F6F7000250200F0A6014F0272
:10048A00C5F039F04B02CB012FF0440220F002FFF5
:10049A006C3E3C0200F06E0285F085F040F0FEFFF3
:1004AA006E0271F220F002FF3E6C4C0200F0B9FDC0
:1004BA006E0271F26E0285F08DF020F003FF6C700F
:1004CA00300058027BF05200D1FBDBFB02FF6C705C
:1004DA0063024EF01D0106FF6372656174656B026B
:1004EA0000F04401A40267015BF020F006FF686592
:1004FA0061646572700200F0CCF50BF10BF1BDF08E
:10050A0034F139F09202BDF040F000FF28F29DF775
:10051A0002F16BF3720102F120F040F0F0FF5FF894
:10052A0007FF776C73636F7065007B0230FC4E00C7
:10053A00D1FBDBFB06FF72657665616C950200F004
:10054A0035017CF585F0C5F039F0AF02350185F04B
:10055A00D0F047F320F00500646F65733E009F02F8
:10056A0000F06701C80267010E946701BD0220F01E
:10057A009A938A93CB0101967F916F91BF93AF9320
:10058A00DB010C9404F000F002F135017CF585F0F2
:10059A006BF39BFC7FF320F001FF3A00B00200F0FE
:1005AA004401DF02E5F020F007FF3A6E6F6E616DDD
:1005BA006500D10200F0CCF5BDF03C018DF0670179
:1005CA0000F0F40220F001003B00D90200F06701BC
:1005DA0020F0FC02A40220F001FF5D00E80200F016
:1005EA00B4FD69F58DF020F001005B00F10200F026
:1005FA0060F169F58DF020F008FF76617269616239
:10060A006C65F90200F0DDF51303B9FDE6F520F09B
:10061A0008FF636F6E7374616E74010300F0440126
:10062A00A40267014EF0720120F004FF757365722F
:10063A000D0300F04401A402670161F0720120F089
:10064A00070072656375727365001A0300F03C0156
:10065A0085F0720120F009FF696D6D656469617446
:10066A006500250300F0D2036BF3BDF0DEF340F022
:10067A00FF7F1FF2D0F07FF320F006005B63686112
:10068A00725D300300F0670140F008F9720120F052
:10069A00060061626F727422420300F0DFF46701A0
:1006AA00640320F005FF61626F7274004D0300F06D
:1006BA0057F15FF806FF3F61626F7274570300F0EB
:1006CA00EDF039F06A03BEF75C038CF520F009FF00
:1006DA006765742D737461636B005F0300F0BDF08E
:1006EA007CF5D0F06BF3BDF00BF160F1D0F0310284
:1006FA0039F08A03A7F2B8F241F276F5DBF0A9F1F4
:10070A006BF3D0F057F1C6F280038CF502F120F0BA
:10071A0009FF7365742D737461636B006C0300F0D9
:10072A0083F547F3D0F060F1310239F0A203A7F262
:10073A007CF594F547F3D5F29D03E5F020F009FF27
:10074A006D61702D737461636B008D0300F0BDF0F1
:10075A007CF5D0F06BF376F58CFD310239F0C703E6
:10076A00A7F2B8F26BF3D0F00BF114F12AF0C5F04E
:10077A0039F0C30302F1E5F0E0F220F002F1B9FD2D
:10078A00C6F2B603E5F060F120F00BFF6765742D41
:10079A0063757272656E7400A40300F040F058002D
:1007AA006BF320F009FF6765742D6F726465720040
:1007BA00CA0300F040F05C00730320F009FF63668F
:1007CA00672D6F7264657200D7034EF05C0007FFF5
:1007DA00636F6D7061726500E303F303BF93AF93B8
:1007EA008C0189919991DC01899199919C01899156
:1007FA009991FC01ED90F190EF1451F40A9519F0DA
:10080A002A95C1F701C02A95022B11F4882702C044
:10081A008FEF00C0982FAF91BF910C9404F007FF9F
:10082A006E66613E6C666100EC0300F08FFC3BF281
:10083A0010F2A9F120F00BFF7365742D63757272C3
:10084A00656E7400140400F040F0580047F320F07D
:10085A0008FF776F72646C697374200400F0D5F531
:10086A0060F1DBF047F3BDF07CF5B6FBD6F520F07E
:10087A000EFF666F7274682D776F72646C69737499
:10088A002D044EF05A0009FF7365742D6F7264656A
:10089A0072003D0400F040F05C00940320F00FFF6A
:1008AA007365742D7265636F676E697A657273001A
:1008BA00480400F040F06E00940320F00FFF6765D3
:1008CA00742D7265636F676E697A6572730054047A
:1008DA0000F040F06E00730320F004FF636F64655C
:1008EA00630400F04401A402CCF5C8FB720120F0B5
:1008FA0008FF656E642D636F6465720400F067011A
:10090A000C94670104F020F008FF286D61726B6592
:10091A0072297D047BF07A00D1FBDBFB0800706F43
:10092A007374706F6E65890400F0D2F9E9FAF6FA09
:10093A00BDF00BF1C8FBC8FBDEF32AF002F1C8FBDD
:10094A00DEF3720120F00BFF6170706C7475726EC9
:10095A006B657900930400F0C7008FF481FB20F0E7
:10096A0002FF2E73A80400F0BEFA5EF400F8BEFA85
:10097A0060F1310239F0C704A7F2B8F2CDF45EF49F
:10098A00D5F2C20420F00AFF6275696C642D696EA3
:10099A00666FB50400F08BF715004E6F762032377C
:1009AA002C20323031362032313A32313A3232006A
:1009BA0020F005FF706C61636500C80400F083F5E0
:1009CA0099F03BF2D0F01AFD20F004FF776F7264C1
:0E09DA00DE0400F0D6F9DDF5E304DDF520F0D3
:020000021000EC
:10E00000BF93AF93DB0111969EF0FD015527EE0FF4
:10E01000FF1F551F5BBF679177911196FB01552735
:10E02000EE0FFF1F551F5BBF07911791F801099471
:10E03000E8946AEB74EFF2CF04FF65786974EA0440
:10E0400021F0AF91BF91E0CF07FF657865637574EC
:10E0500065001CF02BF0BC0189919991DFCF30F065
:10E06000FD015527EE0FFF1F551F5BBFA791B7910D
:10E07000CBCF3AF0982B8991999191F31196C4CF17
:10E0800041F09A938A93FD015527EE0FFF1F551F0C
:10E090005BBF879197911196B7CF4EF09A938A9371
:10E0A000FB0131965527EE0FFF1F551F5BBF879170
:10E0B0009791AACF5BF09A938A93CB010196A4CF54
:10E0C00061F09A938A93FB0131965527EE0FFF1F5B
:10E0D000551F5BBF87919791840D951D95CF07FFC5
:10E0E0002876616C7565290024F000F04401A402D3
:10E0F00067017BF020F00E94BD02BDF0C8FBDEF39B
:10E100002AF020F001FF40006FF086F0FC018191C1
:10E1100091917ACF01FF210082F08EF0FC0189916C
:10E12000999191838083899199916ECF02FF6321A8
:10E130008AF09AF0FC018991999180838991999153
:10E1400063CF02FF634096F0A5F0FC019927808120
:10E150005BCF02FF4075A1F000F00EF3A9F185F04E
:10E1600020F002FF2175A9F000F00EF3A9F18DF067
:10E1700020F003FF64757000B1F0BEF09A938A93AB
:10E1800043CF04FF3F647570B9F0C6F0082F092B28
:10E1900011F09A938A9338CF04FF73776170C1F0BE
:10E1A000D1F08C01899199911A930A932DCF04FF94
:10E1B0006F766572CCF0DCF09A938A938A819B81AA
:10E1C00023CF04FF64726F70D7F0E6F089919991C4
:10E1D0001BCF03FF726F7400E1F0EEF08C01299108
:10E1E0003991899199913A932A931A930A930CCF72
:10E1F00003FF6E697000E9F0FDF0229605CF02FF83
:10E20000723EF8F003F19A938A938F919F91FCCE1E
:10E2100002FF3E72FFF00CF19F938F9389919991C9
:10E22000F3CE02FF724008F115F19A938A938F9111
:10E230009F919F938F93E8CE02FF3C3E11F100F037
:10E24000ADFD26F120F002FF303D1CF127F1982BA7
:10E25000D1F530C002FF303C23F12EF197FD2AC0EA
:10E2600032C002FF303E2AF135F1821593055CF190
:10E2700051F120C003FF64303E0031F13FF18215BF
:10E2800093058991999182059305ECF0E1F012C014
:10E2900003FF64303C003AF14DF1229697FD0C9457
:10E2A0005AF10C9463F104FF7472756548F158F1EA
:10E2B0009A938A938FEF9FEFA7CE01FF300053F11F
:10E2C00061F19A938A93C1019FCE02FF753C5DF183
:10E2D00069F12991399182179307A8F3A1F3EACF45
:10E2E00002FF753E65F100F0D0F068F120F001FF0B
:10E2F0003C0070F17BF129913991281739071CF7FF
:10E30000D9CF01FF3E0077F185F129913991281786
:10E310003907CCF2C1F2CECF04FF6C6F673281F1C6
:10E3200091F1FC01992780E18A9522F0EE0FFF1F01
:10E33000D8F76ACE9A9568CE01FF2D008CF1A0F136
:10E3400009911991081B190BC8015ECE01FF2B0022
:10E350009CF1AAF109911991800F911F55CE02FFEE
:10E360006D2AA6F1B3F18C01899199919C0131023A
:10E370007001209FC0013003F308900DE11CF31CD5
:10E380001203F308900DE11CF31C9A938A93C701C2
:10E390003BCE06FF756D2F6D6F64AFF1CFF17C0141
:10E3A000299139910991199140E15527000F111FC9
:10E3B000221F331F551F2E153F05520518F00395D8
:10E3C0002E193F094A9589F73A932A93C8011CCE22
:10E3D00003FF756D2A00C9F1EDF18C0189919991C6
:10E3E000809FF00122273327909FF00D211D331DC0
:10E3F000819FF00D211D331D919F200D311DCF01F7
:10E400009A938A93C90100CE06FF696E766572748D
:10E41000E8F10AF280959095F7CD02FF322F04F2D1
:10E4200011F295958795F0CD02FF322A0DF218F280
:10E43000880F991FE9CD03FF616E640014F220F28A
:10E440000991199180239123DFCD02FF6F721BF296
:10E4500029F209911991802B912BD6CD03FF786F6A
:10E46000720025F233F20991199180279127CCCDC2
:10E4700002FF312B2EF23CF20196C6CD02FF312D68
:10E4800038F242F20197C0CD07FF3F6E65676174B5
:10E4900065003EF200F02DF139F04FF25DF620F00C
:10E4A00006FF6C736869667444F256F2FC01899148
:10E4B000999131971AF0880F991FFBCFA5CD06FFD0
:10E4C00072736869667450F265F2FC0189919991E2
:10E4D00031971AF096958795FBCF96CD02FF2B21A9
:10E4E0005FF272F2FC018991999120813181820F52
:10E4F000931F808391838991999186CD03FF7270D8
:10E5000040006EF283F29A938A938DB79EB77CCDCA
:10E5100003FF727021007EF28DF22FB7F8948DBF49
:10E520009EBF2FBF899199916FCD03FF73704000FB
:10E5300088F29AF29A938A93CE0166CD03FF7370A4
:10E54000210095F2A3F2EC01899199915DCDA8F299
:10E5500029913991E0E83E0F821B930B3F932F9353
:10E560009F938F93899199914FCD01FF69009EF2FE
:10E57000B9F29A938A938F919F91EF91FF91FF93B4
:10E58000EF939F938F938E0F9F1F3ECDC7F2EF9116
:10E59000FF91E80FF91F899199911BF0FF93EF9379
:10E5A0005FCD0F911F9111962FCDD6F2EF91FF9174
:10E5B0003196BBF3F3CF06FF756E6C6F6F70B5F2DB
:10E5C000E1F21F910F911F910F911ECD06FF636D18
:10E5D0006F76653EDBF2ECF2BF93AF93E991F99170
:10E5E000A991B991092F082B41F0E80FF91FA80F45
:10E5F000B91F1E9112930197E1F7AF91BF918991D5
:10E60000999102CD02FF3E3CE6F206F3092F982FC6
:10E61000802FFACC03FF7570400002F30FF39A933A
:10E620008A93C201F1CC03FF757021000AF318F33D
:10E630002C0189919991E8CC03FF316D730013F39C
:10E6400021F3E0EDF7E03197F1F7DECC03FF323E46
:10E6500072001CF32BF3FC01899199919F938F9386
:10E66000FF93EF9389919991CFCC03FF32723E00D3
:10E6700026F33AF39A938A93EF91FF918F919F91AA
:10E680009A938A93CF01C0CC02FF216535F348F3FA
:10E69000FC01899199912FB7F89428D000B50817FB
:10E6A00009F00BD0319622D000B5091711F0892F4F
:10E6B00004D02FBF89919991A7CCF999FECF07B7C4
:10E6C00000FDFDCFF2BDE1BD80BDFA9AF99A089533
:10E6D00002FF406544F36CF32FB7F894FC0106D0B9
:10E6E00080B5319603D090B52FBF8ECCF999FECF6F
:10E6F000F2BDE1BDF89A089502FF216968F330FC8C
:10E700007800D1FBDBFB09FF2821692D6E7277773A
:10E7100029007CF38BF31FB71F93F8949C01899118
:10E720009991AF93BF93CF93DF9309D0DF91CF91AE
:10E73000BF91AF91899199911F911FBF65CC11D065
:10E74000E094F0948E219F21982B21F0B394F9014D
:10E7500002E023D0F90104E020D0F90100E11DD04E
:10E760000895F901E078FF7FEF01A0E8B0E0FE0135
:10E770005527EE0FFF1F551F5BBF47915791FE01B5
:10E78000E217F30711F00A0102C07A010C01002719
:10E7900004D02196119759F70895F999FECF17B72C
:10E7A00010FDFDCF5527EE0FFF1F551F5BBF01600A
:10E7B00007BFE895089502FF406983F3DFF3FC018A
:10E7C0005527EE0FFF1F551F5BBF879197911CCCFC
:10E7D00003FF6E3E7200DBF3EDF3FC01082F89911D
:10E7E00099919F938F930A95D1F7EF93FF93899116
:10E7F00099910ACC03FF6E723E00E8F3FFF39A93FF
:10E800008A93FF91EF910E2F8F919F919A938A9304
:10E810000A95D1F7CF01F8CB03FF64322A00FAF34F
:10E8200011F409911991000F111F881F991F1A9354
:10E830000A93EACB03FF64322F000CF41FF4099112
:10E84000199195958795179507951A930A93DCCB9F
:10E8500002FF642B1AF42CF429913991E990F99074
:10E8600049915991240F351F8E1D9F1D3A932A936C
:10E87000CBCB02FF642D28F43DF429913991E99026
:10E88000F99049915991421B530BE80AF90A5A939E
:10E890004A93C701B9CB07FF64696E76657274004D
:10E8A00039F452F40991199180959095009510953D
:10E8B0001A930A93A9CB02FF752E4BF400F060F176
:10E8C00048F720F003FF752E72005BF400F060F152
:10E8D000D0F051F720F00DFF73686F772D776F72CE
:10E8E000646C6973740062F400F040F07AF4D0F064
:10E8F00074FC20F000F08FFCBEF700F857F120F018
:10E9000005FF776F726473006BF400F040F05E00F7
:10E910006BF374F420F004FF2B696E7480F490F4B0
:10E92000789472CB04FF2D696E748BF497F4F8948D
:10E930006BCB04FF696E742192F400F040F000008C
:10E94000A9F147F320F004FF696E744099F400F0D8
:10E9500040F00000A9F16BF320F008FF696E742D00
:10E9600074726170A3F4B4F4809316018991999143
:10E9700068944ACB00F040F01601A4F040F000008B
:10E98000A9F16BF32AF0C5F420F0C6F401D03CCB1A
:10E99000189504FF7069636BADF400F03BF276F5F7
:10E9A00099F2A9F185F020F002002E22C9F400F0BE
:10E9B000DFF46701BEF720F002007322D4F400F008
:10E9C00040F02200A5F969F585F039F0E8F49301EB
:10E9D00020F004FF66696C6CDCF400F0EDF0EDF003
:10E9E000C5F039F0FAF48CFDA7F2BDF0B8F299F059
:10E9F000D5F2F5F4E5F020F00BFF656E7669726FE5
:10EA00006E6D656E7400E9F44EF0560009FF776F85
:10EA100072646C6973747300000000F040F00800C9
:10EA200020F004FF2F70616406F500F099F2A2F562
:10EA30009FF120F005FF2F686F6C640011F500F066
:10EA4000A2F5DDF59FF120F00AFF666F7274682D64
:10EA50006E616D651AF500F08BF70700616D666FEA
:10EA60007274680020F007FF76657273696F6E003C
:10EA700024F500F040F03F0020F003FF63707500C4
:10EA800033F500F040F04900EAF720F008FF6D632D
:10EA9000752D696E666F3DF500F040F0450020F081
:10EAA00005FF2F757365720046F500F040F02C00ED
:10EAB00020F005FF665F63707500FCF400F040F025
:10EAC000001240F07A0020F005FF73746174650055
:10EAD00059F54EF01F0104FF6261736564F561F042
:10EAE0000C0005FF63656C6C73006BF518F205FF95
:10EAF00063656C6C2B0071F57DF5029685CA04FF89
:10EB00003264757077F500F0DBF0DBF020F005FF84
:10EB10003264726F70007FF500F0E5F0E5F020F0F0
:10EB200004FF7475636B87F500F0D0F0DBF020F024
:10EB300003FF3E696E0090F561F0180003FF7061FD
:10EB4000640098F500F0DDF540F02800A9F120F010
:10EB500004FF656D69749EF530FC0E00F9FB05FC41
:10EB600005FF656D69743F00A8F530FC1000F9FBE6
:10EB700005FC03FF6B657900B0F530FC1200F9FB72
:10EB800005FC04FF6B65793FB9F530FC1400F9FB17
:10EB900005FC02FF6470C1F57BF04800D1FBDBFB94
:10EBA00005FF656865726500C9F57BF04C00D1FB17
:10EBB000DBFB04FF68657265D0F57BF04A00D1FB92
:10EBC000DBFB05FF616C6C6F7400D9F500F0DDF5BF
:10EBD000A9F1B6FBDEF520F003FF62696E00E1F5F6
:10EBE00000F0B9FD6FF58DF020F007FF64656369F3
:10EBF0006D616C00ECF500F040F00A006FF58DF0EF
:10EC000020F003FF68657800F5F500F040F0100093
:10EC10006FF58DF020F002FF626C01F64EF02000DF
:10EC200007FF7475726E6B6579000BF630FC54004B
:10EC3000D1FBDBFB04FF2F6D6F6410F61FF69C0108
:10EC400009911991412F432717FF04C01095009592
:10EC50000F5F1F4F37FF04C0309520952F5F3F4F48
:10EC6000EE24FF1851E1001F111F5A9539F447FF98
:10EC700004C0109500950F5F1F4F0BC0EE1CFF1CCA
:10EC8000E21AF30A20F4E20EF31E8894ECCF089403
:10EC9000EACFFA92EA92C801B7C905FF752F6D6FE6
:10ECA00064001AF600F00BF160F102F1CEF120F0F1
:10ECB00006FF6E65676174654DF600F009F23BF280
:10ECC00020F001FF2F0058F600F01EF6FCF020F0B7
:10ECD00003FF6D6F640061F600F01EF6E5F020F0B2
:10ECE00003FF6162730068F600F0BDF04AF220F0A5
:10ECF00003FF6D696E0070F600F083F584F139F062
:10ED000082F6D0F0E5F020F003FF6D61780078F630
:10ED100000F083F57AF139F08EF6D0F0E5F020F0CE
:10ED200006FF77697468696E84F600F0DBF09FF186
:10ED30000BF19FF102F168F120F007FF746F75701D
:10ED40007065720090F600F0BDF040F0610040F098
:10ED50007B0095F639F0AFF640F0DF001FF220F0AF
:10ED600007FF746F6C6F776572009DF600F0BDF061
:10ED700040F0410040F05B0095F639F0C2F640F0FB
:10ED8000200028F220F003FF686C6400B0F64EF01B
:10ED9000210104FF686F6C64C3F600F0C7F6BDF094
:10EDA00085F041F2BDF00BF1D0F08DF002F199F059
:10EDB00020F002FF3C23C9F600F0A2F5C7F68DF063
:10EDC00020F001FF2300D9F600F06FF585F061F720
:10EDD000EDF040F00900DBF07AF139F0F2F640F0A6
:10EDE0000700A9F140F03000A9F1CDF620F002FFB4
:10EDF0002373E1F600F0E4F683F528F226F139F00A
:10EE0000FBF620F002FF233EF7F600F08CF5C7F684
:10EE100085F0A2F5DBF09FF120F004FF7369676EC7
:10EE200002F700F02DF139F018F740F02D00CDF683
:10EE300020F003FF642E72000DF700F00BF194F543
:10EE400002FDDCF6FAF6EDF011F705F702F1DBF062
:10EE50009FF109F819F820F002FF2E7219F700F05F
:10EE60000BF195FD02F11DF720F002FF642E2CF747
:10EE700000F060F11DF700F820F001FF2E0035F7DB
:10EE800000F095FD38F720F003FF75642E003DF784
:10EE900000F060F151F700F820F004FF75642E7265
:10EEA00044F700F00BF1DCF6FAF605F702F1DBF0BF
:10EEB0009FF109F819F820F006FF75642F6D6F6453
:10EEC0004DF700F00BF160F114F1CEF102F1D0F04A
:10EED0000BF1CEF102F120F006FF64696769743F1F
:10EEE0005CF700F0A3F6BDF040F0390084F140F08B
:10EEF00000011FF2A9F1BDF040F0400184F140F0A3
:10EF000007011FF29FF140F030009FF1BDF06FF557
:10EF100085F068F120F000F014F1EAF702F1DBF07F
:10EF20003BF210F2A9F13BF20BF120F002FF732C3F
:10EF30006CF700F0BDF09DF720F000F07201BDF01D
:10EF400010F294F517F29FF10BF160F1310239F0F4
:10EF5000B0F7A7F2BDF085F072017CF5D5F2AAF703
:10EF600002F134F139F0B7F7BDF0A4F07201E5F029
:10EF700020F005FF69747970650096F700F0BDF028
:10EF800010F294F517F29FF10BF160F1310239F0B4
:10EF9000D2F7A7F2BDF0DEF3BDF0DFF7DBF73BF20F
:10EFA000D5F2CAF702F134F139F0D9F7BDF0DEF34A
:10EFB000DFF7E5F020F000F005F3DFF720F000F0D8
:10EFC00040F0FF001FF2ACF520F006FF69636F759B
:10EFD0006E74B9F700F0BDF03BF2D0F0DEF320F034
:10EFE00002FF6372E5F700F040F00D00ACF540F071
:10EFF0000A00ACF520F005FF737061636500F0F75F
:10F0000000F00EF6ACF520F006FF737061636573D7
:10F01000FBF700F060F188F6BDF039F013F800F866
:10F0200041F22FF00CF8E5F020F004FF74797065E0
:10F0300004F800F08CFD310239F024F8A7F2B8F2A0
:10F04000A4F0ACF5D5F21FF820F001FF270015F869
:10F0500000F0D2F9E9FAF6FABDF067FBADFDD0F0A9
:10F06000DEF340F09CFBADFD28F239F03AF840F0B9
:10F07000F3FF5FF8E5F020F007FF68616E646C65F0
:10F08000720025F861F00A0005FF6361746368008F
:10F090003CF800F099F20BF142F885F00BF182F2A6
:10F0A00042F88DF02AF002F142F88DF002F1E5F01D
:10F0B00060F120F005FF7468726F770044F800F08B
:10F0C000BDF026F139F066F8E5F020F042F885F061
:10F0D0008CF202F142F88DF002F1D0F00BF1A2F2C5
:10F0E000E5F002F120F005FF63736B6970005AF8D8
:10F0F00000F00BF1BDF039F087F8DBF0A4F014F16B
:10F10000ADFD39F087F8B4FDC3F92FF07AF802F1BC
:10F11000E5F020F005FF637363616E0073F800F0A3
:10F120000BF1DBF0BDF0A4F014F1ADFD26F139F0E8
:10F13000A4F8D0F041F2D0F0DBF02DF126F139F057
:10F14000A4F83BF22FF092F8FCF0DBF09FF102F113
:10F15000E5F020F006FF6163636570748AF800F0E3
:10F16000DBF0A9F141F2DBF0BDF5BDF0F0F826F1DE
:10F1700039F0E2F8BDF040F00800ADFD39F0D2F80A
:10F18000E5F0EDF083F584F10BF1EDF0EDF002F137
:10F1900039F0D0F8E8F841F20BF1DBF002F10401AC
:10F1A0002FF0E0F8BDF00EF67AF139F0D9F8E5F07D
:10F1B0000EF6BDF0ACF5DBF099F03BF2DBF01001A0
:10F1C0002FF0B4F8E5F0FCF0D0F09FF1F3F720F069
:10F1D00000F040F00800BDF0ACF500F8ACF520F010
:10F1E00000F0BDF040F00D00ADFDD0F040F00A00A1
:10F1F000ADFD28F220F006FF726566696C6CAAF816
:10F2000030FC1A00F9FB05FC04FF63686172FBF82F
:10F2100000F0D2F9E5F0A4F020F006FF6E756D6203
:10F22000657204F900F06FF585F00BF156F90BF1FA
:10F2300069F956F902F128F20BF1BDF026F139F027
:10F2400029F98CF502F1E5F002F16FF58DF060F12E
:10F2500020F02AF360F160F139F387F9C5F039F055
:10F260004BF9B4FDADFD39F042F9A4F040F02E00A9
:10F27000ADFD39F043F902F139F03FF90FFDB9FD69
:10F280002FF051F9E5F08CF502F1E5F002F16FF5A0
:10F290008DF060F120F08CF502F139F050F95DF657
:10F2A000B4FD02F16FF58DF057F120F000F0DBF0C6
:10F2B000A4F040F02D00ADFDBDF00BF139F062F986
:10F2C000B4FDC3F902F120F05BF00A001000020067
:10F2D0000A0000F0DBF0A4F040F023009FF1BDF045
:10F2E00060F140F0040095F639F07FF964F9A9F176
:10F2F000DEF36FF58DF0B4FDC3F92FF080F9E5F082
:10F3000020F007FF3E6E756D626572000DF900F02A
:10F31000BDF039F09FF9DBF0A4F071F726F139F078
:10F3200093F9E5F020F00BF133FD6FF585F0F50072
:10F3300002F1ED0033FDB4FDC3F92FF088F920F0A0
:10F3400005FF70617273650081F900F00BF1B9F986
:10F350009CF585F0C3F902F18FF8BDF03BF29CF506
:10F3600071F2B4FDC3F920F006FF736F7572636527
:10F37000A0F930FC1600F9FB05FC07FF2F7374722F
:10F38000696E6700B4F900F0EDF0DBF0A9F1EDF083
:10F39000EDF09FF120F00AFF70617273652D6E61D0
:10F3A0006D65BDF900F00EF6D6F920F000F00BF116
:10F3B000B9F99CF585F0C3F914F178F802F18FF8EA
:10F3C00083F5A9F1B9F9E5F09FF19CF58DF020F0F6
:10F3D00007FF66696E642D787400CBF900F040F089
:10F3E000FAF940F05C00AB0326F139F0F9F98CF53D
:10F3F00060F120F000F00BF183F502F142FCBDF06A
:10F4000039F007FA0BF1FCF0FCF002F157F120F0B3
:10F4100000F08BF70300206F6B00BEF720F003FFB6
:10F420002E6F6B00E8F930FC1C00F9FB05FC00F0C6
:10F430008BF702003E20F3F7BEF720F006FF2E7296
:10F44000656164790FFA30FC2000F9FB05FC00F0DF
:10F450008BF70400203F3F20BEF76FF585F00BF1DE
:10F46000FBF540F79CF585F040F702F16FF58DF064
:10F4700020F006FF2E6572726F721EFA30FC1E00BD
:10F48000F9FB05FC04FF7175697439FA00F0670235
:10F490006E028DF0A6FAA2F2B3FA8CF2FC0269F5C4
:10F4A00085F026F139F055FA23FA00F939F067FAB8
:10F4B00040F0CCFA49F8C5F039F067FABDF040F0F9
:10F4C000FEFF7AF139F065FA3EFA2FF047FA13FAA7
:10F4D0002FF04FFA05FF70617573650042FA30FC3A
:10F4E0002301E5FBEFFB04FF636F6C646AFA78FAB3
:10F4F000A4B62224332424BEE0E0F1E02192E030DF
:10F50000E9F7F134D9F7E5E2F1E02F010FEF0DBF94
:10F51000048310E41EBF1583CFEAC683D0E4D783EB
:10F52000A9E9BAEF0C9404F004FF7761726D73FAE5
:10F5300000F07EFD40F09CFB40F06FFA10FCFC02F6
:10F5400016F646FA03FF7370300094FA7BF006005B
:10F55000F9FB05FC02FF7370A2FA61F0080003FFDB
:10F5600072703000AAFA00F0B7FA85F020F061F06E
:10F57000040005FF646570746800AFFA00F0A6FA35
:10F5800099F29FF110F241F220F009FF696E746563
:10F59000727072657400B9FA00F0D2F9BDF039F0FA
:10F5A000DDFAE9FAF6FA69F585F039F0D8FAC8FB20
:10F5B000DEF32AF074FB2FF0CDFA8CF520F010FF6B
:10F5C000666F7274682D7265636F676E697A6572B3
:10F5D000C5FA7BF05000D1FBDBFB0DFF646F2D7291
:10F5E00065636F676E697A657200DFFA00F040F05C
:10F5F00001FBD0F0AB0326F139F000FB8CF567FB83
:10F6000020F000F0EDF0EDF083F52AF3EDF02AF0B4
:10F6100039F3EDF0BDF067FBADFD39F012FBE5F01D
:10F6200060F120F0FCF0FCF057F120F005FF723A99
:10F630006E756D00EDFA5BF09CFB8801880106FF9A
:10F64000723A646E756D16FB5BF09CFBA5FDA5FD23
:10F6500007FF7265633A6E756D001FFB00F012F9CB
:10F6600039F03AFBB4FDADFD39F038FB1BFB20F05F
:10F6700024FB20F067FB20F008FF7265633A776F88
:10F68000726428FB00F0EEF9BDF026F139F04BFB77
:10F69000E5F067FB20F052FB20F006FF723A776F2F
:10F6A00072643CFB5BF056FB5AFBA5FD00F0E5F0F5
:10F6B0002AF020F000F02DF139F060FB720120F00B
:10F6C0002AF020F006FF723A6661696C4DFB5BF030
:10F6D0006BFB6BFB6BFB00F040F0F3FF5FF806FF8A
:10F6E0003F737461636B62FB00F0BEFA2DF139F079
:10F6F0007CFB40F0FCFF5FF820F003FF76657200B2
:10F700006FFB00F02BF5BEF700F86FF585F039F5CB
:10F71000FBF595FDDCF6E4F640F02E00CDF6FAF6AA
:10F7200005F719F86FF58DF000F841F5BEF720F0F8
:10F7300004FF6E6F6F707DFB00F020F006FF756EAA
:10F740007573656498FB00F099F2DDF59FF120F088
:10F750000200746F9EFB00F028F89EFD69F585F0AD
:10F7600039F0BCFB6701B6FB720120F000F002F13A
:10F77000BDF0C8FB0BF1DEF3BDF0C8FBC8FBDEF348
:10F780002AF020F007FF692D63656C6C2B00A8FB45
:10F7900000F03BF220F007FF4564656665724000AB
:10F7A000C2FB00F0DEF36BF320F007FF45646566F3
:10F7B00065722100CBFB00F0DEF347F320F007FF7A
:10F7C0005264656665724000D5FB00F0DEF385F09B
:10F7D00020F007FF5264656665722100DFFB00F0D0
:10F7E000DEF38DF020F007FF55646566657240001A
:10F7F000E9FB00F0DEF30EF3A9F185F020F007FF3E
:10F800005564656665722100F3FB00F0DEF30EF3CC
:10F81000A9F18DF020F006FF646566657221FFFB9B
:10F8200000F09EFDBDF0C8FBC8FBDEF32AF020F01F
:10F8300006FF6465666572400BFC00F09EFDBDF03E
:10F84000C8FBDEF32AF020F007FF286465666572C6
:10F85000290018FC00F04401A402670130FC20F0EC
:10F860000E94BD02BDF0C8FBDEF32AF02AF020F0B2
:10F870000FFF7365617263682D776F72646C6973D3
:10F88000740024FC00F00BF160F140F057FC02F131
:10F8900074FCBDF026F139F051FC8CF5E5F060F117
:10F8A00020F0BDF09BFCD0F02A01180120F000F000
:10F8B0000BF1E5F083F514F18FFCA5FC39F065FC44
:10F8C00002F1E5F060F157F120F08CF502F160F102
:10F8D00020F011FF74726176657273652D776F7217
:10F8E000646C6973740038FC00F06BF3BDF039F0A0
:10F8F00085FC83F52AF3D0F02AF039F3EDF039F0E6
:10F9000085FC1A04DEF32FF076FC8CF520F00BFF5B
:10F910006E616D653E737472696E670069FC00F01C
:10F92000EAF740F0FF001FF220F007FF6E66613E2D
:10F930006366610087FC00F01A043BF220F008FFC8
:10F9400069636F6D7061726595FC00F00BF1DBF01F
:10F9500002F11FF139F0B0FC8CF5E5F057F120F021
:10F96000D0F060F1310239F0D5FCA7F2DBF085F080
:10F97000D8FCDBF0DEF3D8FCBDF040F0000168F10C
:10F9800039F0C6FCD0F040F0FF001FF21FF139F053
:10F99000CDFC8CF557F1E0F220F03BF2D0F07CF595
:10F9A000D0F040F00200C6F2B6FC8CF560F120F019
:10F9B00000F0BDF040F0FF001FF2B6F6D0F005F306
:10F9C00040F0FF001FF2B6F605F328F220F001FF29
:10F9D0002A009FFC00F0B2F1E5F020F001FF6A0080
:10F9E000E7FC00F082F240F00700A9F185F082F216
:10F9F00040F00900A9F185F0A9F120F004FF64614D
:10FA00006273EEFC00F0BDF02DF139F008FD0FFD42
:10FA100020F007FF646E656761746500FEFC00F00E
:10FA200051F4B4FD60F12BF420F005FF636D6F76A7
:10FA3000650009FD1BFDBF93AF93E991F991A99171
:10FA4000B991092F082B21F01D9111930197E1F72E
:10FA5000AF91BF91899199910C9404F005FF327395
:10FA60007761700015FD00F0EDF00BF1EDF002F1A3
:10FA700020F00AFF726566696C6C2D7469622EFD58
:10FA800000F05CFD40F05A00AFF862FD8DF060F1CF
:10FA90009CF58DF057F120F00AFF736F7572636566
:10FAA0002D74696239FD00F05CFD62FD85F020F087
:10FAB00003FF746962004CFD4EF0510104FF237492
:10FAC000696258FD4EF0AB0106FF65653E72616DDF
:10FAD0005EFD00F060F1A7F2DBF06BF3DBF08DF080
:10FAE0007CF5D0F07CF5D0F0D5F26CFD8CF520F0F3
:10FAF00008FF696E69742D72616D64FD00F040F05D
:10FB00007C000EF340F0220010F269FD20F006FFA9
:10FB1000626F756E647378FD00F0DBF0A9F1D0F0D0
:10FB200020F003FF733E640087FD00F0BDF02DF16F
:10FB300020F005FF3E626F64790091FD3CF2080001
:10FB4000326C69746572616C99FD00F0D0F08801C7
:10FB5000880120F001FF3D009FFD00F09FF126F19C
:10FB600020F001FF3100AAFD4EF0010001FF32003C
:10FB7000B1FD4EF0020002FF2D31B6FD4EF0FFFF49
:00000001FF
