
AVRASM ver. 2.1.52  p644-16.asm Wed Aug 24 19:47:47 2016

p644-16.asm(5): Including file '../../avr8\preamble.inc'
../../avr8\preamble.inc(2): Including file '../../avr8\macros.asm'
../../avr8\macros.asm(6): Including file '../../avr8\user.inc'
../../avr8\preamble.inc(6): Including file '../../avr8/devices/atmega644\device.asm'
../../avr8/devices/atmega644\device.asm(5): Including file '../../avr8/Atmel/Appnotes2\m644def.inc'
p644-16.asm(14): Including file '../../avr8\drivers/usart_0.asm'
../../avr8\drivers/usart_0.asm(32): Including file '../../avr8\drivers/usart_common.asm'
../../avr8\drivers/usart_common.asm(5): Including file '../../avr8\drivers/usart-rx-buffer.asm'
../../avr8\drivers/usart_common.asm(6): Including file '../../avr8\drivers/usart-isr-rx.asm'
../../avr8\drivers/usart_common.asm(19): Including file '../../avr8\words/usart-tx-poll.asm'
../../avr8\drivers/usart_common.asm(24): Including file '../../avr8\words/ubrr.asm'
../../avr8\drivers/usart_common.asm(25): Including file '../../avr8\words/usart.asm'
p644-16.asm(19): Including file '../../avr8\drivers/1wire.asm'
p644-16.asm(21): Including file '../../avr8\amforth.asm'
../../avr8\amforth.asm(12): Including file '../../avr8\drivers/generic-isr.asm'
../../avr8\amforth.asm(14): Including file '../../avr8\dict/rww.inc'
../../avr8\dict/rww.inc(1): Including file '../../avr8\words/mplus.asm'
../../avr8\dict/rww.inc(2): Including file '../../common\words/ud-star.asm'
../../avr8\dict/rww.inc(3): Including file '../../common\words/umax.asm'
../../avr8\dict/rww.inc(4): Including file '../../common\words/umin.asm'
../../avr8\dict/rww.inc(5): Including file '../../avr8\words/immediate-q.asm'
../../avr8\dict/rww.inc(6): Including file '../../avr8\words/name2flags.asm'
../../avr8\dict/rww.inc(9): Including file '../../avr8\dict/appl_8k.inc'
../../avr8\dict/appl_8k.inc(1): Including file '../../avr8\dict/compiler1.inc'
../../avr8\dict/compiler1.inc(2): Including file '../../avr8\words/newest.asm'
../../avr8\dict/compiler1.inc(3): Including file '../../avr8\words/latest.asm'
../../avr8\dict/compiler1.inc(4): Including file '../../common\words/do-create.asm'
../../avr8\dict/compiler1.inc(5): Including file '../../common\words/backslash.asm'
../../avr8\dict/compiler1.inc(6): Including file '../../common\words/l-paren.asm'
../../avr8\dict/compiler1.inc(8): Including file '../../common\words/compile.asm'
../../avr8\dict/compiler1.inc(9): Including file '../../avr8\words/comma.asm'
../../avr8\dict/compiler1.inc(10): Including file '../../common\words/brackettick.asm'
../../avr8\dict/compiler1.inc(13): Including file '../../common\words/literal.asm'
../../avr8\dict/compiler1.inc(14): Including file '../../common\words/sliteral.asm'
../../avr8\dict/compiler1.inc(15): Including file '../../avr8\words/g-mark.asm'
../../avr8\dict/compiler1.inc(16): Including file '../../avr8\words/g-resolve.asm'
../../avr8\dict/compiler1.inc(17): Including file '../../avr8\words/l_mark.asm'
../../avr8\dict/compiler1.inc(18): Including file '../../avr8\words/l_resolve.asm'
../../avr8\dict/compiler1.inc(20): Including file '../../common\words/ahead.asm'
../../avr8\dict/compiler1.inc(21): Including file '../../common\words/if.asm'
../../avr8\dict/compiler1.inc(22): Including file '../../common\words/else.asm'
../../avr8\dict/compiler1.inc(23): Including file '../../common\words/then.asm'
../../avr8\dict/compiler1.inc(24): Including file '../../common\words/begin.asm'
../../avr8\dict/compiler1.inc(25): Including file '../../common\words/while.asm'
../../avr8\dict/compiler1.inc(26): Including file '../../common\words/repeat.asm'
../../avr8\dict/compiler1.inc(27): Including file '../../common\words/until.asm'
../../avr8\dict/compiler1.inc(28): Including file '../../common\words/again.asm'
../../avr8\dict/compiler1.inc(29): Including file '../../common\words/do.asm'
../../avr8\dict/compiler1.inc(30): Including file '../../common\words/loop.asm'
../../avr8\dict/compiler1.inc(31): Including file '../../common\words/plusloop.asm'
../../avr8\dict/compiler1.inc(32): Including file '../../common\words/leave.asm'
../../avr8\dict/compiler1.inc(33): Including file '../../common\words/qdo.asm'
../../avr8\dict/compiler1.inc(34): Including file '../../common\words/endloop.asm'
../../avr8\dict/compiler1.inc(36): Including file '../../common\words/l-from.asm'
../../avr8\dict/compiler1.inc(37): Including file '../../common\words/to-l.asm'
../../avr8\dict/compiler1.inc(38): Including file '../../avr8\words/lp0.asm'
../../avr8\dict/compiler1.inc(39): Including file '../../avr8\words/lp.asm'
../../avr8\dict/compiler1.inc(41): Including file '../../common\words/create.asm'
../../avr8\dict/compiler1.inc(42): Including file '../../avr8\words/header.asm'
../../avr8\dict/compiler1.inc(43): Including file '../../avr8\words/wlscope.asm'
../../avr8\dict/compiler1.inc(44): Including file '../../common\words/reveal.asm'
../../avr8\dict/compiler1.inc(45): Including file '../../avr8\words/does.asm'
../../avr8\dict/compiler1.inc(46): Including file '../../common\words/colon.asm'
../../avr8\dict/compiler1.inc(47): Including file '../../avr8\words/colon-noname.asm'
../../avr8\dict/compiler1.inc(48): Including file '../../common\words/semicolon.asm'
../../avr8\dict/compiler1.inc(49): Including file '../../common\words/right-bracket.asm'
../../avr8\dict/compiler1.inc(50): Including file '../../common\words/left-bracket.asm'
../../avr8\dict/compiler1.inc(51): Including file '../../common\words/variable.asm'
../../avr8\dict/compiler1.inc(52): Including file '../../common\words/constant.asm'
../../avr8\dict/compiler1.inc(53): Including file '../../avr8\words/user.asm'
../../avr8\dict/compiler1.inc(55): Including file '../../common\words/recurse.asm'
../../avr8\dict/compiler1.inc(56): Including file '../../avr8\words/immediate.asm'
../../avr8\dict/compiler1.inc(58): Including file '../../common\words/bracketchar.asm'
../../avr8\dict/compiler1.inc(59): Including file '../../common\words/abort-string.asm'
../../avr8\dict/compiler1.inc(60): Including file '../../common\words/abort.asm'
../../avr8\dict/compiler1.inc(61): Including file '../../common\words/q-abort.asm'
../../avr8\dict/compiler1.inc(63): Including file '../../common\words/get-stack.asm'
../../avr8\dict/compiler1.inc(64): Including file '../../common\words/set-stack.asm'
../../avr8\dict/compiler1.inc(65): Including file '../../common\words/map-stack.asm'
../../avr8\dict/compiler1.inc(66): Including file '../../avr8\words/get-current.asm'
../../avr8\dict/compiler1.inc(67): Including file '../../common\words/get-order.asm'
../../avr8\dict/compiler1.inc(68): Including file '../../common\words/cfg-order.asm'
../../avr8\dict/compiler1.inc(69): Including file '../../avr8\words/compare.asm'
../../avr8\dict/compiler1.inc(70): Including file '../../avr8\words/nfa2lfa.asm'
../../avr8\amforth.asm(15): Including file 'dict_appl.inc'
dict_appl.inc(3): Including file '../../common\words/dot-s.asm'
dict_appl.inc(4): Including file '../../avr8\words/spirw.asm'
dict_appl.inc(5): Including file '../../avr8\words/n-spi.asm'
dict_appl.inc(6): Including file 'words/applturnkey.asm'
dict_appl.inc(7): Including file '../../avr8\dict/compiler2.inc'
../../avr8\dict/compiler2.inc(8): Including file '../../avr8\words/set-current.asm'
../../avr8\dict/compiler2.inc(9): Including file '../../avr8\words/wordlist.asm'
../../avr8\dict/compiler2.inc(11): Including file '../../avr8\words/forth-wordlist.asm'
../../avr8\dict/compiler2.inc(12): Including file '../../common\words/set-order.asm'
../../avr8\dict/compiler2.inc(13): Including file '../../common\words/set-recognizer.asm'
../../avr8\dict/compiler2.inc(14): Including file '../../common\words/get-recognizer.asm'
../../avr8\dict/compiler2.inc(15): Including file '../../avr8\words/code.asm'
../../avr8\dict/compiler2.inc(16): Including file '../../avr8\words/end-code.asm'
../../avr8\dict/compiler2.inc(17): Including file '../../avr8\words/marker.asm'
../../avr8\dict/compiler2.inc(18): Including file '../../common\words/postpone.asm'
dict_appl.inc(8): Including file '../../avr8\words/2r_fetch.asm'
../../avr8\amforth.asm(23): Including file '../../avr8\amforth-interpreter.asm'
../../avr8\amforth.asm(24): Including file '../../avr8\dict/nrww.inc'
../../avr8\dict/nrww.inc(4): Including file '../../avr8\words/exit.asm'
../../avr8\dict/nrww.inc(5): Including file '../../avr8\words/execute.asm'
../../avr8\dict/nrww.inc(6): Including file '../../avr8\words/dobranch.asm'
../../avr8\dict/nrww.inc(7): Including file '../../avr8\words/docondbranch.asm'
../../avr8\dict/nrww.inc(10): Including file '../../avr8\words/doliteral.asm'
../../avr8\dict/nrww.inc(11): Including file '../../avr8\words/dovariable.asm'
../../avr8\dict/nrww.inc(12): Including file '../../avr8\words/doconstant.asm'
../../avr8\dict/nrww.inc(13): Including file '../../avr8\words/douser.asm'
../../avr8\dict/nrww.inc(14): Including file '../../avr8\words/do-value.asm'
../../avr8\dict/nrww.inc(15): Including file '../../avr8\words/fetch.asm'
../../avr8\dict/nrww.inc(16): Including file '../../avr8\words/store.asm'
../../avr8\dict/nrww.inc(17): Including file '../../avr8\words/cstore.asm'
../../avr8\dict/nrww.inc(18): Including file '../../avr8\words/cfetch.asm'
../../avr8\dict/nrww.inc(19): Including file '../../avr8\words/fetch-u.asm'
../../avr8\dict/nrww.inc(20): Including file '../../avr8\words/store-u.asm'
../../avr8\dict/nrww.inc(23): Including file '../../avr8\words/dup.asm'
../../avr8\dict/nrww.inc(24): Including file '../../avr8\words/qdup.asm'
../../avr8\dict/nrww.inc(25): Including file '../../avr8\words/swap.asm'
../../avr8\dict/nrww.inc(26): Including file '../../avr8\words/over.asm'
../../avr8\dict/nrww.inc(27): Including file '../../avr8\words/drop.asm'
../../avr8\dict/nrww.inc(28): Including file '../../avr8\words/rot.asm'
../../avr8\dict/nrww.inc(29): Including file '../../avr8\words/nip.asm'
../../avr8\dict/nrww.inc(31): Including file '../../avr8\words/r_from.asm'
../../avr8\dict/nrww.inc(32): Including file '../../avr8\words/to_r.asm'
../../avr8\dict/nrww.inc(33): Including file '../../avr8\words/r_fetch.asm'
../../avr8\dict/nrww.inc(36): Including file '../../common\words/not-equal.asm'
../../avr8\dict/nrww.inc(37): Including file '../../avr8\words/equalzero.asm'
../../avr8\dict/nrww.inc(38): Including file '../../avr8\words/lesszero.asm'
../../avr8\dict/nrww.inc(39): Including file '../../avr8\words/greaterzero.asm'
../../avr8\dict/nrww.inc(40): Including file '../../avr8\words/d-greaterzero.asm'
../../avr8\dict/nrww.inc(41): Including file '../../avr8\words/d-lesszero.asm'
../../avr8\dict/nrww.inc(43): Including file '../../avr8\words/true.asm'
../../avr8\dict/nrww.inc(44): Including file '../../avr8\words/zero.asm'
../../avr8\dict/nrww.inc(45): Including file '../../avr8\words/uless.asm'
../../avr8\dict/nrww.inc(46): Including file '../../common\words/u-greater.asm'
../../avr8\dict/nrww.inc(47): Including file '../../avr8\words/less.asm'
../../avr8\dict/nrww.inc(48): Including file '../../avr8\words/greater.asm'
../../avr8\dict/nrww.inc(50): Including file '../../avr8\words/log2.asm'
../../avr8\dict/nrww.inc(51): Including file '../../avr8\words/minus.asm'
../../avr8\dict/nrww.inc(52): Including file '../../avr8\words/plus.asm'
../../avr8\dict/nrww.inc(53): Including file '../../avr8\words/mstar.asm'
../../avr8\dict/nrww.inc(54): Including file '../../avr8\words/umslashmod.asm'
../../avr8\dict/nrww.inc(55): Including file '../../avr8\words/umstar.asm'
../../avr8\dict/nrww.inc(57): Including file '../../avr8\words/invert.asm'
../../avr8\dict/nrww.inc(58): Including file '../../avr8\words/2slash.asm'
../../avr8\dict/nrww.inc(59): Including file '../../avr8\words/2star.asm'
../../avr8\dict/nrww.inc(60): Including file '../../avr8\words/and.asm'
../../avr8\dict/nrww.inc(61): Including file '../../avr8\words/or.asm'
../../avr8\dict/nrww.inc(62): Including file '../../avr8\words/xor.asm'
../../avr8\dict/nrww.inc(64): Including file '../../avr8\words/1plus.asm'
../../avr8\dict/nrww.inc(65): Including file '../../avr8\words/1minus.asm'
../../avr8\dict/nrww.inc(66): Including file '../../common\words/q-negate.asm'
../../avr8\dict/nrww.inc(67): Including file '../../avr8\words/lshift.asm'
../../avr8\dict/nrww.inc(68): Including file '../../avr8\words/rshift.asm'
../../avr8\dict/nrww.inc(69): Including file '../../avr8\words/plusstore.asm'
../../avr8\dict/nrww.inc(71): Including file '../../avr8\words/rpfetch.asm'
../../avr8\dict/nrww.inc(72): Including file '../../avr8\words/rpstore.asm'
../../avr8\dict/nrww.inc(73): Including file '../../avr8\words/spfetch.asm'
../../avr8\dict/nrww.inc(74): Including file '../../avr8\words/spstore.asm'
../../avr8\dict/nrww.inc(76): Including file '../../avr8\words/dodo.asm'
../../avr8\dict/nrww.inc(77): Including file '../../avr8\words/i.asm'
../../avr8\dict/nrww.inc(78): Including file '../../avr8\words/doplusloop.asm'
../../avr8\dict/nrww.inc(79): Including file '../../avr8\words/doloop.asm'
../../avr8\dict/nrww.inc(80): Including file '../../avr8\words/unloop.asm'
../../avr8\dict/nrww.inc(84): Including file '../../avr8\words/cmove_g.asm'
../../avr8\dict/nrww.inc(85): Including file '../../avr8\words/byteswap.asm'
../../avr8\dict/nrww.inc(86): Including file '../../avr8\words/up.asm'
../../avr8\dict/nrww.inc(87): Including file '../../avr8\words/1ms.asm'
../../avr8\dict/nrww.inc(88): Including file '../../avr8\words/2to_r.asm'
../../avr8\dict/nrww.inc(89): Including file '../../avr8\words/2r_from.asm'
../../avr8\dict/nrww.inc(91): Including file '../../avr8\words/store-e.asm'
../../avr8\dict/nrww.inc(92): Including file '../../avr8\words/fetch-e.asm'
../../avr8\dict/nrww.inc(93): Including file '../../avr8\words/store-i.asm'
../../avr8\dict/nrww.inc(97): Including file '../../avr8\words/store-i_nrww.asm'
../../avr8\dict/nrww.inc(99): Including file '../../avr8\words/fetch-i.asm'
../../avr8\dict/nrww.inc(102): Including file '../../avr8\dict/core_8k.inc'
../../avr8\dict/core_8k.inc(2): Including file '../../avr8\words/n_to_r.asm'
../../avr8\dict/core_8k.inc(3): Including file '../../avr8\words/n_r_from.asm'
../../avr8\dict/core_8k.inc(5): Including file '../../avr8\words/d-2star.asm'
../../avr8\dict/core_8k.inc(6): Including file '../../avr8\words/d-2slash.asm'
../../avr8\dict/core_8k.inc(7): Including file '../../avr8\words/d-plus.asm'
../../avr8\dict/core_8k.inc(8): Including file '../../avr8\words/d-minus.asm'
../../avr8\dict/core_8k.inc(9): Including file '../../avr8\words/d-invert.asm'
../../avr8\dict/core_8k.inc(10): Including file '../../common\words/u-dot.asm'
../../avr8\dict/core_8k.inc(11): Including file '../../common\words/u-dot-r.asm'
../../avr8\dict/core_8k.inc(13): Including file '../../common\words/show-wordlist.asm'
../../avr8\dict/core_8k.inc(14): Including file '../../common\words/words.asm'
../../avr8\dict/core_8k.inc(15): Including file '../../avr8\dict/interrupt.inc'
../../avr8\dict/interrupt.inc(2): Including file '../../avr8\words/int-on.asm'
../../avr8\dict/interrupt.inc(3): Including file '../../avr8\words/int-off.asm'
../../avr8\dict/interrupt.inc(4): Including file '../../avr8\words/int-store.asm'
../../avr8\dict/interrupt.inc(5): Including file '../../avr8\words/int-fetch.asm'
../../avr8\dict/interrupt.inc(6): Including file '../../avr8\words/int-trap.asm'
../../avr8\dict/interrupt.inc(8): Including file '../../avr8\words/isr-exec.asm'
../../avr8\dict/interrupt.inc(9): Including file '../../avr8\words/isr-end.asm'
../../avr8\dict/core_8k.inc(17): Including file '../../common\words/pick.asm'
../../avr8\dict/core_8k.inc(18): Including file '../../common\words/dot-quote.asm'
../../avr8\dict/core_8k.inc(19): Including file '../../common\words/squote.asm'
../../avr8\dict/core_8k.inc(21): Including file '../../avr8\words/fill.asm'
../../avr8\dict/core_8k.inc(23): Including file '../../avr8\words/environment.asm'
../../avr8\dict/core_8k.inc(24): Including file '../../avr8\words/env-wordlists.asm'
../../avr8\dict/core_8k.inc(25): Including file '../../avr8\words/env-slashpad.asm'
../../avr8\dict/core_8k.inc(26): Including file '../../common\words/env-slashhold.asm'
../../avr8\dict/core_8k.inc(27): Including file '../../common\words/env-forthname.asm'
../../avr8\dict/core_8k.inc(28): Including file '../../common\words/env-forthversion.asm'
../../avr8\dict/core_8k.inc(29): Including file '../../common\words/env-cpu.asm'
../../avr8\dict/core_8k.inc(30): Including file '../../avr8\words/env-mcuinfo.asm'
../../avr8\dict/core_8k.inc(31): Including file '../../common\words/env-usersize.asm'
../../avr8\dict/core_8k.inc(33): Including file '../../common\words/f_cpu.asm'
../../avr8\dict/core_8k.inc(34): Including file '../../avr8\words/state.asm'
../../avr8\dict/core_8k.inc(35): Including file '../../common\words/base.asm'
../../avr8\dict/core_8k.inc(37): Including file '../../avr8\words/cells.asm'
../../avr8\dict/core_8k.inc(38): Including file '../../avr8\words/cellplus.asm'
../../avr8\dict/core_8k.inc(40): Including file '../../common\words/2dup.asm'
../../avr8\dict/core_8k.inc(41): Including file '../../common\words/2drop.asm'
../../avr8\dict/core_8k.inc(43): Including file '../../common\words/tuck.asm'
../../avr8\dict/core_8k.inc(45): Including file '../../common\words/to-in.asm'
../../avr8\dict/core_8k.inc(46): Including file '../../common\words/pad.asm'
../../avr8\dict/core_8k.inc(47): Including file '../../common\words/emit.asm'
../../avr8\dict/core_8k.inc(48): Including file '../../common\words/emitq.asm'
../../avr8\dict/core_8k.inc(49): Including file '../../common\words/key.asm'
../../avr8\dict/core_8k.inc(50): Including file '../../common\words/keyq.asm'
../../avr8\dict/core_8k.inc(52): Including file '../../avr8\words/dp.asm'
../../avr8\dict/core_8k.inc(53): Including file '../../avr8\words/ehere.asm'
../../avr8\dict/core_8k.inc(54): Including file '../../avr8\words/here.asm'
../../avr8\dict/core_8k.inc(55): Including file '../../avr8\words/allot.asm'
../../avr8\dict/core_8k.inc(57): Including file '../../common\words/bin.asm'
../../avr8\dict/core_8k.inc(58): Including file '../../common\words/decimal.asm'
../../avr8\dict/core_8k.inc(59): Including file '../../common\words/hex.asm'
../../avr8\dict/core_8k.inc(60): Including file '../../common\words/bl.asm'
../../avr8\dict/core_8k.inc(62): Including file '../../avr8\words/turnkey.asm'
../../avr8\dict/core_8k.inc(64): Including file '../../avr8\words/slashmod.asm'
../../avr8\dict/core_8k.inc(65): Including file '../../avr8\words/uslashmod.asm'
../../avr8\dict/core_8k.inc(66): Including file '../../avr8\words/negate.asm'
../../avr8\dict/core_8k.inc(67): Including file '../../common\words/slash.asm'
../../avr8\dict/core_8k.inc(68): Including file '../../common\words/mod.asm'
../../avr8\dict/core_8k.inc(69): Including file '../../common\words/abs.asm'
../../avr8\dict/core_8k.inc(70): Including file '../../common\words/min.asm'
../../avr8\dict/core_8k.inc(71): Including file '../../common\words/max.asm'
../../avr8\dict/core_8k.inc(72): Including file '../../common\words/within.asm'
../../avr8\dict/core_8k.inc(74): Including file '../../common\words/to-upper.asm'
../../avr8\dict/core_8k.inc(75): Including file '../../common\words/to-lower.asm'
../../avr8\dict/core_8k.inc(77): Including file '../../avr8\words/hld.asm'
../../avr8\dict/core_8k.inc(78): Including file '../../common\words/hold.asm'
../../avr8\dict/core_8k.inc(79): Including file '../../common\words/less-sharp.asm'
../../avr8\dict/core_8k.inc(80): Including file '../../common\words/sharp.asm'
../../avr8\dict/core_8k.inc(81): Including file '../../common\words/sharp-s.asm'
../../avr8\dict/core_8k.inc(82): Including file '../../common\words/sharp-greater.asm'
../../avr8\dict/core_8k.inc(83): Including file '../../common\words/sign.asm'
../../avr8\dict/core_8k.inc(84): Including file '../../common\words/d-dot-r.asm'
../../avr8\dict/core_8k.inc(85): Including file '../../common\words/dot-r.asm'
../../avr8\dict/core_8k.inc(86): Including file '../../common\words/d-dot.asm'
../../avr8\dict/core_8k.inc(87): Including file '../../common\words/dot.asm'
../../avr8\dict/core_8k.inc(88): Including file '../../common\words/ud-dot.asm'
../../avr8\dict/core_8k.inc(89): Including file '../../common\words/ud-dot-r.asm'
../../avr8\dict/core_8k.inc(90): Including file '../../common\words/ud-slash-mod.asm'
../../avr8\dict/core_8k.inc(91): Including file '../../common\words/digit-q.asm'
../../avr8\dict/core_8k.inc(93): Including file '../../avr8\words/do-sliteral.asm'
../../avr8\dict/core_8k.inc(94): Including file '../../avr8\words/scomma.asm'
../../avr8\dict/core_8k.inc(95): Including file '../../avr8\words/itype.asm'
../../avr8\dict/core_8k.inc(96): Including file '../../avr8\words/icount.asm'
../../avr8\dict/core_8k.inc(97): Including file '../../common\words/cr.asm'
../../avr8\dict/core_8k.inc(98): Including file '../../common\words/space.asm'
../../avr8\dict/core_8k.inc(99): Including file '../../common\words/spaces.asm'
../../avr8\dict/core_8k.inc(100): Including file '../../common\words/type.asm'
../../avr8\dict/core_8k.inc(101): Including file '../../common\words/tick.asm'
../../avr8\dict/core_8k.inc(103): Including file '../../common\words/handler.asm'
../../avr8\dict/core_8k.inc(104): Including file '../../common\words/catch.asm'
../../avr8\dict/core_8k.inc(105): Including file '../../common\words/throw.asm'
../../avr8\dict/core_8k.inc(107): Including file '../../common\words/cskip.asm'
../../avr8\dict/core_8k.inc(108): Including file '../../common\words/cscan.asm'
../../avr8\dict/core_8k.inc(109): Including file '../../common\words/accept.asm'
../../avr8\dict/core_8k.inc(110): Including file '../../common\words/refill.asm'
../../avr8\dict/core_8k.inc(111): Including file '../../common\words/char.asm'
../../avr8\dict/core_8k.inc(112): Including file '../../common\words/number.asm'
../../avr8\dict/core_8k.inc(113): Including file '../../common\words/q-sign.asm'
../../avr8\dict/core_8k.inc(114): Including file '../../common\words/set-base.asm'
../../avr8\dict/core_8k.inc(115): Including file '../../common\words/to-number.asm'
../../avr8\dict/core_8k.inc(116): Including file '../../common\words/parse.asm'
../../avr8\dict/core_8k.inc(117): Including file '../../common\words/source.asm'
../../avr8\dict/core_8k.inc(118): Including file '../../common\words/slash-string.asm'
../../avr8\dict/core_8k.inc(119): Including file '../../common\words/parse-name.asm'
../../avr8\dict/core_8k.inc(120): Including file '../../common\words/find-xt.asm'
../../avr8\dict/core_8k.inc(122): Including file '../../common\words/prompt-ok.asm'
../../avr8\dict/core_8k.inc(123): Including file '../../common\words/prompt-ready.asm'
../../avr8\dict/core_8k.inc(124): Including file '../../common\words/prompt-error.asm'
../../avr8\dict/core_8k.inc(126): Including file '../../common\words/quit.asm'
../../avr8\dict/core_8k.inc(127): Including file '../../avr8\words/pause.asm'
../../avr8\dict/core_8k.inc(128): Including file '../../avr8\words/cold.asm'
../../avr8\dict/core_8k.inc(129): Including file '../../common\words/warm.asm'
../../avr8\dict/core_8k.inc(131): Including file '../../avr8\words/sp0.asm'
../../avr8\dict/core_8k.inc(132): Including file '../../avr8\words/rp0.asm'
../../avr8\dict/core_8k.inc(133): Including file '../../common\words/depth.asm'
../../avr8\dict/core_8k.inc(134): Including file '../../common\words/interpret.asm'
../../avr8\dict/core_8k.inc(135): Including file '../../avr8\words/forth-recognizer.asm'
../../avr8\dict/core_8k.inc(136): Including file '../../common\words/do-recognizer.asm'
../../avr8\dict/core_8k.inc(137): Including file '../../common\words/r-intnumber.asm'
../../avr8\dict/core_8k.inc(138): Including file '../../common\words/r-word.asm'
../../avr8\dict/core_8k.inc(139): Including file '../../common\words/r-fail.asm'
../../avr8\dict/core_8k.inc(141): Including file '../../common\words/q-stack.asm'
../../avr8\dict/core_8k.inc(142): Including file '../../common\words/ver.asm'
../../avr8\dict/core_8k.inc(144): Including file '../../common\words/noop.asm'
../../avr8\dict/core_8k.inc(145): Including file '../../avr8\words/unused.asm'
../../avr8\dict/core_8k.inc(147): Including file '../../common\words/to.asm'
../../avr8\dict/core_8k.inc(148): Including file '../../avr8\words/i-cellplus.asm'
../../avr8\dict/core_8k.inc(150): Including file '../../avr8\words/edefer-fetch.asm'
../../avr8\dict/core_8k.inc(151): Including file '../../avr8\words/edefer-store.asm'
../../avr8\dict/core_8k.inc(152): Including file '../../common\words/rdefer-fetch.asm'
../../avr8\dict/core_8k.inc(153): Including file '../../common\words/rdefer-store.asm'
../../avr8\dict/core_8k.inc(154): Including file '../../common\words/udefer-fetch.asm'
../../avr8\dict/core_8k.inc(155): Including file '../../common\words/udefer-store.asm'
../../avr8\dict/core_8k.inc(156): Including file '../../common\words/defer-store.asm'
../../avr8\dict/core_8k.inc(157): Including file '../../common\words/defer-fetch.asm'
../../avr8\dict/core_8k.inc(158): Including file '../../avr8\words/do-defer.asm'
../../avr8\dict/core_8k.inc(160): Including file '../../common\words/search-wordlist.asm'
../../avr8\dict/core_8k.inc(161): Including file '../../common\words/traverse-wordlist.asm'
../../avr8\dict/core_8k.inc(162): Including file '../../common\words/name2string.asm'
../../avr8\dict/core_8k.inc(163): Including file '../../avr8\words/nfa2cfa.asm'
../../avr8\dict/core_8k.inc(164): Including file '../../avr8\words/icompare.asm'
../../avr8\dict/core_8k.inc(166): Including file '../../common\words/star.asm'
../../avr8\dict/core_8k.inc(167): Including file '../../avr8\words/j.asm'
../../avr8\dict/core_8k.inc(169): Including file '../../avr8\words/dabs.asm'
../../avr8\dict/core_8k.inc(170): Including file '../../avr8\words/dnegate.asm'
../../avr8\dict/core_8k.inc(171): Including file '../../avr8\words/cmove.asm'
../../avr8\dict/core_8k.inc(172): Including file '../../common\words/2swap.asm'
../../avr8\dict/core_8k.inc(174): Including file '../../common\words/tib.asm'
../../avr8\dict/core_8k.inc(176): Including file '../../avr8\words/init-ram.asm'
../../avr8\dict/core_8k.inc(177): Including file '../../avr8\dict/compiler2.inc'
../../avr8\dict/core_8k.inc(178): Including file '../../common\words/bounds.asm'
../../avr8\dict/core_8k.inc(179): Including file '../../common\words/s-to-d.asm'
../../avr8\dict/core_8k.inc(180): Including file '../../avr8\words/to-body.asm'
../../avr8\dict/nrww.inc(112): Including file '../../common\words/2literal.asm'
../../avr8\dict/nrww.inc(113): Including file '../../avr8\words/equal.asm'
../../avr8\dict/nrww.inc(114): Including file '../../common\words/num-constants.asm'
../../avr8\amforth.asm(25): Including file 'dict_appl_core.inc'
../../avr8\amforth.asm(36): Including file '../../avr8\amforth-eeprom.inc'
                 
                 
                 ; file see ../template/template.asm. You may want to
                 ; copy that file to this one and edit it afterwards.
                 
                 .include "preamble.inc"
                 
                 .include "macros.asm"
                 
                 .set DICT_COMPILER2 = 0 ;
                 .set cpu_msp430 = 0
                 .set cpu_avr8   = 1
                 
                 .include "user.inc"
                 
                 ; 
                 
                 ; used by the multitasker
                 .set USER_STATE    = 0
                 .set USER_FOLLOWER = 2
                 
                 ; stackpointer, used by mulitasker
                 .set USER_RP      = 4
                 .set USER_SP0     = 6
                 .set USER_SP      = 8
                 
                 ; excpection handling
                 .set USER_HANDLER = 10
                 
                 ; numeric IO
                 .set USER_BASE  = 12
                 
                 ; character IO 
                 .set USER_EMIT  = 14
                 .set USER_EMITQ = 16
                 .set USER_KEY   = 18
                 .set USER_KEYQ  = 20
                 
                 .set USER_SOURCE  = 22
                 .set USER_TO_IN   = 24
                 .set USER_REFILL  = 26
                 
                 .set USER_P_OK    = 28
                 .set USER_P_ERR   = 30
                 .set USER_P_RDY   = 32
                 
                 .set SYSUSERSIZE = 34
                 ; 
                 
                   .def zerol = r2
                   .def zeroh = r3
                   .def upl = r4
                   .def uph = r5
                 
                   .def al  = r6
                   .def ah  = r7
                   .def bl  = r8
                   .def bh  = r9
                 
                 ; internal
                   .def mcu_boot      = r10
                   .def erase_counter = r11
                 
                   .def temp4 = r14
                   .def temp5 = r15
                 
                   .def temp0 = r16
                   .def temp1 = r17
                   .def temp2 = r18
                   .def temp3 = r19
                 
                   .def temp6 = r20
                   .def temp7 = r21
                 
                   .def tosl = r24
                   .def tosh = r25
                 
                   .def wl = r22
                   .def wh = r23
                 
                 .macro loadtos
                     ld tosl, Y+
                     ld tosh, Y+
                 .endmacro
                 
                 .macro savetos
                     st -Y, tosh
                     st -Y, tosl
                 .endmacro
                 
                 .macro in_
                 .if (@1 < $40)
                   in @0,@1
                 .else
                   lds @0,@1
                 .endif
                 .endmacro
                 
                 .macro out_
                 .if (@0 < $40)
                   out @0,@1
                 .else
                   sts @0,@1
                 .endif
                 .endmacro
                 
                 .macro sbi_
                 .if (@0 < $40)
                   sbi @0,@1
                 .else
                   in_ @2,@0
                   ori @2,exp2(@1)
                   out_ @0,@2
                 .endif
                 .endmacro
                 
                 .macro cbi_
                 .if (@0 < $40)
                   cbi @0,@1
                 .else
                   in_ @2,@0
                   andi @2,~(exp2(@1))
                   out_ @0,@2
                 .endif
                 .endmacro
                 
                 .macro jmp_
                 	; a more flexible macro
                     .ifdef @0
                     .if (@0-pc > 2040) || (pc-@0>2040)
                 	jmp @0
                 	.else
                 	rjmp @0
                 	.endif
                 	.else
                 	jmp @0
                 	.endif
                 .endmacro
                 .macro call_
                 	; a more flexible macro
                     .ifdef @0
                     .if (@0-pc > 2040) || (pc-@0>2040)
                 	call @0
                 	.else
                 	rcall @0
                 	.endif
                 	.else
                 	call @0
                 	.endif
                 .endmacro
                 
                 ;               F_CPU
                 ;    µsec   16000000   14745600    8000000  1000000
                 ;    1            16      14,74          8        1
                 ;    10          160     147,45         80       10
                 ;    100        1600    1474,56        800      100
                 ;    1000      16000   14745,6        8000     1000
                 ;
                 ; cycles = µsec * f_cpu / 1e6
                 ; n_loops=cycles/5
                 ;
                 ;     cycles already used will be subtracted from the delay
                 ;     the waittime resolution is 1 cycle (delay from exact to +1 cycle)
                 ;     the maximum delay at 20MHz (50ns/clock) is 38350ns
                 ;     waitcount register must specify an immediate register
                 ;
                 ; busy waits a specfied amount of microseconds
                 .macro   delay
                       .set cycles = ( ( @0 * F_CPU ) / 1000000 )
                       .if (cycles > ( 256 * 255 * 4 + 2))
                         .error "MACRO delay - too many cycles to burn"
                       .else
                         .if (cycles > 6)
                           .set  loop_cycles = (cycles / 4)      
                           ldi   zl,low(loop_cycles)
                           ldi   zh,high(loop_cycles)
                           sbiw  Z, 1
                           brne  pc-1
                           .set  cycles = (cycles - (loop_cycles * 4))
                         .endif
                         .if (cycles > 0)
                           .if   (cycles & 4)
                             rjmp  pc+1
                             rjmp  pc+1
                           .endif
                           .if   (cycles & 2)
                             rjmp  pc+1
                           .endif
                           .if   (cycles & 1)
                             nop
                           .endif
                         .endif
                       .endif
                 .endmacro
                 
                 ; portability macros, they come from the msp430 branches
                 
                 .macro DEST
                     .dw @0
                 .endm
                 
                 ; controller specific file selected via include
                 ; directory definition when calling the assembler (-I)
                 .include "device.asm"
                 
                 ; generated automatically, do not edit
                 
                 .list
                 
                 .equ ramstart =  256
                 .equ CELLSIZE = 2
                 .macro readflashcell
                 	lsl zl
                 	rol zh
                 	lpm @0, Z+
                 	lpm @1, Z+
                 .endmacro
                 .macro writeflashcell
                 	lsl zl
                 	rol zh
                 .endmacro
                 .set WANT_ANALOG_COMPARATOR = 0
                 .set WANT_USART0 = 0
                 .set WANT_PORTA = 0
                 .set WANT_PORTB = 0
                 .set WANT_PORTC = 0
                 .set WANT_PORTD = 0
                 .set WANT_TIMER_COUNTER_0 = 0
                 .set WANT_TIMER_COUNTER_2 = 0
                 .set WANT_WATCHDOG = 0
                 .set WANT_JTAG = 0
                 .set WANT_BOOT_LOAD = 0
                 .set WANT_EXTERNAL_INTERRUPT = 0
                 .set WANT_AD_CONVERTER = 0
                 .set WANT_TIMER_COUNTER_1 = 0
                 .set WANT_EEPROM = 0
                 .set WANT_TWI = 0
                 .set WANT_SPI = 0
                 .set WANT_CPU = 0
                 .equ intvecsize = 2 ; please verify; flash size: 65536 bytes
                 .equ pclen = 2 ; please verify
                 .overlap
                 .org 2
000002 d117      	 rcall isr ; External Interrupt Request 0
                 .org 4
000004 d115      	 rcall isr ; External Interrupt Request 1
                 .org 6
000006 d113      	 rcall isr ; External Interrupt Request 2
                 .org 8
000008 d111      	 rcall isr ; Pin Change Interrupt Request 0
                 .org 10
00000a d10f      	 rcall isr ; Pin Change Interrupt Request 1
                 .org 12
00000c d10d      	 rcall isr ; Pin Change Interrupt Request 2
                 .org 14
00000e d10b      	 rcall isr ; Pin Change Interrupt Request 3
                 .org 16
000010 d109      	 rcall isr ; Watchdog Time-out Interrupt
                 .org 18
000012 d107      	 rcall isr ; Timer/Counter2 Compare Match A
                 .org 20
000014 d105      	 rcall isr ; Timer/Counter2 Compare Match B
                 .org 22
000016 d103      	 rcall isr ; Timer/Counter2 Overflow
                 .org 24
000018 d101      	 rcall isr ; Timer/Counter1 Capture Event
                 .org 26
00001a d0ff      	 rcall isr ; Timer/Counter1 Compare Match A
                 .org 28
00001c d0fd      	 rcall isr ; Timer/Counter1 Compare Match B
                 .org 30
00001e d0fb      	 rcall isr ; Timer/Counter1 Overflow
                 .org 32
000020 d0f9      	 rcall isr ; Timer/Counter0 Compare Match A
                 .org 34
000022 d0f7      	 rcall isr ; Timer/Counter0 Compare Match B
                 .org 36
000024 d0f5      	 rcall isr ; Timer/Counter0 Overflow
                 .org 38
000026 d0f3      	 rcall isr ; SPI Serial Transfer Complete
                 .org 40
000028 d0f1      	 rcall isr ; USART0, Rx Complete
                 .org 42
00002a d0ef      	 rcall isr ; USART0 Data register Empty
                 .org 44
00002c d0ed      	 rcall isr ; USART0, Tx Complete
                 .org 46
00002e d0eb      	 rcall isr ; Analog Comparator
                 .org 48
000030 d0e9      	 rcall isr ; ADC Conversion Complete
                 .org 50
000032 d0e7      	 rcall isr ; EEPROM Ready
                 .org 52
000034 d0e5      	 rcall isr ; 2-wire Serial Interface
                 .org 54
000036 d0e3      	 rcall isr ; Store Program Memory Read
                 .equ INTVECTORS = 28
                 .nooverlap
                 
                 ; compatability layer (maybe empty)
                 
                 ; controller data area, environment query mcu-info
                 mcu_info:
                 mcu_ramsize:
000037 1000      	.dw 4096
                 mcu_eepromsize:
000038 0800      	.dw 2048
                 mcu_maxdp:
000039 e000      	.dw 57344 
                 mcu_numints:
00003a 001c      	.dw 28
                 mcu_name:
00003b 0009      	.dw  9
00003c 5441
00003d 656d
00003e 6167
00003f 3436
000040 0034      	.db "ATmega644",0
                 .set codestart=pc
                 
                 ; some defaults, change them in your application master file
                 ; see template.asm for an example
                 
                 .set AMFORTH_RO_SEG = NRWW_START_ADDR
                 
                 ; receiving is asynchron, so an interrupt queue is useful.
                 .set WANT_ISR_RX = 1
                 
                 ; case insensitve dictionary lookup.
                 .set WANT_IGNORECASE = 0
                 
                 ; map all memories to one address space. Details in the
                 ; technical guide
                 .set WANT_UNIFIED = 0
                 
                 ; terminal input buffer
                 .set TIB_SIZE  = 90    ; ANS94 needs at least 80 characters per line
                 
                 ; USER variables *in addition* to system ones
                 .set APPUSERSIZE = 10  ; size of application specific user area in bytes
                 
                 ; addresses of various data segments
                 .set rstackstart = RAMEND      ; start address of return stack, grows downward
                 .set stackstart  = RAMEND - 80 ; start address of data stack, grows downward
                 ; change only if you know what to you do
                 .set NUMWORDLISTS = 8 ; number of word lists in the searh order, at least 8
                 .set NUMRECOGNIZERS = 4 ; total number of recognizers, two are always used.
                 
                 ; 10 per mille (1 per cent) is ok.
                 .set BAUD = 38400
                 .set BAUD_MAXERROR = 10
                 
                 ; Dictionary setup
                 .set VE_HEAD = $0000
                 .set VE_ENVHEAD = $0000
                 
                 
                 .set AMFORTH_RO_SEG = NRWW_START_ADDR+1
                 
                 ; cpu clock in hertz
                 .equ F_CPU = 16000000
                 .set BAUD_MAXERROR = 30
                 .equ TIMER_INT = OVF2addr
                 
                 .include "drivers/usart_0.asm"
                 
                   .equ BAUDRATE_HIGH = UBRR0H
                   .equ USART_C = UCSR0C
                   .equ USART_B = UCSR0B
                   .equ USART_A = UCSR0A
                   .equ USART_DATA = UDR0
                   .ifndef URXCaddr
                   .equ URXCaddr = URXC0addr
                   .equ UDREaddr = UDRE0addr
                   .endif
                 
                 .equ bm_USART_RXRD = 1 << RXC0
                 .equ bm_USART_TXRD = 1 << UDRE0
                 .equ bm_ENABLE_TX  = 1 << TXEN0
                 .equ bm_ENABLE_RX  = 1 << RXEN0
                 .equ bm_ENABLE_INT_RX = 1<<RXCIE0
                 .equ bm_ENABLE_INT_TX = 1<<UDRIE0
                 
                 .equ bm_USARTC_en   = 0
                 .equ bm_ASYNC       = 0 << 6
                 .equ bm_SYNC        = 1 << 6
                 .equ bm_NO_PARITY   = 0 << 4
                 .equ bm_EVEN_PARITY = 2 << 4
                 .equ bm_ODD_PARITY  = 3 << 4
                 .equ bm_1STOPBIT    = 0 << 3
                 .equ bm_2STOPBIT    = 1 << 3
                 .equ bm_5BIT        = 0 << 1
                 .equ bm_6BIT        = 1 << 1
                 .equ bm_7BIT        = 2 << 1
                 .equ bm_8BIT        = 3 << 1
                 
                 .include "drivers/usart_common.asm"
                 
                 .set USART_C_VALUE = bm_ASYNC | bm_NO_PARITY | bm_1STOPBIT | bm_8BIT
                 .if WANT_ISR_RX == 1
                   .set USART_B_VALUE = bm_ENABLE_TX | bm_ENABLE_RX | bm_ENABLE_INT_RX
                   .include "drivers/usart-rx-buffer.asm"
                 
                 
                 ; sizes have to be powers of 2!
                 .equ usart_rx_size = $10
                 .equ usart_rx_mask = usart_rx_size - 1
                 .dseg
000100           usart_rx_data: .byte usart_rx_size+2
000112           usart_rx_in: .byte 1
000113                        .byte 1
000114           usart_rx_out: .byte 1
000115                         .byte 1
                 
                 .cseg
                 
                 ;;;;;;;;;;;;;;;;;;;;;;;;;;;;;;;;;;;
                 ; forth code:
                 ; : usart-rx-buffer USART_DATA c@
                 ;    dup 3 = if cold then
                 ;    usart_rx_data usart_rx_in c@ dup >r
                 ;    + !
                 ;    r> 1+ usart_rx_mask and usart_rx_in c!
                 ; ;
                 usart_rx_buffer:
000041 9100 00c6   lds temp0, USART_DATA
                   ; optional: check for certain character(s) (e.g. CTRL-C)
                   ; and trigger a soft interrupt instead of storing the
                   ; charater into the input queue.
000043 3003        cpi temp0, 3
000044 f411        brne usart_rx_store
000045 940c 0000   jmp 0
                 usart_rx_store:
000047 9110 0112   lds temp1, usart_rx_in
000049 e0e0        ldi zl, low(usart_rx_data)
00004a e0f1        ldi zh, high(usart_rx_data)
00004b 0fe1        add zl, temp1
00004c 1df3        adc zh, zeroh
00004d 8300        st Z, temp0
                 
00004e 9513        inc temp1
00004f 701f        andi temp1,usart_rx_mask
                 
000050 9310 0112   sts usart_rx_in, temp1
                 
                 usart_rx_finish:
000052 9508        ret
                 
                 ; ( -- ) Hardware Access
                 ; R( --)
                 ; initialize usart
                 ;VE_USART_INIT_RXBUFFER:
                 ;  .dw $ff0x
                 ;  .db "+usart-buffer"
                 ;  .dw VE_HEAD
                 ;  .set VE_HEAD = VE_USART_INIT_RXBUFFER
                 XT_USART_INIT_RX_BUFFER:
000053 7001        .dw DO_COLON
                 PFA_USART_INIT_RX_BUFFER:          ; ( -- )
000054 7038
000055 008a        .dw XT_DOLITERAL, XT_ISR_RX
000056 7038
000057 0028        .dw XT_DOLITERAL, URXCaddr
000058 7483        .dw XT_INTSTORE
                 
000059 7038        .dw XT_DOLITERAL
00005a 0100        .dw usart_rx_data
00005b 7038        .dw XT_DOLITERAL
00005c 0016        .dw usart_rx_size + 6
00005d 714f        .dw XT_ZERO
00005e 74d3        .dw XT_FILL
00005f 701b        .dw XT_EXIT
                 
                 ; ( -- c)
                 ; MCU
                 ; get 1 character from input queue, wait if needed using interrupt driver
                 VE_RX_BUFFER:
000060 ff06          .dw $ff06
000061 7872
000062 622d
000063 6675          .db "rx-buf"
000064 0000          .dw VE_HEAD
                     .set VE_HEAD = VE_RX_BUFFER
                 XT_RX_BUFFER:
000065 7001          .dw DO_COLON
                 PFA_RX_BUFFER:
000066 0080        .dw XT_RXQ_BUFFER
000067 7031        .dw XT_DOCONDBRANCH
000068 0066        .dw PFA_RX_BUFFER
000069 7038        .dw XT_DOLITERAL
00006a 0114        .dw usart_rx_out
00006b 7093        .dw XT_CFETCH
00006c 70ac        .dw XT_DUP
00006d 7038        .dw XT_DOLITERAL
00006e 0100        .dw usart_rx_data
00006f 7198        .dw XT_PLUS
000070 7093        .dw XT_CFETCH
000071 70bf        .dw XT_SWAP
000072 722a        .dw XT_1PLUS
000073 7038        .dw XT_DOLITERAL
000074 000f        .dw usart_rx_mask
000075 720e        .dw XT_AND
000076 7038        .dw XT_DOLITERAL
000077 0114        .dw usart_rx_out
000078 7088        .dw XT_CSTORE
000079 701b        .dw XT_EXIT
                 
                 ; ( -- f)  
                 ; MCU
                 ; check if unread characters are in the input queue using interrupt driver
                 VE_RXQ_BUFFER:
00007a ff07          .dw $ff07
00007b 7872
00007c 2d3f
00007d 7562
00007e 0066          .db "rx?-buf",0
00007f 0060          .dw VE_HEAD
                     .set VE_HEAD = VE_RXQ_BUFFER
                 XT_RXQ_BUFFER:
000080 7001          .dw DO_COLON
                 PFA_RXQ_BUFFER:
000081 7a55        .dw XT_PAUSE
000082 7038        .dw XT_DOLITERAL
000083 0114        .dw usart_rx_out
000084 7093        .dw XT_CFETCH
000085 7038        .dw XT_DOLITERAL
000086 0112        .dw usart_rx_in
000087 7093        .dw XT_CFETCH
000088 710e        .dw XT_NOTEQUAL
000089 701b        .dw XT_EXIT
                   .include "drivers/usart-isr-rx.asm"
                 
                 
                 ;;;;;;;;;;;;;;;;;;;;;;;;;;;;;;;;;;;
                 ; forth code:
                 ; : rx-isr usart-rx-buffer ;
                 ;
                 ; setup with
                 ; ' rx-isr URXCaddr int!
                 
                 XT_ISR_RX:
00008a 008b          .dw usart_rx_isr
                 usart_rx_isr:
00008b dfb5        call_ usart_rx_buffer
00008c 940c 7005   jmp_ DO_NEXT
                 ;  .include "drivers/timer-usart-isr.asm"
                   .set XT_RX  = XT_RX_BUFFER
                   .set XT_RXQ = XT_RXQ_BUFFER
                   .set XT_USART_INIT_RX = XT_USART_INIT_RX_BUFFER
                 .else
                 .endif
                 
                 .include "words/usart-tx-poll.asm"
                 
                 ; MCU
                 ; check availability and send one character to the terminal using register poll
                 VE_TX_POLL:
00008e ff07          .dw $ff07
00008f 7874
000090 702d
000091 6c6f
000092 006c          .db "tx-poll",0
000093 007a          .dw VE_HEAD
                     .set VE_HEAD = VE_TX_POLL
                 XT_TX_POLL:
000094 7001          .dw DO_COLON
                 PFA_TX_POLL:
                   ; wait for data ready
000095 00a2        .dw XT_TXQ_POLL
000096 7031        .dw XT_DOCONDBRANCH
000097 0095        .dw PFA_TX_POLL
                   ; send to usart
000098 7038        .dw XT_DOLITERAL
000099 00c6        .dw USART_DATA
00009a 7088        .dw XT_CSTORE
00009b 701b        .dw XT_EXIT
                 
                 ; ( -- f) MCU
                 ; MCU
                 ; check if a character can be send using register poll
                 VE_TXQ_POLL:
00009c ff08          .dw $ff08
00009d 7874
00009e 2d3f
00009f 6f70
0000a0 6c6c          .db "tx?-poll"
0000a1 008e          .dw VE_HEAD
                     .set VE_HEAD = VE_TXQ_POLL
                 XT_TXQ_POLL:
0000a2 7001          .dw DO_COLON
                 PFA_TXQ_POLL:
0000a3 7a55        .dw XT_PAUSE
0000a4 7038        .dw XT_DOLITERAL
0000a5 00c0        .dw USART_A
0000a6 7093        .dw XT_CFETCH
0000a7 7038        .dw XT_DOLITERAL
0000a8 0020        .dw bm_USART_TXRD
0000a9 720e        .dw XT_AND
0000aa 701b        .dw XT_EXIT
                 .set XT_TX  = XT_TX_POLL
                 .set XT_TXQ = XT_TXQ_POLL
                 .set XT_USART_INIT_TX = 0
                 
                 .include "words/ubrr.asm"
                 
                 ; MCU
                 ; returns usart UBRR settings
                 VE_UBRR:
0000ab ff04        .dw $ff04
0000ac 6275
0000ad 7272        .db "ubrr"
0000ae 009c        .dw VE_HEAD
                   .set VE_HEAD = VE_UBRR
                 XT_UBRR:
0000af 706a        .dw PFA_DOVALUE1
                 PFA_UBRR:          ; ( -- )
0000b0 0090        .dw EE_UBRRVAL
0000b1 7bb7        .dw XT_EDEFERFETCH
0000b2 7bc1        .dw XT_EDEFERSTORE
                 .include "words/usart.asm"
                 
                 ; MCU
                 ; initialize usart
                 VE_USART:
0000b3 ff06        .dw $ff06
0000b4 752b
0000b5 6173
0000b6 7472        .db "+usart"
0000b7 00ab        .dw VE_HEAD
                   .set VE_HEAD = VE_USART
                 XT_USART:
0000b8 7001        .dw DO_COLON
                 PFA_USART:          ; ( -- )
                 
0000b9 7038        .dw XT_DOLITERAL
0000ba 0098        .dw USART_B_VALUE
0000bb 7038        .dw XT_DOLITERAL
0000bc 00c1        .dw USART_B
0000bd 7088        .dw XT_CSTORE
                 
0000be 7038        .dw XT_DOLITERAL
0000bf 0006        .dw USART_C_VALUE
0000c0 7038        .dw XT_DOLITERAL
0000c1 00c2        .dw USART_C | bm_USARTC_en
0000c2 7088        .dw XT_CSTORE
                 
0000c3 00af        .dw XT_UBRR
0000c4 70ac        .dw XT_DUP
0000c5 72f4        .dw XT_BYTESWAP
0000c6 7038        .dw XT_DOLITERAL
0000c7 00c5        .dw BAUDRATE_HIGH
0000c8 7088        .dw XT_CSTORE
0000c9 7038        .dw XT_DOLITERAL
0000ca 00c4        .dw BAUDRATE_LOW
0000cb 7088        .dw XT_CSTORE
                 .if XT_USART_INIT_RX!=0
0000cc 0053        .dw XT_USART_INIT_RX
                 .endif
                 .if XT_USART_INIT_TX!=0
                 .endif
                 
0000cd 701b        .dw XT_EXIT
                 
                 ; settings for 1wire interface
                 .equ OW_PORT=PORTB
                 .EQU OW_BIT=4
                 .include "drivers/1wire.asm"
                 
                 ;   B. J. Rodriguez (MSP 430)
                 ;   Matthias Trute (AVR Atmega)
                 ; COPYRIGHT
                 ;   (c) 2012 Bradford J. Rodriguez for the 430 code and API
                 
                 ;  adapted 430 assembly code to AVR
                 ;  wishlist: 
                 ;     use a configurable pin at runtime, compatible with bitnames.frt
                 ;     no external pull up, no external power supply for devices
                 ;     ???
                 ;
                 ;.EQU OW_BIT=4
                 ;.equ OW_PORT=PORTE
                 .set OW_DDR=(OW_PORT-1)
                 .set OW_PIN=(OW_DDR-1)
                 
                 ;****f* 1W.RESET
                 ; NAME
                 ;   1W.RESET
                 ; SYNOPSIS
                 ;   1W.RESET ( -- f )  Initialize 1-wire devices; return true if present
                 ; DESCRIPTION
                 ;   This configures the port pin used by the 1-wire interface, and then
                 ;   sends an "initialize" sequence to the 1-wire devices.  If any device
                 ;   is present, it will be detected.
                 ;
                 ;   Timing, per DS18B20 data sheet:
                 ;   a) Output "0" (drive output low) for >480 usec.
                 ;   b) Output "1" (let output float).
                 ;   c) After 15 to 60 usec, device will drive pin low for 60 to 240 usec.
                 ;      So, wait 75 usec and sample input.
                 ;   d) Leave output high (floating) for at least 480 usec.
                 ;******
                 ; ( -- f )
                 ; Hardware
                 ; Initialize 1-wire devices; return true if present
                 VE_OW_RESET:
0000ce ff08          .dw $ff08
0000cf 7731
0000d0 722e
0000d1 7365
0000d2 7465          .db "1w.reset"
0000d3 00b3          .dw VE_HEAD
                     .set VE_HEAD = VE_OW_RESET
                 XT_OW_RESET:
0000d4 00d5          .dw PFA_OW_RESET
                 PFA_OW_RESET:
0000d5 939a
0000d6 938a          savetos
                     ; setup to output
0000d7 9a24          sbi OW_DDR, OW_BIT
                     ; Pull output low
0000d8 982c          cbi OW_PORT, OW_BIT
                     ; Delay >480 usec        
0000d9 e8e0
0000da e0f7
0000db 9731
0000dc f7f1          DELAY   480
                     ; Critical timing period, disable interrupts.
0000dd b71f          in temp1, SREG
0000de 94f8          cli
                     ; Pull output high
0000df 9a2c          sbi OW_PORT, OW_BIT
                     ; make pin input, sends "1"
0000e0 9824          cbi OW_DDR, OW_BIT 
0000e1 e0e0
0000e2 e0f1
0000e3 9731
0000e4 f7f1          DELAY   64 ; delayB
                     ; Sample input pin, set TOS if input is zero
0000e5 b183          in tosl, OW_PIN
0000e6 ff84          sbrs tosl, OW_BIT
0000e7 ef9f          ser  tosh
                     ; End critical timing period, enable interrupts
0000e8 bf1f          out SREG, temp1
                     ; release bus
0000e9 9824          cbi OW_DDR, OW_BIT
0000ea 982c          cbi OW_PORT, OW_BIT
                 
                     ; Delay rest of 480 usec 
0000eb e8e0
0000ec e0f6
0000ed 9731
0000ee f7f1          DELAY   416
                     ; we now have the result flag in TOS        
0000ef 2f89          mov tosl, tosh
0000f0 940c 7005     jmp_ DO_NEXT
                     
                 ;****f* 1W.SLOT
                 ; NAME
                 ;   1W.SLOT
                 ; SYNOPSIS
                 ;   1W.SLOT ( c -- c' ) Write and read one bit to/from 1-wire.
                 ; DESCRIPTION
                 ;   The "touch byte" function is described in Dallas App Note 74.
                 ;   It outputs a byte to the 1-wire pin, LSB first, and reads back
                 ;   the state of the 1-wire pin after a suitable delay.
                 ;   To read a byte, output $FF and read the reply data.
                 ;   To write a byte, output that byte and discard the reply.
                 ;
                 ;   This function performs one bit of the "touch" operation --
                 ;   one read/write "slot" in Dallas jargon.  Perform this eight
                 ;   times in a row to get the "touch byte" function.
                 ;
                 ; PARAMETERS
                 ;   The input parameter is xxxxxxxxbbbbbbbo where
                 ;   'xxxxxxxx' are don't cares,
                 ;   'bbbbbbb' are bits to be shifted down, and
                 ;   'o' is the bit to be output in the slot.  This must be 1
                 ;   to create a read slot.
                 ;
                 ;   The returned value is xxxxxxxxibbbbbbb where
                 ;   'xxxxxxxx' are not known (the input shifted down 1 position),
                 ;   'i' is the bit read during the slot.  This has no meaning
                 ;   if it was a write slot.
                 ;   'bbbbbbb' are the 7 input bits, shifted down one position.
                 ;
                 ;   This peculiar parameter usage allows OWTOUCH to be written as
                 ;     OWSLOT OWSLOT OWSLOT OWSLOT OWSLOT OWSLOT OWSLOT OWSLOT 
                 ;
                 ; NOTES 
                 ;   Interrupts are disabled during each bit.
                 
                 ;   Timing, per DS18B20 data sheet:
                 ;   a) Output "0" for start period.  (> 1 us, < 15 us, typ. 6 us*)
                 ;   b) Output data bit (0 or 1), open drain 
                 ;   c) After MS from start of cycle, sample input (15 to 60 us, typ. 25 us*)
                 ;   d) After write-0 period from start of cycle, output "1" (>60 us)
                 ;   e) After recovery period, loop or return. (> 1 us)
                 ;   For writes, DS18B20 samples input 15 to 60 usec from start of cycle.
                 ;   * "Typical" values are per App Note 132 for a 300m cable length.
                 
                 ;   ---------        -------------------------------
                 ;            \      /                        /
                 ;             ------------------------------- 
                 ;            a      b          c             d     e
                 ;            |  6us |   19us   |    35us     | 2us |
                 ;******
                 ; ( c -- c' )
                 ; Hardware
                 ; Write and read one bit to/from 1-wire.
                 VE_OW_SLOT:
0000f2 ff07          .dw $ff07
0000f3 7731
0000f4 732e
0000f5 6f6c
0000f6 0074          .db "1w.slot",0
0000f7 00ce          .dw VE_HEAD
                     .set VE_HEAD = VE_OW_SLOT
                 XT_OW_SLOT:
0000f8 00f9          .dw PFA_OW_SLOT
                 PFA_OW_SLOT:
                     ; pull low
0000f9 982c          cbi OW_PORT, OW_BIT
0000fa 9a24          sbi OW_DDR, OW_BIT
                     ; disable interrupts
0000fb b71f          in temp1, SREG
0000fc 94f8          cli
0000fd e1e8
0000fe e0f0
0000ff 9731
000100 f7f1          DELAY   6 ; DELAY A
                     ; check bit
000101 9488          clc
000102 9587          ror tosl
000103 f410          brcc PFA_OW_SLOT0 ; a 0 keeps the bus low
                       ; release bus, a 1 is written
000104 9a2c            sbi OW_PORT, OW_BIT
000105 9824            cbi OW_DDR, OW_BIT
                 PFA_OW_SLOT0:
                     ; sample the input (no action required if zero)
000106 e2e4
000107 e0f0
000108 9731
000109 f7f1          DELAY 9   ; wait DELAY E to sample
00010a b103          in temp0, OW_PIN
00010b fd04          sbrc temp0, OW_BIT
00010c 6880          ori tosl, $80
                 
00010d ecec
00010e e0f0
00010f 9731
000110 f7f1          DELAY   51 ; DELAY B
000111 9a2c          sbi OW_PORT, OW_BIT ; release bus
000112 9824          cbi OW_DDR, OW_BIT
000113 e0e8
000114 e0f0
000115 9731
000116 f7f1          delay 2
                     ; re-enable interrupts
000117 bf1f          out SREG, temp1
000118 940c 7005     jmp_ DO_NEXT
                 
                 .include "amforth.asm"
                 
                 ;;;;
                 ;;;; GPL V2 (only)
                 
                 .set AMFORTH_NRWW_SIZE=(FLASHEND-AMFORTH_RO_SEG)*2
                 
                 .set corepc = pc
                 .org $0000
000000 940c 7a5e   jmp_ PFA_COLD
                 
                 .org corepc
                 .include "drivers/generic-isr.asm"
                 
                 .dseg
000116           intcur: .byte 1
                 .eseg
000000           intvec: .byte INTVECTORS * CELLSIZE
                 .cseg
                 
                 ; interrupt routine gets called (again) by rcall! This gives the
                 ; address of the int-vector on the stack.
                 isr:
00011a 920a          st -Y, r0
00011b b60f          in r0, SREG
00011c 920a          st -Y, r0
                 .if (pclen==3)
                 .endif
00011d 900f          pop r0
00011e 900f          pop r0          ; = intnum * intvectorsize + 1 (address following the rcall)
00011f 940a          dec r0
                 .if intvecsize == 1 ;
                 .endif
000120 9200 0116     sts intcur, r0
000122 9009          ld r0, Y+
000123 be0f          out SREG, r0
000124 9009          ld r0, Y+
000125 9468          set ; set the interrupt flag for the inner interpreter
000126 9508          ret ; returns the interrupt, the rcall stack frame is removed!
                     ; no reti here, see words/isr-end.asm
                 ; lower part of the dictionary
                 .include "dict/rww.inc"
                 
                 
                 ; Arithmetics
                 ; add a number to a double cell
                 VE_MPLUS:
000127 ff02          .dw $ff02
000128 2b6d          .db "m+"
000129 00f2          .dw VE_HEAD
                     .set VE_HEAD = VE_MPLUS
                 XT_MPLUS:
00012a 7001          .dw DO_COLON
                 PFA_MPLUS:
00012b 7d6a          .dw XT_S2D
00012c 7411          .dw XT_DPLUS
00012d 701b          .dw XT_EXIT
                 .include "words/ud-star.asm"
                 
                 .if cpu_msp430==1
                 .endif
                 
                 .if cpu_avr8==1
                 VE_UDSTAR:
00012e ff03          .dw $ff03
00012f 6475
../../common\words/ud-star.asm(9): warning: .cseg .db misalignment - padding zero byte
000130 002a          .db "ud*"
000131 0127          .dw VE_HEAD
                     .set VE_HEAD = VE_UDSTAR
                 XT_UDSTAR:
000132 7001          .dw DO_COLON
                 PFA_UDSTAR:
                 
                 .endif
                 ;Z UD*      ud1 d2 -- ud3      32*16->32 multiply
                 ;   XT_DUP >R UM* DROP  XT_SWAP R> UM* ROT + ;
                 
000133 70ac
000134 70fa
000135 71db
000136 70d4              .DW XT_DUP,XT_TO_R,XT_UMSTAR,XT_DROP
000137 70bf
000138 70f1
000139 71db
00013a 70dc
00013b 7198
00013c 701b              .DW XT_SWAP,XT_R_FROM,XT_UMSTAR,XT_ROT,XT_PLUS,XT_EXIT
                 .include "words/umax.asm"
                 
                 .if cpu_msp430==1
                 .endif
                 
                 .if cpu_avr8==1
                 VE_UMAX:
00013d ff04          .dw $ff04
00013e 6d75
00013f 7861          .db "umax"
000140 012e          .dw VE_HEAD
                     .set VE_HEAD = VE_UMAX
                 XT_UMAX:
000141 7001          .dw DO_COLON
                 PFA_UMAX:
                 .endif
                 
000142 7569
000143 7157              .DW XT_2DUP,XT_ULESS
000144 7031      	.dw XT_DOCONDBRANCH
000145 0147      	 DEST(UMAX1)
000146 70bf              .DW XT_SWAP
000147 70d4      UMAX1:  .DW XT_DROP
000148 701b      	.dw XT_EXIT
                 .include "words/umin.asm"
                 
                 .if cpu_msp430==1
                 .endif
                 
                 .if cpu_avr8==1
                 VE_UMIN:
000149 ff04          .dw $ff04
00014a 6d75
00014b 6e69          .db "umin"
00014c 013d          .dw VE_HEAD
                     .set VE_HEAD = VE_UMIN
                 XT_UMIN:
00014d 7001          .dw DO_COLON
                 PFA_UMIN:
                 .endif
00014e 7569
00014f 7162              .DW XT_2DUP,XT_UGREATER
000150 7031      	.dw XT_DOCONDBRANCH
000151 0153      	DEST(UMIN1)
000152 70bf              .DW XT_SWAP
000153 70d4      UMIN1:  .DW XT_DROP
000154 701b      	.dw XT_EXIT
                 .include "words/immediate-q.asm"
                 
                 ; Tools
                 ; return +1 if immediate, -1 otherwise, flag from name>flags
                 ;VE_IMMEDIATEQ:
                 ;    .dw $ff06
                 ;    .db "immediate?"
                 ;    .dw VE_HEAD
                 ;    .set VE_HEAD = VE_IMMEDIATEQ
                 XT_IMMEDIATEQ:
000155 7001          .dw DO_COLON
                 PFA_IMMEDIATEQ:
000156 7038          .dw XT_DOLITERAL
000157 8000          .dw $8000
000158 720e          .dw XT_AND
000159 7115          .dw XT_ZEROEQUAL
00015a 7031          .dw XT_DOCONDBRANCH
00015b 015e          DEST(IMMEDIATEQ1)
00015c 7d89           .dw XT_ONE
00015d 701b           .dw XT_EXIT
                 IMMEDIATEQ1:
                     ; not immediate
00015e 7146          .dw XT_TRUE
00015f 701b          .dw XT_EXIT
                 .include "words/name2flags.asm"
                 
                 ; Tools
                 ; get the flags from a name token
                 VE_NAME2FLAGS:
000160 ff0a          .dw $ff0a
000161 616e
000162 656d
000163 663e
000164 616c
000165 7367          .db "name>flags"
000166 0149          .dw VE_HEAD
                     .set VE_HEAD = VE_NAME2FLAGS
                 XT_NAME2FLAGS:
000167 7001          .dw DO_COLON
                 PFA_NAME2FLAGS:
000168 73c7          .dw XT_FETCHI ; skip to link field
000169 7038          .dw XT_DOLITERAL
00016a ff00          .dw $ff00
00016b 720e          .dw XT_AND
00016c 701b          .dw XT_EXIT
                 
                 .if AMFORTH_NRWW_SIZE > 8000
                 .include "dict/appl_8k.inc"
                 
                 
                 .include "words/newest.asm"
                 
                 ; System Variable
                 ; system state
                 VE_NEWEST:
00016d ff06          .dw $ff06
00016e 656e
00016f 6577
000170 7473          .db "newest"
000171 0160          .dw VE_HEAD
                     .set VE_HEAD = VE_NEWEST
                 XT_NEWEST:
000172 7043          .dw PFA_DOVARIABLE
                 PFA_NEWEST:
000173 0117          .dw ram_newest
                 
                 .dseg
000117           ram_newest: .byte 4
                 .include "words/latest.asm"
                 
                 ; System Variable
                 ; system state
                 VE_LATEST:
000174 ff06          .dw $ff06
000175 616c
000176 6574
000177 7473          .db "latest"
000178 016d          .dw VE_HEAD
                     .set VE_HEAD = VE_LATEST
                 XT_LATEST:
000179 7043          .dw PFA_DOVARIABLE
                 PFA_LATEST:
00017a 011b          .dw ram_latest
                 
                 .dseg
00011b           ram_latest: .byte 2
                 .include "words/do-create.asm"
                 
                 ; Compiler
                 ; parse the input and create an empty vocabulary entry without XT and data field (PF)
                 
                 .if cpu_msp430==1
                 .endif
                 
                 .if cpu_avr8==1
                 VE_DOCREATE:
00017b ff08          .dw $ff08
00017c 6328
00017d 6572
00017e 7461
00017f 2965          .db "(create)"
000180 0174          .dw VE_HEAD
                     .set VE_HEAD = VE_DOCREATE
                 XT_DOCREATE:
000181 7001          .dw DO_COLON
                 PFA_DOCREATE:
                 .endif
000182 79b8
000183 02d8          .DW XT_PARSENAME,XT_WLSCOPE  ; ( -- addr len wid)
000184 70ac
000185 0172
000186 7562
000187 707c          .DW XT_DUP,XT_NEWEST,XT_CELLPLUS,XT_STORE ; save the wid
000188 02bd
000189 0172
00018a 707c          .DW XT_HEADER,XT_NEWEST,XT_STORE          ; save the nt
00018b 701b          .DW XT_EXIT
                 .include "words/backslash.asm"
                 
                 ; Compiler
                 ; everything up to the end of the current line is a comment
                 
                 .if cpu_msp430==1
                 .endif
                 
                 .if cpu_avr8==1
                 VE_BACKSLASH:
00018c 0001          .dw $0001
00018d 005c          .db $5c,0
00018e 017b          .dw VE_HEAD
                     .set VE_HEAD = VE_BACKSLASH
                 XT_BACKSLASH:
00018f 7001          .dw DO_COLON
                 PFA_BACKSLASH:
                 .endif
000190 799f          .dw XT_SOURCE
000191 70eb          .dw XT_NIP
000192 7582          .dw XT_TO_IN
000193 707c          .dw XT_STORE
000194 701b          .dw XT_EXIT
                 .include "words/l-paren.asm"
                 
                 ; Compiler
                 ; skip everything up to the closing bracket on the same line
                 
                 .if cpu_msp430==1
                 .endif
                 
                 .if cpu_avr8==1
                 VE_LPAREN:
000195 0001          .dw $0001
000196 0028          .db "(" ,0
000197 018c          .dw VE_HEAD
                     .set VE_HEAD = VE_LPAREN
                 XT_LPAREN:
000198 7001          .dw DO_COLON
                 PFA_LPAREN:
                 .endif
000199 7038          .dw XT_DOLITERAL
00019a 0029          .dw ')'
00019b 798b          .dw XT_PARSE
00019c 7572          .dw XT_2DROP
00019d 701b          .dw XT_EXIT
                 
                 .include "words/compile.asm"
                 
                 ; Dictionary
                 ; read the following cell from the dictionary and append it to the current dictionary position.
                 
                 .if cpu_msp430==1
                 .endif
                 
                 .if cpu_avr8==1
                 VE_COMPILE:
00019e ff07          .dw $ff07
00019f 6f63
0001a0 706d
0001a1 6c69
0001a2 0065          .db "compile",0
0001a3 0195          .dw  VE_HEAD
                     .set VE_HEAD = VE_COMPILE
                 XT_COMPILE:
0001a4 7001          .dw DO_COLON
                 PFA_COMPILE:
                 .endif
0001a5 70f1          .dw XT_R_FROM
0001a6 70ac          .dw XT_DUP
0001a7 7bae          .dw XT_ICELLPLUS
0001a8 70fa          .dw XT_TO_R
0001a9 73c7          .dw XT_FETCHI
0001aa 01af          .dw XT_COMMA
0001ab 701b          .dw XT_EXIT
                 .include "words/comma.asm"
                 
                 ; Dictionary
                 ; compile 16 bit into flash at DP
                 VE_COMMA:
0001ac ff01          .dw $ff01
0001ad 002c          .db ',',0 ; ,
0001ae 019e          .dw VE_HEAD
                     .set VE_HEAD = VE_COMMA
                 XT_COMMA:
0001af 7001          .dw DO_COLON
                 PFA_COMMA:
0001b0 75b2          .dw XT_DP
0001b1 736e          .dw XT_STOREI
0001b2 75b2          .dw XT_DP
0001b3 722a          .dw XT_1PLUS
0001b4 7b9c          .dw XT_DOTO
0001b5 75b3          .dw PFA_DP
0001b6 701b          .dw XT_EXIT
                 .include "words/brackettick.asm"
                 
                 ; Compiler
                 ; what ' does in the interpreter mode, do in colon definitions
                 
                 .if cpu_msp430==1
                 .endif
                 
                 .if cpu_avr8==1
                 VE_BRACKETTICK:
0001b7 0003          .dw $0003
0001b8 275b
0001b9 005d          .db "[']",0
0001ba 01ac          .dw VE_HEAD
                     .set VE_HEAD = VE_BRACKETTICK
                 XT_BRACKETTICK:
0001bb 7001          .dw DO_COLON
                 PFA_BRACKETTICK:
                 .endif
0001bc 780e          .dw XT_TICK
0001bd 01c5          .dw XT_LITERAL
0001be 701b          .dw XT_EXIT
                 
                 
                 .include "words/literal.asm"
                 
                 ; Compiler
                 ; compile a literal in colon defintions
                 
                 .if cpu_msp430==1
                 .endif
                 
                 .if cpu_avr8==1
                 VE_LITERAL:
0001bf 0007          .dw $0007
0001c0 696c
0001c1 6574
0001c2 6172
0001c3 006c          .db "literal",0
0001c4 01b7          .dw VE_HEAD
                     .set VE_HEAD = VE_LITERAL
                 XT_LITERAL:
0001c5 7001          .dw DO_COLON
                 PFA_LITERAL:
                 .endif
0001c6 01a4              .DW XT_COMPILE
0001c7 7038              .DW XT_DOLITERAL
0001c8 01af              .DW XT_COMMA
0001c9 701b              .DW XT_EXIT
                 .include "words/sliteral.asm"
                 
                 ; String
                 ; compiles a string to flash, at runtime leaves ( -- flash-addr count) on stack
                 
                 .if cpu_msp430==1
                 .endif
                 
                 .if cpu_avr8==1
                 VE_SLITERAL:
0001ca 0008        .dw $0008
0001cb 6c73
0001cc 7469
0001cd 7265
0001ce 6c61        .db "sliteral"
0001cf 01bf        .dw VE_HEAD
                   .set VE_HEAD = VE_SLITERAL
                 XT_SLITERAL:
0001d0 7001          .dw DO_COLON
                 PFA_SLITERAL:
                 .endif
0001d1 01a4          .dw XT_COMPILE
0001d2 7771          .dw XT_DOSLITERAL    ; ( -- addr n)
0001d3 777f          .dw XT_SCOMMA
0001d4 701b          .dw XT_EXIT
                 .include "words/g-mark.asm"
                 
                 ; Compiler
                 ; places current dictionary position for backward resolves
                 ;VE_GMARK:
                 ;    .dw $ff05
                 ;    .db ">mark"
                 ;    .dw VE_HEAD
                 ;    .set VE_HEAD = VE_GMARK
                 XT_GMARK:
0001d5 7001          .dw DO_COLON
                 PFA_GMARK:
0001d6 75b2          .dw XT_DP
0001d7 01a4          .dw XT_COMPILE
0001d8 ffff          .dw -1           ; ffff does not erase flash
0001d9 701b          .dw XT_EXIT
                 .include "words/g-resolve.asm"
                 
                 ; Compiler
                 ; resolve backward jumps
                 ;VE_GRESOLVE:
                 ;    .dw $ff08
                 ;    .db ">resolve"
                 ;    .dw VE_HEAD
                 ;    .set VE_HEAD = VE_GRESOLVE
                 XT_GRESOLVE:
0001da 7001          .dw DO_COLON
                 PFA_GRESOLVE:
0001db 7b5a          .dw XT_QSTACK
0001dc 75b2          .dw XT_DP
0001dd 70bf          .dw XT_SWAP
0001de 736e          .dw XT_STOREI
0001df 701b          .dw XT_EXIT
                 .include "words/l_mark.asm"
                 
                 ; Compiler
                 ; place destination for backward branch
                 ;VE_LMARK:
                 ;    .dw $ff05
                 ;    .db "<mark"
                 ;    .dw VE_HEAD
                 ;    .set VE_HEAD = VE_LMARK
                 XT_LMARK:
0001e0 7001          .dw DO_COLON
                 PFA_LMARK:
0001e1 75b2          .dw XT_DP
0001e2 701b          .dw XT_EXIT
                 .include "words/l_resolve.asm"
                 
                 ; Compiler
                 ; resolve backward branch
                 ;VE_LRESOLVE:
                 ;    .dw $ff08
                 ;    .db "<resolve"
                 ;    .dw VE_HEAD
                 ;    .set VE_HEAD = VE_LRESOLVE
                 XT_LRESOLVE:
0001e3 7001          .dw DO_COLON
                 PFA_LRESOLVE:
0001e4 7b5a          .dw XT_QSTACK
0001e5 01af          .dw XT_COMMA
0001e6 701b          .dw XT_EXIT
                 
                 .include "words/ahead.asm"
                 
                 ; Compiler
                 ; do a unconditional branch
                 
                 .if cpu_msp430==1
                 .endif
                 
                 .if cpu_avr8==1
                 VE_AHEAD:
0001e7 0005          .dw $0005
0001e8 6861
0001e9 6165
0001ea 0064          .db "ahead",0
0001eb 01ca          .dw VE_HEAD
                     .set VE_HEAD = VE_AHEAD
                 XT_AHEAD:
0001ec 7001          .dw DO_COLON
                 PFA_AHEAD:
                 .endif
0001ed 01a4          .dw XT_COMPILE
0001ee 702a          .dw XT_DOBRANCH
0001ef 01d5          .dw XT_GMARK
0001f0 701b          .dw XT_EXIT
                 .include "words/if.asm"
                 
                 ; Compiler
                 ; start conditional branch
                 
                 .if cpu_msp430==1
                 .endif
                 
                 .if cpu_avr8==1
                 VE_IF:
0001f1 0002          .dw $0002
0001f2 6669          .db "if"
0001f3 01e7          .dw VE_HEAD
                     .set VE_HEAD = VE_IF
                 XT_IF:
0001f4 7001          .dw DO_COLON
                 PFA_IF:
                 .endif
0001f5 01a4          .dw XT_COMPILE
0001f6 7031          .dw XT_DOCONDBRANCH
0001f7 01d5          .dw XT_GMARK
0001f8 701b          .dw XT_EXIT
                 .include "words/else.asm"
                 
                 ; Compiler
                 ; resolve the forward reference and place a new unresolved forward reference
                 
                 .if cpu_msp430==1
                 .endif
                 
                 .if cpu_avr8==1
                 VE_ELSE:
0001f9 0004          .dw $0004
0001fa 6c65
0001fb 6573          .db "else"
0001fc 01f1          .dw VE_HEAD
                     .set VE_HEAD = VE_ELSE
                 XT_ELSE:
0001fd 7001          .dw DO_COLON
                 PFA_ELSE:
                 .endif
0001fe 01a4          .dw XT_COMPILE
0001ff 702a          .dw XT_DOBRANCH
000200 01d5          .dw XT_GMARK
000201 70bf          .dw XT_SWAP
000202 01da          .dw XT_GRESOLVE
000203 701b          .dw XT_EXIT
                 .include "words/then.asm"
                 
                 ; Compiler
                 ; finish if
                 
                 .if cpu_msp430==1
                 .endif
                 
                 .if cpu_avr8==1
                 VE_THEN:
000204 0004          .dw $0004
000205 6874
000206 6e65          .db "then"
000207 01f9          .dw VE_HEAD
                     .set VE_HEAD = VE_THEN
                 XT_THEN:
000208 7001          .dw DO_COLON
                 PFA_THEN:
                 .endif
000209 01da          .dw XT_GRESOLVE
00020a 701b          .dw XT_EXIT
                 .include "words/begin.asm"
                 
                 ; Compiler
                 ; put the next location for a transfer of control onto the control flow stack
                 
                 .if cpu_msp430==1
                 .endif
                 
                 .if cpu_avr8==1
                 VE_BEGIN:
00020b 0005          .dw $0005
00020c 6562
00020d 6967
00020e 006e          .db "begin",0
00020f 0204          .dw VE_HEAD
                     .set VE_HEAD = VE_BEGIN
                 XT_BEGIN:
000210 7001          .dw DO_COLON
                 PFA_BEGIN:
                 .endif
000211 01e0          .dw XT_LMARK
000212 701b          .dw XT_EXIT
                 .include "words/while.asm"
                 
                 ; Compiler
                 ; at runtime skip until repeat if non-true
                 
                 .if cpu_msp430==1
                 .endif
                 
                 .if cpu_avr8==1
                 VE_WHILE:
000213 0005          .dw $0005
000214 6877
000215 6c69
000216 0065          .db "while",0
000217 020b          .dw VE_HEAD
                     .set VE_HEAD = VE_WHILE
                 XT_WHILE:
000218 7001          .dw DO_COLON
                 PFA_WHILE:
                 .endif
000219 01f4          .dw XT_IF
00021a 70bf          .dw XT_SWAP
00021b 701b          .dw XT_EXIT
                 .include "words/repeat.asm"
                 
                 ; Compiler
                 ; continue execution at dest, resolve orig
                 
                 .if cpu_msp430==1
                 .endif
                 
                 .if cpu_avr8==1
                 VE_REPEAT:
00021c 0006          .dw $0006
00021d 6572
00021e 6570
00021f 7461          .db "repeat"
000220 0213          .dw VE_HEAD
                     .set VE_HEAD = VE_REPEAT
                 XT_REPEAT:
000221 7001          .dw DO_COLON
                 PFA_REPEAT:
                 .endif
000222 0235          .dw XT_AGAIN
000223 0208          .dw XT_THEN
000224 701b          .dw XT_EXIT
                 .include "words/until.asm"
                 
                 ; Compiler
                 ; finish begin with conditional branch, leaves the loop if true flag at runtime
                 
                 .if cpu_msp430==1
                 .endif
                 
                 .if cpu_avr8==1
                 VE_UNTIL:
000225 0005          .dw $0005
000226 6e75
000227 6974
000228 006c          .db "until",0
000229 021c          .dw VE_HEAD
                     .set VE_HEAD = VE_UNTIL
                 XT_UNTIL:
00022a 7001          .dw DO_COLON
                 PFA_UNTIL:
                 .endif
00022b 7038          .dw XT_DOLITERAL
00022c 7031          .dw XT_DOCONDBRANCH
00022d 01af          .dw XT_COMMA
                 
00022e 01e3          .dw XT_LRESOLVE
00022f 701b          .dw XT_EXIT
                 .include "words/again.asm"
                 
                 ; Compiler
                 ; compile a jump back to dest
                 
                 .if cpu_msp430==1
                 .endif
                 
                 .if cpu_avr8==1
                 VE_AGAIN:
000230 0005          .dw $0005
000231 6761
000232 6961
000233 006e          .db "again",0
000234 0225          .dw VE_HEAD
                     .set VE_HEAD = VE_AGAIN
                 XT_AGAIN:
000235 7001          .dw DO_COLON
                 PFA_AGAIN:
                 .endif
000236 01a4          .dw XT_COMPILE
000237 702a          .dw XT_DOBRANCH
000238 01e3          .dw XT_LRESOLVE
000239 701b          .dw XT_EXIT
                 .include "words/do.asm"
                 
                 ; Compiler
                 ; start do .. [+]loop
                 
                 .if cpu_msp430==1
                 .endif
                 
                 .if cpu_avr8==1
                 VE_DO:
00023a 0002          .dw $0002
00023b 6f64          .db "do"
00023c 0230          .dw VE_HEAD
                     .set VE_HEAD = VE_DO
                 XT_DO:
00023d 7001          .dw DO_COLON
                 PFA_DO:
                 
                 .endif
00023e 01a4          .dw XT_COMPILE
00023f 7296          .dw XT_DODO
000240 01e0          .dw XT_LMARK
000241 714f          .dw XT_ZERO
000242 0298          .dw XT_TO_L
000243 701b          .dw XT_EXIT
                 .include "words/loop.asm"
                 
                 ; Compiler
                 ; compile (loop) and resolve the backward branch
                 
                 .if cpu_msp430==1
                 .endif
                 
                 .if cpu_avr8==1
                 VE_LOOP:
000244 0004          .dw $0004
000245 6f6c
000246 706f          .db "loop"
000247 023a          .dw VE_HEAD
                     .set VE_HEAD = VE_LOOP
                 XT_LOOP:
000248 7001          .dw DO_COLON
                 PFA_LOOP:
                 .endif
000249 01a4          .dw XT_COMPILE
00024a 72c4          .dw XT_DOLOOP
00024b 027f          .dw XT_ENDLOOP
00024c 701b          .dw XT_EXIT
                 .include "words/plusloop.asm"
                 
                 ; Compiler
                 ; compile (+loop) and resolve branches
                 
                 .if cpu_msp430==1
                 .endif
                 
                 .if cpu_avr8==1
                 VE_PLUSLOOP:
00024d 0005          .dw $0005
00024e 6c2b
00024f 6f6f
000250 0070          .db "+loop",0
000251 0244          .dw VE_HEAD
                     .set VE_HEAD = VE_PLUSLOOP
                 XT_PLUSLOOP:
000252 7001          .dw DO_COLON
                 PFA_PLUSLOOP:
                 .endif
000253 01a4          .dw XT_COMPILE
000254 72b5          .dw XT_DOPLUSLOOP
000255 027f          .dw XT_ENDLOOP
000256 701b          .dw XT_EXIT
                 .include "words/leave.asm"
                 
                 ; Compiler
                 ; immediatly leave the current DO..LOOP
                 
                 .if cpu_msp430==1
                 .endif
                 
                 .if cpu_avr8==1
                 VE_LEAVE:
000257 0005         .dw $0005
000258 656c
000259 7661
00025a 0065         .db "leave",0
00025b 024d         .dw VE_HEAD
                    .set VE_HEAD = VE_LEAVE
                 XT_LEAVE:
00025c 7001          .dw DO_COLON
                 PFA_LEAVE:
                 .endif
00025d 01a4
00025e 72cf          .DW XT_COMPILE,XT_UNLOOP
00025f 01ec
000260 0298
000261 701b          .DW XT_AHEAD,XT_TO_L,XT_EXIT
                 .include "words/qdo.asm"
                 
                 ; Compiler
                 ; start a ?do .. [+]loop control structure
                 
                 .if cpu_msp430==1
                 .endif
                 
                 .if cpu_avr8==1
                 
                 VE_QDO:
000262 0003          .dw $0003
000263 643f
000264 006f          .db "?do",0
000265 0257          .dw VE_HEAD
                     .set VE_HEAD = VE_QDO
                 XT_QDO:
000266 7001          .dw DO_COLON
                 PFA_QDO:
                 .endif
000267 01a4          .dw XT_COMPILE
000268 026e          .dw XT_QDOCHECK
000269 01f4          .dw XT_IF
00026a 023d          .dw XT_DO
00026b 70bf          .dw XT_SWAP    ; DO sets a 0 marker on the leave stack
00026c 0298          .dw XT_TO_L    ; then follows at the end.
00026d 701b          .dw XT_EXIT
                 
                 ; there is no special runtime for ?do, the do runtime
                 ; gets wrapped with the sequence
                 ; ... ?do-check if do ..... loop then
                 ; with
                 ; : ?do-check ( n1 n2 -- n1 n2 true | false )
                 ;   2dup = dup >r if 2drop then r> invert ;
                 
                 .if cpu_msp430==1
                 .endif
                 
                 .if cpu_avr8==1
                 XT_QDOCHECK:
00026e 7001          .dw DO_COLON
                 PFA_QDOCHECK:
                 .endif
00026f 7569          .dw XT_2DUP
000270 7d82          .dw XT_EQUAL
000271 70ac          .dw XT_DUP
000272 70fa          .dw XT_TO_R
000273 7031          .dw XT_DOCONDBRANCH
000274 0276          DEST(PFA_QDOCHECK1)
000275 7572          .dw XT_2DROP
                 PFA_QDOCHECK1:
000276 70f1          .dw XT_R_FROM
000277 71f8          .dw XT_INVERT
000278 701b          .dw XT_EXIT
                 .include "words/endloop.asm"
                 
                 .if cpu_msp430==1
                 .endif
                 
                 .if cpu_avr8==1
                 VE_ENDLOOP:
000279 ff07          .dw $ff07
00027a 6e65
00027b 6c64
00027c 6f6f
00027d 0070          .db "endloop",0
00027e 0262          .dw VE_HEAD
                     .set VE_HEAD = VE_ENDLOOP
                 XT_ENDLOOP:
00027f 7001          .dw DO_COLON
                 PFA_ENDLOOP:
                 .endif
                 ;Z ENDLOOP   adrs xt --   L: 0 a1 a2 .. aN --
                 ;   <resolve                backward loop
                 ;   BEGIN L> ?DUP WHILE POSTPONE THEN REPEAT ;
                 ;                                 resolve LEAVEs
                 ; This is a common factor of LOOP and +LOOP.
                 
000280 01e3              .DW XT_LRESOLVE
000281 028c
000282 70b4
000283 7031      LOOP1:  .DW XT_L_FROM,XT_QDUP,XT_DOCONDBRANCH
000284 0288               DEST(LOOP2)
000285 0208              .DW XT_THEN
000286 702a      	.dw XT_DOBRANCH
000287 0281               DEST(LOOP1)
000288 701b      LOOP2:  .DW XT_EXIT
                 ; leave address stack
                 .include "words/l-from.asm"
                 
                 .if cpu_msp430==1
                 .endif
                 
                 .if cpu_avr8==1
                 VE_L_FROM:
000289 ff02          .dw $ff02
00028a 3e6c          .db "l>"
00028b 0279          .dw VE_HEAD
                     .set VE_HEAD = VE_L_FROM
                 XT_L_FROM:
00028c 7001          .dw DO_COLON
                 PFA_L_FROM:
                 
                 .endif
                 ;Z L>   -- x   L: x --      move from leave stack
                 ;   LP @ @  -2 LP +! ;
                 
00028d 02ab          .dw XT_LP
00028e 7074          .dw XT_FETCH
00028f 7074          .dw XT_FETCH
000290 7038          .dw XT_DOLITERAL
000291 fffe          .dw -2
000292 02ab          .dw XT_LP
000293 7260          .dw XT_PLUSSTORE
000294 701b          .dw XT_EXIT
                 .include "words/to-l.asm"
                 
                 .if cpu_msp430==1
                 .endif
                 
                 .if cpu_avr8==1
                 VE_TO_L:
000295 ff02          .dw $ff02
000296 6c3e          .db ">l"
000297 0289          .dw VE_HEAD
                     .set VE_HEAD = VE_TO_L
                 XT_TO_L:
000298 7001          .dw DO_COLON
                 PFA_TO_L:
                 .endif
                 ;Z >L   x --   L: -- x        move to leave stack
                 ;   CELL LP +!  LP @ ! ;      (L stack grows up)
                 
000299 7d8e              .dw XT_TWO
00029a 02ab      	.dw XT_LP
00029b 7260      	.dw XT_PLUSSTORE
00029c 02ab      	.dw XT_LP
00029d 7074      	.dw XT_FETCH
00029e 707c      	.dw XT_STORE
00029f 701b      	.dw XT_EXIT
                 .include "words/lp0.asm"
                 
                 ; Stack
                 ; start address of leave stack
                 VE_LP0:
0002a0 ff03          .dw $ff03
0002a1 706c
0002a2 0030          .db "lp0",0
0002a3 0295          .dw VE_HEAD
                     .set VE_HEAD = VE_LP0
                 XT_LP0:
0002a4 706a          .dw PFA_DOVALUE1
                 PFA_LP0:
0002a5 0044          .dw CFG_LP0
0002a6 7bb7          .dw XT_EDEFERFETCH
0002a7 7bc1          .dw XT_EDEFERSTORE
                 .include "words/lp.asm"
                 
                 ; System Variable
                 ; leave stack pointer
                 VE_LP:
0002a8 ff02          .dw $ff02
0002a9 706c          .db "lp"
0002aa 02a0          .dw VE_HEAD
                     .set VE_HEAD = VE_LP
                 XT_LP:
0002ab 7043          .dw PFA_DOVARIABLE
                 PFA_LP:
0002ac 011d          .dw ram_lp
                 
                 .dseg
00011d           ram_lp: .byte 2
                 .cseg
                 
                 
                 .include "words/create.asm"
                 
                 ; Dictionary
                 ; create a dictionary header. XT is (constant), with the address of the data field of name
                 
                 .if cpu_msp430==1
                 .endif
                 
                 .if cpu_avr8==1
                 VE_CREATE:
0002ad ff06          .dw $ff06
0002ae 7263
0002af 6165
0002b0 6574          .db "create"
0002b1 02a8          .dw VE_HEAD
                     .set VE_HEAD = VE_CREATE
                 XT_CREATE:
0002b2 7001          .dw DO_COLON
                 PFA_CREATE:
                 .endif
0002b3 0181          .dw XT_DOCREATE
0002b4 02e1          .dw XT_REVEAL
0002b5 01a4          .dw XT_COMPILE
0002b6 704d          .dw PFA_DOCONSTANT
0002b7 701b          .dw XT_EXIT
                 .include "words/header.asm"
                 
                 ; Compiler
                 ; creates the vocabulary header without XT and data field (PF) in the wordlist wid
                 VE_HEADER:
0002b8 ff06          .dw $ff06
0002b9 6568
0002ba 6461
0002bb 7265          .db "header"
0002bc 02ad          .dw VE_HEAD
                     .set VE_HEAD = VE_HEADER
                 XT_HEADER:
0002bd 7001          .dw DO_COLON
                 PFA_HEADER:
0002be 75b2          .dw XT_DP           ; the new Name Field
0002bf 70fa          .dw XT_TO_R
0002c0 70fa          .dw XT_TO_R		; ( R: NFA WID )
0002c1 70ac          .dw XT_DUP    
0002c2 7123          .dw XT_GREATERZERO 
0002c3 7031          .dw XT_DOCONDBRANCH
0002c4 02cf          .dw PFA_HEADER1
0002c5 70ac          .dw XT_DUP
0002c6 7038          .dw XT_DOLITERAL
0002c7 ff00          .dw $ff00           ; all flags are off (e.g. immediate)
0002c8 7217          .dw XT_OR
0002c9 7783          .dw XT_DOSCOMMA
                     ; make the link to the previous entry in this wordlist
0002ca 70f1          .dw XT_R_FROM
0002cb 735a          .dw XT_FETCHE
0002cc 01af          .dw XT_COMMA
0002cd 70f1          .dw XT_R_FROM
0002ce 701b          .dw XT_EXIT
                 
                 PFA_HEADER1:
                     ; -16: attempt to use zero length string as a name
0002cf 7038          .dw XT_DOLITERAL
0002d0 fff0          .dw -16
0002d1 7845          .dw XT_THROW
                 
                 .include "words/wlscope.asm"
                 
                 ; Compiler
                 ; dynamically place a word in a wordlist. The word name may be changed.
                 VE_WLSCOPE:
0002d2 ff07          .dw $ff07
0002d3 6c77
0002d4 6373
0002d5 706f
0002d6 0065          .db "wlscope",0
0002d7 02b8          .dw VE_HEAD
                     .set VE_HEAD = VE_WLSCOPE
                 XT_WLSCOPE:
0002d8 7c16          .dw PFA_DODEFER1
                 PFA_WLSCOPE:
0002d9 0040          .dw CFG_WLSCOPE
0002da 7bb7          .dw XT_EDEFERFETCH
0002db 7bc1          .dw XT_EDEFERSTORE
                 
                 ; wlscope, "wordlist scope" ( addr len -- addr' len' wid ), is a deferred word
                 ; which enables the AmForth application to choose the wordlist ( wid ) for the
                 ; new voc entry based on the input ( addr len ) string. The name of the new voc
                 ; entry ( addr' len' ) may be different from the input string. Note that all
                 ; created voc entry types pass through the wlscope mechanism. The default
                 ; wlscope action passes the input string to the output without modification and
                 ; uses get-current to select the wid.
                 .include "words/reveal.asm"
                 
                 ; Dictionary
                 ; makes an entry in a wordlist visible, if not already done.
                 
                 .if cpu_msp430==1
                 .endif
                 
                 .if cpu_avr8==1
                 VE_REVEAL:
0002dc ff06          .dw $ff06
0002dd 6572
0002de 6576
0002df 6c61          .db "reveal"
0002e0 02d2          .dw VE_HEAD
                     .set VE_HEAD = VE_REVEAL
                 XT_REVEAL:
0002e1 7001          .dw DO_COLON
                 PFA_REVEAL:
                 .endif
0002e2 0172
0002e3 7562
0002e4 7074          .DW XT_NEWEST,XT_CELLPLUS,XT_FETCH ; only if wordlist is in use
0002e5 70b4
0002e6 7031          .DW XT_QDUP,XT_DOCONDBRANCH
0002e7 02ec          DEST(REVEAL1)
0002e8 0172
0002e9 7074
0002ea 70bf
0002eb 7336          .DW XT_NEWEST,XT_FETCH,XT_SWAP,XT_STOREE
                 ;    .DW XT_ZERO,XT_NEWEST,XT_CELLPLUS,XT_STORE ; clean wordlist entry
                 REVEAL1:
0002ec 701b          .DW XT_EXIT
                 .include "words/does.asm"
                 
                 ; Compiler
                 ; organize the XT replacement to call other colon code
                 VE_DOES:
0002ed 0005          .dw $0005
0002ee 6f64
0002ef 7365
0002f0 003e          .db "does>",0
0002f1 02dc          .dw VE_HEAD
                     .set VE_HEAD = VE_DOES
                 XT_DOES:
0002f2 7001          .dw DO_COLON
                 PFA_DOES:
0002f3 01a4          .dw XT_COMPILE
0002f4 0305          .dw XT_DODOES
0002f5 01a4          .dw XT_COMPILE  ; create a code snippet to be used in an embedded XT
0002f6 940e          .dw $940e       ; the address of this compiled
0002f7 01a4          .dw XT_COMPILE  ; code will replace the XT of the 
0002f8 02fa          .dw DO_DODOES   ; word that CREATE created
0002f9 701b          .dw XT_EXIT     ; 
                 
                 DO_DODOES: ; ( -- PFA )
0002fa 939a
0002fb 938a          savetos
0002fc 01cb          movw tosl, wl
0002fd 9601          adiw tosl, 1
                     ; the following takes the address from a real uC-call
                 .if (pclen==3)
                 .endif
0002fe 917f          pop wh
0002ff 916f          pop wl
                 
000300 93bf          push XH
000301 93af          push XL
000302 01db          movw XL, wl
000303 940c 7005     jmp_ DO_NEXT
                 
                 ; ( -- )
                 ; System
                 ; replace the XT written by CREATE to call the code that follows does>
                 ;VE_DODOES:
                 ;   .dw $ff07
                 ;   .db "(does>)"
                 ;   .set VE_HEAD = VE_DODOES
                 XT_DODOES:
000305 7001          .dw DO_COLON
                 PFA_DODOES:
000306 70f1          .dw XT_R_FROM
000307 0172          .dw XT_NEWEST
000308 7562          .dw XT_CELLPLUS
000309 7074          .dw XT_FETCH
00030a 735a          .dw XT_FETCHE
00030b 7c81          .dw XT_NFA2CFA
00030c 736e          .dw XT_STOREI
00030d 701b          .dw XT_EXIT
                 .include "words/colon.asm"
                 
                 ; Compiler
                 ; create a named entry in the dictionary, XT is DO_COLON
                 
                 .if cpu_msp430==1
                 .endif
                 
                 .if cpu_avr8==1
                 VE_COLON:
00030e ff01          .dw $ff01
00030f 003a          .db ":",0
000310 02ed          .dw VE_HEAD
                     .set VE_HEAD = VE_COLON
                 XT_COLON:
000311 7001          .dw DO_COLON
                 PFA_COLON:
                 .endif
000312 0181          .dw XT_DOCREATE
000313 031c          .dw XT_COLONNONAME
000314 70d4          .dw XT_DROP
000315 701b          .dw XT_EXIT
                 .include "words/colon-noname.asm"
                 
                 ; Compiler
                 ; create an unnamed entry in the dictionary, XT is DO_COLON
                 VE_COLONNONAME:
000316 ff07          .dw $ff07
000317 6e3a
000318 6e6f
000319 6d61
00031a 0065          .db ":noname",0
00031b 030e          .dw VE_HEAD
                     .set VE_HEAD = VE_COLONNONAME
                 XT_COLONNONAME:
00031c 7001          .dw DO_COLON
                 PFA_COLONNONAME:
00031d 75b2          .dw XT_DP
00031e 70ac          .dw XT_DUP
00031f 0179          .dw XT_LATEST
000320 707c          .dw XT_STORE
                 
000321 01a4          .dw XT_COMPILE
000322 7001          .dw DO_COLON
                 
000323 0331          .dw XT_RBRACKET
000324 701b          .dw XT_EXIT
                 .include "words/semicolon.asm"
                 
                 ; Compiler
                 ; finish colon defintion, compiles (exit) and returns to interpret state 
                 
                 .if cpu_msp430==1
                 .endif
                 
                 .if cpu_avr8==1
                 
                 
                 VE_SEMICOLON:
000325 0001          .dw $0001
000326 003b          .db $3b,0
000327 0316          .dw VE_HEAD
                     .set VE_HEAD = VE_SEMICOLON
                 XT_SEMICOLON:
000328 7001          .dw DO_COLON
                 PFA_SEMICOLON:
                 .endif
000329 01a4          .dw XT_COMPILE
00032a 701b          .dw XT_EXIT
00032b 0339          .dw XT_LBRACKET
00032c 02e1          .dw XT_REVEAL
00032d 701b          .dw XT_EXIT
                 .include "words/right-bracket.asm"
                 
                 ; Compiler
                 ; enter compiler mode
                 
                 .if cpu_msp430==1
                 .endif
                 
                 .if cpu_avr8==1
                 VE_RBRACKET:
00032e ff01          .dw $ff01
00032f 005d          .db "]",0
000330 0325          .dw VE_HEAD
                     .set VE_HEAD = VE_RBRACKET
                 XT_RBRACKET:
000331 7001          .dw DO_COLON
                 PFA_RBRACKET:
                 .endif
000332 7d89          .dw XT_ONE
000333 754f          .dw XT_STATE
000334 707c          .dw XT_STORE
000335 701b          .dw XT_EXIT
                 .include "words/left-bracket.asm"
                 
                 ; Compiler
                 ; enter interpreter mode
                 
                 .if cpu_msp430==1
                 .endif
                 
                 .if cpu_avr8==1
                 VE_LBRACKET:
000336 0001          .dw $0001
000337 005b          .db "[",0
000338 032e          .dw VE_HEAD
                     .set VE_HEAD = VE_LBRACKET
                 XT_LBRACKET:
000339 7001          .dw DO_COLON
                 PFA_LBRACKET:
                 .endif
00033a 714f          .dw XT_ZERO
00033b 754f          .dw XT_STATE
00033c 707c          .dw XT_STORE
00033d 701b          .dw XT_EXIT
                 .include "words/variable.asm"
                 
                 ; Compiler
                 ; create a dictionary entry for a variable and allocate 1 cell RAM
                 
                 .if cpu_msp430==1
                 .endif
                 
                 .if cpu_avr8==1
                 
                 VE_VARIABLE:
00033e ff08          .dw $ff08
00033f 6176
000340 6972
000341 6261
000342 656c          .db "variable"
000343 0336          .dw VE_HEAD
                     .set VE_HEAD = VE_VARIABLE
                 XT_VARIABLE:
000344 7001          .dw DO_COLON
                 PFA_VARIABLE:
                 .endif
000345 75c3          .dw XT_HERE
000346 0350          .dw XT_CONSTANT
000347 7d8e          .dw XT_TWO
000348 75cc          .dw XT_ALLOT
000349 701b          .dw XT_EXIT
                 .include "words/constant.asm"
                 
                 ; Compiler
                 ; create a constant in the dictionary
                 
                 .if cpu_msp430==1
                 .endif
                 
                 .if cpu_avr8==1
                 
                 VE_CONSTANT:
00034a ff08          .dw $ff08
00034b 6f63
00034c 736e
00034d 6174
00034e 746e          .db "constant"
00034f 033e          .dw VE_HEAD
                     .set VE_HEAD = VE_CONSTANT
                 XT_CONSTANT:
000350 7001          .dw DO_COLON
                 PFA_CONSTANT:
                 .endif
000351 0181          .dw XT_DOCREATE
000352 02e1          .dw XT_REVEAL
000353 01a4          .dw XT_COMPILE
000354 7043          .dw PFA_DOVARIABLE
000355 01af          .dw XT_COMMA
000356 701b          .dw XT_EXIT
                 .include "words/user.asm"
                 
                 ; Compiler
                 ; create a dictionary entry for a user variable at offset n
                 VE_USER:
000357 ff04          .dw $ff04
000358 7375
000359 7265          .db "user"
00035a 034a          .dw VE_HEAD
                     .set VE_HEAD = VE_USER
                 XT_USER:
00035b 7001          .dw DO_COLON
                 PFA_USER:
00035c 0181          .dw XT_DOCREATE
00035d 02e1          .dw XT_REVEAL
                 
00035e 01a4          .dw XT_COMPILE
00035f 7053          .dw PFA_DOUSER
000360 01af          .dw XT_COMMA
000361 701b          .dw XT_EXIT
                 
                 .include "words/recurse.asm"
                 
                 ; Compiler
                 ; compile the XT of the word currently being defined into the dictionary
                 
                 .if cpu_msp430==1
                 .endif
                 
                 .if cpu_avr8==1
                 VE_RECURSE:
000362 0007          .dw $0007
000363 6572
000364 7563
000365 7372
000366 0065          .db "recurse",0
000367 0357          .dw VE_HEAD
                     .set VE_HEAD = VE_RECURSE
                 XT_RECURSE:
000368 7001          .dw DO_COLON
                 PFA_RECURSE:
                 .endif
000369 0179          .dw XT_LATEST
00036a 7074          .dw XT_FETCH
00036b 01af          .dw XT_COMMA
00036c 701b          .dw XT_EXIT
                 .include "words/immediate.asm"
                 
                 ; Compiler
                 ; set immediate flag for the most recent word definition
                 VE_IMMEDIATE:
00036d ff09          .dw $ff09
00036e 6d69
00036f 656d
000370 6964
000371 7461
000372 0065          .db "immediate",0
000373 0362          .dw VE_HEAD
                     .set VE_HEAD = VE_IMMEDIATE
                 XT_IMMEDIATE:
000374 7001          .dw DO_COLON
                 PFA_IMMEDIATE:
000375 040f          .dw XT_GET_CURRENT
000376 735a          .dw XT_FETCHE
000377 70ac          .dw XT_DUP
000378 73c7          .dw XT_FETCHI
000379 7038          .dw XT_DOLITERAL
00037a 7fff          .dw $7fff
00037b 720e          .dw XT_AND
00037c 70bf          .dw XT_SWAP
00037d 736e          .dw XT_STOREI
00037e 701b          .dw XT_EXIT
                 
                 .include "words/bracketchar.asm"
                 
                 ; Tools
                 ; skip leading space delimites, place the first character of the word on the stack
                 
                 .if cpu_msp430==1
                 .endif
                 
                 .if cpu_avr8==1
                 VE_BRACKETCHAR:
00037f 0006          .dw $0006
000380 635b
000381 6168
000382 5d72          .db "[char]"
000383 036d          .dw VE_HEAD
                     .set VE_HEAD = VE_BRACKETCHAR
                 XT_BRACKETCHAR:
000384 7001          .dw DO_COLON
                 PFA_BRACKETCHAR:
                 .endif
000385 01a4          .dw XT_COMPILE
000386 7038          .dw XT_DOLITERAL
000387 78ee          .dw XT_CHAR
000388 01af          .dw XT_COMMA
000389 701b          .dw XT_EXIT
                 .include "words/abort-string.asm"
                 
                 ;C         i*x x1 --       R: j*x --      x1<>0
                 ;   POSTPONE IS" POSTPONE ?ABORT ; IMMEDIATE
                 
                 .if cpu_msp430==1
                 .endif
                 
                 .if cpu_avr8==1
                 VE_ABORTQUOTE:
00038a 0006          .dw $0006
00038b 6261
00038c 726f
00038d 2274          .db "abort",'"'
00038e 037f          .dw VE_HEAD
                     .set VE_HEAD = VE_ABORTQUOTE
                 XT_ABORTQUOTE:
00038f 7001          .dw DO_COLON
                 PFA_ABORTQUOTE:
                 .endif
000390 74c5          .dw XT_SQUOTE
000391 01a4          .dw XT_COMPILE
000392 03a1          .dw XT_QABORT
000393 701b          .DW XT_EXIT
                 .include "words/abort.asm"
                 
                 ; Exceptions
                 ; send an exception -1
                 .if cpu_msp430==1
                 .endif
                 
                 .if cpu_avr8==1
                 VE_ABORT:
000394 ff05          .dw $ff05
000395 6261
000396 726f
000397 0074          .db "abort",0
000398 038a          .dw VE_HEAD
                     .set VE_HEAD = VE_ABORT
                 XT_ABORT:
000399 7001          .dw DO_COLON
                 PFA_ABORT:
                 .endif
00039a 7146          .dw XT_TRUE
00039b 7845          .dw XT_THROW
                 .include "words/q-abort.asm"
                 
                 ;   ROT IF ITYPE ABORT THEN 2DROP ;
                 
                 .if cpu_msp430==1
                 .endif
                 
                 .if cpu_avr8==1
                 VE_QABORT:
00039c ff06          .dw $ff06
00039d 613f
00039e 6f62
00039f 7472          .db "?abort"
0003a0 0394          .dw VE_HEAD
                     .set VE_HEAD = VE_QABORT
                 XT_QABORT:
0003a1 7001          .dw DO_COLON
                 PFA_QABORT:
                 
                 .endif
0003a2 70dc
0003a3 7031              .DW XT_ROT,XT_DOCONDBRANCH
0003a4 03a7              DEST(QABO1)
0003a5 77a4
0003a6 0399              .DW XT_ITYPE,XT_ABORT
0003a7 7572
0003a8 701b      QABO1:  .DW XT_2DROP,XT_EXIT
                 
                 .include "words/get-stack.asm"
                 
                 ; Tools
                 ; Get a stack from EEPROM
                 
                 .if cpu_msp430==1
                 .endif
                 
                 .if cpu_avr8==1
                 VE_GET_STACK:
0003a9 ff09          .dw $ff09
0003aa 6567
0003ab 2d74
0003ac 7473
0003ad 6361
0003ae 006b          .db "get-stack",0
0003af 039c          .dw VE_HEAD
                     .set VE_HEAD = VE_GET_STACK
                 XT_GET_STACK:
0003b0 7001          .dw DO_COLON
                 .endif
0003b1 70ac          .dw XT_DUP
0003b2 7562          .dw XT_CELLPLUS
0003b3 70bf          .dw XT_SWAP
0003b4 735a          .dw XT_FETCHE
0003b5 70ac          .dw XT_DUP
0003b6 70fa          .dw XT_TO_R
0003b7 714f          .dw XT_ZERO
0003b8 70bf          .dw XT_SWAP    ; go from bigger to smaller addresses
0003b9 026e          .dw XT_QDOCHECK
0003ba 7031          .dw XT_DOCONDBRANCH
0003bb 03c7          DEST(PFA_N_FETCH_E2)
0003bc 7296          .dw XT_DODO
                 PFA_N_FETCH_E1:
                     ; ( ee-addr )
0003bd 72a7          .dw XT_I
0003be 7230          .dw XT_1MINUS
0003bf 755c          .dw XT_CELLS ; ( -- ee-addr i*2 )
0003c0 70ca          .dw XT_OVER  ; ( -- ee-addr i*2 ee-addr )
0003c1 7198          .dw XT_PLUS  ; ( -- ee-addr ee-addr+i
0003c2 735a          .dw XT_FETCHE ;( -- ee-addr item_i )
0003c3 70bf          .dw XT_SWAP   ;( -- item_i ee-addr )
0003c4 7146          .dw XT_TRUE  ; shortcut for -1
0003c5 72b5          .dw XT_DOPLUSLOOP
0003c6 03bd          DEST(PFA_N_FETCH_E1)
                 PFA_N_FETCH_E2:
0003c7 7572          .dw XT_2DROP
0003c8 70f1          .dw XT_R_FROM
0003c9 701b          .dw XT_EXIT
                 
                 .include "words/set-stack.asm"
                 
                 ; Tools
                 ; Write a stack to EEPROM
                 .if cpu_msp430==1
                 .endif
                 
                 .if cpu_avr8==1
                 VE_SET_STACK:
0003ca ff09          .dw $ff09
0003cb 6573
0003cc 2d74
0003cd 7473
0003ce 6361
0003cf 006b          .db "set-stack",0
0003d0 03a9          .dw VE_HEAD
                     .set VE_HEAD = VE_SET_STACK
                 XT_SET_STACK:
0003d1 7001          .dw DO_COLON
                 PFA_SET_STACK:
                 .endif
0003d2 7569          .dw XT_2DUP
0003d3 7336          .dw XT_STOREE ; ( -- i_n .. i_0 n e-addr )
0003d4 70bf          .dw XT_SWAP    
0003d5 714f          .dw XT_ZERO
0003d6 026e          .dw XT_QDOCHECK
0003d7 7031          .dw XT_DOCONDBRANCH
0003d8 03df          DEST(PFA_SET_STACK2)
0003d9 7296          .dw XT_DODO
                 PFA_SET_STACK1:
0003da 7562          .dw XT_CELLPLUS ; ( -- i_x e-addr )
0003db 757a          .dw XT_TUCK      ; ( -- e-addr i_x e-addr
0003dc 7336          .dw XT_STOREE
0003dd 72c4          .dw XT_DOLOOP
0003de 03da          DEST(PFA_SET_STACK1)
                 PFA_SET_STACK2:
0003df 70d4          .dw XT_DROP
0003e0 701b          .dw XT_EXIT
                 
                 .include "words/map-stack.asm"
                 
                 ; Tools
                 ; Iterate over a stack
                 
                 .if cpu_msp430==1
                 .endif
                 
                 .if cpu_avr8==1
                 VE_MAPSTACK:
0003e1 ff09          .dw $ff09
0003e2 616d
0003e3 2d70
0003e4 7473
0003e5 6361
0003e6 006b          .db "map-stack",0
0003e7 03ca          .dw VE_HEAD
                     .set VE_HEAD = VE_MAPSTACK
                 XT_MAPSTACK:
0003e8 7001          .dw DO_COLON
                 PFA_MAPSTACK:
                 .endif
0003e9 70ac          .dw XT_DUP
0003ea 7562          .dw XT_CELLPLUS
0003eb 70bf          .dw XT_SWAP
0003ec 735a          .dw XT_FETCHE
0003ed 755c          .dw XT_CELLS
0003ee 7d61          .dw XT_BOUNDS
0003ef 026e          .dw XT_QDOCHECK
0003f0 7031          .dw XT_DOCONDBRANCH
0003f1 0404          DEST(PFA_MAPSTACK3)
0003f2 7296          .dw XT_DODO
                 PFA_MAPSTACK1:
0003f3 72a7            .dw XT_I
0003f4 735a            .dw XT_FETCHE   ; -- i*x XT id
0003f5 70bf            .dw XT_SWAP
0003f6 70fa            .dw XT_TO_R
0003f7 7103            .dw XT_R_FETCH
0003f8 7025            .dw XT_EXECUTE  ; i*x id -- j*y true | i*x false
0003f9 70b4            .dw XT_QDUP
0003fa 7031            .dw XT_DOCONDBRANCH
0003fb 0400            DEST(PFA_MAPSTACK2)
0003fc 70f1               .dw XT_R_FROM
0003fd 70d4               .dw XT_DROP
0003fe 72cf               .dw XT_UNLOOP
0003ff 701b               .dw XT_EXIT
                 PFA_MAPSTACK2:
000400 70f1            .dw XT_R_FROM
000401 7d8e            .dw XT_TWO
000402 72b5            .dw XT_DOPLUSLOOP
000403 03f3            DEST(PFA_MAPSTACK1)
                 PFA_MAPSTACK3:
000404 70d4          .dw XT_DROP
000405 714f          .dw XT_ZERO
000406 701b          .dw XT_EXIT
                 
                 ;
                 ; : map-stack ( i*x XT e-addr -- j*y )
                 ;     dup cell+ swap @e cells bounds ?do 
                 ;       ( -- i*x XT )
                 ;       i @e swap >r r@ execute
                 ;       ?dup if r> drop unloop exit then
                 ;       r>
                 ;     2 +loop drop 0
                 ; ;
                 .include "words/get-current.asm"
                 
                 ; Search Order
                 ; get the wid of the current compilation word list
                 VE_GET_CURRENT:
000407 ff0b          .dw $ff0b
000408 6567
000409 2d74
00040a 7563
00040b 7272
00040c 6e65
00040d 0074          .db "get-current",0
00040e 03e1          .dw VE_HEAD
                     .set VE_HEAD = VE_GET_CURRENT
                 XT_GET_CURRENT:
00040f 7001          .dw DO_COLON
                 PFA_GET_CURRENT:
000410 7038          .dw XT_DOLITERAL
000411 004a          .dw CFG_CURRENT
000412 735a          .dw XT_FETCHE
000413 701b          .dw XT_EXIT
                 .include "words/get-order.asm"
                 
                 ; Search Order
                 ; Get the current search order word list
                 
                 .if cpu_msp430==1
                 .endif
                 
                 .if cpu_avr8==1
                 VE_GET_ORDER:
000414 ff09          .dw $ff09
000415 6567
000416 2d74
000417 726f
000418 6564
000419 0072          .db "get-order",0
00041a 0407          .dw VE_HEAD
                     .set VE_HEAD = VE_GET_ORDER
                 XT_GET_ORDER:
00041b 7001          .dw DO_COLON
                 PFA_GET_ORDER:
                 .endif
00041c 7038          .dw XT_DOLITERAL
00041d 004e          .dw CFG_ORDERLISTLEN
00041e 03b0          .dw XT_GET_STACK
00041f 701b          .dw XT_EXIT
                 .include "words/cfg-order.asm"
                 
                 ; Search Order
                 ; Get the current search order word list
                 
                 .if cpu_msp430==1
                 .endif
                 
                 .if cpu_avr8==1
                 VE_CFG_ORDER:
000420 ff09          .dw $ff09
000421 6663
000422 2d67
000423 726f
000424 6564
000425 0072          .db "cfg-order",0
000426 0414          .dw VE_HEAD
                     .set VE_HEAD = VE_CFG_ORDER
                 XT_CFG_ORDER:
000427 7043          .dw PFA_DOVARIABLE
                 PFA_CFG_ORDER:
                 .endif
000428 004e          .dw CFG_ORDERLISTLEN
                 .include "words/compare.asm"
                 
                 ; String
                 ; compares two strings in RAM
                 VE_COMPARE:
000429 ff07          .dw $ff07
00042a 6f63
00042b 706d
00042c 7261
00042d 0065          .db "compare",0
00042e 0420          .dw VE_HEAD
                     .set VE_HEAD = VE_COMPARE
                 XT_COMPARE:
00042f 0430          .dw PFA_COMPARE
                 PFA_COMPARE:
000430 93bf          push xh
000431 93af          push xl
000432 018c          movw temp0, tosl
000433 9189
000434 9199          loadtos
000435 01dc          movw xl, tosl
000436 9189
000437 9199          loadtos
000438 019c          movw temp2, tosl
000439 9189
00043a 9199          loadtos
00043b 01fc          movw zl, tosl
                 PFA_COMPARE_LOOP:
00043c 90ed          ld temp4, X+
00043d 90f1          ld temp5, Z+
00043e 14ef          cp temp4, temp5
00043f f451          brne PFA_COMPARE_NOTEQUAL
000440 950a          dec temp0
000441 f019          breq PFA_COMPARE_ENDREACHED2
000442 952a          dec temp2
000443 f7c1          brne PFA_COMPARE_LOOP
000444 c001          rjmp PFA_COMPARE_ENDREACHED
                 PFA_COMPARE_ENDREACHED2:
000445 952a          dec temp2
                 PFA_COMPARE_ENDREACHED:
000446 2b02          or temp0, temp2
000447 f411          brne PFA_COMPARE_CHECKLASTCHAR
000448 2788          clr tosl
000449 c002          rjmp PFA_COMPARE_DONE
                 PFA_COMPARE_CHECKLASTCHAR:
                 PFA_COMPARE_NOTEQUAL:
00044a ef8f          ser tosl
00044b c000          rjmp PFA_COMPARE_DONE
                 
                 PFA_COMPARE_DONE:
00044c 2f98          mov tosh, tosl
00044d 91af          pop xl
00044e 91bf          pop xh
00044f 940c 7005     jmp_ DO_NEXT
                 .include "words/nfa2lfa.asm"
                 
                 ; System
                 ; get the link field address from the name field address
                 VE_NFA2LFA:
000451 ff07         .dw $ff07
000452 666e
000453 3e61
000454 666c
000455 0061         .db "nfa>lfa",0
000456 0429         .dw VE_HEAD
                    .set VE_HEAD = VE_NFA2LFA
                 XT_NFA2LFA:
000457 7001          .dw DO_COLON
                 PFA_NFA2LFA:
000458 7c75          .dw XT_NAME2STRING
000459 722a          .dw XT_1PLUS
00045a 71ff          .dw XT_2SLASH
00045b 7198          .dw XT_PLUS
00045c 701b          .dw XT_EXIT
                 .elif AMFORTH_NRWW_SIZE > 4000
                 .elif AMFORTH_NRWW_SIZE > 2000
                 .else
                 .endif
                 .include "dict_appl.inc"
                 
                 ; they may be moved to the core dictionary if needed
                 .include "words/dot-s.asm"
                 
                 ; Tools
                 ; stack dump
                 
                 .if cpu_msp430==1
                 .endif
                 
                 .if cpu_avr8==1
                 VE_DOTS:
00045d ff02          .dw $ff02
00045e 732e          .db ".s"
00045f 0451          .dw VE_HEAD
                     .set VE_HEAD = VE_DOTS
                 XT_DOTS:
000460 7001          .dw DO_COLON
                 PFA_DOTS:
                 .endif
000461 7aa4          .dw XT_DEPTH
000462 7444          .dw XT_UDOT
000463 77e6          .dw XT_SPACE
000464 7aa4          .dw XT_DEPTH
000465 714f          .dw XT_ZERO
000466 026e          .dw XT_QDOCHECK
000467 7031          .dw XT_DOCONDBRANCH
000468 046f          DEST(PFA_DOTS2)
000469 7296          .dw XT_DODO
                 PFA_DOTS1:
00046a 72a7          .dw XT_I
00046b 74b3          .dw XT_PICK
00046c 7444          .dw XT_UDOT
00046d 72c4          .dw XT_DOLOOP
00046e 046a          DEST(PFA_DOTS1)
                 PFA_DOTS2:
00046f 701b          .dw XT_EXIT
                 .include "words/spirw.asm"
                 
                 ; MCU
                 ; SPI exchange of 1 byte
                 VE_SPIRW:
000470 ff06          .dw $ff06
000471 2163
000472 7340
000473 6970          .db "c!@spi"
000474 045d          .dw VE_HEAD
                     .set VE_HEAD  = VE_SPIRW
                 XT_SPIRW:
000475 0476          .dw PFA_SPIRW
                 PFA_SPIRW:
000476 d003          rcall do_spirw
000477 2799          clr tosh
000478 940c 7005     jmp_ DO_NEXT
                 
                 do_spirw:
00047a bd8e          out_ SPDR, tosl
                 do_spirw1:
00047b b50d          in_ temp0, SPSR
00047c 7f08          cbr temp0,7
00047d bd0d          out_ SPSR, temp0
00047e b50d          in_ temp0, SPSR
00047f ff07          sbrs temp0, 7
000480 cffa          rjmp do_spirw1   ; wait until complete
000481 b58e          in_ tosl, SPDR
000482 9508          ret
                 .include "words/n-spi.asm"
                 
                 ; MCU
                 ; read len bytes from SPI to addr
                 VE_N_SPIR:
000483 ff05          .dw $ff05
000484 406e
000485 7073
000486 0069          .db "n@spi",0
000487 0470          .dw VE_HEAD
                     .set VE_HEAD  = VE_N_SPIR
                 XT_N_SPIR:
000488 0489          .dw PFA_N_SPIR
                 PFA_N_SPIR:
000489 018c          movw temp0, tosl
00048a 9189
00048b 9199          loadtos
00048c 01fc          movw zl, tosl
00048d 01c8          movw tosl, temp0
                 PFA_N_SPIR_LOOP:
00048e bc2e          out_ SPDR, zerol
                 PFA_N_SPIR_LOOP1:
00048f b52d          in_ temp2, SPSR
000490 ff27          sbrs temp2, SPIF
000491 cffd          rjmp PFA_N_SPIR_LOOP1
000492 b52e          in_ temp2, SPDR
000493 9321          st Z+, temp2
000494 9701          sbiw tosl, 1
000495 f7c1          brne PFA_N_SPIR_LOOP
000496 9189
000497 9199          loadtos
000498 940c 7005     jmp_ DO_NEXT
                 
                 ; ( addr len -- ) 
                 ; MCU
                 ; write len bytes to SPI from addr
                 VE_N_SPIW:
00049a ff05          .dw $ff05
00049b 216e
00049c 7073
00049d 0069          .db "n!spi",0
00049e 0483          .dw VE_HEAD
                     .set VE_HEAD  = VE_N_SPIW
                 XT_N_SPIW:
00049f 04a0          .dw PFA_N_SPIW
                 PFA_N_SPIW:
0004a0 018c          movw temp0, tosl
0004a1 9189
0004a2 9199          loadtos
0004a3 01fc          movw zl, tosl
0004a4 01c8          movw tosl, temp0
                 PFA_N_SPIW_LOOP:
0004a5 9121          ld temp2, Z+
0004a6 bd2e          out_ SPDR, temp2
                 PFA_N_SPIW_LOOP1:
0004a7 b52d          in_ temp2, SPSR
0004a8 ff27          sbrs temp2, SPIF
0004a9 cffd          rjmp PFA_N_SPIW_LOOP1
0004aa b52e          in_ temp2, SPDR ; ignore the data
0004ab 9701          sbiw tosl, 1
0004ac f7c1          brne PFA_N_SPIW_LOOP
0004ad 9189
0004ae 9199          loadtos
0004af 940c 7005     jmp_ DO_NEXT
                 .include "words/applturnkey.asm"
                 
                 ; R( -- )
                 ; application specific turnkey action
                 VE_APPLTURNKEY:
0004b1 ff0b          .dw $ff0b
0004b2 7061
0004b3 6c70
0004b4 7574
0004b5 6e72
0004b6 656b
0004b7 0079          .db "applturnkey",0
0004b8 049a          .dw VE_HEAD
                     .set VE_HEAD = VE_APPLTURNKEY
                 XT_APPLTURNKEY:
0004b9 7001          .dw DO_COLON
                 PFA_APPLTURNKEY:
0004ba 00b8          .dw XT_USART
0004bb 7475          .dw XT_INTON
0004bc 7b67          .dw XT_DOT_VER
0004bd 77e6          .dw XT_SPACE
0004be 7544          .dw XT_F_CPU
0004bf 7038          .dw XT_DOLITERAL
0004c0 03e8          .dw 1000
0004c1 71bd          .dw XT_UMSLASHMOD
0004c2 70eb          .dw XT_NIP
0004c3 75e1          .dw XT_DECIMAL
0004c4 7726          .dw XT_DOT
0004c5 7771          .dw XT_DOSLITERAL
0004c6 0004          .dw 4
0004c7 486b
0004c8 207a          .db "kHz "
0004c9 77a4          .dw XT_ITYPE
0004ca 701b          .dw XT_EXIT
                 .include "dict/compiler2.inc"
                 
                 ; included almost independently from each other
                 ; on a include-per-use basis
                 ;
                 .if DICT_COMPILER2 == 0
                 .set DICT_COMPILER2 = 1
                 
                 .include "words/set-current.asm"
                 
                 ; Search Order
                 ; set current word list to the given word list wid
                 VE_SET_CURRENT:
0004cb ff0b          .dw $ff0b
0004cc 6573
0004cd 2d74
0004ce 7563
0004cf 7272
0004d0 6e65
0004d1 0074          .db "set-current",0
0004d2 04b1          .dw VE_HEAD
                     .set VE_HEAD = VE_SET_CURRENT
                 XT_SET_CURRENT:
0004d3 7001          .dw DO_COLON
                 PFA_SET_CURRENT:
0004d4 7038          .dw XT_DOLITERAL
0004d5 004a          .dw CFG_CURRENT
0004d6 7336          .dw XT_STOREE
0004d7 701b          .dw XT_EXIT
                 .include "words/wordlist.asm"
                 
                 ; Search Order
                 ; create a new, empty wordlist
                 VE_WORDLIST:
0004d8 ff08          .dw $ff08
0004d9 6f77
0004da 6472
0004db 696c
0004dc 7473          .db "wordlist"
0004dd 04cb          .dw VE_HEAD
                     .set VE_HEAD = VE_WORDLIST
                 XT_WORDLIST:
0004de 7001          .dw DO_COLON
                 PFA_WORDLIST:
0004df 75bb          .dw XT_EHERE
0004e0 714f          .dw XT_ZERO
0004e1 70ca          .dw XT_OVER
0004e2 7336          .dw XT_STOREE
0004e3 70ac          .dw XT_DUP
0004e4 7562          .dw XT_CELLPLUS
0004e5 7b9c          .dw XT_DOTO
0004e6 75bc          .dw PFA_EHERE
0004e7 701b          .dw XT_EXIT
                 
                 .include "words/forth-wordlist.asm"
                 
                 ; Search Order
                 ; get the system default word list
                 VE_FORTHWORDLIST:
0004e8 ff0e          .dw $ff0e
0004e9 6f66
0004ea 7472
0004eb 2d68
0004ec 6f77
0004ed 6472
0004ee 696c
0004ef 7473          .db "forth-wordlist"
0004f0 04d8          .dw VE_HEAD
                     .set VE_HEAD = VE_FORTHWORDLIST
                 XT_FORTHWORDLIST:
0004f1 7043          .dw PFA_DOVARIABLE
                 PFA_FORTHWORDLIST:
0004f2 004c          .dw CFG_FORTHWORDLIST
                 .include "words/set-order.asm"
                 
                 ; Search Order
                 ; replace the search order list
                 
                 .if cpu_msp430==1
                 .endif
                 
                 .if cpu_avr8==1
                 VE_SET_ORDER:
0004f3 ff09          .dw $ff09
0004f4 6573
0004f5 2d74
0004f6 726f
0004f7 6564
0004f8 0072          .db "set-order",0
0004f9 04e8          .dw VE_HEAD
                     .set VE_HEAD = VE_SET_ORDER
                 XT_SET_ORDER:
0004fa 7001          .dw DO_COLON
                 PFA_SET_ORDER:
                 .endif
0004fb 7038          .dw XT_DOLITERAL
0004fc 004e          .dw CFG_ORDERLISTLEN
0004fd 03d1          .dw XT_SET_STACK
0004fe 701b          .dw XT_EXIT
                 
                 .include "words/set-recognizer.asm"
                 
                 ; Interpreter
                 ; replace the recognizer list
                 
                 .if cpu_msp430==1
                 .endif
                 
                 .if cpu_avr8==1
                 VE_SET_RECOGNIZERS:
0004ff ff0f          .dw $ff0f
000500 6573
000501 2d74
000502 6572
000503 6f63
000504 6e67
000505 7a69
000506 7265
000507 0073          .db "set-recognizers",0
000508 04f3          .dw VE_HEAD
                     .set VE_HEAD = VE_SET_RECOGNIZERS
                 XT_SET_RECOGNIZERS:
000509 7001          .dw DO_COLON
                 PFA_SET_RECOGNIZERS:
                 .endif
00050a 7038          .dw XT_DOLITERAL
00050b 0060          .dw CFG_RECOGNIZERLISTLEN
00050c 03d1          .dw XT_SET_STACK
00050d 701b          .dw XT_EXIT
                 
                 .include "words/get-recognizer.asm"
                 
                 ; Interpreter
                 ; Get the current recognizer list
                 
                 .if cpu_msp430==1
                 .endif
                 
                 .if cpu_avr8==1
                 VE_GET_RECOGNIZERS:
00050e ff0f          .dw $ff0f
00050f 6567
000510 2d74
000511 6572
000512 6f63
000513 6e67
000514 7a69
000515 7265
000516 0073          .db "get-recognizers",0
000517 04ff          .dw VE_HEAD
                     .set VE_HEAD = VE_GET_RECOGNIZERS
                 XT_GET_RECOGNIZERS:
000518 7001          .dw DO_COLON
                 PFA_GET_RECOGNIZERS:
                 .endif
000519 7038          .dw XT_DOLITERAL
00051a 0060          .dw CFG_RECOGNIZERLISTLEN
00051b 03b0          .dw XT_GET_STACK
00051c 701b          .dw XT_EXIT
                 .include "words/code.asm"
                 
                 ; Compiler
                 ; create named entry in the dictionary, XT is the data field
                 VE_CODE:
00051d ff04          .dw $ff04
00051e 6f63
00051f 6564          .db "code"
000520 050e          .dw VE_HEAD
                     .set VE_HEAD = VE_CODE
                 XT_CODE:
000521 7001          .dw DO_COLON
                 PFA_CODE:
000522 0181          .dw XT_DOCREATE
000523 02e1          .dw XT_REVEAL
000524 75b2          .dw XT_DP
000525 7bae          .dw XT_ICELLPLUS
000526 01af          .dw XT_COMMA
000527 701b          .dw XT_EXIT
                 .include "words/end-code.asm"
                 
                 ; Compiler
                 ; finish a code definition
                 VE_ENDCODE:
000528 ff08          .dw $ff08
000529 6e65
00052a 2d64
00052b 6f63
00052c 6564          .db "end-code"
00052d 051d          .dw VE_HEAD
                     .set VE_HEAD = VE_ENDCODE
                 XT_ENDCODE:
00052e 7001          .dw DO_COLON
                 PFA_ENDCODE:
00052f 01a4          .dw XT_COMPILE
000530 940c          .dw $940c
000531 01a4          .dw XT_COMPILE
000532 7005          .dw DO_NEXT
000533 701b          .dw XT_EXIT
                 .include "words/marker.asm"
                 
                 ; System Value
                 ; The eeprom address until which MARKER saves and restores the eeprom data.
                 VE_MARKER:
000534 ff08          .dw $ff08
000535 6d28
000536 7261
000537 656b
000538 2972          .db "(marker)"
000539 0528          .dw VE_HEAD
                     .set VE_HEAD = VE_MARKER
                 XT_MARKER:
00053a 706a          .dw PFA_DOVALUE1
                 PFA_MARKER:
00053b 006c          .dw EE_MARKER
00053c 7bb7          .dw XT_EDEFERFETCH
00053d 7bc1          .dw XT_EDEFERSTORE
                 .include "words/postpone.asm"
                 
                 ; Compiler
                 ; Append the compilation semantics of "name" to the dictionary
                 
                 .if cpu_msp430==1
                 .endif
                 
                 .if cpu_avr8==1
                 VE_POSTPONE:
00053e 0008          .dw $0008
00053f 6f70
000540 7473
000541 6f70
000542 656e          .db "postpone"
000543 0534          .dw VE_HEAD
                     .set VE_HEAD = VE_POSTPONE
                 XT_POSTPONE:
000544 7001          .dw DO_COLON
                 PFA_POSTPONE:
                 .endif
000545 79b8          .dw XT_PARSENAME
000546 7acf          .dw XT_FORTHRECOGNIZER
000547 7adc          .dw XT_DORECOGNIZER
000548 70ac          .dw XT_DUP
000549 70fa          .dw XT_TO_R
00054a 7bae          .dw XT_ICELLPLUS
00054b 7bae          .dw XT_ICELLPLUS
00054c 73c7          .dw XT_FETCHI
00054d 7025          .dw XT_EXECUTE
00054e 70f1          .dw XT_R_FROM
00054f 7bae          .dw XT_ICELLPLUS
000550 73c7          .dw XT_FETCHI
000551 01af          .dw XT_COMMA
000552 701b          .dw XT_EXIT
                 .endif
                 .include "words/2r_fetch.asm"
                 
                 ; Stack
                 ; fetch content of TOR
                 VE_2R_FETCH:
000553 ff03          .dw $ff03
000554 7232
000555 0040          .db "2r@",0
000556 053e          .dw VE_HEAD
                     .set VE_HEAD = VE_2R_FETCH
                 XT_2R_FETCH:
000557 0558          .dw PFA_2R_FETCH
                 PFA_2R_FETCH:
000558 939a
000559 938a          savetos
00055a 91ef          pop zl
00055b 91ff          pop zh
00055c 918f          pop tosl
00055d 919f          pop tosh
00055e 939f          push tosh
00055f 938f          push tosl
000560 93ff          push zh
000561 93ef          push zl
000562 939a
000563 938a          savetos
000564 01cf          movw tosl, zl
000565 940c 7005     jmp_ DO_NEXT
                 
                 .set DPSTART = pc
                 .if(pc>AMFORTH_RO_SEG)
                 .endif
                 
                 .org AMFORTH_RO_SEG
                 .include "amforth-interpreter.asm"
                 
                 
                 DO_COLON:
007001 93bf          push XH
007002 93af          push XL          ; PUSH IP
007003 01db          movw XL, wl
007004 9611          adiw xl, 1
                 DO_NEXT:
007005 f06e          brts DO_INTERRUPT
007006 01fd          movw zl, XL        ; READ IP
007007 0fee
007008 1fff
007009 9165
00700a 9175          readflashcell wl, wh
00700b 9611          adiw XL, 1        ; INC IP
                 
                 DO_EXECUTE:
00700c 01fb          movw zl, wl
00700d 0fee
00700e 1fff
00700f 9105
007010 9115          readflashcell temp0,temp1
007011 01f8          movw zl, temp0
007012 9409          ijmp
                 
                 DO_INTERRUPT:
                     ; here we deal with interrupts the forth way
007013 94e8          clt
007014 ea60          ldi wl, LOW(XT_ISREXEC)
007015 e774          ldi wh, HIGH(XT_ISREXEC)
007016 cff5          rjmp DO_EXECUTE
                 .include "dict/nrww.inc"
                 
                 ; section together with the forth inner interpreter
                 
                 .include "words/exit.asm"
                 
                 ; Compiler
                 ; end of current colon word
                 VE_EXIT:
007017 ff04          .dw $ff04
007018 7865
007019 7469          .db "exit"
00701a 0553          .dw VE_HEAD
                     .set VE_HEAD = VE_EXIT
                 XT_EXIT:
00701b 701c          .dw PFA_EXIT
                 PFA_EXIT:
00701c 91af          pop XL
00701d 91bf          pop XH
00701e cfe6          jmp_ DO_NEXT
                 .include "words/execute.asm"
                 
                 ; System
                 ; execute XT
                 VE_EXECUTE:
00701f ff07          .dw $ff07
007020 7865
007021 6365
007022 7475
007023 0065          .db "execute",0
007024 7017          .dw VE_HEAD
                     .set VE_HEAD = VE_EXECUTE
                 XT_EXECUTE:
007025 7026          .dw PFA_EXECUTE
                 PFA_EXECUTE:
007026 01bc          movw wl, tosl
007027 9189
007028 9199          loadtos
007029 cfe2          jmp_ DO_EXECUTE
                 .include "words/dobranch.asm"
                 
                 ; System
                 ; runtime of branch
                 ;VE_DOBRANCH:
                 ;    .dw $ff08
                 ;    .db "(branch)"
                 ;    .dw VE_HEAD
                 ;    .set VE_HEAD = VE_DOBRANCH
                 XT_DOBRANCH:
00702a 702b          .dw PFA_DOBRANCH
                 PFA_DOBRANCH:
00702b 01fd          movw zl, XL
00702c 0fee
00702d 1fff
00702e 91a5
00702f 91b5          readflashcell XL,XH
007030 cfd4          jmp_ DO_NEXT
                 .include "words/docondbranch.asm"
                 
                 ; System
                 ; runtime of ?branch
                 ;VE_DOCONDBRANCH:
                 ;    .dw $ff09
                 ;    .db "(?branch)"
                 ;    .dw  VE_HEAD
                 ;    .set VE_HEAD = VE_DOCONDBRANCH
                 XT_DOCONDBRANCH:
007031 7032          .dw PFA_DOCONDBRANCH
                 PFA_DOCONDBRANCH:
007032 2b98          or tosh, tosl
007033 9189
007034 9199          loadtos
007035 f3a9          brbs 1, PFA_DOBRANCH ; 1 is z flag; if tos is zero (false), do the branch
007036 9611          adiw XL, 1
007037 cfcd          jmp_ DO_NEXT
                 
                 ;;;;;;;;;;;;;;;;;;;;;;;;;;;;;;;;;;
                 .include "words/doliteral.asm"
                 
                 ; System
                 ; runtime of literal
                 ;VE_DOLITERAL:
                 ;    .dw $ff09
                 ;    .db "(literal)"
                 ;    .dw VE_HEAD
                 ;    .set VE_HEAD = VE_DOLITERAL
                 XT_DOLITERAL:
007038 7039          .dw PFA_DOLITERAL
                 PFA_DOLITERAL:
007039 939a
00703a 938a          savetos
00703b 01fd          movw zl, xl
00703c 0fee
00703d 1fff
00703e 9185
00703f 9195          readflashcell tosl,tosh
007040 9611          adiw xl, 1
007041 cfc3          jmp_ DO_NEXT
                 
                 .include "words/dovariable.asm"
                 
                 ; System
                 ; puts content of parameter field (1 cell) to TOS
                 ;VE_DOVARIABLE:
                 ;    .dw $ff0a
                 ;    .db "(variable)"
                 ;    .dw VE_HEAD
                 ;    .set VE_HEAD = VE_DOVARIABLE
                 XT_DOVARIABLE:
007042 7043          .dw PFA_DOVARIABLE
                 PFA_DOVARIABLE:
007043 939a
007044 938a          savetos
007045 01fb          movw zl, wl
007046 9631          adiw zl,1
007047 0fee
007048 1fff
007049 9185
00704a 9195          readflashcell tosl,tosh
00704b cfb9          jmp_ DO_NEXT
                 .include "words/doconstant.asm"
                 
                 ; System
                 ; place data field address on TOS
                 ;VE_DOCONSTANT:
                 ;    .dw $ff0a
                 ;    .db "(constant)"
                 ;    .dw VE_HEAD
                 ;    .set VE_HEAD = VE_DOCONSTANT
                 XT_DOCONSTANT:
00704c 704d          .dw PFA_DOCONSTANT
                 PFA_DOCONSTANT:
00704d 939a
00704e 938a          savetos
00704f 01cb          movw tosl, wl
007050 9601          adiw tosl, 1
007051 cfb3          jmp_ DO_NEXT
                 .include "words/douser.asm"
                 
                 ; System
                 ; runtime part of user
                 ;VE_DOUSER:
                 ;    .dw $ff06
                 ;    .db "(user)"
                 ;    .dw VE_HEAD
                 ;    .set VE_HEAD = VE_DOUSER
                 XT_DOUSER:
007052 7053          .dw PFA_DOUSER
                 PFA_DOUSER:
007053 939a
007054 938a          savetos
007055 01fb          movw zl, wl
007056 9631          adiw zl, 1
007057 0fee
007058 1fff
007059 9185
00705a 9195          readflashcell tosl,tosh
00705b 0d84          add tosl, upl
00705c 1d95          adc tosh, uph
00705d cfa7          jmp_ DO_NEXT
                 .include "words/do-value.asm"
                 
                 ; System
                 ; runtime of value
                 VE_DOVALUE:
00705e ff07          .dw $ff07
00705f 7628
007060 6c61
007061 6575
007062 0029          .db "(value)", 0
007063 701f          .dw VE_HEAD
                     .set VE_HEAD = VE_DOVALUE
                 XT_DOVALUE:
007064 7001          .dw DO_COLON
                 PFA_DOVALUE:
007065 0181          .dw XT_DOCREATE
007066 02e1          .dw XT_REVEAL
007067 01a4          .dw XT_COMPILE
007068 706a          .dw PFA_DOVALUE1
007069 701b          .dw XT_EXIT
                 PFA_DOVALUE1:
00706a 940e 02fa     call_ DO_DODOES
00706c 70ac          .dw XT_DUP
00706d 7bae          .dw XT_ICELLPLUS
00706e 73c7          .dw XT_FETCHI
00706f 7025          .dw XT_EXECUTE
007070 701b          .dw XT_EXIT
                 
                 ; : (value) <builds does> dup icell+ @i execute ;
                 .include "words/fetch.asm"
                 
                 ; Memory
                 ; read 1 cell from RAM address
                 VE_FETCH:
007071 ff01          .dw $ff01
007072 0040          .db "@",0
007073 705e          .dw VE_HEAD
                     .set VE_HEAD = VE_FETCH
                 XT_FETCH:
007074 7075          .dw PFA_FETCH
                 PFA_FETCH:
                 .if WANT_UNIFIED == 1
                 .endif
                 PFA_FETCHRAM:
007075 01fc          movw zl, tosl
                     ; low byte is read before the high byte
007076 9181          ld tosl, z+
007077 9191          ld tosh, z+
007078 cf8c          jmp_ DO_NEXT
                 .if WANT_UNIFIED == 1
                 .endif
                 .include "words/store.asm"
                 
                 ; Memory
                 ; write n to RAM memory at addr, low byte first
                 VE_STORE:
007079 ff01          .dw $ff01
00707a 0021          .db "!",0
00707b 7071          .dw VE_HEAD
                     .set VE_HEAD = VE_STORE
                 XT_STORE:
00707c 707d          .dw PFA_STORE
                 PFA_STORE:
                 .if WANT_UNIFIED == 1
                 .endif
                 PFA_STORERAM:
00707d 01fc          movw zl, tosl
00707e 9189
00707f 9199          loadtos
                     ; the high byte is written before the low byte
007080 8391          std Z+1, tosh
007081 8380          std Z+0, tosl
007082 9189
007083 9199          loadtos
007084 cf80          jmp_ DO_NEXT
                 .if WANT_UNIFIED == 1
                 .endif
                 .include "words/cstore.asm"
                 
                 ; Memory
                 ; store a single byte to RAM address
                 VE_CSTORE:
007085 ff02          .dw $ff02
007086 2163          .db "c!"
007087 7079          .dw VE_HEAD
                     .set VE_HEAD = VE_CSTORE
                 XT_CSTORE:
007088 7089          .dw PFA_CSTORE
                 PFA_CSTORE:
007089 01fc          movw zl, tosl
00708a 9189
00708b 9199          loadtos
00708c 8380          st Z, tosl
00708d 9189
00708e 9199          loadtos
00708f cf75          jmp_ DO_NEXT
                 .include "words/cfetch.asm"
                 
                 ; Memory
                 ; fetch a single byte from memory mapped locations
                 VE_CFETCH:
007090 ff02          .dw $ff02
007091 4063          .db "c@"
007092 7085          .dw VE_HEAD
                     .set VE_HEAD  = VE_CFETCH
                 XT_CFETCH:
007093 7094          .dw PFA_CFETCH
                 PFA_CFETCH:
007094 01fc          movw zl, tosl
007095 2799          clr tosh
007096 8180          ld tosl, Z
007097 cf6d          jmp_ DO_NEXT
                 .include "words/fetch-u.asm"
                 
                 ; Memory
                 ; read 1 cell from USER area
                 VE_FETCHU:
007098 ff02          .dw $ff02
007099 7540          .db "@u"
00709a 7090          .dw VE_HEAD
                     .set VE_HEAD = VE_FETCHU
                 XT_FETCHU:
00709b 7001          .dw DO_COLON
                 PFA_FETCHU:
00709c 72fd          .dw XT_UP_FETCH
00709d 7198          .dw XT_PLUS
00709e 7074          .dw XT_FETCH
00709f 701b          .dw XT_EXIT
                 .include "words/store-u.asm"
                 
                 ; Memory
                 ; write n to USER area at offset
                 VE_STOREU:
0070a0 ff02          .dw $ff02
0070a1 7521          .db "!u"
0070a2 7098          .dw VE_HEAD
                     .set VE_HEAD = VE_STOREU
                 XT_STOREU:
0070a3 7001          .dw DO_COLON
                 PFA_STOREU:
0070a4 72fd          .dw XT_UP_FETCH
0070a5 7198          .dw XT_PLUS
0070a6 707c          .dw XT_STORE
0070a7 701b          .dw XT_EXIT
                 
                 ;;;;;;;;;;;;;;;;;;;;;;;;;
                 .include "words/dup.asm"
                 
                 ; Stack
                 ; duplicate TOS
                 VE_DUP:
0070a8 ff03          .dw $ff03
0070a9 7564
0070aa 0070          .db "dup",0
0070ab 70a0          .dw VE_HEAD
                     .set VE_HEAD = VE_DUP
                 XT_DUP:
0070ac 70ad          .dw PFA_DUP
                 PFA_DUP:
0070ad 939a
0070ae 938a          savetos
0070af cf55          jmp_ DO_NEXT
                 .include "words/qdup.asm"
                 
                 ; Stack
                 ; duplicate TOS if non-zero
                 VE_QDUP:
0070b0 ff04          .dw $ff04
0070b1 643f
0070b2 7075          .db "?dup"
0070b3 70a8          .dw VE_HEAD
                     .set VE_HEAD = VE_QDUP
                 XT_QDUP:
0070b4 70b5          .dw PFA_QDUP
                 PFA_QDUP:
0070b5 2f08          mov temp0, tosl
0070b6 2b09          or temp0, tosh
0070b7 f011          breq PFA_QDUP1
0070b8 939a
0070b9 938a          savetos
                 PFA_QDUP1:
0070ba cf4a          jmp_ DO_NEXT
                 .include "words/swap.asm"
                 
                 ; Stack
                 ; swaps the two top level stack cells
                 VE_SWAP:
0070bb ff04          .dw $ff04
0070bc 7773
0070bd 7061          .db "swap"
0070be 70b0          .dw VE_HEAD
                     .set VE_HEAD = VE_SWAP
                 XT_SWAP:
0070bf 70c0          .dw PFA_SWAP
                 PFA_SWAP:
0070c0 018c          movw temp0, tosl
0070c1 9189
0070c2 9199          loadtos
0070c3 931a          st -Y, temp1
0070c4 930a          st -Y, temp0
0070c5 cf3f          jmp_ DO_NEXT
                 .include "words/over.asm"
                 
                 ; Stack
                 ; Place a copy of x1 on top of the stack
                 VE_OVER:
0070c6 ff04          .dw $ff04
0070c7 766f
0070c8 7265          .db "over"
0070c9 70bb          .dw VE_HEAD
                     .set VE_HEAD = VE_OVER
                 XT_OVER:
0070ca 70cb          .dw PFA_OVER
                 PFA_OVER:
0070cb 939a
0070cc 938a          savetos
0070cd 818a          ldd tosl, Y+2
0070ce 819b          ldd tosh, Y+3
                 
0070cf cf35          jmp_ DO_NEXT
                 .include "words/drop.asm"
                 
                 ; Stack
                 ; drop TOS
                 VE_DROP:
0070d0 ff04          .dw $ff04
0070d1 7264
0070d2 706f          .db "drop"
0070d3 70c6          .dw VE_HEAD
                     .set VE_HEAD = VE_DROP
                 XT_DROP:
0070d4 70d5          .dw PFA_DROP
                 PFA_DROP:
0070d5 9189
0070d6 9199          loadtos
0070d7 cf2d          jmp_ DO_NEXT
                 .include "words/rot.asm"
                 
                 ; Stack
                 ; rotate the three top level cells
                 VE_ROT:
0070d8 ff03          .dw $ff03
0070d9 6f72
0070da 0074          .db "rot",0
0070db 70d0          .dw VE_HEAD
                     .set VE_HEAD = VE_ROT
                 XT_ROT:
0070dc 70dd          .dw PFA_ROT
                 PFA_ROT:
0070dd 018c          movw temp0, tosl
0070de 9129          ld temp2, Y+
0070df 9139          ld temp3, Y+ 
0070e0 9189
0070e1 9199          loadtos
                         
0070e2 933a          st -Y, temp3
0070e3 932a          st -Y, temp2
0070e4 931a          st -Y, temp1
0070e5 930a          st -Y, temp0
                 
0070e6 cf1e          jmp_ DO_NEXT
                 .include "words/nip.asm"
                 
                 ; Stack
                 ; Remove Second of Stack
                 VE_NIP:
0070e7 ff03          .dw $ff03
0070e8 696e
0070e9 0070          .db "nip",0
0070ea 70d8          .dw VE_HEAD
                     .set VE_HEAD = VE_NIP
                 XT_NIP:
0070eb 70ec          .dw PFA_NIP
                 PFA_NIP:
0070ec 9622          adiw yl, 2
0070ed cf17          jmp_ DO_NEXT
                 ;;;;;;;;;;;;;;;;;;;;;;;;;
                 .include "words/r_from.asm"
                 
                 ; Stack
                 ; move TOR to TOS
                 VE_R_FROM:
0070ee ff02          .dw $ff02
0070ef 3e72          .db "r>"
0070f0 70e7          .dw VE_HEAD
                     .set VE_HEAD = VE_R_FROM
                 XT_R_FROM:
0070f1 70f2          .dw PFA_R_FROM
                 PFA_R_FROM:
0070f2 939a
0070f3 938a          savetos
0070f4 918f          pop tosl
0070f5 919f          pop tosh
0070f6 cf0e          jmp_ DO_NEXT
                 .include "words/to_r.asm"
                 
                 ; Stack
                 ; move TOS to TOR
                 VE_TO_R:
0070f7 ff02          .dw $ff02
0070f8 723e          .db ">r"
0070f9 70ee          .dw VE_HEAD
                     .set VE_HEAD = VE_TO_R
                 XT_TO_R:
0070fa 70fb          .dw PFA_TO_R
                 PFA_TO_R:
0070fb 939f          push tosh
0070fc 938f          push tosl
0070fd 9189
0070fe 9199          loadtos
0070ff cf05          jmp_ DO_NEXT
                 .include "words/r_fetch.asm"
                 
                 ; Stack
                 ; fetch content of TOR
                 VE_R_FETCH:
007100 ff02          .dw $ff02
007101 4072          .db "r@"
007102 70f7          .dw VE_HEAD
                     .set VE_HEAD = VE_R_FETCH
                 XT_R_FETCH:
007103 7104          .dw PFA_R_FETCH
                 PFA_R_FETCH:
007104 939a
007105 938a          savetos
007106 918f          pop tosl
007107 919f          pop tosh
007108 939f          push tosh
007109 938f          push tosl
00710a cefa          jmp_ DO_NEXT
                 
                 
                 .include "words/not-equal.asm"
                 
                 ; Compare
                 ; true if n1 is not equal to n2
                 
                 .if cpu_msp430==1
                 .endif
                 
                 .if cpu_avr8==1
                 VE_NOTEQUAL:
00710b ff02          .dw $ff02
00710c 3e3c          .db "<>"
00710d 7100          .dw VE_HEAD
                     .set VE_HEAD = VE_NOTEQUAL
                 XT_NOTEQUAL:
00710e 7001          .dw DO_COLON
                 PFA_NOTEQUAL:
                 .endif
                 
00710f 7d82
007110 7115
007111 701b          .DW XT_EQUAL,XT_ZEROEQUAL,XT_EXIT
                 .include "words/equalzero.asm"
                 
                 ; Compare
                 ; compare with 0 (zero)
                 VE_ZEROEQUAL:
007112 ff02          .dw $ff02
007113 3d30          .db "0="
007114 710b          .dw VE_HEAD
                     .set VE_HEAD = VE_ZEROEQUAL
                 XT_ZEROEQUAL:
007115 7116          .dw PFA_ZEROEQUAL
                 PFA_ZEROEQUAL:
007116 2b98          or tosh, tosl
007117 f5d1          brne PFA_ZERO1
007118 c030          rjmp PFA_TRUE1
                 .include "words/lesszero.asm"
                 
                 ; Compare
                 ; compare with zero
                 VE_ZEROLESS:
007119 ff02          .dw $ff02
00711a 3c30          .db "0<"
00711b 7112          .dw VE_HEAD
                     .set VE_HEAD = VE_ZEROLESS
                 XT_ZEROLESS:
00711c 711d          .dw PFA_ZEROLESS
                 PFA_ZEROLESS:
00711d fd97          sbrc tosh,7
00711e c02a          rjmp PFA_TRUE1
00711f c032          rjmp PFA_ZERO1
                 .include "words/greaterzero.asm"
                 
                 ; Compare
                 ; true if n1 is greater than 0
                 VE_GREATERZERO:
007120 ff02          .dw $ff02
007121 3e30          .db "0>"
007122 7119          .dw VE_HEAD
                     .set VE_HEAD = VE_GREATERZERO
                 XT_GREATERZERO:
007123 7124          .dw PFA_GREATERZERO
                 PFA_GREATERZERO:
007124 1582          cp tosl, zerol
007125 0593          cpc tosh, zeroh
007126 f15c          brlt PFA_ZERO1
007127 f151          brbs 1, PFA_ZERO1
007128 c020          rjmp PFA_TRUE1
                 .include "words/d-greaterzero.asm"
                 
                 ; Compare
                 ; compares if a double double cell number is greater 0
                 VE_DGREATERZERO:
007129 ff03          .dw $ff03
00712a 3064
00712b 003e          .db "d0>",0
00712c 7120          .dw VE_HEAD
                     .set VE_HEAD = VE_DGREATERZERO
                 XT_DGREATERZERO:
00712d 712e          .dw PFA_DGREATERZERO
                 PFA_DGREATERZERO:
00712e 1582          cp tosl, zerol
00712f 0593          cpc tosh, zeroh
007130 9189
007131 9199          loadtos
007132 0582          cpc tosl, zerol
007133 0593          cpc tosh, zeroh
007134 f0ec          brlt PFA_ZERO1
007135 f0e1          brbs 1, PFA_ZERO1
007136 c012          rjmp PFA_TRUE1
                 .include "words/d-lesszero.asm"
                 
                 ; Compare
                 ; compares if a double double cell number is less than 0
                 VE_DXT_ZEROLESS:
007137 ff03          .dw $ff03
007138 3064
007139 003c          .db "d0<",0
00713a 7129          .dw VE_HEAD
                     .set VE_HEAD = VE_DXT_ZEROLESS
                 XT_DXT_ZEROLESS:
00713b 713c          .dw PFA_DXT_ZEROLESS
                 PFA_DXT_ZEROLESS:
00713c 9622          adiw Y,2
00713d fd97          sbrc tosh,7
00713e 940c 7149     jmp PFA_TRUE1
007140 940c 7152     jmp PFA_ZERO1
                 
                 .include "words/true.asm"
                 
                 ; Arithmetics
                 ; leaves the value -1 (true) on TOS
                 VE_TRUE:
007142 ff04          .dw $ff04
007143 7274
007144 6575          .db "true"
007145 7137          .dw VE_HEAD
                     .set VE_HEAD = VE_TRUE
                 XT_TRUE:
007146 7147          .dw PFA_TRUE
                 PFA_TRUE:
007147 939a
007148 938a          savetos
                 PFA_TRUE1:
007149 ef8f          ser tosl
00714a ef9f          ser tosh
00714b ceb9          jmp_ DO_NEXT
                 .include "words/zero.asm"
                 
                 ; Arithmetics
                 ; place a value 0 on TOS
                 VE_ZERO:
00714c ff01          .dw $ff01
00714d 0030          .db "0",0
00714e 7142          .dw VE_HEAD
                     .set VE_HEAD = VE_ZERO
                 XT_ZERO:
00714f 7150          .dw PFA_ZERO
                 PFA_ZERO:
007150 939a
007151 938a          savetos
                 PFA_ZERO1:
007152 01c1          movw tosl, zerol
007153 ceb1          jmp_ DO_NEXT
                 .include "words/uless.asm"
                 
                 ; Compare
                 ; true if u1 < u2 (unsigned)
                 VE_ULESS:
007154 ff02          .dw $ff02
007155 3c75          .db "u<"
007156 714c          .dw VE_HEAD
                     .set VE_HEAD = VE_ULESS
                 XT_ULESS:
007157 7158          .dw PFA_ULESS
                 PFA_ULESS:
007158 9129          ld temp2, Y+
007159 9139          ld temp3, Y+
00715a 1782          cp tosl, temp2
00715b 0793          cpc tosh, temp3
00715c f3a8          brlo PFA_ZERO1
00715d f3a1          brbs 1, PFA_ZERO1
00715e cfea          jmp_ PFA_TRUE1
                 .include "words/u-greater.asm"
                 
                 ; Compare
                 ; true if u1 > u2 (unsigned)
                 
                 .if cpu_msp430==1
                 .endif
                 
                 .if cpu_avr8==1
                 VE_UGREATER:
00715f ff02          .dw $ff02
007160 3e75          .db "u>"
007161 7154          .dw VE_HEAD
                     .set VE_HEAD = VE_UGREATER
                 XT_UGREATER:
007162 7001          .dw DO_COLON
                 PFA_UGREATER:
                 .endif
007163 70bf          .DW XT_SWAP
007164 7157          .dw XT_ULESS
007165 701b          .dw XT_EXIT
                 .include "words/less.asm"
                 
                 ; Compare
                 ; true if n1 is less than n2
                     VE_LESS:
007166 ff01          .dw $ff01
007167 003c          .db "<",0
007168 715f          .dw VE_HEAD
                     .set VE_HEAD = VE_LESS
                 XT_LESS:
007169 716a          .dw PFA_LESS
                 PFA_LESS:
00716a 9129          ld temp2, Y+
00716b 9139          ld temp3, Y+
00716c 1728          cp temp2, tosl
00716d 0739          cpc temp3, tosh
                 PFA_LESSDONE:
00716e f71c          brge PFA_ZERO1
00716f cfd9          rjmp PFA_TRUE1
                 .include "words/greater.asm"
                 
                 ; Compare
                 ; flag is true if n1 is greater than n2
                 VE_GREATER:
007170 ff01          .dw $ff01
007171 003e          .db ">",0
007172 7166          .dw VE_HEAD
                     .set VE_HEAD = VE_GREATER
                 XT_GREATER:
007173 7174          .dw PFA_GREATER
                 PFA_GREATER:
007174 9129          ld temp2, Y+
007175 9139          ld temp3, Y+
007176 1728          cp temp2, tosl
007177 0739          cpc temp3, tosh
                 PFA_GREATERDONE:
007178 f2cc          brlt PFA_ZERO1
007179 f2c1          brbs 1, PFA_ZERO1
00717a cfce          rjmp PFA_TRUE1
                 
                 .include "words/log2.asm"
                 
                 ; Arithmetics
                 ; logarithm to base 2 or highest set bitnumber
                 VE_LOG2:
00717b ff04          .dw $ff04
00717c 6f6c
00717d 3267          .db "log2"
00717e 7170          .dw VE_HEAD
                     .set VE_HEAD = VE_LOG2
                 XT_LOG2:
00717f 7180          .dw PFA_LOG2
                 PFA_LOG2:
007180 01fc          movw zl, tosl
007181 2799          clr tosh
007182 e180          ldi tosl, 16
                 PFA_LOG2_1:
007183 958a          dec tosl
007184 f022          brmi PFA_LOG2_2 ; wrong data
007185 0fee          lsl  zl
007186 1fff          rol  zh
007187 f7d8          brcc PFA_LOG2_1
007188 ce7c          jmp_ DO_NEXT
                 
                 PFA_LOG2_2:
007189 959a          dec tosh
00718a ce7a          jmp_ DO_NEXT
                 .include "words/minus.asm"
                 
                 ; Arithmetics
                 ; subtract n2 from n1
                 VE_MINUS:
00718b ff01          .dw $ff01
00718c 002d          .db "-",0
00718d 717b          .dw VE_HEAD
                     .set VE_HEAD = VE_MINUS
                 XT_MINUS:
00718e 718f          .dw PFA_MINUS
                 PFA_MINUS:
00718f 9109          ld temp0, Y+
007190 9119          ld temp1, Y+
007191 1b08          sub temp0, tosl
007192 0b19          sbc temp1, tosh
007193 01c8          movw tosl, temp0
007194 ce70          jmp_ DO_NEXT
                 .include "words/plus.asm"
                 
                 ; Arithmetics
                 ; add n1 and n2
                 VE_PLUS:
007195 ff01          .dw $ff01
007196 002b          .db "+",0
007197 718b          .dw VE_HEAD
                     .set VE_HEAD = VE_PLUS
                 XT_PLUS:
007198 7199          .dw PFA_PLUS
                 PFA_PLUS:
007199 9109          ld temp0, Y+
00719a 9119          ld temp1, Y+
00719b 0f80          add tosl, temp0
00719c 1f91          adc tosh, temp1
00719d ce67          jmp_ DO_NEXT
                 .include "words/mstar.asm"
                 
                 ; Arithmetics
                 ; multiply 2 cells to a double cell
                 VE_MSTAR:
00719e ff02          .dw $ff02
00719f 2a6d          .db "m*"
0071a0 7195          .dw VE_HEAD
                     .set VE_HEAD = VE_MSTAR
                 XT_MSTAR:
0071a1 71a2          .dw PFA_MSTAR
                 PFA_MSTAR:
0071a2 018c          movw temp0, tosl
0071a3 9189
0071a4 9199          loadtos
0071a5 019c          movw temp2, tosl
                     ; high cell ah*bh
0071a6 0231          muls temp3, temp1
0071a7 0170          movw temp4, r0
                     ; low cell  al*bl
0071a8 9f20          mul  temp2, temp0
0071a9 01c0          movw tosl, r0
                     ; signed ah*bl
0071aa 0330          mulsu temp3, temp0
0071ab 08f3          sbc   temp5, zeroh
0071ac 0d90          add   tosh,  r0
0071ad 1ce1          adc   temp4, r1
0071ae 1cf3          adc   temp5, zeroh
                     
                     ; signed al*bh
0071af 0312          mulsu temp1, temp2
0071b0 08f3          sbc   temp5, zeroh
0071b1 0d90          add   tosh,  r0
0071b2 1ce1          adc   temp4, r1
0071b3 1cf3          adc   temp5, zeroh
                 
0071b4 939a
0071b5 938a          savetos
0071b6 01c7          movw tosl, temp4
0071b7 ce4d          jmp_ DO_NEXT
                 .include "words/umslashmod.asm"
                 
                 ; Arithmetics
                 ; unsigned division ud / u2 with remainder
                 VE_UMSLASHMOD:
0071b8 ff06          .dw $ff06
0071b9 6d75
0071ba 6d2f
0071bb 646f          .db "um/mod"
0071bc 719e          .dw VE_HEAD
                     .set VE_HEAD = VE_UMSLASHMOD
                 XT_UMSLASHMOD:
0071bd 71be          .dw PFA_UMSLASHMOD
                 PFA_UMSLASHMOD:
0071be 017c          movw temp4, tosl
                 
0071bf 9129          ld temp2, Y+
0071c0 9139          ld temp3, Y+
                   
0071c1 9109          ld temp0, Y+
0071c2 9119          ld temp1, Y+
                 
                 ;; unsigned 32/16 -> 16r16 divide
                 
                 PFA_UMSLASHMODmod:
                 
                   ; set loop counter
0071c3 e140          ldi temp6,$10
                 
                 PFA_UMSLASHMODmod_loop:
                     ; shift left, saving high bit
0071c4 2755          clr temp7
0071c5 0f00          lsl temp0
0071c6 1f11          rol temp1
0071c7 1f22          rol temp2
0071c8 1f33          rol temp3
0071c9 1f55          rol temp7
                 
                   ; try subtracting divisor
0071ca 152e          cp temp2, temp4
0071cb 053f          cpc temp3, temp5
0071cc 0552          cpc temp7,zerol
                 
0071cd f018          brcs PFA_UMSLASHMODmod_loop_control
                 
                 PFA_UMSLASHMODmod_subtract:
                     ; dividend is large enough
                     ; do the subtraction for real
                     ; and set lowest bit
0071ce 9503          inc temp0
0071cf 192e          sub temp2, temp4
0071d0 093f          sbc temp3, temp5
                 
                 PFA_UMSLASHMODmod_loop_control:
0071d1 954a          dec  temp6
0071d2 f789          brne PFA_UMSLASHMODmod_loop
                 
                 PFA_UMSLASHMODmod_done:
                     ; put remainder on stack
0071d3 933a          st -Y,temp3
0071d4 932a          st -Y,temp2
                 
                     ; put quotient on stack
0071d5 01c8          movw tosl, temp0
0071d6 ce2e          jmp_ DO_NEXT
                 .include "words/umstar.asm"
                 
                 ; Arithmetics
                 ; multiply 2 unsigned cells to a double cell
                 VE_UMSTAR:
0071d7 ff03          .dw $ff03
0071d8 6d75
0071d9 002a          .db "um*",0
0071da 71b8          .dw VE_HEAD
                     .set VE_HEAD = VE_UMSTAR
                 XT_UMSTAR:
0071db 71dc          .dw PFA_UMSTAR
                 PFA_UMSTAR:
0071dc 018c          movw temp0, tosl
0071dd 9189
0071de 9199          loadtos
                     ; result: (temp3*temp1)* 65536 + (temp3*temp0 + temp1*temp2) * 256 + (temp0 * temp2)
                     ; low bytes
0071df 9f80          mul tosl,temp0
0071e0 01f0          movw zl, r0
0071e1 2722          clr temp2
0071e2 2733          clr temp3
                     ; middle bytes
0071e3 9f90          mul tosh, temp0
0071e4 0df0          add zh, r0
0071e5 1d21          adc temp2, r1
0071e6 1d33          adc temp3, zeroh
                         
0071e7 9f81          mul tosl, temp1
0071e8 0df0          add zh, r0
0071e9 1d21          adc temp2, r1
0071ea 1d33          adc temp3, zeroh
                     
0071eb 9f91          mul tosh, temp1
0071ec 0d20          add temp2, r0
0071ed 1d31          adc temp3, r1
0071ee 01cf          movw tosl, zl
0071ef 939a
0071f0 938a          savetos
0071f1 01c9          movw tosl, temp2
0071f2 ce12          jmp_ DO_NEXT
                 
                 .include "words/invert.asm"
                 
                 ; Arithmetics
                 ; 1-complement of TOS
                 VE_INVERT:
0071f3 ff06          .dw $ff06
0071f4 6e69
0071f5 6576
0071f6 7472          .db "invert"
0071f7 71d7          .dw VE_HEAD
                     .set VE_HEAD = VE_INVERT
                 XT_INVERT:
0071f8 71f9          .dw PFA_INVERT
                 PFA_INVERT:
0071f9 9580          com tosl
0071fa 9590          com tosh
0071fb ce09          jmp_ DO_NEXT
                 .include "words/2slash.asm"
                 
                 ; Arithmetics
                 ; arithmetic shift right
                 VE_2SLASH:
0071fc ff02          .dw $ff02
0071fd 2f32          .db "2/"
0071fe 71f3          .dw VE_HEAD
                     .set VE_HEAD = VE_2SLASH
                 XT_2SLASH:
0071ff 7200          .dw PFA_2SLASH
                 PFA_2SLASH:
007200 9595          asr tosh
007201 9587          ror tosl
007202 ce02          jmp_ DO_NEXT
                 .include "words/2star.asm"
                 
                 ; Arithmetics
                 ; arithmetic shift left, filling with zero
                 VE_2STAR:
007203 ff02          .dw $ff02
007204 2a32          .db "2*"
007205 71fc          .dw VE_HEAD
                     .set VE_HEAD = VE_2STAR
                 XT_2STAR:
007206 7207          .dw PFA_2STAR
                 PFA_2STAR:
007207 0f88          lsl tosl
007208 1f99          rol tosh
007209 cdfb          jmp_ DO_NEXT
                 .include "words/and.asm"
                 
                 ; Logic
                 ; bitwise and
                 VE_AND:
00720a ff03          .dw $ff03
00720b 6e61
00720c 0064          .db "and",0
00720d 7203          .dw VE_HEAD
                     .set VE_HEAD = VE_AND
                 XT_AND:
00720e 720f          .dw PFA_AND
                 PFA_AND:
00720f 9109          ld temp0, Y+
007210 9119          ld temp1, Y+
007211 2380          and tosl, temp0
007212 2391          and tosh, temp1
007213 cdf1          jmp_ DO_NEXT
                 .include "words/or.asm"
                 
                 ; Logic
                 ; logical or
                 VE_OR:
007214 ff02          .dw $ff02
007215 726f          .db "or"
007216 720a          .dw VE_HEAD
                     .set VE_HEAD = VE_OR
                 XT_OR:
007217 7218          .dw PFA_OR
                 PFA_OR:
007218 9109          ld temp0, Y+
007219 9119          ld temp1, Y+
00721a 2b80          or tosl, temp0
00721b 2b91          or tosh, temp1
00721c cde8          jmp_ DO_NEXT
                 
                 .include "words/xor.asm"
                 
                 ; Logic
                 ; exclusive or
                 VE_XOR:
00721d ff03          .dw $ff03
00721e 6f78
00721f 0072          .db "xor",0
007220 7214          .dw VE_HEAD
                     .set VE_HEAD = VE_XOR
                 XT_XOR:
007221 7222          .dw PFA_XOR
                 PFA_XOR:
007222 9109          ld temp0, Y+
007223 9119          ld temp1, Y+
007224 2780          eor tosl, temp0
007225 2791          eor tosh, temp1
007226 cdde          jmp_ DO_NEXT
                 
                 .include "words/1plus.asm"
                 
                 ; Arithmetics
                 ; optimized increment
                 VE_1PLUS:
007227 ff02          .dw $ff02
007228 2b31          .db "1+"
007229 721d          .dw VE_HEAD
                     .set VE_HEAD = VE_1PLUS
                 XT_1PLUS:
00722a 722b          .dw PFA_1PLUS
                 PFA_1PLUS:
00722b 9601          adiw tosl,1
00722c cdd8          jmp_ DO_NEXT
                 .include "words/1minus.asm"
                 
                 ; Arithmetics
                 ; optimized decrement
                 VE_1MINUS:
00722d ff02          .dw $ff02 
00722e 2d31          .db "1-"
00722f 7227          .dw VE_HEAD
                     .set VE_HEAD = VE_1MINUS
                 XT_1MINUS:
007230 7231          .dw PFA_1MINUS
                 PFA_1MINUS:
007231 9701          sbiw tosl, 1
007232 cdd2          jmp_ DO_NEXT
                 .include "words/q-negate.asm"
                 
                 ;   0< IF NEGATE THEN ;        ...a common factor
                 
                 .if cpu_msp430==1
                 .endif
                 
                 .if cpu_avr8==1
                 VE_QNEGATE:
007233 ff07          .dw $ff07
007234 6e3f
007235 6765
007236 7461
../../common\words/q-negate.asm(11): warning: .cseg .db misalignment - padding zero byte
007237 0065          .db "?negate"
007238 722d          .dw VE_HEAD
                     .set VE_HEAD = VE_QNEGATE
                 XT_QNEGATE:
007239 7001          .dw DO_COLON
                 PFA_QNEGATE:
                 
                 .endif
00723a 711c
00723b 7031              .DW XT_ZEROLESS,XT_DOCONDBRANCH
00723c 723e              DEST(QNEG1)
00723d 7643              .DW XT_NEGATE
00723e 701b      QNEG1:  .DW XT_EXIT
                 .include "words/lshift.asm"
                 
                 ; Arithmetics
                 ; logically shift n1 left n2 times
                 VE_LSHIFT:
00723f ff06          .dw $ff06
007240 736c
007241 6968
007242 7466          .db "lshift"
007243 7233          .dw VE_HEAD
                     .set VE_HEAD = VE_LSHIFT
                 XT_LSHIFT:
007244 7245          .dw PFA_LSHIFT
                 PFA_LSHIFT:
007245 01fc          movw zl, tosl
007246 9189
007247 9199          loadtos
                 PFA_LSHIFT1:
007248 9731          sbiw zl, 1
007249 f01a          brmi PFA_LSHIFT2
00724a 0f88          lsl tosl
00724b 1f99          rol tosh
00724c cffb          rjmp PFA_LSHIFT1
                 PFA_LSHIFT2:
00724d cdb7          jmp_ DO_NEXT
                 
                 .include "words/rshift.asm"
                 
                 ; Arithmetics
                 ; shift n1 n2-times logically right
                 VE_RSHIFT:
00724e ff06          .dw $ff06
00724f 7372
007250 6968
007251 7466          .db "rshift"
007252 723f          .dw VE_HEAD
                     .set VE_HEAD = VE_RSHIFT
                 XT_RSHIFT:
007253 7254          .dw PFA_RSHIFT
                 PFA_RSHIFT:
007254 01fc          movw zl, tosl
007255 9189
007256 9199          loadtos
                 PFA_RSHIFT1:
007257 9731          sbiw zl, 1
007258 f01a          brmi PFA_RSHIFT2
007259 9596          lsr tosh
00725a 9587          ror tosl
00725b cffb          rjmp PFA_RSHIFT1
                 PFA_RSHIFT2:
00725c cda8          jmp_ DO_NEXT
                 
                 .include "words/plusstore.asm"
                 
                 ; Arithmetics
                 ; add n to content of RAM address a-addr
                 VE_PLUSSTORE:
00725d ff02          .dw $ff02
00725e 212b          .db "+!"
00725f 724e          .dw VE_HEAD
                     .set VE_HEAD = VE_PLUSSTORE
                 XT_PLUSSTORE:
007260 7261          .dw PFA_PLUSSTORE
                 PFA_PLUSSTORE:
007261 01fc          movw zl, tosl
007262 9189
007263 9199          loadtos
007264 8120          ldd temp2, Z+0
007265 8131          ldd temp3, Z+1
007266 0f82          add tosl, temp2
007267 1f93          adc tosh, temp3
007268 8380          std Z+0, tosl
007269 8391          std Z+1, tosh
00726a 9189
00726b 9199          loadtos
00726c cd98          jmp_ DO_NEXT
                 ;;;;;;;;;;;;;;;;;;;;;;;;;;;;;
                 .include "words/rpfetch.asm"
                 
                 ; Stack
                 ; current return stack pointer address
                 VE_RP_FETCH:
00726d ff03          .dw $ff03
00726e 7072
00726f 0040          .db "rp@",0
007270 725d          .dw VE_HEAD
                     .set VE_HEAD = VE_RP_FETCH
                 XT_RP_FETCH:
007271 7272          .dw PFA_RP_FETCH
                 PFA_RP_FETCH:
007272 939a
007273 938a          savetos
007274 b78d          in tosl, SPL
007275 b79e          in tosh, SPH
007276 cd8e          jmp_ DO_NEXT
                 .include "words/rpstore.asm"
                 
                 ; Stack
                 ; set return stack pointer
                 VE_RP_STORE:
007277 ff03          .dw $ff03
007278 7072
007279 0021          .db "rp!",0
00727a 726d          .dw VE_HEAD
                     .set VE_HEAD = VE_RP_STORE
                 XT_RP_STORE:
00727b 727c          .dw PFA_RP_STORE
                 PFA_RP_STORE:
00727c b72f          in temp2, SREG
00727d 94f8          cli
00727e bf8d          out SPL, tosl
00727f bf9e          out SPH, tosh
007280 bf2f          out SREG, temp2
007281 9189
007282 9199          loadtos
007283 cd81          jmp_ DO_NEXT
                 .include "words/spfetch.asm"
                 
                 ; Stack
                 ; current data stack pointer
                 VE_SP_FETCH:
007284 ff03          .dw $ff03
007285 7073
007286 0040          .db "sp@",0
007287 7277          .dw VE_HEAD
                     .set VE_HEAD = VE_SP_FETCH
                 XT_SP_FETCH:
007288 7289          .dw PFA_SP_FETCH
                 PFA_SP_FETCH:
007289 939a
00728a 938a          savetos
00728b 01ce          movw tosl, yl
00728c cd78          jmp_ DO_NEXT
                 .include "words/spstore.asm"
                 
                 ; Stack
                 ; set data stack pointer to addr
                 VE_SP_STORE:
00728d ff03          .dw $ff03
00728e 7073
00728f 0021          .db "sp!",0
007290 7284          .dw VE_HEAD
                     .set VE_HEAD = VE_SP_STORE
                 XT_SP_STORE:
007291 7292          .dw PFA_SP_STORE
                 PFA_SP_STORE:
007292 01ec          movw yl, tosl
007293 9189
007294 9199          loadtos
007295 cd6f          jmp_ DO_NEXT
                 
                 .include "words/dodo.asm"
                 
                 ; System
                 ; runtime of do
                 ;VE_DODO:
                 ;    .dw $ff04
                 ;    .db "(do)"
                 ;    .dw VE_HEAD
                 ;    .set VE_HEAD = VE_DODO
                 XT_DODO:
007296 7297          .dw PFA_DODO
                 PFA_DODO:
007297 9129          ld temp2, Y+
007298 9139          ld temp3, Y+  ; limit
                 PFA_DODO1:
007299 e8e0          ldi zl, $80
00729a 0f3e          add temp3, zl
00729b 1b82          sub  tosl, temp2
00729c 0b93          sbc  tosh, temp3
                 
00729d 933f          push temp3
00729e 932f          push temp2    ; limit  ( --> limit + $8000)
00729f 939f          push tosh
0072a0 938f          push tosl     ; start -> index ( --> index - (limit - $8000)
0072a1 9189
0072a2 9199          loadtos
0072a3 cd61          jmp_ DO_NEXT
                 .include "words/i.asm"
                 
                 ; Compiler
                 ; current loop counter
                 VE_I:
0072a4 ff01          .dw $FF01
0072a5 0069          .db "i",0
0072a6 728d          .dw VE_HEAD
                     .set VE_HEAD = VE_I
                 XT_I:
0072a7 72a8          .dw PFA_I
                 PFA_I:
0072a8 939a
0072a9 938a          savetos
0072aa 918f          pop tosl
0072ab 919f          pop tosh  ; index
0072ac 91ef          pop zl
0072ad 91ff          pop zh    ; limit
0072ae 93ff          push zh
0072af 93ef          push zl
0072b0 939f          push tosh
0072b1 938f          push tosl
0072b2 0f8e          add tosl, zl
0072b3 1f9f          adc tosh, zh
0072b4 cd50          jmp_ DO_NEXT
                 .include "words/doplusloop.asm"
                 
                 ; System
                 ; runtime of +loop
                 ;VE_DOPLUSLOOP:
                 ;    .dw $ff07
                 ;    .db "(+loop)"
                 ;    .dw VE_HEAD
                 ;    .set VE_HEAD = VE_DOPLUSLOOP
                 XT_DOPLUSLOOP:
0072b5 72b6          .dw PFA_DOPLUSLOOP
                 PFA_DOPLUSLOOP:
0072b6 91ef          pop zl
0072b7 91ff          pop zh
0072b8 0fe8          add zl, tosl
0072b9 1ff9          adc zh, tosh
0072ba 9189
0072bb 9199          loadtos
0072bc f01b          brvs PFA_DOPLUSLOOP_LEAVE
                     ; next cycle
                 PFA_DOPLUSLOOP_NEXT:
                     ; next iteration
0072bd 93ff          push zh
0072be 93ef          push zl
0072bf cd6b          rjmp PFA_DOBRANCH ; read next cell from dictionary and jump to its destination
                 PFA_DOPLUSLOOP_LEAVE:
0072c0 910f          pop  temp0
0072c1 911f          pop  temp1  ; remove limit
0072c2 9611          adiw xl, 1  ; skip branch-back address
0072c3 cd41          jmp_ DO_NEXT
                 .include "words/doloop.asm"
                 
                 ; System
                 ; runtime of loop
                 ;VE_DOLOOP:
                 ;    .dw $ff06
                 ;    .db "(loop)"
                 ;    .dw VE_HEAD
                 ;    .set VE_HEAD = VE_DOLOOP
                 XT_DOLOOP:
0072c4 72c5          .dw PFA_DOLOOP
                 PFA_DOLOOP:
0072c5 91ef          pop zl
0072c6 91ff          pop zh
0072c7 9631          adiw zl,1
0072c8 f3bb          brvs PFA_DOPLUSLOOP_LEAVE
0072c9 cff3          jmp_ PFA_DOPLUSLOOP_NEXT
                 .include "words/unloop.asm"
                 
                 ; Compiler
                 ; remove loop-sys, exit the loop and continue execution after it
                 VE_UNLOOP:
0072ca ff06          .dw $ff06
0072cb 6e75
0072cc 6f6c
0072cd 706f          .db "unloop"
0072ce 72a4          .dw VE_HEAD
                     .set VE_HEAD = VE_UNLOOP
                 XT_UNLOOP:
0072cf 72d0          .dw PFA_UNLOOP
                 PFA_UNLOOP:
0072d0 911f          pop temp1
0072d1 910f          pop temp0
0072d2 911f          pop temp1
0072d3 910f          pop temp0
0072d4 cd30          jmp_ DO_NEXT
                 
                 ;;;;;;;;;;;;;;;;;;;;;;;;;;;
                 
                 .include "words/cmove_g.asm"
                 
                 ; Memory
                 ; copy data in RAM from higher to lower addresses.
                 VE_CMOVE_G:
0072d5 ff06          .dw $ff06
0072d6 6d63
0072d7 766f
0072d8 3e65          .db "cmove>"
0072d9 72ca          .dw VE_HEAD
                     .set VE_HEAD  = VE_CMOVE_G
                 XT_CMOVE_G:
0072da 72db          .dw PFA_CMOVE_G
                 PFA_CMOVE_G:
0072db 93bf          push xh
0072dc 93af          push xl
0072dd 91e9          ld zl, Y+
0072de 91f9          ld zh, Y+ ; addr-to
0072df 91a9          ld xl, Y+
0072e0 91b9          ld xh, Y+ ; addr-from
0072e1 2f09          mov temp0, tosh
0072e2 2b08          or temp0, tosl
0072e3 f041          brbs 1, PFA_CMOVE_G1
0072e4 0fe8          add zl, tosl
0072e5 1ff9          adc zh, tosh
0072e6 0fa8          add xl, tosl
0072e7 1fb9          adc xh, tosh
                 PFA_CMOVE_G2:
0072e8 911e          ld temp1, -X
0072e9 9312          st -Z, temp1
0072ea 9701          sbiw tosl, 1
0072eb f7e1          brbc 1, PFA_CMOVE_G2
                 PFA_CMOVE_G1:
0072ec 91af          pop xl
0072ed 91bf          pop xh
0072ee 9189
0072ef 9199          loadtos
0072f0 cd14          jmp_ DO_NEXT
                 .include "words/byteswap.asm"
                 
                 ; Arithmetics
                 ; exchange the bytes of the TOS
                 VE_BYTESWAP:
0072f1 ff02          .dw $ff02
0072f2 3c3e          .db "><"
0072f3 72d5          .dw VE_HEAD
                     .set VE_HEAD = VE_BYTESWAP
                 XT_BYTESWAP:
0072f4 72f5          .dw PFA_BYTESWAP
                 PFA_BYTESWAP:
0072f5 2f09          mov temp0, tosh
0072f6 2f98          mov tosh, tosl
0072f7 2f80          mov tosl, temp0
0072f8 cd0c          jmp_ DO_NEXT
                 .include "words/up.asm"
                 
                 ; System Variable
                 ; get user area pointer
                 VE_UP_FETCH:
0072f9 ff03          .dw $ff03
0072fa 7075
0072fb 0040          .db "up@",0
0072fc 72f1          .dw VE_HEAD
                     .set VE_HEAD = VE_UP_FETCH
                 XT_UP_FETCH:
0072fd 72fe          .dw PFA_UP_FETCH
                 PFA_UP_FETCH:
0072fe 939a
0072ff 938a          savetos
007300 01c2          movw tosl, upl
007301 cd03          jmp_ DO_NEXT
                 
                 ; ( addr -- ) 
                 ; System Variable
                 ; set user area pointer
                 VE_UP_STORE:
007302 ff03          .dw $ff03
007303 7075
007304 0021          .db "up!",0
007305 72f9          .dw VE_HEAD
                     .set VE_HEAD = VE_UP_STORE
                 XT_UP_STORE:
007306 7307          .dw PFA_UP_STORE
                 PFA_UP_STORE:
007307 012c          movw upl, tosl
007308 9189
007309 9199          loadtos
00730a ccfa          jmp_ DO_NEXT
                 .include "words/1ms.asm"
                 
                 ; Time
                 ; busy waits (almost) exactly 1 millisecond
                 VE_1MS:
00730b ff03          .dw $ff03
00730c 6d31
00730d 0073          .db "1ms",0
00730e 7302          .dw VE_HEAD
                     .set VE_HEAD = VE_1MS
                 XT_1MS:
00730f 7310          .dw PFA_1MS
                 PFA_1MS:
007310 eae0
007311 e0ff
007312 9731
007313 f7f1          delay 1000
007314 ccf0          jmp_ DO_NEXT
                 .include "words/2to_r.asm"
                 
                 ; Stack
                 ; move DTOS to TOR
                 VE_2TO_R:
007315 ff03          .dw $ff03
007316 3e32
007317 0072          .db "2>r",0
007318 730b          .dw VE_HEAD
                     .set VE_HEAD = VE_2TO_R
                 XT_2TO_R:
007319 731a          .dw PFA_2TO_R
                 PFA_2TO_R:
00731a 01fc          movw zl, tosl
00731b 9189
00731c 9199          loadtos
00731d 939f          push tosh
00731e 938f          push tosl
00731f 93ff          push zh
007320 93ef          push zl
007321 9189
007322 9199          loadtos
007323 cce1          jmp_ DO_NEXT
                 .include "words/2r_from.asm"
                 
                 ; Stack
                 ; move DTOR to TOS
                 VE_2R_FROM:
007324 ff03          .dw $ff03
007325 7232
007326 003e          .db "2r>",0
007327 7315          .dw VE_HEAD
                     .set VE_HEAD = VE_2R_FROM
                 XT_2R_FROM:
007328 7329          .dw PFA_2R_FROM
                 PFA_2R_FROM:
007329 939a
00732a 938a          savetos
00732b 91ef          pop zl
00732c 91ff          pop zh
00732d 918f          pop tosl
00732e 919f          pop tosh
00732f 939a
007330 938a          savetos
007331 01cf          movw tosl, zl
007332 ccd2          jmp_ DO_NEXT
                 
                 .include "words/store-e.asm"
                 
                 ; Memory
                 ; write n (2bytes) to eeprom address
                 VE_STOREE:
007333 ff02          .dw $ff02
007334 6521          .db "!e"
007335 7324          .dw VE_HEAD
                     .set VE_HEAD = VE_STOREE
                 XT_STOREE:
007336 7337          .dw PFA_STOREE
                 PFA_STOREE:
                 .if WANT_UNIFIED == 1
                 .endif
                 PFA_STOREE0:
007337 01fc          movw zl, tosl
007338 9189
007339 9199          loadtos
00733a b72f          in_ temp2, SREG
00733b 94f8          cli
00733c d028          rcall PFA_FETCHE2
00733d b500          in_  temp0, EEDR
00733e 1708          cp temp0,tosl
00733f f009          breq PFA_STOREE3
007340 d00b          rcall PFA_STOREE1
                 PFA_STOREE3:
007341 9631          adiw zl,1
007342 d022          rcall PFA_FETCHE2
007343 b500          in_  temp0, EEDR
007344 1709          cp temp0,tosh
007345 f011          breq PFA_STOREE4
007346 2f89          mov tosl, tosh
007347 d004          rcall PFA_STOREE1
                 PFA_STOREE4:
007348 bf2f          out_ SREG, temp2
007349 9189
00734a 9199          loadtos
00734b ccb9          jmp_ DO_NEXT
                     
                 PFA_STOREE1:
00734c 99f9          sbic EECR, EEPE
00734d cffe          rjmp PFA_STOREE1
                 
                 PFA_STOREE2: ; estore_wait_low_spm:
00734e b707          in_ temp0, SPMCSR
00734f fd00          sbrc temp0,SPMEN
007350 cffd          rjmp PFA_STOREE2
                 
007351 bdf2          out_ EEARH,zh
007352 bde1          out_ EEARL,zl
007353 bd80          out_ EEDR, tosl
007354 9afa          sbi EECR,EEMPE
007355 9af9          sbi EECR,EEPE
                 
007356 9508          ret
                 .if WANT_UNIFIED == 1
                 .endif
                 .include "words/fetch-e.asm"
                 
                 ; Memory
                 ; read 1 cell from eeprom
                 VE_FETCHE:
007357 ff02          .dw $ff02
007358 6540          .db "@e"
007359 7333          .dw VE_HEAD
                     .set VE_HEAD = VE_FETCHE
                 XT_FETCHE:
00735a 735b          .dw PFA_FETCHE
                 PFA_FETCHE:
                 .if WANT_UNIFIED == 1
                 .endif
                 PFA_FETCHE1:
00735b b72f          in_ temp2, SREG
00735c 94f8          cli
00735d 01fc          movw zl, tosl
00735e d006          rcall PFA_FETCHE2
00735f b580          in_ tosl, EEDR
                 
007360 9631          adiw zl,1
                 
007361 d003          rcall PFA_FETCHE2
007362 b590          in_  tosh, EEDR
007363 bf2f          out_ SREG, temp2
007364 cca0          jmp_ DO_NEXT
                 
                 PFA_FETCHE2:
007365 99f9          sbic EECR, EEPE
007366 cffe          rjmp PFA_FETCHE2
                 
007367 bdf2          out_ EEARH,zh
007368 bde1          out_ EEARL,zl
                 
007369 9af8          sbi EECR,EERE
00736a 9508          ret
                 
                 .if WANT_UNIFIED == 1
                 .endif
                 .include "words/store-i.asm"
                 
                 ; System Value
                 ; Deferred action to write a single 16bit cell to flash
                 VE_STOREI:
00736b ff02          .dw $ff02
00736c 6921          .db "!i"
00736d 7357          .dw VE_HEAD
                     .set VE_HEAD = VE_STOREI
                 XT_STOREI:
00736e 7c16          .dw PFA_DODEFER1
                 PFA_STOREI:
00736f 006a          .dw EE_STOREI
007370 7bb7          .dw XT_EDEFERFETCH
007371 7bc1          .dw XT_EDEFERSTORE
                 .if FLASHEND > $10000
                 .else
                   .include "words/store-i_nrww.asm"
                 
                 ; Memory
                 ; writes n to flash memory using assembly code (code to be placed in boot loader section)
                 VE_DO_STOREI_NRWW:
007372 ff09          .dw $ff09
007373 2128
007374 2d69
007375 726e
007376 7777
007377 0029          .db "(!i-nrww)",0
007378 736b          .dw VE_HEAD
                     .set VE_HEAD = VE_DO_STOREI_NRWW
                 XT_DO_STOREI:
007379 737a          .dw PFA_DO_STOREI_NRWW
                 PFA_DO_STOREI_NRWW:
                   ; store status register
00737a b71f        in temp1,SREG
00737b 931f        push temp1
00737c 94f8        cli
                 
00737d 019c        movw temp2, tosl ; save the (word) address
00737e 9189
00737f 9199        loadtos          ; get the new value for the flash cell
007380 93af        push xl
007381 93bf        push xh
007382 93cf        push yl
007383 93df        push yh
007384 d009        rcall DO_STOREI_atmega
007385 91df        pop yh
007386 91cf        pop yl
007387 91bf        pop xh
007388 91af        pop xl
                   ; finally clear the stack
007389 9189
00738a 9199        loadtos
00738b 911f        pop temp1
                   ; restore status register (and interrupt enable flag)
00738c bf1f        out SREG,temp1
                 
00738d cc77        jmp_ DO_NEXT
                 
                 ; 
                 DO_STOREI_atmega:
                   ; write data to temp page buffer
                   ; use the values in tosl/tosh at the
                   ; appropiate place
00738e d011        rcall pageload
                 
                   ; erase page if needed
                   ; it is needed if a bit goes from 0 to 1
00738f 94e0        com temp4
007390 94f0        com temp5
007391 218e        and tosl, temp4
007392 219f        and tosh, temp5
007393 2b98        or tosh, tosl
007394 f021        breq DO_STOREI_writepage 
007395 94b3          inc erase_counter
007396 01f9          movw zl, temp2
007397 e002          ldi temp0,(1<<PGERS)
007398 d020          rcall dospm
                 
                 DO_STOREI_writepage:
                   ; write page
007399 01f9        movw zl, temp2
00739a e004        ldi temp0,(1<<PGWRT)
00739b d01d        rcall dospm
                 
                   ; reenable RWW section
00739c 01f9        movw zl, temp2
00739d e100        ldi temp0,(1<<RWWSRE)
00739e d01a        rcall dospm
00739f 9508        ret
                 
                 ; load the desired page
                 .equ pagemask = ~ ( PAGESIZE - 1 )
                 pageload:
0073a0 01f9        movw zl, temp2
                   ; get the beginning of page
0073a1 78e0        andi zl,low(pagemask)
0073a2 7fff        andi zh,high(pagemask)
0073a3 01ef        movw y, z
                   ; loop counter (in words)
0073a4 e8a0        ldi xl,low(pagesize)
0073a5 e0b0        ldi xh,high(pagesize)
                 pageload_loop:
                   ; we need the current flash value anyways
0073a6 01fe        movw z, y
0073a7 0fee
0073a8 1fff
0073a9 9145
0073aa 9155        readflashcell temp6, temp7 ; destroys Z
                   ; now check: if Z points to the same cell as temp2/3, we want the new data
0073ab 01fe        movw z, y
0073ac 17e2        cp zl, temp2
0073ad 07f3        cpc zh, temp3
0073ae f011        breq pageload_newdata
0073af 010a          movw r0, temp6
0073b0 c002          rjmp pageload_cont
                 pageload_newdata:
0073b1 017a          movw temp4, temp6
0073b2 010c          movw r0, tosl
                 pageload_cont:
0073b3 2700        clr temp0
0073b4 d004        rcall dospm
0073b5 9621        adiw y, 1
0073b6 9711        sbiw x, 1
0073b7 f771        brne pageload_loop
                 
                 pageload_done:
0073b8 9508        ret
                 
                 
                 ;; dospm
                 ;;
                 ;; execute spm instruction
                 ;;   temp0 holds the value for SPMCR
                 
                 dospm:
                 dospm_wait_ee:
0073b9 99f9        sbic EECR, EEPE
0073ba cffe        rjmp dospm_wait_ee
                 dospm_wait_spm:
0073bb b717        in_  temp1, SPMCSR
0073bc fd10        sbrc temp1, SPMEN
0073bd cffd        rjmp dospm_wait_spm
                 
                   ; turn the word addres into a byte address
0073be 0fee
0073bf 1fff        writeflashcell
                   ; execute spm
0073c0 6001        ori temp0, (1<<SPMEN)
0073c1 bf07        out_ SPMCSR,temp0
0073c2 95e8        spm
0073c3 9508        ret
                 .endif
                 .include "words/fetch-i.asm"
                 
                 ; Memory
                 ; read 1 cell from flash
                 VE_FETCHI:
0073c4 ff02          .dw $ff02
0073c5 6940          .db "@i"
0073c6 7372          .dw VE_HEAD
                     .set VE_HEAD = VE_FETCHI
                 XT_FETCHI:
0073c7 73c8          .dw PFA_FETCHI
                 PFA_FETCHI:
0073c8 01fc          movw zl, tosl
0073c9 0fee
0073ca 1fff
0073cb 9185
0073cc 9195          readflashcell tosl,tosh
0073cd cc37          jmp_ DO_NEXT
                 
                 .if AMFORTH_NRWW_SIZE>8000
                 .include "dict/core_8k.inc"
                 
                 .include "words/n_to_r.asm"
                 
                 ; Stack
                 ; move n items from data stack to return stack
                 VE_N_TO_R:
0073ce ff03          .dw $ff03
0073cf 3e6e
0073d0 0072          .db "n>r",0
0073d1 73c4          .dw VE_HEAD
                     .set VE_HEAD = VE_N_TO_R
                 XT_N_TO_R:
0073d2 73d3          .dw PFA_N_TO_R
                 PFA_N_TO_R:
0073d3 01fc          movw zl, tosl
0073d4 2f08          mov  temp0, tosl
                 PFA_N_TO_R1:
0073d5 9189
0073d6 9199          loadtos
0073d7 939f          push tosh
0073d8 938f          push tosl
0073d9 950a          dec temp0
0073da f7d1          brne PFA_N_TO_R1
0073db 93ef          push zl
0073dc 93ff          push zh
0073dd 9189
0073de 9199          loadtos
0073df cc25          jmp_ DO_NEXT
                 .include "words/n_r_from.asm"
                 
                 ; Stack
                 ; move n items from return stack to data stack
                 VE_N_R_FROM:
0073e0 ff03          .dw $ff03
0073e1 726e
0073e2 003e          .db "nr>",0
0073e3 73ce          .dw VE_HEAD
                     .set VE_HEAD = VE_N_R_FROM
                 XT_N_R_FROM:
0073e4 73e5          .dw PFA_N_R_FROM
                 PFA_N_R_FROM:
0073e5 939a
0073e6 938a          savetos
0073e7 91ff          pop zh
0073e8 91ef          pop zl
0073e9 2f0e          mov  temp0, zl
                 PFA_N_R_FROM1:
0073ea 918f          pop tosl
0073eb 919f          pop tosh
0073ec 939a
0073ed 938a          savetos
0073ee 950a          dec temp0
0073ef f7d1          brne PFA_N_R_FROM1
0073f0 01cf          movw tosl, zl
0073f1 cc13          jmp_ DO_NEXT
                 
                 .include "words/d-2star.asm"
                 
                 ; Arithmetics
                 ; shift a double cell left
                 VE_D2STAR:
0073f2 ff03          .dw $ff03
0073f3 3264
0073f4 002a          .db "d2*",0
0073f5 73e0          .dw VE_HEAD
                     .set VE_HEAD = VE_D2STAR
                 XT_D2STAR:
0073f6 73f7          .dw PFA_D2STAR
                 PFA_D2STAR:
0073f7 9109          ld temp0, Y+
0073f8 9119          ld temp1, Y+
0073f9 0f00          lsl temp0
0073fa 1f11          rol temp1
0073fb 1f88          rol tosl
0073fc 1f99          rol tosh
0073fd 931a          st -Y, temp1
0073fe 930a          st -Y, temp0
0073ff cc05          jmp_ DO_NEXT
                 .include "words/d-2slash.asm"
                 
                 ; Arithmetics
                 ; shift a double cell value right
                 VE_D2SLASH:
007400 ff03          .dw $ff03
007401 3264
007402 002f          .db "d2/",0
007403 73f2          .dw VE_HEAD
                     .set VE_HEAD = VE_D2SLASH
                 XT_D2SLASH:
007404 7405          .dw PFA_D2SLASH
                 PFA_D2SLASH:
007405 9109          ld temp0, Y+
007406 9119          ld temp1, Y+
007407 9595          asr tosh
007408 9587          ror tosl
007409 9517          ror temp1
00740a 9507          ror temp0
00740b 931a          st -Y, temp1
00740c 930a          st -Y, temp0
00740d cbf7          jmp_ DO_NEXT
                 .include "words/d-plus.asm"
                 
                 ; Arithmetics
                 ; add 2 double cell values
                 VE_DPLUS:
00740e ff02          .dw $ff02
00740f 2b64          .db "d+"
007410 7400          .dw VE_HEAD
                     .set VE_HEAD = VE_DPLUS
                 XT_DPLUS:
007411 7412          .dw PFA_DPLUS
                 PFA_DPLUS:
007412 9129          ld temp2, Y+
007413 9139          ld temp3, Y+
                 
007414 90e9          ld temp4, Y+
007415 90f9          ld temp5, Y+
007416 9149          ld temp6, Y+
007417 9159          ld temp7, Y+
                 
007418 0f24          add temp2, temp6
007419 1f35          adc temp3, temp7
00741a 1d8e          adc tosl, temp4
00741b 1d9f          adc tosh, temp5
                     
00741c 933a          st -Y, temp3
00741d 932a          st -Y, temp2
00741e cbe6          jmp_ DO_NEXT
                 .include "words/d-minus.asm"
                 
                 ; Arithmetics
                 ; subtract d2 from d1 
                 VE_DMINUS:
00741f ff02          .dw $ff02
007420 2d64          .db "d-"
007421 740e          .dw VE_HEAD
                     .set VE_HEAD = VE_DMINUS
                 XT_DMINUS:
007422 7423          .dw PFA_DMINUS
                 PFA_DMINUS:
007423 9129          ld temp2, Y+
007424 9139          ld temp3, Y+
                 
007425 90e9          ld temp4, Y+
007426 90f9          ld temp5, Y+
007427 9149          ld temp6, Y+
007428 9159          ld temp7, Y+
                 
007429 1b42          sub temp6, temp2
00742a 0b53          sbc temp7, temp3
00742b 0ae8          sbc temp4, tosl
00742c 0af9          sbc temp5, tosh
                 
00742d 935a          st -Y, temp7
00742e 934a          st -Y, temp6
00742f 01c7          movw tosl, temp4
